:100000000C9434000C9449000C9449000C94490061
:100010000C9449000C9449000C9449000C9449003C
:100020000C9449000C9449000C9449000C9449002C
:100030000C9449000C9449000C9449000C9449001C
:100040000C9449000C9449000C9449000C9449000C
:100050000C9449000C9449000C9449000C944900FC
:100060000C9449000C94490011241FBECFEFD8E036
:10007000DEBFCDBF11E0A0E0B1E0E6EFF5E002C0E9
:1000800005900D92AC30B107D9F70E947C020C9418
:10009000F9020C940000BF92CF92DF92EF92FF9290
:1000A0000F931F93CF93DF93B82EFB01D901E70184
:1000B0004115510531F40115110519F490E080E066
:1000C00054C084EA8093BC008091BC0087FFFCCFC1
:1000D0009091B900987F983009F09FC08B2D8E7F4A
:1000E0008093BB0084E88093BC008091BC0087FFB4
:1000F000FCCF9091B900987F9831B1F0903209F01F
:100100008CC088C080818093BB002093BC0080910C
:10011000BC0087FFFCCF9091B900987F41505040C0
:100120009832C9F4319601C024E84115510551F7C0
:1001300016C08C918093BB002093BC008091BC00C2
:1001400087FFFCCF9091B900987F01501040983202
:1001500011F4119605C0903309F05FC05BC024E82C
:100160000115110531F791E081E0C114D10409F4C2
:100170004EC0882311F428E001C020E184EA809376
:10018000BC008091BC0087FFFCCF9091B900987FA4
:10019000921709F042C081E0B82AB092BB0084E80F
:1001A0008093BC008091BC0087FFFCCF9091B90088
:1001B000987F903419F0983481F52CC00894C108C8
:1001C000D10824EC11C02093BC008091BC0087FFB3
:1001D000FCCF9091B900987F0894C108D108903560
:1001E000E1F48091BB008993C114D10461F784E8E4
:1001F0008093BC008091BC0087FFFCCF9091B90038
:10020000987F983551F48091BB00888302C0992370
:1002100021F090E084E98093BC00892FDF91CF9199
:100220001F910F91FF90EF90DF90CF90BF900895B6
:100230001092B9008093B8000895CF92DF92EF92A8
:10024000FF920F931F93DF93CF9300D0CDB7DEB70C
:100250001092B9008BE58093B8008EEF898381E519
:100260008A8380E560E070E040E050E09E012F5F0F
:100270003F4F02E010E0EE24FF24CC24DD240E9456
:100280004B0080E090E60197F1F70F900F90CF912F
:10029000DF911F910F91FF90EF90DF90CF90089525
:1002A000CF92DF92EF92FF920F931F93DF93CF9342
:1002B00000D00F92CDB7DEB78EEF898385E48A83B5
:1002C0001B8280E560E070E040E050E09E012F5F1F
:1002D0003F4F03E010E0EE24FF24CC24DD240E94F5
:1002E0004B0080E090E60197F1F70F900F900F9090
:1002F000CF91DF911F910F91FF90EF90DF90CF9002
:100300000895CF92DF92EF92FF920F931F93DF93A6
:10031000CF9300D00F92CDB7DEB78EEF898385E4FF
:100320008A8380E48B8380E560E070E040E050E009
:100330009E012F5F3F4F03E010E0EE24FF24CC240A
:10034000DD240E944B0080E090E60197F1F70F90CA
:100350000F900F90CF91DF911F910F91FF90EF9031
:10036000DF90CF900895CF92DF92EF92FF920F939C
:100370001F93DF93CF9300D00F92CDB7DEB78EEFF0
:10038000898385E48A8384E18B8380E560E070E083
:1003900040E050E09E012F5F3F4F03E010E0EE246D
:1003A000FF24CC24DD240E944B0080E090E60197DE
:1003B000F1F70F900F900F90CF91DF911F910F9158
:1003C000FF90EF90DF90CF900895CF92DF92EF9261
:1003D000FF920F931F93DF93CF9300D00F92CDB76F
:1003E000DEB78EEF898385E48A8384E58B8380E59D
:1003F00060E070E040E050E09E012F5F3F4F03E07F
:1004000010E0EE24FF24CC24DD240E944B0080E089
:1004100090E60197F1F70F900F900F90CF91DF9139
:100420001F910F91FF90EF90DF90CF900895CF92A2
:10043000DF92EF92FF920F931F939C018B0180E557
:1004400060E070E040E050E0EE24FF24CC24DD24A6
:100450000E944B0080E090E60197F1F71F910F9109
:10046000FF90EF90DF90CF9008959093C500809318
:10047000C400E1ECF0E0808188608083808180614D
:10048000808386E08093C2000895982F8091C000F9
:1004900085FFFCCF9093C60008958091C00087FF30
:1004A000FCCF8091C6000895CF92DF92EF92FF9229
:1004B0000F931F93282FE82FF92FDF010D900020B5
:1004C000E9F71197AE1BBF0B80E560E070E040E0FC
:1004D00050E0392F8D01EE24FF24CC24DD240E942E
:1004E0004B0080E090E60197F1F71F910F91FF908C
:1004F000EF90DF90CF9008959F92AF92BF92CF92EE
:10050000DF92EF92FF920F931F93DF93CF9300D070
:1005100000D0CDB7DEB784E090E09093C500809323
:10052000C4008091C10088608093C1008091C100A7
:1005300080618093C10086E08093C2000E941D010B
:10054000539A5B9A80E091E00E94540280E593EC1C
:1005500025EF30E0F9013197F1F70197D9F731E450
:10056000932E24E5A22E9DE0B92E6E010894C11CA5
:10057000D11C83E0E82EF12CEC0EFD1E8091C00012
:1005800085FFFCCF9092C6008091C00085FFFCCF14
:10059000A092C6008091C00085FFFCCFB092C6003B
:1005A0008091C00087FFFCCF1091C6008091C000F1
:1005B00087FFFCCF0091C6001F3421F48AE091E050
:1005C0000E945402812F992787FD90959A838983F1
:1005D000802F992787FD90959C838B83C60161E0CE
:1005E00070E00E941702C70161E070E00E941702EC
:0605F000C5CFF894FFCF17
:0C05F6007374617274696E6720004F001E
:00000001FF
