:100000000C9434000C9449000C9449000C94490061
:100010000C9449000C9449000C9449000C9449003C
:100020000C9449000C9449000C9449000C9449002C
:100030000C9449000C9449000C9449000C9449001C
:100040000C9449000C9449000C9449000C9449000C
:100050000C9449000C9449000C9449000C944900FC
:100060000C9449000C94490011241FBECFEFD8E036
:10007000DEBFCDBF11E0A0E0B1E0E8E6F8E002C0ED
:1000800005900D92AE32B107D9F70E94E4000C94AE
:1000900032040C9400009093C5008093C400E1ECFE
:1000A000F0E080818860808380818061808386E049
:1000B0008093C2000895982F8091C00085FFFCCFE7
:1000C0009093C6000895CF93DF93EC0105C0992764
:1000D00087FD90950E945B0089918823C1F7DF918D
:1000E000CF9108958091C00087FFFCCF8091C6001A
:1000F0000895529A5A988CEC9CEA0197F1F752981D
:100100004A9BFECF08954A99FECF4A9BFECF4A995B
:10011000FECF089540E050E020E030E063EA4A9BE3
:10012000FECF862F8A95F1F7C901880F991F4A9B48
:1001300003C09C01216001C09C014A99FECF4F5F22
:100140005F4F4830510559F7C90108950F931F9328
:10015000DF93CF9300D000D0CDB7DEB72DB73EB739
:10016000285030400FB6F8943EBF0FBE2DBFEDB7FC
:10017000FEB731968E010F5F1F4FADB7BEB7129617
:100180001C930E93119724E030E03383228320E008
:1001900031E035832483978386830E944D012DB7F8
:1001A0003EB7285F3F4F0FB6F8943EBF0FBE2DBF3E
:1001B000C8010E9463000F900F900F900F90CF9195
:1001C000DF911F910F910895CF92DF92EF92FF92EE
:1001D0000F931F93CF93DF938FE390E09093C5002D
:1001E0008093C4008091C10088608093C100809199
:1001F000C10080618093C10086E08093C20080E3EB
:1002000095E725EF30E0F9013197F1F70197D9F73C
:100210000E9479000E9483000E948A00EC010E94E3
:100220008A008C010E948A007C010E948A006C0175
:100230000E948A0098012C0F3D1F2E0D3F1D2C0D92
:100240003D1D8217930721F483E091E00E94630033
:1002500081E191E00E946300CE010E94A6008CE142
:1002600091E00E946300C8010E94A6008EE191E027
:100270000E94630080E291E00E946300C7010E9437
:10028000A6008CE191E00E946300C6010E94A600D6
:100290008EE191E00E946300FFCFAEE0B0E0E3E5C5
:1002A000F1E00C9409040D891E898F89988D97FFC0
:1002B00002C080E090E801979E838D831A830983B2
:1002C00086E08C839E01255E3F4FCE010196698DAD
:1002D0007A8DA9010E947E014D815E8157FD0AC081
:1002E0002F813885421753070CF49A01020F131F10
:1002F000F80110822E96E4E00C942504ABE0B0E007
:10030000E4E8F1E00C94FB033C012B015A01FC01F1
:1003100017821682838181FD03C06FEF7FEFC6C114
:100320009AE0892E1E010894211C311CF3012381BF
:10033000F20123FD859123FF81912F01882309F488
:10034000B2C1853239F423FD859123FF81912F01BC
:10035000853229F490E0B3010E947103E7CF982F12
:10036000FF24EE249924FFE1FF15D0F09B3269F0C1
:100370009C3228F4903259F0933291F40EC09D32A1
:1003800049F0903369F441E024C052E0F52A84E05A
:10039000F82A28C098E0F92A25C0E0E1FE2A22C008
:1003A000F7FC29C0892F80538A3070F4F6FE05C00F
:1003B000989C902C1124980E15C0E89CE02C1124D8
:1003C000E80EF0E2FF2A0EC09E3229F4F6FC6BC163
:1003D00040E4F42A07C09C3619F450E8F52A02C01C
:1003E000983649F4F20123FD959123FF91912F0155
:1003F000992309F0B8CF892F8554833018F08052A3
:10040000833038F444E050E0A40EB51E5FE3598316
:100410000FC0933631F0933779F0933509F056C019
:1004200020C0F5018081898342E050E0A40EB51E12
:10043000610101E010E012C0F501C080D180F6FC3E
:1004400003C06FEF7FEF02C0692D70E042E050E023
:10045000A40EB51EC6010E9466038C015FE7F5225B
:1004600014C0F501C080D180F6FC03C06FEF7FEFB0
:1004700002C0692D70E042E050E0A40EB51EC60136
:100480000E945B038C0150E8F52AF3FE07C01AC0F6
:1004900080E290E0B3010E947103EA948E2D90E017
:1004A00008171907A8F30EC0F601F7FC8591F7FEAF
:1004B00081916F0190E0B3010E947103E110EA9411
:1004C000015010400115110579F7EAC0943611F07A
:1004D000993669F5F7FE08C0F50120813181428126
:1004E000538184E090E00AC0F501808191819C01F4
:1004F000442737FD4095542F82E090E0A80EB91EA6
:100500009FE6F92257FF09C05095409530952195F7
:100510003F4F4F4F5F4FE0E8FE2ACA01B901A101EA
:100520002AE030E00E949D03D82ED21840C09537B3
:1005300029F41F2D1F7E2AE030E01DC01F2D197FDA
:100540009F3661F0903720F4983509F0ACC00FC0A9
:10055000903739F0983709F0A6C004C028E030E0A1
:100560000AC0106114FD146020E130E004C014FDE5
:10057000166020E132E017FF08C0F501608171814B
:100580008281938144E050E008C0F501808191812F
:10059000BC0180E090E042E050E0A40EB51EA10155
:1005A0000E949D03D82ED2188FE7F82EF122F6FE76
:1005B0000BC05EEFF522D91438F4F4FE07C0F2FC4C
:1005C00005C08FEEF82202C01D2D01C0192DF4FECA
:1005D0000DC0FE01ED0DF11D8081803319F499EEFF
:1005E000F92208C01F5FF2FE05C003C08F2D867878
:1005F00009F01F5F0F2DF3FC14C0F0FE0FC01E1595
:1006000010F09D2C0BC09D2C9E0C911A1E2D06C027
:1006100080E290E0B3010E9471031F5F1E15C0F3DA
:1006200004C01E1510F4E11A01C0EE2404FF0FC02F
:1006300080E390E0B3010E94710302FF1DC001FD41
:1006400003C088E790E00EC088E590E00BC0802FE3
:10065000867891F001FF02C08BE201C080E2F7FCD6
:100660008DE290E0B3010E94710306C080E390E048
:10067000B3010E9471039A94D914C0F3DA94F10182
:10068000ED0DF11D808190E0B3010E947103DD202A
:10069000A9F706C080E290E0B3010E947103EA94DA
:1006A000EE20C1F743CEF30166817781CB012B9613
:1006B000E2E10C941704FC010590615070400110B8
:1006C000D8F7809590958E0F9F1F0895FC0161507B
:1006D000704001900110D8F7809590958E0F9F1F64
:1006E00008950F931F93CF93DF938C01EB018B81C0
:1006F00081FF1BC082FF0DC02E813F818C819D81B7
:100700002817390764F4E881F9810193F983E883B4
:1007100006C0E885F985802F0995892B31F48E81F3
:100720009F8101969F838E8302C00FEF1FEFC80148
:10073000DF91CF911F910F910895FA01AA272830D8
:1007400051F1203181F1E8946F936E7F6E5F7F4F9E
:100750008F4F9F4FAF4FB1E03ED0B4E03CD0670F1A
:10076000781F891F9A1FA11D680F791F8A1F911D6D
:10077000A11D6A0F711D811D911DA11D20D009F4BD
:1007800068943F912AE0269F11243019305D3193FF
:10079000DEF6CF010895462F4770405D4193B3E0E8
:1007A0000FD0C9F7F6CF462F4F70405D4A3318F08F
:1007B000495D31FD4052419302D0A9F7EACFB4E040
:1007C000A6959795879577956795BA95C9F70097F8
:1007D0006105710508959B01AC010A2E0694579599
:1007E000479537952795BA95C9F7620F731F841FF0
:1007F000951FA01D08952F923F924F925F926F9286
:100800007F928F929F92AF92BF92CF92DF92EF92A0
:10081000FF920F931F93CF93DF93CDB7DEB7CA1B21
:10082000DB0B0FB6F894DEBF0FBECDBF09942A884C
:10083000398848885F846E847D848C849B84AA84F4
:10084000B984C884DF80EE80FD800C811B81AA8181
:10085000B981CE0FD11D0FB6F894DEBF0FBECDBF4C
:08086000ED010895F894FFCFAB
:10086800256400436F756E7473204D61746368214D
:100878000048756D69646974793A20002E000A0091
:0E08880054656D70657261747572653A20007A
:00000001FF
