:100000000C9434000C9451000C9451000C94510049
:100010000C94FA080C9451000C9451000C9451006B
:100020000C9451000C9451000C9451000C9451000C
:100030000C9451000C9451000C9451000C945100FC
:100040000C9451000C9451000C9451000C945100EC
:100050000C9451000C9451000C9451000C945100DC
:100060000C9451000C94510011241FBECFEFD8E026
:10007000DEBFCDBF16E0A0E0B1E0E6E6F6E402C0E8
:1000800005900D92A63AB107D9F716E0A6EAB6E0B8
:1000900001C01D92AD3DB107E1F70E94CF190C944C
:1000A00031230C9400009093C5008093C400E1ECD0
:1000B000F0E080818860808380818061808386E039
:1000C0008093C20008950895982F8091C00085FF05
:1000D000FCCF9093C6000895CF93DF93EC0105C049
:1000E000992787FD90950E94640089918823C1F724
:1000F000DF91CF9108958091C00087FFFCCF809160
:10010000C6000895BF92CF92DF92EF92FF920F93B5
:100110001F93CF93DF93B82EFB01D901E70141155F
:10012000510531F40115110519F490E080E054C037
:1001300084EA8093BC008091BC0087FFFCCF909143
:10014000B900987F983009F09FC08B2D8E7F8093E7
:10015000BB0084E88093BC008091BC0087FFFCCF8B
:100160009091B900987F9831B1F0903209F08CC02D
:1001700088C080818093BB002093BC008091BC002C
:1001800087FFFCCF9091B900987F41505040983242
:10019000C9F4319601C024E84115510551F716C044
:1001A0008C918093BB002093BC008091BC0087FFA2
:1001B000FCCF9091B900987F01501040983211F413
:1001C000119605C0903309F05FC05BC024E80115AB
:1001D000110531F791E081E0C114D10409F44EC05A
:1001E000882311F428E001C020E184EA8093BC0058
:1001F0008091BC0087FFFCCF9091B900987F921747
:1002000009F042C081E0B82AB092BB0084E8809334
:10021000BC008091BC0087FFFCCF9091B900987F13
:10022000903419F0983481F52CC00894C108D10895
:1002300024EC11C02093BC008091BC0087FFFCCF50
:100240009091B900987F0894C108D1089035E1F4E5
:100250008091BB008993C114D10461F784E8809335
:10026000BC008091BC0087FFFCCF9091B900987FC3
:10027000983551F48091BB00888302C0992321F006
:1002800090E084E98093BC00892FDF91CF911F918A
:100290000F91FF90EF90DF90CF90BF900895109254
:1002A000B9008093B8000895AF92BF92CF92DF92C9
:1002B000EF92FF920F931F937B01AA2797FDA095C2
:1002C000BA2FBC01CD010E94A51D20E030E040E125
:1002D00051E40E94CF1B20E030E040EA50E40E944D
:1002E000C91C5B016C010027F7FC0095102FC801A9
:1002F000B7010E94A51D20E030E040E151E40E94DA
:10030000CF1B20E030E040EA50E40E94C91C20E00E
:1003100030E040E251E40E94C91C9B01AC01C601DF
:10032000B5010E94A21B20E030E040E052E40E94B0
:10033000A21B0E94031E7093CB066093CA061F91F6
:100340000F91FF90EF90DF90CF90BF90AF90089506
:10035000529A5A9889E991E80197F1F752984A9B85
:10036000FECF08954A99FECF4A9BFECF4A99FECF11
:10037000089540E050E020E030E06AE74A9BFECF7D
:10038000862F8A95F1F7C901880F991F4A9B03C0F0
:100390009C01216001C09C014A99FECF4F5F5F4FD5
:1003A0004830510559F7C9010895CF92DF92EF9275
:1003B000FF920F931F93CF93DF9380E395E728EB92
:1003C00030E0F9013197F1F70197D9F70E94A801C0
:1003D0000E94B2010E94B9017C010E94B9018C0106
:1003E0000E94B9016C010E94B901EC010E94B9019F
:1003F0000E0D1F1D0C0D1D1D0C0F1D1F80179107CD
:1004000021F4C601BE010E945401DF91CF911F91DA
:100410000F91FF90EF90DF90CF900895569A5E98DD
:1004200008955E9A80E098E40197F1F7089580E0DE
:1004300098E40197F1F75E9808953B9880917C00CD
:10044000806480937C0080917C008F7780937C0017
:1004500080917C00806280937C0080917C0083602E
:1004600080937C0080917C00837F80937C008091CE
:100470007A00876080937A0080917A008068809308
:100480007A0080917A00806480937A0080917A006B
:1004900086FDFCCF8091790090E008950F931F9323
:1004A000569A5E985E9A00E018E4C8010197F1F749
:1004B0000E941D02F8013197F1F75E989093DC06D7
:1004C0008093DB061F910F9108952F923F924F92D8
:1004D0005F926F927F928F929F92AF92BF92CF92D4
:1004E000DF92EF92FF920F931F93DF93CF93CDB7DD
:1004F000DEB7C656D0400FB6F894DEBF0FBECDBFF4
:100500001092B9008DE18093B80080E395E728EB65
:1005100030E0F9013197F1F70197D9F783E090E0E6
:100520009A8B898B988B8F871E861D8681E090E041
:100530009C878B8784EB90E09A87898783EB90E098
:1005400098878F8381EA90E09E838D8380EA90E094
:100550009C838B8382EB90E09A83898382E5BE0142
:100560006F5F7F4F41E050E020E030E000E010E0BE
:10057000EBE2EE2EF12CEC0EFD1E91E0C92ED12CFB
:100580000E94820013E0612E712C6C0E7D1EBBE078
:100590004B2E512C4C0E5D1E82E5B30141E050E024
:1005A000920101E010E0AFE3EA2EF12CEC0EFD1E0B
:1005B0000E948200F5E02F2E312C2C0E3D1E82E58C
:1005C000B10141E050E09E01215F3F4FEE24FF2446
:1005D000CC24DD240E94820080E395E728EB30E004
:1005E000F9013197F1F70197D9F782E5B30141E0BD
:1005F00050E09E012F5E3F4F01E010E0E3E5EE2E5C
:10060000F12CEC0EFD1E91E0C92ED12C0E9482002F
:1006100080E395E728EB30E0F9013197F1F7019796
:10062000D9F717E0812E912C8C0E9D1EB7E1AB2ED1
:10063000B12CAC0EBD1E82E5B40141E050E020E0DB
:1006400030E000E010E07501A1E0CA2ED12C0E943C
:1006500082008F89803379F382E5BE01675F7F4F27
:1006600041E050E020E030E0F3E1EF2EF12CEC0E21
:10067000FD1EE4E0CE2ED12C0E94820082E5B30163
:1006800041E050E0920101E010E0EE24FF24CC2490
:10069000DD240E9482009C8980E0AB88BB24A82ACC
:1006A000B92A82E5B10141E050E09E01235F3F4F4E
:1006B0000E948200B092C806A092C706CA59DF4FB6
:1006C0000FB6F894DEBF0FBECDBFCF91DF911F9163
:1006D0000F91FF90EF90DF90CF90BF90AF909F90E1
:1006E0008F907F906F905F904F903F902F900895E4
:1006F0002F923F924F925F926F927F928F929F9232
:10070000AF92BF92CF92DF92EF92FF920F931F931F
:10071000DF93CF93CDB7DEB72E970FB6F894DEBF39
:100720000FBECDBF44245524B4E62B2E312C4114EA
:10073000510439F420914D0530914E053E872D87A7
:1007400011C031E04316510439F4409174055091C1
:1007500075055E874D8706C060919B0570919C056D
:100760007E876D87AD85BE851B968C91BAE08B0226
:10077000A0011124ED85FE858485992787FD90953C
:10078000480F591F405152408585E6856091CA0641
:100790007091CB066417750708F450C0992787FD40
:1007A0009095C0979C01A3E0220F331FAA95E1F713
:1007B000880F991F280F391F8E2F992787FD909535
:1007C000C097820F931F86179707D0F19C01240FC3
:1007D000351F36952795E0E3AD85BE859196EC9360
:1007E0004091CA065091CB06C90105974817590791
:1007F00080F0C90105968417950758F00F2EF0E098
:10080000EF2EF0E0FF2EF0E80F2FF0E41F2FF02D79
:1008100031C0C9010A974817590710F1265F3F4FA9
:1008200024173507E8F00F2EF0E0EF2EF0E0FF2E52
:10083000F0E60F2FF0E41F2FF02D1CC0E1E301C004
:10084000E2E3AD85BE859196EC930F2EF0E0EF2E9E
:10085000F0E0FF2EF0E00F2FFFE31F2FF02D0AC076
:100860000F2EF0E0EF2EF0E0FF2EF0E40F2FF0E47B
:100870001F2FF02DAD85BE8551968C915197C82EB6
:10088000DD24C7FCD094E0EDFFEFCE0EDF1E1F96F7
:100890008C911F97992787FD9095C0979C01229D69
:1008A000C001239D900D329D900D1124C80ED91EBC
:1008B00050968C915097992787FD9095C0979C01F1
:1008C00043E0220F331F4A95E1F7880F991F280F45
:1008D000391FC20ED31E52968C91529753963C915B
:1008E000539754962C9154976090DB067090DC06D9
:1008F0006C147D0408F462C0422F552747FD5095C3
:1009000040535040992787FD9095C097BC01629D48
:10091000C001639D900D729D900D1124480F591FC9
:10092000832F992787FD9095C0979C01E3E0220FC4
:10093000331FEA95E1F7880F991F280F391F420FDF
:10094000531F46155705D0F19A012C0D3D1D3695C4
:10095000279570E392967C934091DB065091DC06DC
:10096000C901C2974817590760F0C901C296841798
:10097000950738F0C801B70120E030E040E850E4C6
:1009800018C0C901865990404817590760F02A5687
:100990003F4F2417350738F0C801B70120E030E099
:1009A00040E650E406C0C801B70120E030E040E472
:1009B00050E40E94A21B4B015C0114C0C801B701A6
:1009C00020E030E040E05FE30E94A21B4B015C01AD
:1009D0006C147D0410F4E1E301C0E2E3AD85BE8553
:1009E0009296EC93AD85BE8555968C915597992737
:1009F00087FD9095C097E0E1F7E28E9F90018F9F71
:100A0000300D9E9F300D112459968C915997082FC7
:100A1000112707FD109500531040020F131F569623
:100A20008C915697992787FD9095C0979C0148EE29
:100A300053E0249FC001259F900D349F900D1124F9
:100A4000080F191F57968C915797992787FD9095F6
:100A5000C097BC01629DC001639D900D729D900D79
:100A60001124080F191F58968C915897992787FDC4
:100A70009095C0979C0153E0220F331F5A95E1F7E0
:100A8000880F991F280F391F020F131F5A968C9138
:100A90005A975B963C915B975C966C915C975D96E0
:100AA0007C915D975E962C91E090C706F090C80609
:100AB000E016F10608F483C0992787FD9095C0974A
:100AC000DC01AE9FC001AF9F900DBE9F900D112421
:100AD000422F552747FD509540535040480F591F0E
:100AE000832F992787FD9095C097FC0128EE33E06E
:100AF000E29FC001E39F900DF29F900D1124480FDB
:100B0000591F862F992787FD9095C097DC01A29DDC
:100B1000C001A39D900DB29D900D1124480F591F47
:100B2000872F992787FD9095C0979C01B3E0220FEE
:100B3000331FBA95E1F7880F991F280F391F420F0D
:100B4000531F4E155F05D8F19A01200F311F3695BE
:100B5000279540E3ED85FE8543A34091C70650915C
:100B6000C806C901C2974817590760F0C901C29663
:100B70008417950738F0C501B40120E030E040E06B
:100B800050E418C0C901865990404817590760F0D1
:100B90002A563F4F2417350738F0C501B40120E02D
:100BA00030E040EC5FE306C0C501B40120E030E076
:100BB00040E85FE30E94A21BE62F692F14C0C50125
:100BC000B40120E030E040E85EE30E94A21BE62F83
:100BD000692FE016F10610F4F1E301C0F2E3AD85F0
:100BE000BE859396FC934114510459F42E2F372F50
:100BF000482F562FC901DA0189879A87AB87BC87AE
:100C000019C021E04216510459F02E2F372F482FDA
:100C1000562FC901DA0189839A83AB83BC830AC04A
:100C20002E2F372F482F562FC901DA018D839E832F
:100C3000AF83B8870894411C511C33E0431651041C
:100C400009F075CD69857A858B859C852D813E81DE
:100C50004F8158850E94751D882314F169857A8516
:100C60008B859C8529813A814B815C810E94751D11
:100C700087FF03C023E391E330C06D817E818F81C4
:100C8000988529813A814B815C810E94751D87FF7F
:100C900003C023E392E302C022E393E381E322C093
:100CA0006D817E818F81988529813A814B815C811C
:100CB0000E94751D87FF03C022E391E312C0698182
:100CC0007A818B819C8129853A854B855C850E9440
:100CD000751D87FF04C021E393E382E303C021E392
:100CE00092E383E3E0914D05F0914E05878FE0910B
:100CF0007405F0917505278FE0919B05F0919C0597
:100D0000978F00914D0510914E0569857A858B85E9
:100D10009C850E94031E605DD80190966C930091A3
:100D20007405109175056D817E818F8198850E9473
:100D3000031E605DF80160A300919B0510919C0566
:100D400069817A818B819C810E94031E605DD8013C
:100D500090966C932E960FB6F894DEBF0FBECDBF63
:100D6000CF91DF911F910F91FF90EF90DF90CF9087
:100D7000BF90AF909F908F907F906F905F904F90BB
:100D80003F902F90089580E091E00E946C00809148
:100D9000C00085FFFCCF8DE08093C6008091C0002D
:100DA00085FFFCCF8AE08093C60090E340E050E0EE
:100DB00020E030E08091C00087FFFCCF8091C6002A
:100DC000823221F4913389F091E30AC0913311F01A
:100DD00090E306C0F901E153F94F80832F5F3F4F45
:100DE0004F5F5F4F4733510529F789E091E00E943B
:100DF0006C008091C00085FFFCCF8DE08093C60021
:100E00008091C00085FFFCCF8AE08093C60088E80F
:100E100093E128EB30E0F9013197F1F70197D9F729
:100E2000EFECF6E090818091C00085FFFCCF9093BD
:100E3000C600319686E0EA3DF807A1F78091C00030
:100E400085FFFCCF8DE08093C6008091C00085FFB8
:100E5000FCCF8AE08093C60088E893E128EB30E07D
:100E6000F9013197F1F70197D9F785E191E00E94F7
:100E70006C008091C00085FFFCCF8DE08093C600A0
:100E80008091C00085FFFCCF8AE08093C6008091EE
:100E9000C00085FFFCCF8DE08093C6008091C0002C
:100EA00085FFFCCF8AE08093C60088E893E128EBB9
:100EB00030E0F9013197F1F70197D9F78BE191E033
:100EC0000E946C008091C00085FFFCCF8DE0809374
:100ED000C6008091C00085FFFCCF8AE08093C600E9
:100EE00088E893E128EB30E0F9013197F1F70197B9
:100EF000D9F70895CF92DF92EF92FF920F931F934D
:100F0000DF93CF9300D0CDB7DEB71092B90082E463
:100F10008093B8008EEF898381E58A8380E560E065
:100F200070E040E050E09E012F5F3F4F02E010E094
:100F3000EE24FF24CC24DD240E94820080E098E48B
:100F40000197F1F70F900F90CF91DF911F910F91C3
:100F5000FF90EF90DF90CF900895CF92DF92EF92C5
:100F6000FF920F931F93DF93CF9300D00F92CDB7D3
:100F7000DEB78EEF898385E48A831B8280E560E09B
:100F800070E040E050E09E012F5F3F4F03E010E033
:100F9000EE24FF24CC24DD240E94820080E098E42B
:100FA0000197F1F70F900F900F90CF91DF911F9164
:100FB0000F91FF90EF90DF90CF900895CF92DF9246
:100FC000EF92FF920F931F93DF93CF9300D00F9276
:100FD000CDB7DEB78EEF898385E48A8380E48B8387
:100FE00080E560E070E040E050E09E012F5F3F4F01
:100FF00003E010E0EE24FF24CC24DD240E948200D4
:1010000080E098E40197F1F70F900F900F90CF9147
:10101000DF911F910F91FF90EF90DF90CF90089597
:10102000CF92DF92EF92FF920F931F93DF93CF93B4
:1010300000D00F92CDB7DEB78EEF898385E48A8327
:1010400084E18B8380E560E070E040E050E09E0149
:101050002F5F3F4F03E010E0EE24FF24CC24DD247B
:101060000E94820080E098E40197F1F70F900F90C2
:101070000F90CF91DF911F910F91FF90EF90DF9034
:10108000CF900895CF92DF92EF92FF920F931F932C
:10109000DF93CF9300D00F92CDB7DEB78EEF898369
:1010A00085E48A8384E58B8380E560E070E040E03E
:1010B00050E09E012F5F3F4F03E010E0EE24FF243D
:1010C000CC24DD240E94820080E098E40197F1F7AF
:1010D0000F900F900F90CF91DF911F910F91FF9084
:1010E000EF90DF90CF900895CF92DF92EF92FF9232
:1010F0000F931F939C018B0180E560E070E040E05E
:1011000050E0EE24FF24CC24DD240E94820080E005
:1011100098E40197F1F71F910F91FF90EF90DF9006
:10112000CF900895813311F482E305C0603311F04C
:1011300083E301C085E38093C906089586B1282F13
:101140002270382F34708091A9069091AA06892BBD
:1011500009F041C03323E9F42223C1F181E08093F7
:10116000DA062091AF063091B0068091B1069091D9
:10117000B2060197281739073CF42F5F3F4F309391
:10118000B0062093AF0619C01092B0061092AF06B9
:1011900014C0222321F582E08093DA068091AF0605
:1011A0009091B006009721F48091B1069091B2061B
:1011B00001979093B0068093AF0681E38093250555
:1011C00081E090E09093AA068093A90610922405EE
:1011D000109223050895332361F0222351F081E01A
:1011E00090E090932405809323051092AA06109214
:1011F000A90608951F920F920FB60F9211242F93F4
:101200003F934F935F936F937F938F939F93AF938E
:10121000BF93EF93FF930E949E0880E098E40197AC
:10122000F1F7FF91EF91BF91AF919F918F917F91D6
:101230006F915F914F913F912F910F900FBE0F9043
:101240001F901895CF92DF92EF92FF920F931F930A
:10125000282FE82FF92FDF010D900020E9F71197D3
:10126000AE1BBF0B80E560E070E040E050E0392F3E
:101270008D01EE24FF24CC24DD240E94820080E036
:1012800098E40197F1F71F910F91FF90EF90DF9095
:10129000CF9008956F927F928F929F92AF92BF925C
:1012A000CF92DF92EF92FF920F931F93DF93CF9332
:1012B0000F92CDB7DEB780912205803309F09BC035
:1012C0000E947A078EE191E00E942209CC24DD245D
:1012D000AA24BB243E010894611C711CC114D104D2
:1012E00029F4E0904D05F0904E050DC081E0C81640
:1012F000D10429F4E0907405F090750504C0E090E5
:101300009B05F0909C05F7018081813309F06AC04C
:1013100011E2812E912C8E0C9F1C81A1803339F417
:1013200082A1803321F483A1803309F458C00E9444
:10133000DE07F1E0AF16B10429F40E94100801E0C5
:1013400010E007C082E0A816B104C9F70E94420865
:10135000F6CFF701E00FF11F80818983C30161E0BF
:1013600070E00E9474080F5F1F4F0A30110589F763
:1013700083E391E00E942209F4018081803369F0C7
:10138000813319F485E391E002C087E391E00E9484
:10139000220989E391E00E942209F70182A18033AA
:1013A00069F0813319F485E391E002C087E391E0AD
:1013B0000E9422098CE391E00E942209F70183A197
:1013C000803369F0813319F485E391E002C087E34B
:1013D00091E00E9422098FE391E00E942209089483
:1013E000A11CB11C0894C11CD11CF3E0CF16D10480
:1013F00009F074CF12C00E947A0782E491E00E9443
:1014000022090E94DE0784E591E00E9422090E94E1
:10141000100889E691E00E94220980E593EC28EB10
:1014200030E0F9013197F1F70197D9F71899FECF1C
:1014300080E38093220583E38093C9060F90CF91C8
:10144000DF911F910F91FF90EF90DF90CF90BF90B1
:10145000AF909F908F907F906F9008954F925F9282
:101460007F928F929F92AF92BF92CF92DF92EF9234
:10147000FF920F931F93DF93CF9300D000D00F9272
:10148000CDB7DEB70E947A0781E090E09093B00676
:101490008093AF0620983A98399888B1866088B9C9
:1014A0008091680082608093680080916C00866003
:1014B00080936C00189BFECF789486B1982F927021
:1014C00082FD07C0992319F41092DA0609C081E061
:1014D00005C0992311F482E001C083E08093DA060D
:1014E0008091DA068093CE06E0914D05F0914E058D
:1014F0008081813321F071E0C72ED12C1FC08BE792
:1015000091E00E94220901E010E07E010894E11CB4
:10151000F11CE0914D05F0914E05E00FF11F808127
:101520008983C70161E070E00E9474080F5F1F4F5C
:101530000A30110571F762E0C62ED12CE0917405D6
:10154000F09175058081813329F582E0C816D104B8
:1015500011F40E94DE078BE791E00E94220901E06E
:1015600010E07E010894E11CF11CE0917405F091FB
:101570007505E00FF11F80818983C70161E070E08C
:101580000E9474080F5F1F4F0A30110571F708940D
:10159000C11CD11CE0919B05F0919C058081813399
:1015A00061F5E2E0CE16D10419F40E94DE0706C010
:1015B000F3E0CF16D10411F40E9410088BE791E0FC
:1015C0000E94220901E010E07E010894E11CF11C58
:1015D000E0919B05F0919C05E00FF11F80818983CC
:1015E000C70161E070E00E9474080F5F1F4F0A306E
:1015F000110571F70894C11CD11C82E0C816D104F2
:1016000019F40E94DE070DC0E3E0CE16D10419F4F0
:101610000E94100806C0F4E0CF16D10411F40E9415
:10162000420884E891E00E9422098091AF069091DF
:10163000B006009729F45BE8E52E51E0F52E3FC097
:1016400081309105B1F4A0904D05B0904E05F501A3
:101650008081813371F1A0907405B0907505F5011A
:101660008081813331F1E0909B05F0909C0557011A
:1016700026C082309105B1F4E0907405F0907505B4
:10168000F7018081813329F4AA24BB24AE14BF045E
:10169000B1F4E0909B05F0909C05F70180818133C7
:1016A00051F40DC0039739F4E0909B05F0909C0530
:1016B00006C0750104C080E090E09C017901D092E1
:1016C000B206C092B1068091AF069091B006009725
:1016D00009F05FC0F2E0CF16D10489F40E94AD0793
:1016E00083E391E00E9422090E94DE0786E991E0EF
:1016F0000E9422090E94100883E391E014C083E055
:10170000C816D10459F50E94AD0783E391E00E9409
:1017100022090E94DE0783E391E00E9422090E94D1
:10172000100886E991E00E9422090E94420883E3A2
:1017300091E00E9422094BE8E42E41E0F42EE0E320
:10174000ED83EC83EB83EA8331E0432E512C4E0191
:101750000894811C911C20E3722E66C2F4E0CF161F
:10176000D10449F70E94AD0783E391E00E9422096A
:101770000E94DE0783E391E00E9422090E94100884
:1017800083E391E00E9422090E94420886E991E0E9
:10179000D0CF8130910511F5A0904D05B0904E0548
:1017A000F5018081813371F0A0907405B0907505CA
:1017B000F5018081813331F0E0909B05F0909C052C
:1017C000570101C075010E94AD0786E991E00E94B2
:1017D00022090E94DE0783E391E01FC08230910559
:1017E00019F5E0917405F09175058081813319F444
:1017F000AE16BF0639F4E0919B05F0919C058081FF
:10180000813309F47F010E94AD0783E391E00E94D8
:1018100022090E94DE0786E991E00E9422090E94C7
:10182000100883E391E017C0039709F088CFE09098
:101830009B05F0909C050E94AD0783E391E00E9418
:1018400022090E94DE0783E391E00E9422090E94A0
:10185000100886E991E00E9422090E94420883E371
:1018600091E00E9422096BCF189910C18091A706C0
:101870009091A806892B09F009C15092A8064092C0
:10188000A706FBE8EF16F1E0FF0619F481E38C836D
:1018900019C080914D0590914E05E816F90671F03A
:1018A0008091740590917505E816F90639F08091DC
:1018B0009B0590919C05E816F90621F4F7017082CA
:1018C000F1E3FB83E0914D05F0914E05808181337A
:1018D00021F492E0C92ED12C03C081E0C82ED12C76
:1018E000E0917405F09175058081813319F40894B5
:1018F000C11CD11CE0919B05F0919C058081813336
:1019000019F40894C11CD11CD092B206C092B10641
:1019100090E0E0914D05F0914E058081803309F40F
:1019200091E020E0E0917405F091750580818033AD
:1019300009F421E09223292F30E040E050E0E091CB
:101940009B05F0919C058081803311F441E050E0CB
:1019500024233523232B11F081E38D83EC81E133A4
:1019600009F49AC00E947A07E0914D05F0914E0566
:1019700080818133E1F40E94AD078BE791E00E9402
:10198000220901E010E0E0914D05F0914E05E00FD5
:10199000F11F80818983C40161E070E00E947408B6
:1019A0000F5F1F4F0A30110571F7F1E3FA83E091E1
:1019B0007405F09175058081813309F583E0C816BF
:1019C000D10429F4EA81E13311F40E94DE078BE7A8
:1019D00091E00E94220901E010E0E0917405F0918D
:1019E0007505E00FF11F80818983C40161E070E01B
:1019F0000E9474080F5F1F4F0A30110571F7E091C4
:101A00009B05F0919C058081813329F5F3E0CF1689
:101A1000D10419F40E94DE0706C084E0C816D10480
:101A200011F40E9410088BE791E00E94220901E066
:101A300010E0E0919B05F0919C05E00FF11F808183
:101A40008983C40161E070E00E9474080F5F1F4F3A
:101A50000A30110571F7E2E0CE16D10419F40E94A4
:101A6000DE070DC0F3E0CF16D10419F40E94100870
:101A700006C084E0C816D10411F40E94420884E82C
:101A800091E00E9422090E94AD0706C0189B04C085
:101A90001092A8061092A70680912505813309F0BF
:101AA000C3C08091AF069091B006009709F051C075
:101AB000E2E0CE16D10489F40E94AD0783E391E001
:101AC0000E9422090E94DE0786E991E00E94220915
:101AD0000E94100883E391E014C0F3E0CF16D10414
:101AE000B9F40E94AD0783E391E00E9422090E94AD
:101AF000DE0783E391E00E9422090E94100886E934
:101B000091E00E9422090E94420883E391E01AC0FA
:101B100084E0C816D104C1F40E94AD0783E391E0CC
:101B20000E9422090E94DE0783E391E00E942209BD
:101B30000E94100883E391E00E9422090E9442085B
:101B400086E991E00E9422090BE8E02E01E0F02EE8
:101B500069C08130910511F5A0904D05B0904E05FA
:101B6000F5018081813371F0A0907405B090750506
:101B7000F5018081813331F0E0909B05F0909C0568
:101B8000570101C075010E94AD0786E991E00E94EE
:101B900022090E94DE0783E391E01FC08230910595
:101BA00019F5E0917405F09175058081813319F480
:101BB000AE16BF0639F4E0919B05F0919C0580813B
:101BC000813309F47F010E94AD0783E391E00E9415
:101BD00022090E94DE0786E991E00E9422090E9404
:101BE000100883E391E016C00397E1F4E0909B05B1
:101BF000F0909C050E94AD0783E391E00E942209CA
:101C00000E94DE0783E391E00E9422090E941008EF
:101C100086E991E00E9422090E94420883E391E054
:101C20000E94220970922505FC81F13321F08D81FB
:101C3000813309F019CEEB81E13339F4809121052C
:101C4000813319F480E380932105FD81F13311F490
:101C500082E304C08C81813319F483E38093C90645
:101C60000F900F900F900F900F90CF91DF911F91D9
:101C70000F91FF90EF90DF90CF90BF90AF909F902B
:101C80008F907F905F904F900895CF92DF92EF9268
:101C9000FF920F931F93DF93CF93CDB7DEB7C55657
:101CA000D0400FB6F894DEBF0FBECDBF8130910596
:101CB00029F4E0904D05F0904E050BC0029729F4F1
:101CC000E0907405F090750504C0E0909B05F090DD
:101CD0009C050E947A070E94AD0701E010E06E01AA
:101CE0000894C11CD11CF701E00FF11F808189838A
:101CF000C60161E070E00E9474080F5F1F4F0A3058
:101D0000110589F70E94DE0788E991E00E94220907
:101D1000D7011B968C918983C60161E070E00E9417
:101D20007408F70184858983C60161E070E00E9430
:101D300074088CE991E00E942209D7011D968C91CC
:101D40008983C60161E070E00E947408F70186850E
:101D50008983C60161E070E00E94740883E391E02A
:101D60000E9422098DB79EB708970FB6F8949EBFC0
:101D70000FBE8DBFEDB7FEB731968E010E5F1F4FC0
:101D8000ADB7BEB712961C930E93119784E690E000
:101D9000938382838EE991E0958384838091CA0640
:101DA0009091CB06978386830E948320EDB7FEB780
:101DB00038960FB6F894FEBF0FBEEDBFC8010E9463
:101DC00022090E94100881EA91E00E9422090FE096
:101DD00010E06E010894C11CD11CF701E00FF11F47
:101DE00080818983C60161E070E00E9474080F5F02
:101DF0001F4F0231110589F78CE991E00E942209F9
:101E00006E010894C11CD11CF701E00FF11F808105
:101E10008983C60161E070E00E9474080F5F1F4F64
:101E20000531110589F783E391E00E9422098DB7FE
:101E30009EB708970FB6F8949EBF0FBE8DBFEDB743
:101E4000FEB731968E010E5F1F4FADB7BEB712962B
:101E50001C930E93119784E690E0938382838EE91E
:101E600091E0958384838091DB069091DC069783D3
:101E700086830E948320EDB7FEB738960FB6F8949C
:101E8000FEBF0FBEEDBFC8010E9422090E9442089A
:101E900085EA91E00E94220906E110E06E010894B3
:101EA000C11CD11CF701E00FF11F80818983C6019D
:101EB00061E070E00E9474080F5F1F4F0A31110546
:101EC00089F78CE991E00E9422090BE110E06E0194
:101ED0000894C11CD11CF701E00FF11F8081898398
:101EE000C60161E070E00E9474080F5F1F4F0F3160
:101EF000110589F783E391E00E9422098DB79EB70F
:101F000008970FB6F8949EBF0FBE8DBFEDB7FEB712
:101F100031968E010E5F1F4FADB7BEB712961C9360
:101F20000E93119784E690E0938382838EE991E08B
:101F3000958384838091C7069091C8069783868392
:101F40000E948320EDB7FEB738960FB6F894FEBF17
:101F50000FBEEDBFC8010E9422091899FECFCB59D0
:101F6000DF4F0FB6F894DEBF0FBECDBFCF91DF912C
:101F70001F910F91FF90EF90DF90CF9008950F93F6
:101F80001F93CF93DF930E947A0789EA91E00E9422
:101F900022090E94DE078AEB91E00E9422090E943A
:101FA00010088CEC91E00E9422090E9442088CEDFE
:101FB00091E00E9422091092B0061092AF0683E0D1
:101FC00090E09093B2068093B10620983A983998A1
:101FD00088B1866088B980916800826080936800CB
:101FE00080916C00866080936C00789486B1982F05
:101FF000927082FD07C0992319F41092DA0609C085
:1020000081E005C0992311F482E001C083E0809350
:10201000DA068091DA068093CE06189BFECF0E94E6
:10202000DE0786E991E00E94220900E3C1E0D0E0EA
:1020300018990CC08091A7069091A806892B31F4BD
:10204000D093A806C093A70611E307C0189B04C04D
:102050001092A8061092A70610E3809125058133FF
:10206000C1F58091AF069091B006009759F40E9497
:10207000DE0786E991E00E9422090E94100883E3AE
:1020800091E00CC0019789F40E94DE0783E391E0A0
:102090000E9422090E94100886E991E00E9422090C
:1020A0000E94420883E391E010C00E94DE0783E3B0
:1020B00091E00E9422090E94100883E391E00E94AF
:1020C00022090E94420886E991E00E9422090093B9
:1020D0002505103309F4ACCF8091AF069091B0067E
:1020E0008230910511F487E312C08130910511F41B
:1020F00084E30DC0892B69F480912105803311F4AC
:1021000082E305C0813329F48093220586E380931E
:10211000C906DF91CF911F910F9108950E947A0710
:10212000539A5B9A83E090E09093C5008093C4003B
:102130008091C10088608093C1008091C10080615E
:102140008093C10086E08093C2008FEE91E00E94F0
:102150006C008091C00085FFFCCF8DE08093C600AD
:102160008091C00085FFFCCF8AE08093C60088EE96
:1021700093E028EB30E0F9013197F1F70197D9F7B7
:1021800082EF91E00E946C008091C00085FFFCCF3F
:102190008DE08093C6008091C00085FFFCCF8AE06F
:1021A0008093C60088EE93E028EB30E0F901319788
:1021B000F1F70197D9F78EEF91E00E946C008091C2
:1021C000C00085FFFCCF8DE08093C6008091C000E9
:1021D00085FFFCCF8AE08093C60088EE93E028EB71
:1021E00030E0F9013197F1F70197D9F787E092E0F4
:1021F0000E946C008091C00085FFFCCF8DE0809331
:10220000C6008091C00085FFFCCF8AE08093C600A5
:1022100080E593EC28EB30E0F9013197F1F7019775
:10222000D9F78EE092E00E946C008091C00085FF9B
:10223000FCCF8DE08093C6008091C00085FFFCCF6D
:102240008AE08093C60080E29EE428EB30E0F9014A
:102250003197F1F70197D9F70E947A078FE292E060
:102260000E946C008091C00085FFFCCF8DE08093C0
:10227000C6008091C00085FFFCCF8AE08093C60035
:1022800089E392E00E94220980E593EC28EB30E09C
:10229000F9013197F1F70197D9F70E94C30680E55C
:1022A00093EC28EB30E0F9013197F1F70197D9F77A
:1022B00088E492E00E946C008091C00085FFFCCF12
:1022C0008DE08093C6008091C00085FFFCCF8AE03E
:1022D0008093C60088E893E128EB30E0F90131975C
:1022E000F1F70197D9F784E592E00E946C008091A4
:1022F000C00085FFFCCF8DE08093C6008091C000B8
:1023000085FFFCCF8AE08093C60080E197E228EB4E
:1023100030E0F9013197F1F70197D9F780E892E0C1
:102320000E946C008091C00085FFFCCF8DE08093FF
:10233000C6008091C00085FFFCCF8AE08093C60074
:1023400080E29EE428EB30E0F9013197F1F7019744
:10235000D9F780E992E00E946C00EFECF6E0908102
:102360008091C00085FFFCCF9093C600319686E037
:10237000EA3DF807A1F78091C00085FFFCCF8DE012
:102380008093C6008091C00085FFFCCF8AE08093D7
:10239000C60080E29EE428EB30E0F9013197F1F7C6
:1023A0000197D9F786E992E00E946C008091C00005
:1023B00085FFFCCF8DE08093C6008091C00085FF33
:1023C000FCCF8AE08093C60088E893E128EB30E0F8
:1023D000F9013197F1F70197D9F786EA92E00E9467
:1023E0006C008091C00085FFFCCF8DE08093C6001B
:1023F0008091C00085FFFCCF8AE08093C60080E515
:1024000093EC28EB30E0F9013197F1F70197D9F718
:1024100081EB92E00E946C008091C00085FFFCCFB0
:102420008DE08093C6008091C00085FFFCCF8AE0DC
:102430008093C60080E29EE428EB30E0F9013197FA
:10244000F1F70197D9F781EC92E00E946C0080913E
:10245000C00085FFFCCF8DE08093C6008091C00056
:1024600085FFFCCF8AE08093C60080E593EC28EBE3
:1024700030E0F9013197F1F70197D9F786ED92E055
:102480000E946C008091C00085FFFCCF8DE080939E
:10249000C6008091C00085FFFCCF8AE08093C60013
:1024A00080E29EE428EB30E0F9013197F1F70197E3
:1024B000D9F786EE92E00E946C008091C00085FF03
:1024C000FCCF8DE08093C6008091C00085FFFCCFDB
:1024D0008AE08093C6000E9410088FEF92E00E946D
:1024E000220980E593EC28EB30E0F9013197F1F710
:1024F0000197D9F708958F929F92AF92BF92CF9292
:10250000DF92EF92FF920F931F93DF93CF930F927F
:10251000CDB7DEB783E38093C9060E947A0783E1D3
:1025200093E00E9422090E947803A0904D05B0908C
:102530004E05F501878D8133A1F0A0907405B09010
:102540007505F501878D813361F0A0909B05B090F2
:102550009C05F501878D813321F080E090E09C019E
:1025600059010E94DE0783E391E00E9422098DE178
:1025700093E00E94220901E010E07E010894E11C32
:10258000F11CF501E00FF11F80818983C70161E033
:1025900070E00E9474080F5F1F4F0A30110589F721
:1025A00083E391E00E942209F50180A18983C7019C
:1025B00061E070E00E94740881E293E00E942209C9
:1025C000C0904D05D0904E05F601878D8233A1F065
:1025D000C0907405D0907505F601878D823361F047
:1025E000C0909B05D0909C05F601878D823321F029
:1025F00080E090E09C0169010E94100883E391E073
:102600000E94220987E293E00E94220901E010E083
:102610007E010894E11CF11CF601E00FF11F80819E
:102620008983C70161E070E00E9474080F5F1F4F4B
:102630000A30110589F783E391E00E942209F6012F
:1026400080A18983C70161E070E00E94740881E283
:1026500093E00E9422090E94420883E391E00E94D5
:1026600022098BE293E00E942209E0904D05F09050
:102670004E05F701878D8333A1F0E0907405F0904B
:102680007505F701878D833361F0E0909B05F0902D
:102690009C05F701878D833321F080E090E09C0159
:1026A000790101E010E04E010894811C911CF701B2
:1026B000E00FF11F80818983C40161E070E00E9416
:1026C00074080F5F1F4F0A30110589F783E391E00B
:1026D0000E942209F70180A18983C40161E070E0B2
:1026E0000E94740881E293E00E94220983E090E056
:1026F0009093B2068093B1061092B0061092AF0686
:1027000020983A98399888B1866088B98091680095
:1027100082608093680080916C00866080936C007A
:10272000789486B1982F927082FD07C0992319F48E
:102730001092DA0609C081E005C0992311F482E005
:1027400001C083E08093DA068091DA068093CE069A
:102750000E94DE0786E991E00E942209950100E3CC
:10276000E1E08E2E912C18990CC08091A7069091D3
:10277000A806892B31F49092A8068092A70611E34F
:1027800007C0189B04C01092A8061092A70610E379
:1027900080912505813309F045C08091AF06909165
:1027A000B0060097A1F40E94DE0786E991E00E943E
:1027B00022090E94100883E391E00E9422090E94EE
:1027C000420883E391E00E942209950129C0019704
:1027D000A1F40E94DE0783E391E00E9422090E9497
:1027E000100886E991E00E9422090E94420883E3D2
:1027F00091E00E942209960113C00E94DE0783E344
:1028000091E00E9422090E94100883E391E00E9457
:1028100022090E94420886E991E00E94220997015C
:1028200000932505103309F49ECF80914D059091BA
:102830004E052817390749F481E090E00E94450EC3
:10284000E0914D05F0914E051FC080917405909167
:1028500075052817390749F482E090E00E94450E7B
:10286000E0917405F09175050FC080919B059091E2
:102870009C052817390751F483E090E00E94450E2B
:10288000E0919B05F0919C0581E3808390E0E091CD
:102890004D05F0914E058081813309F491E020E0EF
:1028A000E0917405F09175058081813309F421E090
:1028B0009223292F30E040E050E0E0919B05F09119
:1028C0009C058081813311F441E050E024233523BD
:1028D000232B19F081E38093210583E38093C906BC
:1028E0000F90CF91DF911F910F91FF90EF90DF90AC
:1028F000CF90BF90AF909F908F9008950E947A07DD
:102900000E94DE078FE293E00E94220980E593ECAB
:1029100028EB30E0F9013197F1F70197D9F780E022
:1029200090E020E030E0019647E28031940721F406
:102930002F5F3F4F80E090E02E31310511F040E3F2
:1029400041C00E94D5010E944E020E9465020E9471
:102950007803E0914D05F0914E058081813349F473
:1029600081A1803341F482A1803329F483A1803393
:1029700011F440E301C041E3E0917405F091750565
:102980008081813351F481A1803331F482A180337D
:1029900019F483A1803309F041E3E0919B05F091A4
:1029A0009C058081813351F481A1803331F482A16F
:1029B000803319F483A1803309F041E380E090E093
:1029C00020E030E0189903C0413331F403C04033B4
:1029D00009F4A9CF88E301C083E38093C906089571
:1029E0000F931F930E947A070E94DE0783E493E00F
:1029F0000E9422090E94D5010E94100887E593E0F9
:102A00000E9422090AE513E0C8010E9422090E94DF
:102A10004E02C8010E9422090E946502C8010E945C
:102A2000220985E38093C9061F910F910895DC0167
:102A30000D900020E9F7A81BB90B179620E030E0B5
:102A40000AC08091C00087FFFCCF8091C6008B3404
:102A500029F02F5F3F4F2A173B079CF381E693E055
:102A60000E9422090895DF93CF93CDB7DEB7EE978A
:102A70000FB6F894DEBF0FBECDBF0E947A0784E682
:102A800093E00E94220984E793E00E946C00809109
:102A9000C00085FFFCCF8DE08093C6008091C00010
:102AA00085FFFCCF8AE08093C60084E793E00E9414
:102AB000171580E593EC28EB30E0F9013197F1F739
:102AC0000197D9F783E893E00E94220987E893E011
:102AD0000E946C008091C00085FFFCCF8DE0809348
:102AE000C6008091C00085FFFCCF8AE08093C600BD
:102AF00080E593EC28EB30E0F9013197F1F701978D
:102B0000D9F70E947A0789E893E00E94220989E9AF
:102B100093E00E946C008091C00085FFFCCF8DE0A7
:102B20008093C6008091C00085FFFCCF8AE080932F
:102B3000C60089E993E00E94171580E593EC28EB25
:102B400030E0F9013197F1F70197D9F788EA93E07E
:102B50000E9422098FEA93E00E946C008091C000DD
:102B600085FFFCCF8DE08093C6008091C00085FF7B
:102B7000FCCF8AE08093C600DE011196FD019E0124
:102B8000215E3F4F8091C00087FFFCCF8091C6003F
:102B90008193E217F307B1F79E012D5C3F4F8091BF
:102BA000C00087FFFCCF8091C6008D93A217B307AA
:102BB000B1F7CE01019662E370E00E9474088FEFD6
:102BC0009FEF28EB30E0F9013197F1F70197D9F742
:102BD000EE960FB6F894DEBF0FBECDBFCF91DF915A
:102BE0000895EF92FF920F931F93DF93CF93CDB78A
:102BF000DEB7E2970FB6F894DEBF0FBECDBF0E94DE
:102C00007A0784EB93E00E94220982EC93E00E9411
:102C1000220984EB93E00E946C0086EC93E00E9412
:102C20006C008091C00085FFFCCF8DE08093C600D2
:102C30008091C00085FFFCCF8AE08093C60089ECBC
:102C400093E00E94171580E593EC28EB30E0F90142
:102C50003197F1F70197D9F789ED93E00E942209A6
:102C600085EE93E00E946C008091C00085FFFCCF50
:102C70008DE08093C6008091C00085FFFCCF8AE084
:102C80008093C6008E010F5F1F4F78019E012B5E5F
:102C90003F4F8091C00087FFFCCF8091C600F701B5
:102CA00081937F01E217F307A1F7CE01019664E15A
:102CB00070E00E94740880E593EC28EB30E0F901A5
:102CC0003197F1F70197D9F70E947A0784EB93E0E7
:102CD0000E94220981E094E00E94220984EB93E0A3
:102CE0000E946C0081E094E00E946C008091C00022
:102CF00085FFFCCF8DE08093C6008091C00085FFEA
:102D0000FCCF8AE08093C60084E094E00E9417150F
:102D100080E593EC28EB30E0F9013197F1F701976A
:102D2000D9F784E194E00E9422098EE194E00E94A8
:102D30006C008091C00085FFFCCF8DE08093C600C1
:102D40008091C00085FFFCCF8AE08093C600F80127
:102D50008091C00087FFFCCF8091C6008193EE1563
:102D6000FF05B1F79E01275D3F4F8091C00087FFAF
:102D7000FCCF8091C600F80181938F01E217F30721
:102D8000A1F7CE01019668E270E00E94740880E528
:102D900093EC28EB30E0F9013197F1F70197D9F77F
:102DA0000E947A0784EB93E00E94220988E394E072
:102DB0000E94220984EB93E00E946C0088E394E077
:102DC0000E946C008091C00085FFFCCF8DE0809355
:102DD000C6008091C00085FFFCCF8AE08093C600CA
:102DE00089E993E00E94171580E593EC28EB30E029
:102DF000F9013197F1F70197D9F78AE394E00E943E
:102E0000220980E494E00E946C008091C00085FF5C
:102E1000FCCF8DE08093C6008091C00085FFFCCF81
:102E20008AE08093C60080E593EC28EB30E0F9015E
:102E30003197F1F70197D9F70E947A0784EB93E075
:102E40000E94220985E494E00E94220984EB93E029
:102E50000E946C0085E494E00E946C008091C000A8
:102E600085FFFCCF8DE08093C6008091C00085FF78
:102E7000FCCF8AE08093C60088E494E00E94171596
:102E800080E593EC28EB30E0F9013197F1F70197F9
:102E9000D9F788E594E00E94220980E794E00E9437
:102EA0006C008091C00085FFFCCF8DE08093C60050
:102EB0008091C00085FFFCCF8AE08093C60080E54A
:102EC00093EC28EB30E0F9013197F1F70197D9F74E
:102ED0000E947A0784EB93E00E94220987E894E03D
:102EE0000E94220984EB93E00E946C0087E894E042
:102EF0000E946C008091C00085FFFCCF8DE0809324
:102F0000C6008091C00085FFFCCF8AE08093C60098
:102F100089E894E00E94171580E593EC28EB30E0F7
:102F2000F9013197F1F70197D9F788E994E00E9408
:102F3000220988E994E00E946C008091C00085FF1E
:102F4000FCCF8DE08093C6008091C00085FFFCCF50
:102F50008AE08093C60080E593EC28EB30E0F9012D
:102F60003197F1F70197D9F7E2960FB6F894DEBFE3
:102F70000FBECDBFCF91DF911F910F91FF90EF90CA
:102F800008954F925F926F927F928F929F92AF922D
:102F9000BF92CF92DF92EF92FF920F931F93DF9336
:102FA000CF93CDB7DEB72A970FB6F894DEBF0FBE2A
:102FB000CDBF0E94F115AA24BB243E010894611CD8
:102FC000711C4EE9442E41E0542E3DE0832E2AE050
:102FD000922E98EBC92ED12CA114B10429F40091A2
:102FE0004D0510914E050DC081E0A816B10429F4DD
:102FF000009174051091750504C000919B05109116
:103000009C05D8018C91813309F0A5C181E2E82E9D
:10301000F12CE00EF11E91968C919197803351F432
:1030200092968C919297803329F493968C91803369
:1030300009F491C145E050E021E030E0F801E20FF1
:10304000F31F8081803211F04F5F5F4F2F5F3F4F42
:103050002A30310599F7EDB7FEB738970FB6F894D7
:10306000FEBF0FBEEDBF3196ADB7BEB712967C92D4
:103070006E9211973383228355824482578346830D
:103080000E948320EDB7FEB738960FB6F894FEBFC6
:103090000FBEEDBF84EB93E00E946C00C3010E9461
:1030A0006C008091C00085FFFCCF8092C6008091AB
:1030B000C00085FFFCCF9092C60080E29EE4F6013E
:1030C0003197F1F70197D9F721E030E0F801E20FED
:1030D000F31FE081E03231F08091C00085FFFCCF2A
:1030E000E093C6002F5F3F4F2A30310579F78EE914
:1030F00094E00E946C008091C00085FFFCCF80921C
:10310000C6008091C00085FFFCCF9092C60080E58C
:1031100093ECF6013197F1F70197D9F7D7018C912C
:10312000803309F456C084EB93E00E946C0082EA7D
:1031300094E00E946C008091C00085FFFCCF8092DB
:10314000C6008091C00085FFFCCF9092C60080E24F
:103150009EE4F6013197F1F70197D9F7F7018081E5
:103160008133E1F485EA94E00E946C008FEA94E0F8
:103170000E946C008091C00085FFFCCF8092C60049
:103180008091C00085FFFCCF9092C60080E593EC53
:10319000F6013197F1F70197D9F71BC08CEB94E05A
:1031A0000E946C008FEA94E00E946C008091C00045
:1031B00085FFFCCF8092C6008091C00085FFFCCFC8
:1031C0009092C60080E593ECF6013197F1F70197F4
:1031D000D9F7A2E2EA2EF12CE00EF11ED801929668
:1031E0008C91803309F456C084EB93E00E946C000C
:1031F00086EC94E00E946C008091C00085FFFCCFBB
:103200008092C6008091C00085FFFCCF9092C600DE
:1032100080E29EE4F6013197F1F70197D9F7F701C3
:1032200080818133E1F485EA94E00E946C0089ECAE
:1032300094E00E946C008091C00085FFFCCF8092DA
:10324000C6008091C00085FFFCCF9092C60080E54B
:1032500093ECF6013197F1F70197D9F71BC08CEB8E
:1032600094E00E946C0089EC94E00E946C008091D4
:10327000C00085FFFCCF8092C6008091C00085FF12
:10328000FCCF9092C60080E593ECF6013197F1F700
:103290000197D9F7F3E2EF2EF12CE00EF11ED801E1
:1032A00093968C91803309F456C084EB93E00E948E
:1032B0006C0083ED94E00E946C008091C00085FF5B
:1032C000FCCF8092C6008091C00085FFFCCF909219
:1032D000C60080E29EE4F6013197F1F70197D9F735
:1032E000F70180818133E1F485EA94E00E946C006B
:1032F00086ED94E00E946C008091C00085FFFCCFB9
:103300008092C6008091C00085FFFCCF9092C600DD
:1033100080E593ECF6013197F1F70197D9F71BC0DF
:103320008CEB94E00E946C0086ED94E00E946C00AF
:103330008091C00085FFFCCF8092C6008091C000C4
:1033400085FFFCCF9092C60080E593ECF6013197A3
:10335000F1F70197D9F70894A11CB11CF3E0AF165F
:10336000B10409F039CE0E94331586E38093C90673
:103370002A960FB6F894DEBF0FBECDBFCF91DF9176
:103380001F910F91FF90EF90DF90CF90BF90AF9083
:103390009F908F907F906F905F904F9008951F93B4
:1033A0000E948E100E947A0782EE94E00E94220909
:1033B0000E94DE0787EF94E00E9422090E94100815
:1033C0008CE095E00E9422090E94420882EE94E07F
:1033D0000E94220980E395E728EB30E0F90131975C
:1033E000F1F70197D9F781E38093C90612E3809141
:1033F000C9068433F1F085333CF4823389F083339A
:1034000094F48133B1F709C08633B1F0863374F098
:103410008733A9F0883369F715C01093C906E7CF41
:103420000E94F014E4CF0E94BF0FE1CF0E947B12F4
:10343000DECF0E942E0ADBCF0E944A09D8CF0E941D
:103440007E14D5CF0E94C117D2CFA0E0B0E0EBE24E
:10345000FAE10C944C20DC012B01FA019C91923092
:1034600008F439C1EB018881823008F433C194300B
:1034700069F4843009F02FC111969C9111978981CC
:10348000981709F428C1ADE9B5E025C1843009F4E5
:1034900021C18230A9F4923009F01DC19A01AD0119
:1034A00088E0EA010990AE01E90109929E0181508C
:1034B000C1F7E201898111969C918923818308C11A
:1034C000923009F407C112962D903C901397EB01AE
:1034D0008A819B811496AD90BD90CD90DC9017971A
:1034E000EC80FD800E811F819101281B390BB901F1
:1034F00037FF04C066277727621B730B60327105A4
:103500000CF061C0121613066CF537014801062E47
:1035100004C096948794779467940A94D2F721E034
:1035200030E040E050E004C0220F331F441F551F1D
:103530006A95D2F721503040404050402E213F2123
:1035400040235123211531054105510521F021E08A
:1035500030E040E050E079018A01E628F7280829A8
:1035600019293CC0232BD1F1260E371E3501460107
:10357000062E04C096948794779467940A94D2F7A1
:1035800021E030E040E050E004C0220F331F441F30
:10359000551F6A95D2F721503040404050402A21B3
:1035A0003B214C215D21211531054105510521F0BB
:1035B00021E030E040E050E059016A01A628B72838
:1035C000C828D9280BC0821593052CF01C01AA2409
:1035D000BB24650103C0EE24FF24870111969C9152
:1035E000D20111968C91981709F445C0992339F0AE
:1035F000A80197012A193B094C095D0906C0A601DB
:1036000095012E193F09400B510B57FD08C011823F
:103610003382228224833583468357831DC081E011
:1036200081833382228288279927DC01821B930BB6
:10363000A40BB50B84839583A683B7830DC0220F9B
:10364000331F441F551F248335834683578382814C
:1036500093810197938382832481358146815781A9
:10366000DA01C9010197A109B1098F5F9F4FAF4FDF
:10367000BF4328F30BC0918333822282EA0CFB1CE8
:103680000C1D1D1DE482F5820683178383E0808371
:10369000248135814681578157FF1AC0C901AA2765
:1036A00097FDA095BA2F81709070A070B07056955C
:1036B000479537952795822B932BA42BB52B848385
:1036C0009583A683B78382819381019693838283B6
:1036D000DF0101C0D201CD01CDB7DEB7E2E10C942C
:1036E0006820A0E2B0E0E7E7FBE10C945820698392
:1036F0007A838B839C832D833E834F835887E9E0B5
:10370000EE2EF12CEC0EFD1ECE010196B7010E94AB
:103710007B1F8E010F5E1F4FCE010596B8010E94E0
:103720007B1F8A8991E089278A8BC701B801AE0186
:10373000475E5F4F0E94251A0E94A61EA096E6E0F3
:103740000C947420A0E2B0E0E8EAFBE10C9458206D
:1037500069837A838B839C832D833E834F83588731
:10376000F9E0EF2EF12CEC0EFD1ECE010196B70113
:103770000E947B1F8E010F5E1F4FCE010596B80180
:103780000E947B1FC701B801AE01475E5F4F0E94D8
:10379000251A0E94A61EA096E6E00C947420A0E2D2
:1037A000B0E0E5EDFBE10C944C2069837A838B83D8
:1037B0009C832D833E834F835887CE010196BE01A3
:1037C000675F7F4F0E947B1FCE010596BE016F5E33
:1037D0007F4F0E947B1F9985923088F089898230C3
:1037E000C8F0943019F4823051F404C0843029F4C4
:1037F000923081F48DE995E0C6C0923049F420E022
:103800009A858A89981321E02A87CE010996BBC040
:10381000823049F420E09A858A89981321E02A8B26
:10382000CE014196B0C02D843E844F8458886D8867
:103830007E888F88988CEE24FF248701AA24BB24DD
:10384000650140E050E060E070E0E0E0F0E0C101E0
:1038500081709070892BE9F0E60CF71C081D191D8A
:103860009A01AB012A0D3B1D4C1D5D1D80E090E0CF
:10387000A0E0B0E0E614F7040805190520F481E0A3
:1038800090E0A0E0B0E0BA01A901480F591F6A1FFB
:103890007B1FAA0CBB1CCC1CDD1C97FE08C081E062
:1038A00090E0A0E0B0E0A82AB92ACA2ADB2A319623
:1038B000E032F10549F0660C771C881C991C56947F
:1038C000479437942794C3CFFA85EA892B893C899A
:1038D0008B859C85280F391F2E5F3F4F17C0CA016B
:1038E00081709070892B61F016950795F794E79495
:1038F00080E090E0A0E0B0E8E82AF92A0A2B1B2B30
:1039000076956795579547952F5F3F4F77FDE7CFA2
:103910000CC0440F551F661F771F17FD4160EE0C4A
:10392000FF1C001F111F21503040403090E059070C
:1039300090E0690790E4790760F32B8F3C8FDB01FF
:10394000CA018F779070A070B07080349105A10586
:10395000B10561F447FD0AC0E114F1040105110548
:1039600029F0405C5F4F6F4F7F4F40781A8EFE17F3
:1039700011F081E08A8F4D8F5E8F6F8F78A383E087
:10398000898FCE0149960E94A61EA096E2E10C9472
:103990006820A8E1B0E0EFECFCE10C9454206983CE
:1039A0007A838B839C832D833E834F835887B9E032
:1039B000EB2EF12CEC0EFD1ECE010196B7010E94FC
:1039C0007B1F8E010F5E1F4FCE010596B8010E942E
:1039D0007B1F2985223008F47EC03989323010F4EB
:1039E000B8017CC08A859A8989278A87243011F09A
:1039F000223031F4231709F06EC06DE975E06EC016
:103A0000343039F41D861E861F86188A1C861B8654
:103A100004C0323021F484E08987B7015FC02B8570
:103A20003C858B899C89281B390B3C872B87ED842F
:103A3000FE840F851889AD88BE88CF88D88CEA149B
:103A4000FB040C051D0540F4EE0CFF1C001F111FAC
:103A5000215030403C872B8720E030E040E050E0B0
:103A600080E090E0A0E0B0E460E070E0EA14FB04E5
:103A70000C051D0540F0282B392B4A2B5B2BEA182F
:103A8000FB080C091D09B695A79597958795EE0C2F
:103A9000FF1C001F111F6F5F7F4F6F31710531F7E2
:103AA000DA01C9018F779070A070B07080349105F1
:103AB000A105B10561F427FD0AC0E114F104010577
:103AC000110529F0205C3F4F4F4F5F4F20782D8725
:103AD0003E874F87588BBE01675F7F4FCB010E94A7
:103AE000A61E6896EAE00C947020A8E1B0E0EBE72F
:103AF000FDE10C94582069837A838B839C832D830A
:103B00003E834F83588789E0E82EF12CEC0EFD1E92
:103B1000CE010196B7010E947B1F8E010F5E1F4FE1
:103B2000CE010596B8010E947B1F8985823040F046
:103B30008989823028F0C701B8010E94F31F01C0B3
:103B40008FEF6896E6E00C947420A8E0B0E0EBEA12
:103B5000FDE10C9455209B01AC0183E08983DA01DF
:103B6000C9018827B7FD83959927AA27BB27B82EB7
:103B7000211531054105510519F482E089833AC0C8
:103B80008823A9F0203080E0380780E0480780E8EB
:103B9000580729F460E070E080E09FEC30C0EE242C
:103BA000FF248701E21AF30A040B150B02C0790106
:103BB0008A018EE1C82ED12CDC82CB82ED82FE827E
:103BC0000F831887C801B7010E94571E0197181666
:103BD000190684F4082E04C0EE0CFF1C001F111FF0
:103BE0000A94D2F7ED82FE820F831887C81AD90A89
:103BF000DC82CB82BA82CE0101960E94A61E289654
:103C0000E9E00C947120ACE0B0E0E9E0FEE10C9456
:103C10005C2069837A838B839C83CE010196BE01ED
:103C20006B5F7F4F0E947B1F8D81823061F18230FC
:103C300050F1843021F48E81882351F12EC02F81E0
:103C4000388537FD20C06E812F3131051CF0662389
:103C5000F9F023C08EE190E0821B930B29853A8511
:103C60004B855C8504C056954795379527958A9571
:103C7000D2F76623B1F050954095309521953F4F8E
:103C80004F4F5F4F0EC020E030E040E050E009C0F1
:103C90002FEF3FEF4FEF5FE704C020E030E040E060
:103CA00050E8B901CA012C96E2E00C947820EF921A
:103CB000FF920F931F937B018C0180E0E81680E058
:103CC000F80681E0080780E0180788F48FEFE8160F
:103CD000F1040105110531F028F088E090E0A0E042
:103CE000B0E017C080E090E0A0E0B0E012C080E05B
:103CF000E81680E0F80680E0080781E0180728F061
:103D000088E190E0A0E0B0E004C080E190E0A0E0B5
:103D1000B0E020E230E040E050E0281B390B4A0BD5
:103D20005B0B04C016950795F794E7948A95D2F734
:103D3000F701EB55FA4F8081281B310941095109E0
:103D4000C9011F910F91FF90EF900895DF92EF92BC
:103D5000FF920F931F93FC01E480F5800681178189
:103D6000D1808081823048F480E090E0A0E1B0E032
:103D7000E82AF92A0A2B1B2BA5C0843009F49FC01E
:103D8000823021F4EE24FF24870105C0E114F10400
:103D90000105110519F4E0E0F0E096C0628173813D
:103DA0009FEF623879070CF05BC022E83FEF261BDB
:103DB000370B2A3131052CF020E030E040E050E0B4
:103DC0002AC0B801A701022E04C0769567955795C1
:103DD00047950A94D2F781E090E0A0E0B0E004C0FB
:103DE000880F991FAA1FBB1F2A95D2F70197A10917
:103DF000B1098E219F21A023B1230097A105B10510
:103E000021F081E090E0A0E0B0E09A01AB01282B26
:103E1000392B4A2B5B2BDA01C9018F779070A07088
:103E2000B07080349105A105B10539F427FF09C0B0
:103E3000205C3F4F4F4F5F4F04C0215C3F4F4F4FBF
:103E40005F4FE0E0F0E02030A0E03A07A0E04A0752
:103E5000A0E45A0710F0E1E0F0E079018A0127C000
:103E60006038710564F5FB01E158FF4FD801C701C7
:103E70008F779070A070B07080349105A105B10566
:103E800039F4E7FE0DC080E490E0A0E0B0E004C0AB
:103E90008FE390E0A0E0B0E0E80EF91E0A1F1B1FC0
:103EA00017FF05C016950795F794E794319687E0BC
:103EB00016950795F794E7948A95D1F705C0EE24F7
:103EC000FF248701EFEFF0E06E2F67956627679577
:103ED000902F9F77D794DD24D7948E2F8695492FE6
:103EE000462B582F5D29B701CA011F910F91FF90F2
:103EF000EF90DF900895FC01DB0140815181228128
:103F0000622F6F7770E0221F2227221F9381892F53
:103F1000880F822B282F30E0991F9927991F11961F
:103F20009C93119721153105A9F54115510561059E
:103F3000710511F482E037C082E89FEF13969C93DD
:103F40008E9312979A01AB0167E0220F331F441F33
:103F5000551F6A95D1F783E08C930DC0220F331F54
:103F6000441F551F12968D919C911397019713969C
:103F70009C938E931297203080E0380780E04807AA
:103F800080E4580758F314962D933D934D935C931A
:103F9000179708952F3F310579F4411551056105B3
:103FA000710519F484E08C93089564FF03C081E0E7
:103FB0008C9312C01C9210C02F57304013963C9324
:103FC0002E93129783E08C9387E0440F551F661F52
:103FD000771F8A95D1F7706414964D935D936D9316
:103FE0007C93179708951F93DC01FB019C919230FD
:103FF00008F447C08081823008F443C0943051F403
:1040000011961C91843099F58181682F70E0611BB5
:1040100071093FC0843021F0923031F48230B9F11F
:104020008181882389F12DC011961C9111978230CE
:10403000F1F081811817D9F412962D913C911397C4
:10404000828193818217930794F028173907BCF077
:1040500014968D919D910D90BC91A02D2481358158
:1040600046815781281739074A075B0718F411233F
:1040700041F00AC082179307A407B50740F4112343
:1040800019F061E070E005C06FEF7FEF02C060E003
:1040900070E0CB011F9108952F923F924F925F9253
:1040A0006F927F928F929F92AF92BF92CF92DF9248
:1040B000EF92FF920F931F93CF93DF93CDB7DEB7AD
:1040C000CA1BDB0B0FB6F894DEBF0FBECDBF099441
:1040D0002A88398848885F846E847D848C849B8498
:1040E000AA84B984C884DF80EE80FD800C811B81A6
:1040F000AA81B981CE0FD11D0FB6F894DEBF0FBED5
:10410000CDBFED010895AEE0B0E0E9E8F0E20C9437
:104110005A200D891E898F89988D97FF02C080E0F3
:1041200090E801979E838D831A83098386E08C83B0
:104130009E01255E3F4FCE010196698D7A8DA901C2
:104140000E94B4204D815E8157FD0AC02F813885C1
:10415000421753070CF49A01020F131FF801108243
:104160002E96E4E00C947620ABE0B0E0EAEBF0E2CF
:104170000C944C203C012B015A01FC011782168241
:10418000838181FD03C06FEF7FEFC6C19AE0892E66
:104190001E010894211C311CF3012381F20123FD2F
:1041A000859123FF81912F01882309F4B2C18532C3
:1041B00039F423FD859123FF81912F01853229F464
:1041C00090E0B3010E94A722E7CF982FFF24EE24AE
:1041D0009924FFE1FF15D0F09B3269F09C3228F45E
:1041E000903259F0933291F40EC09D3249F09033E1
:1041F00069F441E024C052E0F52A84E0F82A28C09E
:1042000098E0F92A25C0E0E1FE2A22C0F7FC29C087
:10421000892F80538A3070F4F6FE05C0989C902C4C
:104220001124980E15C0E89CE02C1124E80EF0E251
:10423000FF2A0EC09E3229F4F6FC6BC140E4F42A3A
:1042400007C09C3619F450E8F52A02C0983649F4A4
:10425000F20123FD959123FF91912F01992309F0FC
:10426000B8CF892F8554833018F08052833038F4CA
:1042700044E050E0A40EB51E5FE359830FC09336AF
:1042800031F0933779F0933509F056C020C0F5012D
:104290008081898342E050E0A40EB51E610101E0F7
:1042A00010E012C0F501C080D180F6FC03C06FEFB2
:1042B0007FEF02C0692D70E042E050E0A40EB51E11
:1042C000C6010E949C228C015FE7F52214C0F50113
:1042D000C080D180F6FC03C06FEF7FEF02C0692D74
:1042E00070E042E050E0A40EB51EC6010E9491228B
:1042F0008C0150E8F52AF3FE07C01AC080E290E076
:10430000B3010E94A722EA948E2D90E008171907A6
:10431000A8F30EC0F601F7FC8591F7FE81916F01BD
:1043200090E0B3010E94A722E110EA9401501040EE
:104330000115110579F7EAC0943611F0993669F53F
:10434000F7FE08C0F501208131814281538184E06C
:1043500090E00AC0F501808191819C01442737FDDE
:104360004095542F82E090E0A80EB91E9FE6F922F6
:1043700057FF09C050954095309521953F4F4F4FBD
:104380005F4FE0E8FE2ACA01B901A1012AE030E04E
:104390000E94D322D82ED21840C0953729F41F2D61
:1043A0001F7E2AE030E01DC01F2D197F9F3661F06F
:1043B000903720F4983509F0ACC00FC0903739F031
:1043C000983709F0A6C004C028E030E00AC01061A8
:1043D00014FD146020E130E004C014FD166020E1FB
:1043E00032E017FF08C0F5016081718182819381FD
:1043F00044E050E008C0F50180819181BC0180E07B
:1044000090E042E050E0A40EB51EA1010E94D3222C
:10441000D82ED2188FE7F82EF122F6FE0BC05EEFF1
:10442000F522D91438F4F4FE07C0F2FC05C08FEE73
:10443000F82202C01D2D01C0192DF4FE0DC0FE0191
:10444000ED0DF11D8081803319F499EEF92208C039
:104450001F5FF2FE05C003C08F2D867809F01F5F35
:104460000F2DF3FC14C0F0FE0FC01E1510F09D2C94
:104470000BC09D2C9E0C911A1E2D06C080E290E070
:10448000B3010E94A7221F5F1E15C0F304C01E15B2
:1044900010F4E11A01C0EE2404FF0FC080E390E0A5
:1044A000B3010E94A72202FF1DC001FD03C088E7DF
:1044B00090E00EC088E590E00BC0802F867891F0E8
:1044C00001FF02C08BE201C080E2F7FC8DE290E0C8
:1044D000B3010E94A72206C080E390E0B3010E94CE
:1044E000A7229A94D914C0F3DA94F101ED0DF11DCD
:1044F000808190E0B3010E94A722DD20A9F706C0C9
:1045000080E290E0B3010E94A722EA94EE20C1F776
:1045100043CEF30166817781CB012B96E2E10C94C7
:104520006820FC010590615070400110D8F780951B
:1045300090958E0F9F1F0895FC016150704001906F
:104540000110D8F7809590958E0F9F1F08950F93B7
:104550001F93CF93DF938C01EB018B8181FF1BC0F5
:1045600082FF0DC02E813F818C819D8128173907E4
:1045700064F4E881F9810193F983E88306C0E88552
:10458000F985802F0995892B31F48E819F810196C1
:104590009F838E8302C00FEF1FEFC801DF91CF9181
:1045A0001F910F910895FA01AA27283051F1203167
:1045B00081F1E8946F936E7F6E5F7F4F8F4F9F4FB7
:1045C000AF4FB1E03ED0B4E03CD0670F781F891FF9
:1045D0009A1FA11D680F791F8A1F911DA11D6A0FC7
:1045E000711D811D911DA11D20D009F468943F917A
:1045F0002AE0269F11243019305D3193DEF6CF0179
:104600000895462F4770405D4193B3E00FD0C9F73E
:10461000F6CF462F4F70405D4A3318F0495D31FDAB
:104620004052419302D0A9F7EACFB4E0A6959795FE
:10463000879577956795BA95C9F7009761057105D4
:1046400008959B01AC010A2E06945795479537951E
:104650002795BA95C9F7620F731F841F951FA01D78
:064660000895F894FFCF5D
:1046660041542B43494653520049502041646472D9
:104676006573733A00506F72743A003830005741D0
:10468600524E494E4720436865636B20506C616EFD
:104696007473002000490044005420004D2000425D
:1046A600200020202020205741524E494E472020EE
:1046B600202020004D6178204E756D20506C616E73
:1046C600747320416464656400506C656173652091
:1046D60052656D6F7665204F6E65002052656D6F71
:1046E60076652000204261636B2000000000000018
:1046F600006261636B002300543A20002D0025649C
:10470600004D3A2000423A200053656C65637420E0
:1047160046756E6374696F6E3A0020312E204164CF
:1047260064204E657720506C616E740020322E2016
:104736004564697420506C616E74730020332E20BA
:104746004D6F6E69746F7220506C616E74730041A8
:10475600540041542B43574D4F44453D330041547B
:104766002B43575141500041542B5253540041544E
:104776002B43574A41503D22555343204775657395
:104786007420576972656C657373222C222200416E
:10479600542B43574A41503F005769666920436F7F
:1047A6006E6E65637465640041542B4349504D55E4
:1047B600583D310041542B43495053544152543DC6
:1047C600302C22544350222C226D61696C2E736D5D
:1047D600747032676F2E636F6D222C32353235005E
:1047E60041542B43495053454E443D302C313800FB
:1047F60045484C4F200041542B43495053454E44A5
:104806003D302C31320041555448204C4F47494EDB
:104816000041542B43495053454E443D302C3232CF
:104826000063477068626D6C7A6145423163324D50
:10483600755A5752310041542B43495053454E4403
:104846003D302C323600523246795A4756756157FA
:10485600356E63477831637A49774D6A4D3D004539
:104866006D61696C204C6F67696E20537563636573
:10487600737300526573756C74733A2000312E2081
:1048860000202F20313000322E2000332E20002031
:1048960020204D6F6E69746F72696E672E2E2E2002
:1048A60020200020436170747572696E6720446130
:1048B60074612E2E2E200020200023232323232361
:1048C600004F4B002041542B43495053454E443D25
:1048D600302C330041542B43495053454E443D3010
:1048E6002C3300202E20002E002041542B4349500B
:1048F60053454E443D302C360041542B43495053CA
:10490600454E443D302C3600205155495420005127
:104916005549540041542B43495053454E443D306C
:104926002C003239200032390041542B4349505370
:10493600454E443D302C3239002073656E64206646
:10494600726F6D20004D41494C2046524F4D3A3C06
:10495600706A616E697368407573632E6564753E2F
:104966000032370041542B43495053454E443D30A5
:104976002C3237002073656E6420746F200052431A
:10498600505420544F3A3C706A616E6973684075A2
:1049960073632E6564753E00360020444154410021
:1049A600444154410032340041542B43495053454D
:1049B6004E443D302C313900205375626A6563746C
:1049C6003A20504C414E54205741524E494E4700D2
:1049D6005375626A6563743A20504C414E542057B1
:1049E60041524E494E4700370041542B43495053DC
:1049F600454E443D302C3700426F64793A00202DF5
:104A06002000323300496E6372656173652000547D
:104A1600656D70657261747572650A0044656372CE
:104A26006561736520003230004D6F69737475726D
:104A3600650A003232004272696768746E65737384
:104A46000A0023232323232323232323232323236C
:104A560023232323232300202020202047415244C0
:104A6600454E494E472B2020202020002020202084
:104A760020202045453435392020202020202020A4
:104A860000303001003003003043616C656E6475A0
:104A96006C61313235383531303032303030313585
:104AA600303030313630303030303030002805305C
:104AB600204869626973637573333630393532302D
:104AC60030323530303130303030313530303030D2
:104AD600303030004F053020204265676F6E6961C7
:104AE60032363037353230303235303030303030A3
:104AF6003031303030303030303000760500000054
:104B06000000000000000102020303030304040482
:104B16000404040404050505050505050505050544
:104B26000505050505060606060606060606060624
:104B3600060606060606060606060606060606060F
:104B460006060606060707070707070707070707F4
:104B560007070707070707070707070707070707DF
:104B660007070707070707070707070707070707CF
:104B760007070707070707070707070707070707BF
:104B860007070707070808080808080808080808A4
:104B9600080808080808080808080808080808088F
:104BA600080808080808080808080808080808087F
:104BB600080808080808080808080808080808086F
:104BC600080808080808080808080808080808085F
:104BD600080808080808080808080808080808084F
:104BE600080808080808080808080808080808083F
:104BF600080808080808080808080808080808082F
:064C060008080808080080
:00000001FF
