:100000000C9434000C9451000C9451000C94510049
:100010000C94E5030C9451000C9451000C94510085
:100020000C9451000C9451000C9451000C9451000C
:100030000C9451000C9451000C9451000C945100FC
:100040000C9451000C9451000C9451000C945100EC
:100050000C9451000C9451000C9451000C945100DC
:100060000C9451000C94510011241FBECFEFD8E026
:10007000DEBFCDBF17E0A0E0B1E0E2E3F3E502C0F0
:1000800005900D92A438B107D9F717E0A4E8B7E0BE
:1000900001C01D92AB3BB107E1F70E94031F0C9416
:1000A00097290C9400009093C5008093C400E1EC64
:1000B000F0E080818860808380818061808386E039
:1000C0008093C20008950895982F8091C00085FF05
:1000D000FCCF9093C6000895CF93DF93EC0105C049
:1000E000992787FD90950E94640089918823C1F724
:1000F000DF91CF9108958091C00087FFFCCF809160
:10010000C6000895BF92CF92DF92EF92FF920F93B5
:100110001F93CF93DF93B82EFB01D901E70141155F
:10012000510531F40115110519F490E080E054C037
:1001300084EA8093BC008091BC0087FFFCCF909143
:10014000B900987F983009F09FC08B2D8E7F8093E7
:10015000BB0084E88093BC008091BC0087FFFCCF8B
:100160009091B900987F9831B1F0903209F08CC02D
:1001700088C080818093BB002093BC008091BC002C
:1001800087FFFCCF9091B900987F41505040983242
:10019000C9F4319601C024E84115510551F716C044
:1001A0008C918093BB002093BC008091BC0087FFA2
:1001B000FCCF9091B900987F01501040983211F413
:1001C000119605C0903309F05FC05BC024E80115AB
:1001D000110531F791E081E0C114D10409F44EC05A
:1001E000882311F428E001C020E184EA8093BC0058
:1001F0008091BC0087FFFCCF9091B900987F921747
:1002000009F042C081E0B82AB092BB0084E8809334
:10021000BC008091BC0087FFFCCF9091B900987F13
:10022000903419F0983481F52CC00894C108D10895
:1002300024EC11C02093BC008091BC0087FFFCCF50
:100240009091B900987F0894C108D1089035E1F4E5
:100250008091BB008993C114D10461F784E8809335
:10026000BC008091BC0087FFFCCF9091B900987FC3
:10027000983551F48091BB00888302C0992321F006
:1002800090E084E98093BC00892FDF91CF911F918A
:100290000F91FF90EF90DF90CF90BF900895109254
:1002A000B9008093B8000895AF92BF92CF92DF92C9
:1002B000EF92FF920F931F937B01AA2797FDA095C2
:1002C000BA2FBC01CD010E94FE2220E030E040E1C7
:1002D00051E40E94282120E030E040EA50E40E94EE
:1002E00022225B016C010027F7FC0095102FC8014A
:1002F000B7010E94FE2220E030E040E151E40E947C
:10030000282120E030E040EA50E40E94222220E050
:1003100030E040E251E40E9422229B01AC01C60180
:10032000B5010E94FB2020E030E040E052E40E9452
:10033000FB200E945C237093A9076093A8071F917C
:100340000F91FF90EF90DF90CF90BF90AF90089506
:10035000529A5A9889E991E80197F1F752984A9B85
:10036000FECF08954A99FECF4A9BFECF4A99FECF11
:10037000089540E050E020E030E06AE74A9BFECF7D
:10038000862F8A95F1F7C901880F991F4A9B03C0F0
:100390009C01216001C09C014A99FECF4F5F5F4FD5
:1003A0004830510559F7C9010895CF92DF92EF9275
:1003B000FF920F931F93CF93DF9380E395E728EB92
:1003C00030E0F9013197F1F70197D9F70E94A801C0
:1003D0000E94B2010E94B9017C010E94B9018C0106
:1003E0000E94B9016C010E94B901EC010E94B9019F
:1003F0000E0D1F1D0C0D1D1D0C0F1D1F80179107CD
:1004000021F4C601BE010E945401DF91CF911F91DA
:100410000F91FF90EF90DF90CF900895569A5E98DD
:1004200008955E9A80E098E40197F1F7089580E0DE
:1004300098E40197F1F75E9808953B9880917C00CD
:10044000806480937C0080917C008F7780937C0017
:1004500080917C00806280937C0080917C0083602E
:1004600080937C0080917C00837F80937C008091CE
:100470007A00876080937A0080917A008068809308
:100480007A0080917A00806480937A0080917A006B
:1004900086FDFCCF8091790090E008950F931F9323
:1004A000569A5E985E9A00E018E4C8010197F1F749
:1004B0000E941D02F8013197F1F75E989093BA07F8
:1004C0008093B9071F910F910895CF92DF92EF9219
:1004D000FF920F931F93DF93CF9300D0CDB7DEB77A
:1004E0001092B90082E48093B8008EEF898381E591
:1004F0008A8380E560E070E040E050E09E012F5F7D
:100500003F4F02E010E0EE24FF24CC24DD240E94C3
:10051000820080E098E40197F1F70F900F90CF915F
:10052000DF911F910F91FF90EF90DF90CF90089592
:10053000CF92DF92EF92FF920F931F93DF93CF93AF
:1005400000D00F92CDB7DEB78EEF898385E48A8322
:100550001B8280E560E070E040E050E09E012F5F8C
:100560003F4F03E010E0EE24FF24CC24DD240E9462
:10057000820080E098E40197F1F70F900F900F90C0
:10058000CF91DF911F910F91FF90EF90DF90CF906F
:100590000895CF92DF92EF92FF920F931F93DF9314
:1005A000CF9300D00F92CDB7DEB78EEF898385E46D
:1005B0008A8380E48B8380E560E070E040E050E077
:1005C0009E012F5F3F4F03E010E0EE24FF24CC2478
:1005D000DD240E94820080E098E40197F1F70F90FB
:1005E0000F900F90CF91DF911F910F91FF90EF909F
:1005F000DF90CF900895CF92DF92EF92FF920F930A
:100600001F93DF93CF9300D00F92CDB7DEB78EEF5D
:10061000898385E48A8384E18B8380E560E070E0F0
:1006200040E050E09E012F5F3F4F03E010E0EE24DA
:10063000FF24CC24DD240E94820080E098E401970E
:10064000F1F70F900F900F90CF91DF911F910F91C5
:10065000FF90EF90DF90CF900895CF92DF92EF92CE
:10066000FF920F931F93DF93CF9300D00F92CDB7DC
:10067000DEB78EEF898385E48A8384E58B8380E50A
:1006800060E070E040E050E09E012F5F3F4F03E0EC
:1006900010E0EE24FF24CC24DD240E94820080E0C0
:1006A00098E40197F1F70F900F900F90CF91DF91A1
:1006B0001F910F91FF90EF90DF90CF900895CF9210
:1006C000DF92EF92FF920F931F939C018B0180E5C5
:1006D00060E070E040E050E0EE24FF24CC24DD2414
:1006E0000E94820080E098E40197F1F71F910F913A
:1006F000FF90EF90DF90CF900895813311F482E363
:1007000005C0603311F083E301C085E38093A70740
:10071000089586B1282F2270382F34708091870772
:1007200090918807892B09F041C03323E9F42223F3
:10073000C1F181E08093B80720918D0730918E0739
:1007400080918F07909190070197281739073CF403
:100750002F5F3F4F30938E0720938D0719C0109263
:100760008E0710928D0714C0222321F582E080931A
:10077000B80780918D0790918E07009721F48091A2
:100780008F0790919007019790938E0780938D0724
:1007900081E38093040681E090E090938807809342
:1007A000870710920306109202060895332361F022
:1007B000222351F081E090E090930306809302069B
:1007C000109288071092870708951F920F920FB614
:1007D0000F9211242F933F934F935F936F937F93C7
:1007E0008F939F93AF93BF93EF93FF930E948903DF
:1007F00080E098E40197F1F7FF91EF91BF91AF91FD
:100800009F918F917F916F915F914F913F912F9128
:100810000F900FBE0F901F9018952F923F924F92FE
:100820005F926F927F928F929F92AF92BF92CF9280
:10083000DF92EF92FF920F931F93DF93CF93CDB789
:10084000DEB7C057D0400FB6F894DEBF0FBECDBFA5
:100850001092B9008DE18093B80080E395E728EB12
:1008600030E0F9013197F1F70197D9F783E090E093
:100870009A8B898B988B8F871E861D8681E090E0EE
:100880009C878B8784EB90E09A87898783EB90E045
:1008900098878F8381EA90E09E838D8380EA90E041
:1008A0009C838B8382EB90E09A83898382E5BE01EF
:1008B0006F5F7F4F41E050E020E030E000E010E06B
:1008C000E5E3EE2EF12CEC0EFD1E91E0C92ED12CAD
:1008D0000E94820013E0612E712C6C0E7D1EBBE025
:1008E0004B2E512C4C0E5D1E82E5B30141E050E0D1
:1008F000920101E010E0A9E4EA2EF12CEC0EFD1EBD
:100900000E948200F5E02F2E312C2C0E3D1E82E538
:10091000B10141E050E09E01215F3F4FEE24FF24F2
:10092000CC24DD240E94820080E395E728EB30E0B0
:10093000F9013197F1F70197D9F782E5B30141E069
:1009400050E09E012F5E3F4F01E010E0EDE5EE2EFE
:10095000F12CEC0EFD1E91E0C92ED12C0E948200DC
:1009600080E395E728EB30E0F9013197F1F7019743
:10097000D9F717E0812E912C8C0E9D1EB1E2AB2E83
:10098000B12CAC0EBD1E82E5B40141E050E020E088
:1009900030E000E010E07501A1E0CA2ED12C0E94E9
:1009A000820089A1803379F382E5BE01675F7F4FC2
:1009B00041E050E020E030E0F3E1EF2EF12CEC0ECE
:1009C000FD1EE4E0CE2ED12C0E94820082E5B30110
:1009D00041E050E0920101E010E0EE24FF24CC243D
:1009E000DD240E9482009C8980E0AB88BB24A82A79
:1009F000B92A57E1452E512C4C0E5D1E8DB79EB77E
:100A000008970FB6F8949EBF0FBE8DBFEDB7FEB727
:100A10003196ADB7BEB712965C924E9211974AE0EE
:100A2000642E712C7382628230E0832E31E0932E2B
:100A300095828482B782A6820E9455268DB79EB782
:100A400008960FB6F8949EBF0FBE8DBF82E5B10128
:100A500041E050E09E01235F3F4F0E948200ADB70E
:100A6000BEB718970FB6F894BEBF0FBEADBFEDB7B7
:100A7000FEB7319612965C924E9211977382628203
:100A800095828482B782A6820E945526B092A607DC
:100A9000A092A5078DB79EB708960FB6F8949EBF93
:100AA0000FBE8DBFC059DF4F0FB6F894DEBF0FBE2B
:100AB000CDBFCF91DF911F910F91FF90EF90DF900D
:100AC000CF90BF90AF909F908F907F906F905F90EE
:100AD0004F903F902F900895DF93CF9300D000D098
:100AE000CDB7DEB72DB73EB7285030400FB6F894DB
:100AF0003EBF0FBE2DBFEDB7FEB731969E012F5FF3
:100B00003F4FADB7BEB712963C932E93119724E09A
:100B100030E03383228320E031E0358324839783E0
:100B200086830E9455262DB73EB7285F3F4F0FB6EC
:100B3000F8943EBF0FBE2DBF0F900F900F900F90F7
:100B4000CF91DF910895CF92DF92EF92FF920F93B2
:100B50001F93282FE82FF92FDF010D900020E9F7D0
:100B60001197AE1BBF0B80E560E070E040E050E005
:100B7000392F8D01EE24FF24CC24DD240E94820035
:100B800080E098E40197F1F71F910F91FF90EF90AB
:100B9000DF90CF9008952F923F924F925F926F9285
:100BA0007F928F929F92AF92BF92CF92DF92EF92FD
:100BB000FF920F931F93DF93CF93CDB7DEB72A97A2
:100BC0000FB6F894DEBF0FBECDBF0E94650281E074
:100BD00090E090938E0780938D0720983A983998EB
:100BE00088B1866088B980916800826080936800CF
:100BF00080916C00866080936C00189BFECF789487
:100C000086B1982F927082FD07C0992319F4109233
:100C1000B80709C081E005C0992311F482E001C042
:100C200083E08093B8078091B8078093AC07E09188
:100C30002C06F0912D068081813321F061E0862E13
:100C4000912C5EC02DB73EB7285030400FB6F894B7
:100C50003EBF0FBE2DBFEDB7FEB73196CE01029657
:100C6000ADB7BEB712969C938E93119785E090E036
:100C70009383828380E091E09583848381E090E098
:100C8000978386830E94552640912C0650912D060D
:100C900021E030E0EDB7FEB738960FB6F894FEBF0E
:100CA0000FBEEDBFFA01E20FF31FE0818091C0009B
:100CB00085FFFCCFE093C6002F5F3F4F2A30310500
:100CC00089F783E091E00E94A30501E010E05E0156
:100CD0000894A11CB11CE0912C06F0912D06E00FA8
:100CE000F11F80818983C50161E070E00E945F038C
:100CF0000F5F1F4F0A30110571F752E0852E912CBE
:100D0000E0915306F09154068081813309F062C06E
:100D10002DB73EB7285030400FB6F8943EBF0FBEF7
:100D20002DBFEDB7FEB73196CE010296ADB7BEB777
:100D300012969C938E93119785E090E09383828323
:100D400080E091E095838483978286820E94552675
:100D5000409153065091540621E030E0EDB7FEB7C4
:100D600038960FB6F894FEBF0FBEEDBFFA01E20F42
:100D7000F31FE0818091C00085FFFCCFE093C600A7
:100D80002F5F3F4F2A30310589F7F2E08F1691042B
:100D900011F40E94C90283E091E00E94A30501E0E2
:100DA00010E05E010894A11CB11CE0915306F09183
:100DB0005406E00FF11F80818983C50161E070E076
:100DC0000E945F030F5F1F4F0A30110571F70894EF
:100DD000811C911CE0917A06F0917B068081813321
:100DE00009F069C02DB73EB7285030400FB6F894CF
:100DF0003EBF0FBE2DBFEDB7FEB73196CE010296B6
:100E0000ADB7BEB712969C938E93119785E090E094
:100E10009383828380E091E09583848397828682A6
:100E20000E94552640917A0650917B0621E030E0E1
:100E3000EDB7FEB738960FB6F894FEBF0FBEEDBF04
:100E4000FA01E20FF31FE0818091C00085FFFCCF23
:100E5000E093C6002F5F3F4F2A30310589F7F2E05B
:100E60008F16910419F40E94C90206C023E082166D
:100E7000910411F40E94FB0283E091E00E94A3051B
:100E800001E010E05E010894A11CB11CE0917A061B
:100E9000F0917B06E00FF11F80818983C50161E03D
:100EA00070E00E945F030F5F1F4F0A30110571F75A
:100EB0000894811C911C32E08316910419F40E945D
:100EC000C9020DC083E08816910419F40E94FB0248
:100ED00006C094E08916910411F40E942D038CE061
:100EE00091E00E94A30504E111E0D8019C9180915A
:100EF000C00085FFFCCF9093C6000F5F1F4FB1E08D
:100F00000D311B0791F7EDB7FEB738970FB6F89480
:100F1000FEBF0FBEEDBF3196CE010296ADB7BEB794
:100F200012969C938E93119785E090E09383828331
:100F300080E091E095838483978286820E94552683
:100F400080918D0790918E07EDB7FEB738960FB65A
:100F5000F894FEBF0FBEEDBF009739F446EFA42E04
:100F60004FEFB42EA00EB11E3FC081309105B1F4F9
:100F700060902C0670902D06D3018C91813371F115
:100F80006090530670905406F3018081813331F1F3
:100F9000A0907A06B0907B06350126C0823091057C
:100FA000B1F4A0905306B0905406D5018C918133D2
:100FB00029F4662477246A147B04B1F4A0907A069D
:100FC000B0907B06F5018081813351F40DC0039709
:100FD00039F4A0907A06B0907B0606C0530104C095
:100FE00080E090E09C01590121E030E0F501E20F42
:100FF000F31FE0818091C00085FFFCCFE093C60025
:101000002F5F3F4F2A30310589F72DB73EB7285063
:1010100030400FB6F8943EBF0FBE2DBFEDB7FEB700
:10102000319632E0C32ED12CCC0EDD1EADB7BEB74B
:101030001296DC92CE92119725E0E22EF12CF382EB
:10104000E28200E011E01583048380918F07909184
:101050009007978386830E945526909290078092EE
:101060008F07EDB7FEB73196ADB7BEB71296DC92DB
:10107000CE921197F382E28215830483978286824F
:101080000E94552680918D0790918E07EDB7FEB78F
:1010900038960FB6F894FEBF0FBEEDBF009709F06B
:1010A00066C0F2E08F16910489F40E9498028EE1E6
:1010B00091E00E94A3050E94C90280E291E00E9493
:1010C000A3050E94FB028EE191E014C023E082168A
:1010D000910491F50E9498028EE191E00E94A3058F
:1010E0000E94C9028EE191E00E94A3050E94FB02CA
:1010F00080E291E00E94A3050E942D038EE191E021
:101100000E94A30593E1A92E91E0B92E30E33A871E
:10111000398738873F8382E0482E512C4C0E5D1E64
:1011200005E0E02EF12C10E0C12E11E0D12E1E01C1
:101130000894211C311C71C384E08816910411F7B6
:101140000E9498028EE191E00E94A3050E94C902CC
:101150008EE191E00E94A3050E94FB028EE191E0E6
:101160000E94A3050E942D0380E291E0C9CF813047
:10117000910511F560902C0670902D06D3018C918D
:10118000813371F06090530670905406F3018081B2
:10119000813331F0A0907A06B0907B06350101C012
:1011A00053010E94980280E291E00E94A3050E94F0
:1011B000C9028EE191E01FC08230910519F5E091DE
:1011C0005306F09154068081813319F46E167F0620
:1011D00039F4E0917A06F0917B068081813309F43D
:1011E0005F010E9498028EE191E00E94A3050E9497
:1011F000C90280E291E00E94A3050E94FB028EE1F9
:1012000091E017C0039709F081CFA0907A06B090C3
:101210007B060E9498028EE191E00E94A3050E9445
:10122000C9028EE191E00E94A3050E94FB0280E2C8
:1012300091E00E94A3050E942D038EE191E00E949F
:10124000A30564CF189909C28091850790918607FC
:10125000892B09F002C221E030E030938607209309
:101260008507F501E20FF31FE0818091C00085FF43
:10127000FCCFE093C6002F5F3F4F2A30310589F73E
:1012800033E1A31631E0B30619F481E389871AC06C
:1012900080912C0690912D06A816B90671F08091C8
:1012A000530690915406A816B90639F080917A0633
:1012B00090917B06A816B90629F4E0E3D501EC93DA
:1012C000F1E3F887E0912C06F0912D0680818133BF
:1012D00021F4B2E08B2E912C03C0A1E08A2E912C38
:1012E000E0915306F09154068081813319F40894FB
:1012F000811C911CE0917A06F0917B0680818133FC
:1013000019F40894811C911C9092900780928F0789
:101310002DB73EB7285030400FB6F8943EBF0FBEF1
:101320002DBFEDB7FEB73196ADB7BEB712965C9242
:101330004E921197F382E282D582C482978286828E
:101340000E94552621E030E0EDB7FEB738960FB683
:10135000F894FEBF0FBEEDBFF501E20FF31FE08171
:101360008091C00085FFFCCFE093C6002F5F3F4F08
:101370002A30310589F790E0E0912C06F0912D0696
:101380008081803309F491E020E0E0915306F091F0
:1013900054068081803309F421E09223292F30E024
:1013A00040E050E0E0917A06F0917B068081803346
:1013B00011F441E050E024233523232B11F0F1E315
:1013C000FA872985213309F44EC10E946502E09114
:1013D0002C06F0912D068081813309F052C08DB723
:1013E0009EB708970FB6F8949EBF0FBE8DBFEDB79E
:1013F000FEB73196ADB7BEB712965C924E9211977A
:10140000F382E282D582C482978286820E94552628
:1014100040912C0650912D0621E030E0EDB7FEB74B
:1014200038960FB6F894FEBF0FBEEDBFFA01E20F7B
:10143000F31FE0818091C00085FFFCCFE093C600E0
:101440002F5F3F4F2A30310589F70E94980283E0D1
:1014500091E00E94A30501E010E0E0912C06F091DC
:101460002D06E00FF11F80818983C10161E070E0EA
:101470000E945F030F5F1F4F0A30110571F7F1E300
:10148000FF83E0915306F09154068081813309F087
:1014900058C02DB73EB7285030400FB6F8943EBF25
:1014A0000FBE2DBFEDB7FEB73196ADB7BEB71296E2
:1014B0005C924E921197F382E282D582C482978227
:1014C00086820E945526409153065091540621E091
:1014D00030E0EDB7FEB738960FB6F894FEBF0FBEFA
:1014E000EDBFFA01E20FF31FE0818091C00085FF9C
:1014F000FCCFE093C6002F5F3F4F2A30310589F7BC
:10150000F3E08F16910429F42F81213311F40E9406
:10151000C90283E091E00E94A30501E010E0E091A0
:101520005306F0915406E00FF11F80818983C101B9
:1015300061E070E00E945F030F5F1F4F0A301105EA
:1015400071F7E0917A06F0917B068081813309F092
:101550005BC08DB79EB708970FB6F8949EBF0FBEBD
:101560008DBFEDB7FEB73196ADB7BEB712965C92A0
:101570004E921197F382E282D582C482978286824C
:101580000E94552640917A0650917B0621E030E07A
:10159000EDB7FEB738960FB6F894FEBF0FBEEDBF9D
:1015A000FA01E20FF31FE0818091C00085FFFCCFBC
:1015B000E093C6002F5F3F4F2A30310589F7F3E0F3
:1015C0008F16910419F40E94C90206C024E0821605
:1015D000910411F40E94FB0283E091E00E94A305B4
:1015E00001E010E0E0917A06F0917B06E00FF11F38
:1015F00080818983C10161E070E00E945F030F5F19
:101600001F4F0A30110571F732E08316910419F467
:101610000E94C9020DC083E08816910419F40E944B
:10162000FB0206C094E08916910411F40E942D0378
:101630008CE091E00E94A305E4E1F1E090818091CB
:10164000C00085FFFCCF9093C6003196A1E0ED313C
:10165000FA07A1F70E94980206C0189B04C01092D6
:1016600086071092850780910406813309F0D5C062
:1016700080918D0790918E07009709F051C0B2E0DC
:101680008B16910489F40E9498028EE191E00E94E9
:10169000A3050E94C90280E291E00E94A3050E9476
:1016A000FB028EE191E014C0E3E08E169104B9F4E0
:1016B0000E9498028EE191E00E94A3050E94C90257
:1016C0008EE191E00E94A3050E94FB0280E291E07E
:1016D0000E94A3050E942D038EE191E01AC0F4E060
:1016E0008F169104C1F40E9498028EE191E00E944D
:1016F000A3050E94C9028EE191E00E94A3050E9409
:10170000FB028EE191E00E94A3050E942D0380E27E
:1017100091E00E94A305F3E1AF2EF1E0BF2E69C076
:101720008130910511F560902C0670902D06D30143
:101730008C91813371F06090530670905406F301E0
:101740008081813331F0A0907A06B0907B0635011C
:1017500001C053010E94980280E291E00E94A3051B
:101760000E94C9028EE191E01FC08230910519F5F7
:10177000E0915306F09154068081813319F46E167E
:101780007F0639F4E0917A06F0917B0680818133FF
:1017900009F45F010E9498028EE191E00E94A30586
:1017A0000E94C90280E291E00E94A3050E94FB0210
:1017B0008EE191E016C00397E1F4A0907A06B09014
:1017C0007B060E9498028EE191E00E94A3050E9490
:1017D000C9028EE191E00E94A3050E94FB0280E213
:1017E00091E00E94A3050E942D038EE191E00E94EA
:1017F000A30521E030E0F501E20FF31FE0818091C5
:10180000C00085FFFCCFE093C6002F5F3F4F2A301A
:10181000310589F7F0E3F09304062985213321F09F
:101820003A85313309F00ECD8885813339F48091C2
:101830000006813319F480E3809300069A85913382
:1018400011F482E304C0A985A13319F483E38093E2
:10185000A7072A960FB6F894DEBF0FBECDBFCF9173
:10186000DF911F910F91FF90EF90DF90CF90BF908D
:10187000AF909F908F907F906F905F904F903F9030
:101880002F900895CF92DF92EF92FF920F931F93C4
:10189000DF93CF93CDB7DEB7C556D0400FB6F894DF
:1018A000DEBF0FBECDBF8130910529F4E0902C063C
:1018B000F0902D060BC0029729F4E0905306F090AB
:1018C000540604C0E0907A06F0907B060E94650200
:1018D0000E94980201E010E06E010894C11CD11C26
:1018E000F701E00FF11F80818983C60161E070E09C
:1018F0000E945F030F5F1F4F0A30110589F70E9496
:10190000C90282E291E00E94A305D7011B968C9147
:101910008983C60161E070E00E945F03F70184855E
:101920008983C60161E070E00E945F0386E291E076
:101930000E94A305D7011D968C918983C60161E0A1
:1019400070E00E945F03F70186858983C60161E02C
:1019500070E00E945F038EE191E00E94A3058DB7C5
:101960009EB708970FB6F8949EBF0FBE8DBFEDB718
:10197000FEB731968E010E5F1F4FADB7BEB7129600
:101980001C930E93119784E690E09383828380E00A
:1019900091E0958384838091A8079091A90797830C
:1019A00086830E945526EDB7FEB738960FB6F89499
:1019B000FEBF0FBEEDBFC8010E94A3050E94FB023F
:1019C00088E291E00E94A3050FE010E06E01089408
:1019D000C11CD11CF701E00FF11F80818983C60172
:1019E00061E070E00E945F030F5F1F4F023111053D
:1019F00089F786E291E00E94A3056E010894C11C5C
:101A0000D11CF701E00FF11F80818983C60161E0DD
:101A100070E00E945F030F5F1F4F0531110589F7CA
:101A20008EE191E00E94A3058DB79EB708970FB68F
:101A3000F8949EBF0FBE8DBFEDB7FEB731968E01F5
:101A40000E5F1F4FADB7BEB712961C930E93119742
:101A500084E690E09383828380E091E095838483A1
:101A60008091B9079091BA07978386830E94552683
:101A7000EDB7FEB738960FB6F894FEBF0FBEEDBFB8
:101A8000C8010E94A3050E942D038CE291E00E94F0
:101A9000A30506E110E06E010894C11CD11CF701FA
:101AA000E00FF11F80818983C60161E070E00E9430
:101AB0005F030F5F1F4F0A31110589F786E291E03E
:101AC0000E94A3050BE110E06E010894C11CD11C1B
:101AD000F701E00FF11F80818983C60161E070E0AA
:101AE0000E945F030F5F1F4F0F31110589F78EE1D1
:101AF00091E00E94A3058DB79EB708970FB6F894A2
:101B00009EBF0FBE8DBFEDB7FEB731968E010E5F43
:101B10001F4FADB7BEB712961C930E93119784E674
:101B200090E09383828380E091E095838483809129
:101B3000A5079091A607978386830E945526EDB747
:101B4000FEB738960FB6F894FEBF0FBEEDBFC801C2
:101B50000E94A3051899FECFCB59DF4F0FB6F8941A
:101B6000DEBF0FBECDBFCF91DF911F910F91FF90D0
:101B7000EF90DF90CF9008950F931F93CF93DF9353
:101B80000E94650280E391E00E94A3050E94C902C1
:101B900081E491E00E94A3050E94FB0283E591E0AD
:101BA0000E94A3050E942D0383E691E00E94A305F5
:101BB00010928E0710928D0783E090E0909390072B
:101BC00080938F0720983A98399888B1866088B9B1
:101BD0008091680082608093680080916C008660CC
:101BE00080936C00789486B1982F927082FD07C024
:101BF000992319F41092B80709C081E005C0992310
:101C000011F482E001C083E08093B8078091B807A7
:101C10008093AC07189BFECF0E94C90280E291E03E
:101C20000E94A30500E3C1E0D0E018990CC08091A8
:101C3000850790918607892B31F4D0938607C0934E
:101C4000850711E307C0189B04C010928607109205
:101C5000850710E3809104068133C1F580918D07DB
:101C600090918E07009759F40E94C90280E291E09A
:101C70000E94A3050E94FB028EE191E00CC0019737
:101C800089F40E94C9028EE191E00E94A3050E949E
:101C9000FB0280E291E00E94A3050E942D038EE1E9
:101CA00091E010C00E94C9028EE191E00E94A3055C
:101CB0000E94FB028EE191E00E94A3050E942D0389
:101CC00080E291E00E94A30500930406103309F41A
:101CD000ACCF80918D0790918E078230910511F4E1
:101CE00087E312C08130910511F484E30DC0892B84
:101CF00069F480910006803311F482E305C08133DA
:101D000029F48093010686E38093A707DF91CF91A2
:101D10001F910F9108950F931F930E9465020E94D7
:101D2000C90286E791E00E94A3050E94D5010E94A6
:101D3000FB028AE891E00E94A3050DE811E0C801CA
:101D40000E94A3050E944E02C8010E94A3050E94A2
:101D50000D04C8010E94A30585E38093A7071F9186
:101D60000F910895DC010D900020E9F7A81BB90B35
:101D7000179620E030E00AC08091C00087FFFCCFBA
:101D80008091C6008B3429F02F5F3F4F2A173B0705
:101D90009CF384E991E00E94A30508950E946502E6
:101DA00087E991E00E94A3058FE991E00E946C0011
:101DB0008091C00085FFFCCF8DE08093C6008091AC
:101DC000C00085FFFCCF8AE08093C60090E340E02E
:101DD00050E020E030E08091C00087FFFCCF809190
:101DE000C600823221F4913389F091E30AC0913325
:101DF00011F090E306C0F901E355F84F80832F5F9F
:101E00003F4F4F5F5F4F4733510529F78DEA97E00A
:101E10006BE070E00E945F0388EA91E00E94A305F6
:101E200086EB91E00E946C008091C00085FFFCCFA2
:101E30008DE08093C6008091C00085FFFCCF8AE0D2
:101E40008093C60086EB91E00E94B20E82EC91E096
:101E50000E94A305EDEAF7E090818091C00085FF24
:101E6000FCCF9093C600319687E0E83BF807A1F7D6
:101E70008091C00085FFFCCF8DE08093C6008091EB
:101E8000C00085FFFCCF8AE08093C60086EB91E01E
:101E90000E94B20E87EC91E00E94A3058FEC91E0C6
:101EA0000E946C008091C00085FFFCCF8DE0809384
:101EB000C6008091C00085FFFCCF8AE08093C600F9
:101EC0008091C00085FFFCCF8DE08093C60080919B
:101ED000C00085FFFCCF8AE08093C6008FEC91E0C4
:101EE0000E94B20E85ED91E00E94A3058AED91E07B
:101EF0000E946C008091C00085FFFCCF8DE0809334
:101F0000C6008091C00085FFFCCF8AE08093C600A8
:101F10008AED91E00E94B20E08958F929F92AF9247
:101F2000BF92CF92DF92EF92FF920F931F93DF93B6
:101F3000CF93CDB7DEB7C45AD0400FB6F894DEBF0A
:101F40000FBECDBF83E090E09093C5008093C400A6
:101F50008091C10088608093C1008091C100806140
:101F60008093C10086E08093C2000E946502539A6C
:101F70005B9A8DED91E00E94A30581EE91E00E94B5
:101F80006C008091C00085FFFCCF8DE08093C6007F
:101F90008091C00085FFFCCF8AE08093C60081EE6F
:101FA00091E00E94B20E88EE93E028EB30E0F90158
:101FB0003197F1F70197D9F784EE91E00E94A305DC
:101FC00082EF91E00E946C008091C00085FFFCCF01
:101FD0008DE08093C6008091C00085FFFCCF8AE031
:101FE0008093C60082EF91E00E94B20E88EE93E0EB
:101FF00028EB30E0F9013197F1F70197D9F78EEF2F
:1020000091E00E94A30589E092E00E946C0080911B
:10201000C00085FFFCCF8DE08093C6008091C0009A
:1020200085FFFCCF8AE08093C60089E092E00E94A1
:10203000B20E88EE93E028EB30E0F9013197F1F72A
:102040000197D9F782E192E00E94A3058BE192E02B
:102050000E946C008091C00085FFFCCF8DE08093D2
:10206000C6008091C00085FFFCCF8AE08093C60047
:102070008BE192E00E94B20E80E593EC28EB30E019
:10208000F9013197F1F70197D9F782E292E00E94C6
:10209000A3058BE292E00E946C008091C00085FF56
:1020A000FCCF8DE08093C6008091C00085FFFCCFFF
:1020B0008AE08093C6008BE292E00E94B20E80E23A
:1020C0009EE428EB30E0F9013197F1F70197D9F759
:1020D0008CE492E00E94A3058AE592E00E946C00E5
:1020E0008091C00085FFFCCF8DE08093C600809179
:1020F000C00085FFFCCF8AE08093C600E5E3CE2ECA
:10210000D12CCC0EDD1E4601C6011C2D092F9601D7
:102110002E5C3F4F8091C00087FFFCCF8091C600AE
:10212000F40181934F01E217F307A1F70E946502C2
:10213000812F902F62E370E00E945F0380E593ECB3
:1021400028EB30E0F9013197F1F70197D9F70E94B8
:10215000CE0E80E593EC28EB30E0F9013197F1F7F2
:102160000197D9F784E692E00E94A30582E792E006
:102170000E946C008091C00085FFFCCF8DE08093B1
:10218000C6008091C00085FFFCCF8AE08093C60026
:1021900082E792E00E94B20E88EE93E028EB30E0F6
:1021A000F9013197F1F70197D9F78EE792E00E9494
:1021B000A3058CE892E00E946C008091C00085FF2E
:1021C000FCCF8DE08093C6008091C00085FFFCCFDE
:1021D0008AE08093C60077E6A72EB12CAC0EBD1E18
:1021E000F501C5011A2D092F9501225C3F4F809101
:1021F000C00087FFFCCF8091C6008193E217F307F0
:10220000B1F70E946502812F902F6EE370E00E946B
:102210005F0388EB92E00E94A3058AEC92E00E94A3
:102220006C008091C00085FFFCCF8DE08093C600DC
:102230008091C00085FFFCCF8AE08093C6008AECC5
:1022400092E00E94B20E80E29EE428EB30E0F901B9
:102250003197F1F70197D9F70E9465028AED92E074
:102260000E94A3058DEA97E06BE070E00E945F0397
:1022700081EE92E00E946C00EDEAF7E0908180919F
:10228000C00085FFFCCF9093C600319687E0E83B05
:10229000F807A1F78091C00085FFFCCF8DE0809307
:1022A000C6008091C00085FFFCCF8AE08093C60005
:1022B000FE017796CF014E2F9E012B5C3F4F809100
:1022C000C00087FFFCCF8091C6008193E217F3071F
:1022D000B1F7842F6EE170E00E945F0380E29EE41C
:1022E00028EB30E0F9013197F1F70197D9F70E9417
:1022F000650287EE92E00E94A30589EF92E00E94BA
:102300006C008091C00085FFFCCF8DE08093C600FB
:102310008091C00085FFFCCF8AE08093C60089EFE2
:1023200092E00E94B20E89E093E00E94A30586E14C
:1023300093E00E946C008091C00085FFFCCF8DE08F
:102340008093C6008091C00085FFFCCF8AE0809317
:10235000C6007E010894E11CF11C87019E01295EE4
:102360003F4F8091C00087FFFCCF8091C600F801ED
:1023700081938F01E217F307A1F7CE01019666E181
:1023800070E00E945F0380E593EC28EB30E0F901F8
:102390003197F1F70197D9F70E94650281E293E046
:1023A0000E94A30583E393E00E946C008091C0002B
:1023B00085FFFCCF8DE08093C6008091C00085FF33
:1023C000FCCF8AE08093C60084E493E00E94B20EC2
:1023D00080E29EE428EB30E0F9013197F1F70197B4
:1023E000D9F784E593E00E94A3058CE593E00E9471
:1023F0006C008091C00085FFFCCF8DE08093C6000B
:102400008091C00085FFFCCF8AE08093C600809158
:10241000C00087FFFCCF8091C600F70181937F0148
:10242000E017F107A1F7F601AE014B5C5F4F9A018F
:10243000225E3F4F8091C00087FFFCCF8091C60095
:102440008193E217F307B1F7CA016EE170E00E94D1
:102450005F03CE01019666E170E00E945F0380E5B4
:1024600093EC28EB30E0F9013197F1F70197D9F7B8
:102470000E94650281E793E00E94A30583E893E050
:102480000E946C008091C00085FFFCCF8DE080939E
:10249000C6008091C00085FFFCCF8AE08093C60013
:1024A00084E993E00E94B20E80E29EE428EB30E0E3
:1024B000F9013197F1F70197D9F784EA93E00E9487
:1024C000A3058FEA93E00E946C008091C00085FF15
:1024D000FCCF8DE08093C6008091C00085FFFCCFCB
:1024E0008AE08093C60086019E01275B3F4F809162
:1024F000C00087FFFCCF8091C600F80181938F0157
:10250000E217F307A1F7F6018091C00087FFFCCF27
:102510008091C6008193E815F905B1F7CE01C59603
:1025200062E370E00E945F0380E593EC28EB30E00B
:10253000F9013197F1F70197D9F70E94650288EC0C
:1025400093E00E94A3058AED93E00E946C008091C5
:10255000C00085FFFCCF8DE08093C6008091C00055
:1025600085FFFCCF8AE08093C6008BEE93E00E944B
:10257000B20E80E29EE428EB30E0F9013197F1F7EA
:102580000197D9F78BEF93E00E94A30587E094E0D1
:102590000E946C008091C00085FFFCCF8DE080938D
:1025A000C6008091C00085FFFCCF8AE08093C60002
:1025B000F6018091C00087FFFCCF8091C600819317
:1025C000E017F107B1F7CE01C59664E170E00E9413
:1025D0005F0380E593EC28EB30E0F9013197F1F7E8
:1025E0000197D9F70E94650283E294E00E94A30557
:1025F00085E394E00E946C008091C00085FFFCCFD1
:102600008DE08093C6008091C00085FFFCCF8AE0FA
:102610008093C60086E494E00E94B20E80E29EE4BD
:1026200028EB30E0F9013197F1F70197D9F786E50A
:1026300094E00E94A30580E694E00E946C008091E3
:10264000C00085FFFCCF8DE08093C6008091C00064
:1026500085FFFCCF8AE08093C600F6018091C00020
:1026600087FFFCCF8091C6008193E017F107B1F797
:10267000AE014B5C5F4F9A01285D3F4F8091C000D7
:1026800087FFFCCF8091C600F60181936F01E217AE
:10269000F307A1F7CA0168E270E00E945F0380E5DA
:1026A00093EC28EB30E0F9013197F1F70197D9F776
:1026B0000E9465028AE794E00E94A3058AE894E0FC
:1026C0000E946C008091C00085FFFCCF8DE080935C
:1026D000C6008091C00085FFFCCF8AE08093C600D1
:1026E0008AE894E00E94B20E80E29EE428EB30E09B
:1026F000F9013197F1F70197D9F789E994E00E9440
:10270000A3058FE994E00E946C008091C00085FFD2
:10271000FCCF8DE08093C6008091C00085FFFCCF88
:102720008AE08093C60080E29EE428EB30E0F90165
:102730003197F1F70197D9F780E593EC28EB30E07A
:10274000F9013197F1F70197D9F70E94650284EA00
:1027500094E00E94A30585EB94E00E946C008091B8
:10276000C00085FFFCCF8DE08093C6008091C00043
:1027700085FFFCCF8AE08093C60085EB94E00E9441
:10278000B20E80E29EE428EB30E0F9013197F1F7D8
:102790000197D9F785EC94E00E94A30588ED94E0B9
:1027A0000E946C008091C00085FFFCCF8DE080937B
:1027B000C6008091C00085FFFCCF8AE08093C600F0
:1027C00080E593EC28EB30E0F9013197F1F70197C0
:1027D000D9F70E9465028AEE94E00E94A3058AEF71
:1027E00094E00E946C008091C00085FFFCCF8DE0DA
:1027F0008093C6008091C00085FFFCCF8AE0809363
:10280000C6008AEF94E00E94B20E80E29EE428EBBC
:1028100030E0F9013197F1F70197D9F789E095E0B8
:102820000E94A3058DE095E00E946C008091C0009D
:1028300085FFFCCF8DE08093C6008091C00085FFAE
:10284000FCCF8AE08093C60080E593EC28EB30E073
:10285000F9013197F1F70197D9F70E9465028AE7EC
:1028600094E00E94A3058AE894E00E946C008091A5
:10287000C00085FFFCCF8DE08093C6008091C00032
:1028800085FFFCCF8AE08093C6008AE894E00E942E
:10289000B20E80E29EE428EB30E0F9013197F1F7C7
:1028A0000197D9F78FE095E00E94A30586E195E0B6
:1028B0000E946C008091C00085FFFCCF8DE080936A
:1028C000C6008091C00085FFFCCF8AE08093C600DF
:1028D000F5019E012B573F4F8091C00087FFFCCF31
:1028E0008091C6008193E217F307B1F7AE01495911
:1028F0005F4F9A012E5C3F4F8091C00087FFFCCF55
:102900008091C600F50181935F01E217F307A1F7FB
:10291000CA0162E370E00E945F0380E593EC28EB5C
:1029200030E0F9013197F1F70197D9F7CC55DF4F36
:102930000FB6F894DEBF0FBECDBFCF91DF911F91D0
:102940000F91FF90EF90DF90CF90BF90AF909F904E
:102950008F9008956F927F928F929F92AF92BF92C5
:10296000CF92DF92EF92FF920F931F93DF93CF935B
:102970000F92CDB7DEB780910106803309F0AEC06B
:102980000E9465028BE195E00E94A305CC24DD2422
:10299000AA24BB243E010894611C711CC114D104FB
:1029A00029F4E0902C06F0902D060DC081E0C816A9
:1029B000D10429F4E0905306F090540604C0E0904E
:1029C0007A06F0907B06F7018081813309F07BC0A5
:1029D000A1E28A2E912C8E0C9F1C81A1803339F4A8
:1029E00082A1803321F483A1803309F469C021E0FE
:1029F00030E0F701E20FF31FE0818091C00085FF16
:102A0000FCCFE093C6002F5F3F4F2A30310589F796
:102A10000E94C902F1E0AF16B10429F40E94FB0242
:102A200001E010E007C082E0A816B104C9F70E94D7
:102A30002D03F6CFF701E00FF11F80818983C301D9
:102A400061E070E00E945F030F5F1F4F0A301105C5
:102A500089F78EE191E00E94A305F4018081803323
:102A600069F0813319F480E395E002C082E395E0D8
:102A70000E94A30584E395E00E94A305F70182A1CB
:102A8000803369F0813319F480E395E002C082E37A
:102A900095E00E94A30587E395E00E94A305F70156
:102AA00083A1803369F0813319F480E395E002C09B
:102AB00082E395E00E94A3058AE395E00E94A305C6
:102AC0000894A11CB11C0E948D0F0894C11CD11C3C
:102AD000F3E0CF16D10409F061CF12C00E94650265
:102AE0008DE395E00E94A3050E94C9028FE495E062
:102AF0000E94A3050E94FB0284E695E00E94A305C4
:102B000080E593EC28EB30E0F9013197F1F701977C
:102B1000D9F71899FECF80E38093010683E3809371
:102B2000A7070F90CF91DF911F910F91FF90EF902A
:102B3000DF90CF90BF90AF909F908F907F906F90DD
:102B400008952F923F924F925F926F927F928F9251
:102B50009F92AF92BF92CF92DF92EF92FF920F932C
:102B60001F93DF93CF93CDB7DEB7CE57D0400FB6CC
:102B7000F894DEBF0FBECDBF2224332421143104CC
:102B800029F4C0902C06D0902D060DC021E022160D
:102B9000310429F4C0905306D090540604C0C0906C
:102BA0007A06D0907B06ABE0EA2EF12CEC0CFD1CF3
:102BB000D6011B968C91BAE08B0280011124FCE0B7
:102BC000AF2EB12CAC0CBD1CF6018485992787FD76
:102BD0009095080F191F005112402DB73EB728508D
:102BE00030400FB6F8943EBF0FBE2DBFEDB7FEB715
:102BF000319621E030E02C0F3D1FADB7BEB71296E5
:102C00003C932E9311974AE050E05383428360E057
:102C100071E075836483178306830E9455268DB700
:102C20009EB708960FB6F8949EBF0FBE8DBF8091D9
:102C3000C00085FFFCCF90E29093C600D7019C9125
:102C40008091C00085FFFCCF9093C600F501908174
:102C50008091C00085FFFCCF9093C600D6011D96E1
:102C60009C918091C00085FFFCCF9093C600F60137
:102C700066858091C00085FFFCCF6093C6004091BF
:102C8000A8075091A9074017510708F450C0892F91
:102C9000992787FD9095C0979C01E3E0220F331F91
:102CA000EA95E1F7880F991F280F391F862F99277A
:102CB00087FD9095C097820F931F84179507C8F1E1
:102CC0009C01200F311F36952795E0E3D6019196A0
:102CD000EC934091A8075091A907C901059748179F
:102CE000590780F0C90105968417950758F00F2EF3
:102CF000F0E0EF2EF0E0FF2EF0E80F2FF0E41F2FB2
:102D0000F02D30C0C9010A974817590708F1265F0E
:102D10003F4F24173507E0F00F2EF0E0EF2EF0E0E4
:102D2000FF2EF0E60F2FF0E41F2FF02D1BC0E1E384
:102D300001C0E2E3D6019196EC930F2EF0E0EF2E66
:102D4000F0E0FF2EF0E00F2FFFE31F2FF02D0AC061
:102D50000F2EF0E0EF2EF0E0FF2EF0E40F2FF0E466
:102D60001F2FF02DBFE08B2E912C8C0C9D1CA0E111
:102D70006A2E712C6C0C7D1CF1E14F2E512C4C0CE9
:102D80005D1CD60151968C915197A82EBB24A7FCAF
:102D9000B094E0EDFFEFAE0EBF1E1F968C911F9713
:102DA000992787FD9095C0979C0144E650E0249FA9
:102DB000C001259F900D349F900D1124A80EB91EBF
:102DC00050968C91992787FD9095C0979C01E3E0E0
:102DD000220F331FEA95E1F7880F991F280F391F3B
:102DE000A20EB31E6DB77EB7685070400FB6F89450
:102DF0007EBF0FBE6DBFEDB7FEB7319621E030E06C
:102E00002C0F3D1FADB7BEB712963C932E93119772
:102E10004AE050E05383428360E071E0758364834D
:102E2000B782A6820E9455268DB79EB708960FB628
:102E3000F8949EBF0FBE8DBF8091C00085FFFCCF70
:102E400090E29093C600D4019C918091C00085FFD0
:102E5000FCCF9093C600F30190818091C00085FF64
:102E6000FCCF9093C600D2019C918091C00085FF59
:102E7000FCCF9093C600F60192898091C00085FF37
:102E8000FCCF9093C600D60153963C918091C00030
:102E900085FFFCCF3093C600F60124898091C000E5
:102EA00085FFFCCF2093C6008090B9079090BA07A9
:102EB0008A149B0408F465C0422F552747FD50959E
:102EC00040535040892F992787FD9095C097BC01AA
:102ED000A4E6B0E06A9FC0016B9F900D7A9F900DB1
:102EE0001124480F591F832F992787FD9095C0976C
:102EF0009C0163E0220F331F6A95E1F7880F991F49
:102F0000280F391F420F531F48155905D0F19A0158
:102F10002A0D3B1D3695279540E3F60142A34091CB
:102F2000B9075091BA07C901C2974817590760F00D
:102F3000C901C2968417950738F0C801B70120E08F
:102F400030E040E850E418C0C90186599040481765
:102F5000590760F02A563F4F2417350738F0C8014B
:102F6000B70120E030E040E650E406C0C801B701F8
:102F700020E030E040E450E40E94FB202B013C01C3
:102F800013C0C801B70120E030E040E05FE30E94D9
:102F9000FB202B013C018A149B0410F4E1E301C0E7
:102FA000E2E3D6019296EC93F5E1EF2EF12CEC0CD6
:102FB000FD1CD60155968C915597992787FD9095C4
:102FC000C097E0E1F7E28E9F90018F9F300D9E9FAA
:102FD000300D112486010A5E1F4FE7E18E2E912CE1
:102FE0008C0C9D1CA601485E5F4FEF965FAF4EAF05
:102FF000EF97B601675E7F4FED967FAF6EAFED97AF
:1030000059968C915997A82EBB24A7FCB09480EDBB
:103010009FEFA80EB91EA20EB31E56968C9199274B
:1030200087FD9095C097DC01E8EEF3E0AE9FC0010C
:10303000AF9F900DBE9F900D1124A80EB91ED60112
:1030400057968C915797992787FD9095C097FC01CB
:1030500024E630E0E29FC001E39F900DF29F900DC7
:103060001124A80EB91E58968C91992787FD90952A
:10307000C0979C0173E0220F331F7A95E1F7880F08
:10308000991F280F391FA20EB31E4DB75EB74850C7
:1030900050400FB6F8945EBF0FBE4DBFEDB7FEB700
:1030A000319621E030E02C0F3D1FADB7BEB7129630
:1030B0003C932E9311974AE050E05383428360E0A3
:1030C00071E075836483B782A6820E9455268DB70E
:1030D0009EB708960FB6F8949EBF0FBE8DBF809125
:1030E000C00085FFFCCF90E29093C600D7019C9171
:1030F0008091C00085FFFCCF9093C600F8019081BD
:103100008091C00085FFFCCF9093C600D4019C91B4
:103110008091C00085FFFCCF9093C600EF96EEAD86
:10312000FFADEF9790818091C00085FFFCCF909319
:10313000C600ED96AEADBFADED979C918091C000FD
:1031400085FFFCCF9093C600F601928D8091C00060
:1031500085FFFCCF9093C600D6015B965C91809171
:10316000C00085FFFCCF5093C600F601448D8091CE
:10317000C00085FFFCCF4093C600D6015D963C9110
:103180008091C00085FFFCCF3093C600F601268DEC
:103190008091C00085FFFCCF2093C600892F99271E
:1031A00087FD9095C097BC01A0E1B7E26A9FC0017E
:1031B0006B9F900D7A9F900D1124022F112707FD10
:1031C000109500531040080F191F852F992787FD70
:1031D0009095C097FC0168EE73E0E69FC001E79F01
:1031E000900DF69F900D1124080F191F842F992719
:1031F00087FD9095C097DC01E4E6F0E0AE9FC0014A
:10320000AF9F900DBE9F900D1124080F191F832FA3
:10321000992787FD9095C0979C0153E0220F331F9B
:103220005A95E1F7880F991F280F391F020F131FB6
:103230002DB73EB7285030400FB6F8943EBF0FBEB2
:103240002DBFEDB7FEB7319621E030E02C0F3D1FCA
:10325000ADB7BEB712963C932E9311974AE050E05B
:103260005383428366E775E075836483178306831F
:103270000E9455268DB79EB708960FB6F8949EBF4C
:103280000FBE8DBF8091C00085FFFCCF90E2909370
:10329000C600E090A507F090A607EA14FB04F0F141
:1032A0000E151F05D8F198012A0D3B1D369527955F
:1032B000E0E3D6019396EC934091A5075091A607C1
:1032C000C901C2974817590760F0C901C29684170F
:1032D000950738F0C301B20120E030E040E050E44F
:1032E00018C0C901865990404817590760F02A56FE
:1032F0003F4F2417350738F0C301B20120E030E01A
:1033000040EC5FE306C0C301B20120E030E040E8DA
:103310005FE30E94FB203B014C0113C0C301B201DB
:1033200020E030E040E85EE30E94FB203B014C01DE
:10333000EA14FB0410F4E1E301C0E2E3D601939642
:10334000EC932114310439F4EB966CAE7DAE8EAE65
:103350009FAEEB9711C0F1E02F16310439F0E396E0
:103360006CAE7DAE8EAE9FAEE39706C0E7966CAEB8
:103370007DAE8EAE9FAEE7970894211C311C23E0F2
:103380002216310409F0FACBEB966CAD7DAD8EAD13
:103390009FADEB97E7962CAD3DAD4EAD5FADE7979A
:1033A0000E94CE2288237CF1EB966CAD7DAD8EAD74
:1033B0009FADEB97E3962CAD3DAD4EAD5FADE39782
:1033C0000E94CE2287FF05C0B2E35B2EA3E3AA2EA4
:1033D0002EC0E7966CAD7DAD8EAD9FADE797E396C1
:1033E0002CAD3DAD4EAD5FADE3970E94CE2287FF81
:1033F00005C0F1E35F2EE3E3AE2E37C071E3572E35
:1034000062E3A62E2BC0E7966CAD7DAD8EAD9FAD71
:10341000E797E3962CAD3DAD4EAD5FADE3970E94CF
:10342000CE2287FF07C053E3552E42E3A42E31E39B
:10343000B32E1DC0E3966CAD7DAD8EAD9FADE39711
:10344000EB962CAD3DAD4EAD5FADEB970E94CE221D
:1034500087FF07C022E3522E91E3A92E83E3B82E03
:1034600006C003E3502E11E3A12EB2E3BB2EEB9670
:103470006CAD7DAD8EAD9FADEB970E94521F6B0181
:103480007C0180E090E00E94B0239B01AC01C4016C
:10349000B3010E94CA2020E030E040E251E40E94E3
:1034A00028210E94AA264DB75EB7485050400FB65B
:1034B000F8945EBF0FBE4DBF0DB71EB70F5F1F4F15
:1034C0009E01255F3F4FADB7BEB712963C932E933A
:1034D000119729E735E0F80133832283D582C4822E
:1034E0000E94521FD80117967C936E9316970E94E4
:1034F000862640912C0650912D0621E030E0EDB754
:10350000FEB738960FB6F894FEBF0FBEEDBFFA01B6
:10351000E20FF31FE0818091C00085FFFCCFE093B4
:10352000C6002F5F3F4F2A30310589F78091C000D8
:1035300085FFFCCF80E28093C6008091C00085FFAC
:10354000FCCF80E28093C6008091C00085FFFCCF55
:103550005092C6008091C00085FFFCCF80E280932E
:10356000C600E7966CAD7DAD8EAD9FADE7970E942E
:10357000521F6B017C0180E090E00E94B0239B0110
:10358000AC01C401B3010E94CA2020E030E040E257
:1035900051E40E9428210E94AA262DB73EB7285048
:1035A00030400FB6F8943EBF0FBE2DBF0DB71EB70B
:1035B0000F5F1F4F9E01255F3F4FADB7BEB71296FD
:1035C0003C932E93119722E835E0F8013383228350
:1035D000D582C4820E94521FD80117967C936E93A5
:1035E00016970E948626409153065091540621E07A
:1035F00030E0EDB7FEB738960FB6F894FEBF0FBEB9
:10360000EDBFFA01E20FF31FE0818091C00085FF5A
:10361000FCCFE093C6002F5F3F4F2A30310589F77A
:103620008091C00085FFFCCF80E28093C60080912E
:10363000C00085FFFCCF80E28093C6008091C0006F
:1036400085FFFCCFA092C6008091C00085FFFCCF13
:1036500080E28093C600E3966CAD7DAD8EAD9FADEC
:10366000E3970E94521F6B017C0180E090E00E9472
:10367000B0239B01AC01C401B3010E94CA2020E029
:1036800030E040E251E40E9428210E94AA262DB792
:103690003EB7285030400FB6F8943EBF0FBE2DBF46
:1036A0000DB71EB70F5F1F4F9E01255F3F4FADB790
:1036B000BEB712963C932E93119729E835E0F80196
:1036C00033832283D582C4820E94521FD801179669
:1036D0007C936E9316970E948626EDB7FEB73896B8
:1036E0000FB6F894FEBF0FBEEDBF8091C00085FFFE
:1036F000FCCF8AE08093C60040917A0650917B0609
:1037000021E030E0FA01E20FF31FE0818091C00078
:1037100085FFFCCFE093C6002F5F3F4F2A30310575
:1037200089F78091C00085FFFCCF80E28093C600BE
:103730008091C00085FFFCCF80E28093C60080911D
:10374000C00085FFFCCFB092C6008091C00085FF0D
:10375000FCCF80E28093C600E0912C06F0912D060C
:10376000578EE0915306F0915406A78EE0917A06A9
:10377000F0917B06B78E00912C0610912D06EB96EA
:103780006CAD7DAD8EAD9FADEB970E945C23605D0F
:10379000D80190966C930091530610915406E796C9
:1037A0006CAD7DAD8EAD9FADE7970E945C23605DF3
:1037B000F80160A300917A0610917B06E3966CAD48
:1037C0007DAD8EAD9FADE3970E945C23605DD80117
:1037D00090966C93C258DF4F0FB6F894DEBF0FBEC1
:1037E000CDBFCF91DF911F910F91FF90EF90DF90B0
:1037F000CF90BF90AF909F908F907F906F905F9091
:103800004F903F902F9008950E9465020E94C90238
:1038100081E995E00E94A30580E593EC28EB30E078
:10382000F9013197F1F70197D9F78091C00085FF31
:10383000FCCF80E38093C6008091C00085FFFCCF61
:1038400080E38093C60080E090E020E030E00196C5
:1038500047E28031940721F42F5F3F4F80E090E0F2
:103860002E31310511F040E341C00E94D5010E9484
:103870004E020E940D040E94A115E0912C06F091C9
:103880002D068081813349F481A1803341F482A1E6
:10389000803329F483A1803311F440E301C041E374
:1038A000E0915306F09154068081813351F481A157
:1038B000803331F482A1803319F483A1803309F07D
:1038C00041E3E0917A06F0917B068081813351F4E7
:1038D00081A1803331F482A1803319F483A1803334
:1038E00009F041E380E090E020E030E0189903C067
:1038F000413331F403C0403309F4A9CF86E301C05A
:1039000083E38093A70708958F929F92AF92BF920F
:10391000CF92DF92EF92FF920F931F93DF93CF939B
:103920000F92CDB7DEB783E38093A7070E946502AD
:1039300085EA95E00E94A305E0912C06F0912D0602
:1039400090A18091C00085FFFCCF9093C6000E949B
:10395000A115C0902C06D0902D06F60190A1809163
:10396000C00085FFFCCF9093C600F601878D8133A0
:10397000A1F0C0905306D0905406F601878D813394
:1039800061F0C0907A06D0907B06F601878D813376
:1039900021F080E090E09C0169010E94C9028EE163
:1039A00091E00E94A3058FEA95E00E94A30501E043
:1039B00010E07E010894E11CF11CF601E00FF11FFC
:1039C000E0818091C00085FFFCCFE093C600E983D1
:1039D000C70161E070E00E945F030F5F1F4F0A3074
:1039E000110559F78601005E1F4FF60190A18091E5
:1039F000C00085FFFCCF9093C6008EE191E00E944D
:103A0000A305F80180818983CE01019661E070E011
:103A10000E945F0383EB95E00E94A305A0902C0613
:103A2000B0902D06F501878D8233A1F0A09053064A
:103A3000B0905406F501878D823361F0A0907A062C
:103A4000B0907B06F501878D823321F080E090E015
:103A50009C0159010E94FB028EE191E00E94A305A6
:103A600089EB95E00E94A30501E010E07E01089437
:103A7000E11CF11CF501E00FF11FE0818091C00015
:103A800085FFFCCFE093C600E983C70161E070E0E9
:103A90000E945F030F5F1F4F0A30110559F7850120
:103AA000005E1F4FF50190A18091C00085FFFCCF03
:103AB0009093C6008EE191E00E94A305F8018081F9
:103AC0008983CE01019661E070E00E945F0383EB81
:103AD00095E00E94A3050E942D038EE191E00E94D3
:103AE000A3058DEB95E00E94A305E0902C06F090D5
:103AF0002D06F701878D8333A1F0E0905306F090F7
:103B00005406F701878D833361F0E0907A06F090D8
:103B10007B06F701878D833321F080E090E09C01E4
:103B2000790101E010E04E010894811C911CF7011D
:103B3000E00FF11FE0818091C00085FFFCCFE09392
:103B4000C600E983C40161E070E00E945F030F5F7B
:103B50001F4F0A30110559F78701005E1F4FF7010B
:103B600090A18091C00085FFFCCF9093C6008EE1AC
:103B700091E00E94A305F80180818983CE0101961E
:103B800061E070E00E945F0383EB95E00E94A30573
:103B900083E090E09093900780938F0710928E07B8
:103BA00010928D0720983A98399888B1866088B924
:103BB0008091680082608093680080916C008660CC
:103BC00080936C00789486B1982F927082FD07C024
:103BD000992319F41092B80709C081E005C0992310
:103BE00011F482E001C083E08093B8078091B807A8
:103BF0008093AC070E94C90280E291E00E94A30575
:103C000021E030E0F601E20FF31FE0818091C00077
:103C100085FFFCCFE093C6002F5F3F4F2A30310570
:103C200089F7A60100E3B1E08B2E912C18990CC006
:103C30008091850790918607892B31F490928607B1
:103C40008092850711E307C0189B04C01092860775
:103C50001092850710E380910406813309F056C065
:103C600080918D0790918E070097A1F40E94C90260
:103C700080E291E00E94A3050E94FB028EE191E0A8
:103C80000E94A3050E942D038EE191E00E94A305EE
:103C9000A60129C00197A1F40E94C9028EE191E01A
:103CA0000E94A3050E94FB0280E291E00E94A3050E
:103CB0000E942D038EE191E00E94A305A50113C08F
:103CC0000E94C9028EE191E00E94A3050E94FB02BE
:103CD0008EE191E00E94A3050E942D0380E291E015
:103CE0000E94A305A70121E030E0FA01E20FF31FD3
:103CF000E0818091C00085FFFCCFE093C6002F5F7C
:103D00003F4F2A30310589F700930406103309F438
:103D10008DCF21E030E0FA01E20FF31FE0818091C6
:103D2000C00085FFFCCFE093C6002F5F3F4F2A30D5
:103D3000310589F780912C0690912D064817590777
:103D400049F481E090E00E94420CE0912C06F09151
:103D50002D061FC0809153069091540648175907AD
:103D600049F482E090E00E94420CE0915306F09109
:103D700054060FC080917A0690917B064817590728
:103D800051F483E090E00E94420CE0917A06F091B9
:103D90007B0681E3808390E0E0912C06F0912D0674
:103DA0008081813309F491E020E0E0915306F091A5
:103DB00054068081813309F421E09223292F30E0D9
:103DC00040E050E0E0917A06F0917B0680818133FB
:103DD00011F441E050E024233523232B19F081E333
:103DE0008093000683E38093A7070F90CF91DF9124
:103DF0001F910F91FF90EF90DF90CF90BF90AF9009
:103E00009F908F9008951F930E94650281EC95E02A
:103E10000E94A3050E94C90286ED95E00E94A305B9
:103E20000E94FB028BEE95E00E94A3050E942D03E9
:103E300081EC95E00E94A30580E593EC28EB30E04F
:103E4000F9013197F1F70197D9F781E38093A7073B
:103E500012E38091A7078433E1F085333CF4823389
:103E600079F0833384F48133B1F707C08633A1F04E
:103E7000863364F0873379F712C01093A707E9CF30
:103E80000E948B0EE6CF0E94BC0DE3CF0E94841CE3
:103E9000E0CF0E94CB05DDCF0E94AA14DACF0E94AA
:103EA000041CD7CFEF92FF920F931F937B018C01DD
:103EB00020E030E040E05FE40E94CE2288238CF0D6
:103EC000C801B70120E030E040E05FE40E94CA2072
:103ED0000E945C239B01AC01205030404040504880
:103EE00006C0C801B7010E945C239B01AC01B90167
:103EF000CA011F910F91FF90EF900895A0E0B0E0EC
:103F0000E4E8FFE10C941E26DC012B01FA019C91F0
:103F1000923008F439C1EB018881823008F433C152
:103F2000943069F4843009F02FC111969C91119757
:103F30008981981709F428C1ACE7B6E025C184301F
:103F400009F421C18230A9F4923009F01DC19A010F
:103F5000AD0188E0EA010990AE01E90109929E01F4
:103F60008150C1F7E201898111969C918923818357
:103F700008C1923009F407C112962D903C90139716
:103F8000EB018A819B811496AD90BD90CD90DC9021
:103F90001797EC80FD800E811F819101281B390B42
:103FA000B90137FF04C066277727621B730B6032A5
:103FB00071050CF061C0121613066CF5370148014B
:103FC000062E04C096948794779467940A94D2F747
:103FD00021E030E040E050E004C0220F331F441FD6
:103FE000551F6A95D2F721503040404050402E2155
:103FF0003F2140235123211531054105510521F071
:1040000021E030E040E050E079018A01E628F7281D
:10401000082919293CC0232BD1F1260E371E350162
:104020004601062E04C096948794779467940A9468
:10403000D2F721E030E040E050E004C0220F331F0F
:10404000441F551F6A95D2F72150304040405040E0
:104050002A213B214C215D212115310541055105C6
:1040600021F021E030E040E050E059016A01A6284B
:10407000B728C828D9280BC0821593052CF01C013D
:10408000AA24BB24650103C0EE24FF2487011196F6
:104090009C91D20111968C91981709F445C09923EF
:1040A00039F0A80197012A193B094C095D0906C09E
:1040B000A60195012E193F09400B510B57FD08C071
:1040C00011823382228224833583468357831DC025
:1040D00081E081833382228288279927DC01821B39
:1040E000930BA40BB50B84839583A683B7830DC074
:1040F000220F331F441F551F248335834683578364
:1041000082819381019793838283248135814681C3
:104110005781DA01C9010197A109B1098F5F9F4F4A
:10412000AF4FBF4328F30BC0918333822282EA0C46
:10413000FB1C0C1D1D1DE482F5820683178383E0A2
:104140008083248135814681578157FF1AC0C90178
:10415000AA2797FDA095BA2F81709070A070B070BB
:104160005695479537952795822B932BA42BB52BE6
:1041700084839583A683B7838281938101969383F9
:104180008283DF0101C0D201CD01CDB7DEB7E2E10C
:104190000C943A26A0E2B0E0E0EDF0E20C942A267E
:1041A00069837A838B839C832D833E834F835887D7
:1041B000E9E0EE2EF12CEC0EFD1ECE010196B701CA
:1041C0000E944D258E010F5E1F4FCE010596B8014E
:1041D0000E944D258A8991E089278A8BC701B80101
:1041E000AE01475E5F4F0E947E1F0E947824A0961A
:1041F000E6E00C944626A0E2B0E0E1E0F1E20C94A7
:104200002A2669837A838B839C832D833E834F8305
:104210005887F9E0EF2EF12CEC0EFD1ECE01019631
:10422000B7010E944D258E010F5E1F4FCE010596EE
:10423000B8010E944D25C701B801AE01475E5F4F2E
:104240000E947E1F0E947824A096E6E00C944626E9
:10425000A0E2B0E0EEE2F1E20C941E2669837A83DC
:104260008B839C832D833E834F835887CE01019699
:10427000BE01675F7F4F0E944D25CE010596BE01AE
:104280006F5E7F4F0E944D259985923088F0898915
:104290008230C8F0943019F4823051F404C0843074
:1042A00029F4923081F48CE796E0C6C0923049F44C
:1042B00020E09A858A89981321E02A87CE01099601
:1042C000BBC0823049F420E09A858A89981321E0A6
:1042D0002A8BCE014196B0C02D843E844F845888ED
:1042E0006D887E888F88988CEE24FF248701AA240D
:1042F000BB24650140E050E060E070E0E0E0F0E009
:10430000C10181709070892BE9F0E60CF71C081D43
:10431000191D9A01AB012A0D3B1D4C1D5D1D80E04E
:1043200090E0A0E0B0E0E614F7040805190520F4D9
:1043300081E090E0A0E0B0E0BA01A901480F591F68
:104340006A1F7B1FAA0CBB1CCC1CDD1C97FE08C07F
:1043500081E090E0A0E0B0E0A82AB92ACA2ADB2ACE
:104360003196E032F10549F0660C771C881C991CE7
:104370005694479437942794C3CFFA85EA892B89BA
:104380003C898B859C85280F391F2E5F3F4F17C0B6
:10439000CA0181709070892B61F016950795F7948A
:1043A000E79480E090E0A0E0B0E8E82AF92A0A2B40
:1043B0001B2B76956795579547952F5F3F4F77FD58
:1043C000E7CF0CC0440F551F661F771F17FD4160D4
:1043D000EE0CFF1C001F111F21503040403090E0B8
:1043E000590790E0690790E4790760F32B8F3C8FC1
:1043F000DB01CA018F779070A070B0708034910596
:10440000A105B10561F447FD0AC0E114F1040105FD
:10441000110529F0405C5F4F6F4F7F4F40781A8E37
:10442000FE1711F081E08A8F4D8F5E8F6F8F78A31A
:1044300083E0898FCE0149960E947824A096E2E11C
:104440000C943A26A8E1B0E0E8E2F2E20C942626C9
:1044500069837A838B839C832D833E834F83588724
:10446000B9E0EB2EF12CEC0EFD1ECE010196B7014A
:104470000E944D258E010F5E1F4FCE010596B8019B
:104480000E944D252985223008F47EC039893230BA
:1044900010F4B8017CC08A859A8989278A872430DC
:1044A00011F0223031F4231709F06EC06CE776E08A
:1044B0006EC0343039F41D861E861F86188A1C860D
:1044C0001B8604C0323021F484E08987B7015FC0C5
:1044D0002B853C858B899C89281B390B3C872B8736
:1044E000ED84FE840F851889AD88BE88CF88D88C6E
:1044F000EA14FB040C051D0540F4EE0CFF1C001F24
:10450000111F215030403C872B8720E030E040E0F5
:1045100050E080E090E0A0E0B0E460E070E0EA14F9
:10452000FB040C051D0540F0282B392B4A2B5B2B77
:10453000EA18FB080C091D09B695A795979587956C
:10454000EE0CFF1C001F111F6F5F7F4F6F31710555
:1045500031F7DA01C9018F779070A070B0708034A4
:104560009105A105B10561F427FD0AC0E114F1042C
:104570000105110529F0205C3F4F4F4F5F4F207818
:104580002D873E874F87588BBE01675F7F4FCB01DA
:104590000E9478246896EAE00C944226A8E1B0E0F4
:1045A000E4EDF2E20C942A2669837A838B839C8360
:1045B0002D833E834F83588789E0E82EF12CEC0E43
:1045C000FD1ECE010196B7010E944D258E010F5EA2
:1045D0001F4FCE010596B8010E944D258985823076
:1045E00040F08989823028F0C701B8010E94C525B2
:1045F00001C08FEF6896E6E00C944626A8E0B0E094
:10460000E4E0F3E20C9427269B01AC0183E089836C
:10461000DA01C9018827B7FD83959927AA27BB2707
:10462000B82E211531054105510519F482E0898321
:104630003AC08823A9F0203080E0380780E048079E
:1046400080E8580729F460E070E080E09FEC30C01B
:10465000EE24FF248701E21AF30A040B150B02C0B3
:1046600079018A018EE1C82ED12CDC82CB82ED82C9
:10467000FE820F831887C801B7010E942924019781
:104680001816190684F4082E04C0EE0CFF1C001F37
:10469000111F0A94D2F7ED82FE820F831887C81A81
:1046A000D90ADC82CB82BA82CE0101960E9478249C
:1046B0002896E9E00C944326ACE0B0E0E2E6F3E2B1
:1046C0000C942E2669837A838B839C83CE0101967A
:1046D000BE016B5F7F4F0E944D258D81823061F15D
:1046E000823050F1843021F48E81882351F12EC024
:1046F0002F81388537FD20C06E812F3131051CF0A8
:104700006623F9F023C08EE190E0821B930B29858C
:104710003A854B855C8504C0569547953795279516
:104720008A95D2F76623B1F0509540953095219542
:104730003F4F4F4F5F4F0EC020E030E040E050E071
:1047400009C02FEF3FEF4FEF5FE704C020E030E0FC
:1047500040E050E8B901CA012C96E2E00C944A26E8
:10476000A8E0B0E0E6EBF3E20C9426267B018C0196
:10477000611571058105910519F482E0898360C096
:1047800083E089838EE1C82ED12CDC82CB82ED823E
:10479000FE820F831887C801B7010E942924FC01FB
:1047A0003197F7FF3BC0222733272E1B3F0B5701C2
:1047B0006801022E04C0D694C794B794A7940A94B3
:1047C000D2F740E050E060E070E081E090E0A0E0EF
:1047D000B0E004C0880F991FAA1FBB1F2A95D2F70B
:1047E0000197A109B1098E219F21A023B123009730
:1047F000A105B10521F041E050E060E070E04A29F8
:104800005B296C297D294D835E836F8378878EE1D8
:1048100090E08E1B9F0B9C838B8312C0309781F09E
:104820000E2E04C0EE0CFF1C001F111F0A94D2F7BD
:10483000ED82FE820F831887CE1ADF0ADC82CB82DC
:104840001A82CE0101960E9478242896EAE00C9400
:104850004226EF92FF920F931F937B018C0180E021
:10486000E81680E0F80681E0080780E0180788F481
:104870008FEFE816F1040105110531F028F088E00A
:1048800090E0A0E0B0E017C080E090E0A0E0B0E0F1
:1048900012C080E0E81680E0F80680E0080781E0BA
:1048A000180728F088E190E0A0E0B0E004C080E1C3
:1048B00090E0A0E0B0E020E230E040E050E0281BD3
:1048C000390B4A0B5B0B04C016950795F794E794D8
:1048D0008A95D2F7F701EC57F94F8081281B3109EF
:1048E00041095109C9011F910F91FF90EF9008955F
:1048F000DF92EF92FF920F931F93FC01E480F5800B
:1049000006811781D1808081823048F480E090E078
:10491000A0E1B0E0E82AF92A0A2B1B2BA5C08430BD
:1049200009F49FC0823021F4EE24FF24870105C0E2
:10493000E114F1040105110519F4E0E0F0E096C07E
:10494000628173819FEF623879070CF05BC022E8C7
:104950003FEF261B370B2A3131052CF020E030E0E9
:1049600040E050E02AC0B801A701022E04C07695AD
:104970006795579547950A94D2F781E090E0A0E0BB
:10498000B0E004C0880F991FAA1FBB1F2A95D2F759
:104990000197A109B1098E219F21A023B12300977E
:1049A000A105B10521F081E090E0A0E0B0E09A011E
:1049B000AB01282B392B4A2B5B2BDA01C9018F77EE
:1049C0009070A070B07080349105A105B10539F4E4
:1049D00027FF09C0205C3F4F4F4F5F4F04C0215C51
:1049E0003F4F4F4F5F4FE0E0F0E02030A0E03A074C
:1049F000A0E04A07A0E45A0710F0E1E0F0E07901F6
:104A00008A0127C06038710564F5FB01E158FF4F4A
:104A1000D801C7018F779070A070B0708034910575
:104A2000A105B10539F4E7FE0DC080E490E0A0E0F7
:104A3000B0E004C08FE390E0A0E0B0E0E80EF91E23
:104A40000A1F1B1F17FF05C016950795F794E794DB
:104A5000319687E016950795F794E7948A95D1F7F4
:104A600005C0EE24FF248701EFEFF0E06E2F67957D
:104A700066276795902F9F77D794DD24D7948E2F44
:104A80008695492F462B582F5D29B701CA011F91E2
:104A90000F91FF90EF90DF900895FC01DB014081C2
:104AA00051812281622F6F7770E0221F2227221FFF
:104AB0009381892F880F822B282F30E0991F992707
:104AC000991F11969C93119721153105A9F5411550
:104AD00051056105710511F482E037C082E89FEF4E
:104AE00013969C938E9312979A01AB0167E0220F65
:104AF000331F441F551F6A95D1F783E08C930DC077
:104B0000220F331F441F551F12968D919C911397AE
:104B1000019713969C938E931297203080E038076C
:104B200080E0480780E4580758F314962D933D938E
:104B30004D935C93179708952F3F310579F44115F4
:104B400051056105710519F484E08C93089564FFA3
:104B500003C081E08C9312C01C9210C02F573040CC
:104B600013963C932E93129783E08C9387E0440F27
:104B7000551F661F771F8A95D1F7706414964D9361
:104B80005D936D937C93179708951F93DC01FB0150
:104B90009C91923008F447C08081823008F443C071
:104BA000943051F411961C91843099F58181682FCD
:104BB00070E0611B71093FC0843021F0923031F404
:104BC0008230B9F18181882389F12DC011961C9121
:104BD00011978230F1F081811817D9F412962D9136
:104BE0003C911397828193818217930794F0281741
:104BF0003907BCF014968D919D910D90BC91A02D1C
:104C00002481358146815781281739074A075B0778
:104C100018F4112341F00AC082179307A407B507BF
:104C200040F4112319F061E070E005C06FEF7FEFF1
:104C300002C060E070E0CB011F9108952F923F9277
:104C40004F925F926F927F928F929F92AF92BF929C
:104C5000CF92DF92EF92FF920F931F93CF93DF9348
:104C6000CDB7DEB7CA1BDB0B0FB6F894DEBF0FBEA5
:104C7000CDBF09942A88398848885F846E847D84F2
:104C80008C849B84AA84B984C884DF80EE80FD80F4
:104C90000C811B81AA81B981CE0FD11D0FB6F8946A
:104CA000DEBF0FBECDBFED010895AEE0B0E0EBE595
:104CB000F6E20C942C260D891E898F89988D97FF1A
:104CC00002C080E090E801979E838D831A83098358
:104CD00086E08C839E01255E3F4FCE010196698D53
:104CE0007A8DA9010E94B1264D815E8157FD0AC0CF
:104CF0002F813885421753070CF49A01020F131FB6
:104D0000F80110822E96E4E00C944826AEE0B0E064
:104D1000ECE8F6E20C942C260D891E8986E08C8343
:104D20001A8309838FEF9FE79E838D839E01275E01
:104D30003F4FCE0101966F89788DA9010E94B1265F
:104D40002F813885020F131FF80110822E96E4E0A0
:104D50000C944826ACD220F09F3708F4C0C27EC223
:104D600098C2ABE0B0E0E7EBF6E20C941E263C0103
:104D70002B015A01FC0117821682838181FD03C039
:104D80006FEF7FEFC6C19AE0892E1E010894211CA7
:104D9000311CF3012381F20123FD859123FF8191D1
:104DA0002F01882309F4B2C1853239F423FD85919E
:104DB00023FF81912F01853229F490E0B3010E94F5
:104DC000A428E7CF982FFF24EE249924FFE1FF15B4
:104DD000D0F09B3269F09C3228F4903259F0933233
:104DE00091F40EC09D3249F0903369F441E024C043
:104DF00052E0F52A84E0F82A28C098E0F92A25C074
:104E0000E0E1FE2A22C0F7FC29C0892F80538A30B6
:104E100070F4F6FE05C0989C902C1124980E15C0D5
:104E2000E89CE02C1124E80EF0E2FF2A0EC09E322E
:104E300029F4F6FC6BC140E4F42A07C09C3619F44F
:104E400050E8F52A02C0983649F4F20123FD959105
:104E500023FF91912F01992309F0B8CF892F855411
:104E6000833018F08052833038F444E050E0A40ED0
:104E7000B51E5FE359830FC0933631F0933779F055
:104E8000933509F056C020C0F5018081898342E046
:104E900050E0A40EB51E610101E010E012C0F50162
:104EA000C080D180F6FC03C06FEF7FEF02C0692D98
:104EB00070E042E050E0A40EB51EC6010E949928A1
:104EC0008C015FE7F52214C0F501C080D180F6FCAB
:104ED00003C06FEF7FEF02C0692D70E042E050E049
:104EE000A40EB51EC6010E948E288C0150E8F52A3A
:104EF000F3FE07C01AC080E290E0B3010E94A4282C
:104F0000EA948E2D90E008171907A8F30EC0F60159
:104F1000F7FC8591F7FE81916F0190E0B3010E944B
:104F2000A428E110EA94015010400115110579F709
:104F3000EAC0943611F0993669F5F7FE08C0F5011C
:104F4000208131814281538184E090E00AC0F501E3
:104F5000808191819C01442737FD4095542F82E048
:104F600090E0A80EB91E9FE6F92257FF09C05095A0
:104F70004095309521953F4F4F4F5F4FE0E8FE2A17
:104F8000CA01B901A1012AE030E00E94D028D82E40
:104F9000D21840C0953729F41F2D1F7E2AE030E03B
:104FA0001DC01F2D197F9F3661F0903720F4983572
:104FB00009F0ACC00FC0903739F0983709F0A6C09F
:104FC00004C028E030E00AC0106114FD146020E144
:104FD00030E004C014FD166020E132E017FF08C085
:104FE000F501608171818281938144E050E008C0C5
:104FF000F50180819181BC0180E090E042E050E0C9
:10500000A40EB51EA1010E94D028D82ED2188FE779
:10501000F82EF122F6FE0BC05EEFF522D91438F41B
:10502000F4FE07C0F2FC05C08FEEF82202C01D2D71
:1050300001C0192DF4FE0DC0FE01ED0DF11D8081A2
:10504000803319F499EEF92208C01F5FF2FE05C003
:1050500003C08F2D867809F01F5F0F2DF3FC14C05D
:10506000F0FE0FC01E1510F09D2C0BC09D2C9E0C49
:10507000911A1E2D06C080E290E0B3010E94A42880
:105080001F5F1E15C0F304C01E1510F4E11A01C005
:10509000EE2404FF0FC080E390E0B3010E94A42837
:1050A00002FF1DC001FD03C088E790E00EC088E547
:1050B00090E00BC0802F867891F001FF02C08BE258
:1050C00001C080E2F7FC8DE290E0B3010E94A428C9
:1050D00006C080E390E0B3010E94A4289A94D914FA
:1050E000C0F3DA94F101ED0DF11D808190E0B30180
:1050F0000E94A428DD20A9F706C080E290E0B30159
:105100000E94A428EA94EE20C1F743CEF301668101
:105110007781CB012B96E2E10C943A26FC010590B5
:10512000615070400110D8F7809590958E0F9F1FA9
:105130000895FC016150704001900110D8F78095EE
:1051400090958E0F9F1F08950F931F93CF93DF931A
:105150008C01EB018B8181FF1BC082FF0DC02E8172
:105160003F818C819D812817390764F4E881F9819A
:105170000193F983E88306C0E885F985802F0995B6
:10518000892B31F48E819F8101969F838E8302C08B
:105190000FEF1FEFC801DF91CF911F910F9108957D
:1051A000FA01AA27283051F1203181F1E8946F9358
:1051B0006E7F6E5F7F4F8F4F9F4FAF4FB1E03ED0FE
:1051C000B4E03CD0670F781F891F9A1FA11D680F9C
:1051D000791F8A1F911DA11D6A0F711D811D911DCF
:1051E000A11D20D009F468943F912AE0269F112444
:1051F0003019305D3193DEF6CF010895462F4770A8
:10520000405D4193B3E00FD0C9F7F6CF462F4F7002
:10521000405D4A3318F0495D31FD4052419302D060
:10522000A9F7EACFB4E0A695979587957795679506
:10523000BA95C9F700976105710508959B01AC0106
:105240000A2E06945795479537952795BA95C9F72D
:10525000620F731F841F951FA01D0895882371F48A
:10526000772321F09850872B762F07C0662311F4FF
:1052700099270DC09051862B70E060E02AF09A9536
:10528000660F771F881FDAF7880F9695879597F92D
:1052900008959F3F31F0915020F487957795679559
:1052A000B795880F911D9695879597F9089525D004
:1052B000A0F0BEE7B91788F4BB279F3860F4161634
:1052C000B11D672F782F8827985FF7CF8695779540
:1052D0006795B11D93959639C8F30895E894BB2757
:1052E00066277727CB0197F9089557FD9058440F0B
:1052F000551F59F05F3F71F04795880F97FB991F35
:1053000061F09F3F79F087950895121613061406F1
:10531000551FF2CF4695F1DF08C01616170618067E
:10532000991FF1CF86957105610508940895F89449
:02533000FFCFAD
:105332002564002052656D6F76652000204261630E
:105342006B20000000000000006261636B0020001F
:105352002300543A20002D004D3A2000423A20000A
:1053620053656C6563742046756E6374696F6E3A3B
:105372000020312E20416464204E657720506C61FC
:105382006E740020322E204564697420506C616E68
:1053920074730020332E204D6F6E69746F7220502B
:1053A2006C616E74730020436170747572696E670C
:1053B20020446174612E2E2E2000202000232323FE
:1053C200232323004F4B00204349465352200041E0
:1053D200542B434946535200204950204164647281
:1053E2006573733A20004950204164647265737397
:1053F2003A00204950200020506F72743A20005029
:105402006F72743A00203830200038300041542046
:10541200004154002041542B43574D4F44453D33E6
:10542200200041542B43574D4F44453D330020410A
:10543200542B4357514150200041542B4357514163
:1054420050002041542B525354200041542B5253AC
:10545200540041542B43574A41500041542B435767
:105462004A41503D22555343204775657374205776
:105472006972656C657373222C222200436865632E
:105482006B20436F6E6E6563740041542B43574A21
:1054920041503F002041542B4349504D55583D3116
:1054A200200041542B4349504D55583D3100204175
:1054B200542B4349505354415254200041542B43DE
:1054C200495053544152543D302C22544350222CC3
:1054D200226D61696C2E736D747032676F2E636F0B
:1054E2006D222C32353235002041542B4349505322
:1054F200454E443D302C3138200041542B43495015
:1055020053454E443D302C3138002045484C4F2005
:105512000045484C4F20002041542B4349505345ED
:105522004E443D302C3132200041542B43495053DC
:10553200454E443D302C3132002041555448204CD8
:105542004F47494E200041555448204C4F47494E41
:10555200002041542B43495053454E443D302C3298
:105562003220004141542B43495053454E443D3073
:105572002C32320041542B43495053454E443D3066
:105582002C32320020656D61696C200063477068BF
:10559200626D6C7A6145423163324D755A575231B0
:1055A200002041542B43495053454E443D302C3248
:1055B2003620004141542B43495053454E443D301F
:1055C2002C32360041542B43495053454E443D3012
:1055D2002C3236002070617373776F726420005230
:1055E2003246795A4756756157356E63477831634B
:1055F2007A49774D6A4D3D002041542B434950531F
:10560200454E443D302C323920004141542B434910
:105612005053454E443D302C32390041542B4349BE
:105622005053454E443D302C3239002073656E6430
:105632002066726F6D20004D41494C2046524F4DFD
:105642003A3C706A616E697368407573632E656473
:10565200753E002041542B43495053454E443D3042
:105662002C323720004141542B43495053454E447C
:105672003D302C32370041542B43495053454E4460
:105682003D302C3237002073656E6420746F200029
:105692005243505420544F3A3C706A616E697368A9
:1056A200407573632E6564753E002041542B434957
:1056B2005053454E443D302C360041542B43495003
:1056C20053454E443D302C36002044415441004461
:1056D200415441002041542B43495053454E443DCF
:1056E200302C31390041542B43495053454E443DEF
:1056F200302C313900205375626A6563743A206830
:1057020069206269746368005375626A6563743AFA
:10571200206869206269746368002041542B434900
:105722005053454E443D302C330041542B43495095
:1057320053454E443D302C3300202E20002E0020B5
:1057420051554954200051554954005741524E4930
:105752004E4720436865636B20506C616E74730022
:10576200490044005420004D200042200020202007
:1057720020205741524E494E472020202020004DE4
:105782006178204E756D20506C616E747320416497
:1057920064656400506C656173652052656D6F7657
:1057A20065204F6E650025750025642E2530316415
:1057B2000A0025642E25640A0025642E25303164F2
:1057C200002020204D6F6E69746F72696E672E2EF5
:1057D2002E20202000526573756C74733A200031BC
:1057E2002E2000202F20313000322E2000332E2098
:1057F200002323232323232323232323232323239A
:1058020023232323230020202020204741524445E4
:105812004E494E472B2020202020002020202020EF
:10582200202045453435392020202020202020000A
:10583200303001003003003043616C656E64756C7A
:105842006131323538353130303230303031353007
:1058520030303136303030303030300007063020D2
:105862004869626973637573333630393532303063
:105872003235303031303030303135303030303018
:105882003030002E063020204265676F6E6961322B
:1058920036303735323030323530303030303030EB
:1058A20031303030303030303000550600000000EA
:1058B20000000000000102020303030304040404C5
:1058C200040404040505050505050505050505058A
:1058D200050505050606060606060606060606066A
:1058E2000606060606060606060606060606060656
:1058F200060606060707070707070707070707073A
:105902000707070707070707070707070707070725
:105912000707070707070707070707070707070715
:105922000707070707070707070707070707070705
:1059320007070707080808080808080808080808E9
:1059420008080808080808080808080808080808D5
:1059520008080808080808080808080808080808C5
:1059620008080808080808080808080808080808B5
:1059720008080808080808080808080808080808A5
:105982000808080808080808080808080808080895
:105992000808080808080808080808080808080885
:1059A2000808080808080808080808080808080875
:0459B20008080808D1
:00000001FF
