:100000000C9434000C9451000C9451000C94510049
:100010000C94E6000C9451000C9451000C94510087
:100020000C9451000C9451000C9451000C9451000C
:100030000C9451000C9451000C9451000C945100FC
:100040000C9451000C9451000C9451000C945100EC
:100050000C9451000C9451000C9451000C945100DC
:100060000C9451000C94510011241FBECFEFD8E026
:10007000DEBFCDBF11E0A0E0B1E0E4E3FAE002C0F2
:1000800005900D92A23CB107D9F711E0A2ECB1E0C6
:1000900001C01D92A13EB107E1F70E940E010C9430
:1000A00018050C9400009093C5008093C400E1EC07
:1000B000F0E080818860808380818061808386E039
:1000C0008093C2000895982F8091C00085FFFCCFD7
:1000D0009093C6000895CF93DF93EC0105C0992754
:1000E00087FD90950E94630089918823C1F7DF9175
:1000F000CF9108958091C00087FFFCCF8091C6000A
:100100000895529A5A988CEC9CEA0197F1F752980C
:100110004A9BFECF08954A99FECF4A9BFECF4A994B
:10012000FECF089540E050E020E030E063EA4A9BD3
:10013000FECF862F8A95F1F7C901880F991F4A9B38
:1001400003C09C01216001C09C014A99FECF4F5F12
:100150005F4F4830510559F7C901089586B1282FDE
:100160002270382F34708091C4019091C501892B81
:10017000F1F4332341F42223A9F081E08093E001DC
:1001800080E091E007C02223B1F482E08093E00197
:1001900084E091E00E946B0081E090E09093C501C3
:1001A0008093C4011092C0011092BF0108953323BF
:1001B00061F0222351F081E090E09093C0018093A0
:1001C000BF011092C5011092C40108951F920F92B1
:1001D0000FB60F9211242F933F934F935F936F931A
:1001E0007F938F939F93AF93BF93EF93FF930E945F
:1001F000AE0080E090E60197F1F7FF91EF91BF919B
:10020000AF919F918F917F916F915F914F913F91AE
:100210002F910F900FBE0F901F9018950F931F9363
:10022000CF93DF938FE390E09093C5008093C40059
:100230008091C10088608093C1008091C10080617D
:100240008093C10086E08093C20088E091E00E9424
:100250006B0083E191E00E946B008FE091E00E94CF
:100260002B04982F8091C00085FFFCCF9093C6008F
:1002700020983A98399888B1866088B9809168004A
:1002800082608093680080916C00866080936C002F
:1002900078948AE191E00E946B0016B1012F027000
:1002A00085E291E00E946B0012FD0DC0002329F44D
:1002B0001092E00185E391E013C081E08093E001BA
:1002C00080E091E00DC0002331F482E08093E001F2
:1002D00084E091E005C083E08093E00189E391E050
:1002E0000E946B008091E0018093DF01C0E0D0E6C6
:1002F00001E010E0CE010197F1F718990FC080914D
:10030000C2019091C301892B49F48DE391E00E94D1
:100310006B001093C3010093C201ECCF189BEACF8E
:100320001092C3011092C201E5CFCF92DF92EF92FB
:10033000FF920F931F93CF93DF93EE24FF243EE0B1
:10034000C32E31E0D32E8CE491E00E946B00E114C7
:10035000F10419F409E511E009C081E0E816F1049F
:1003600019F00AE711E002C00BE911E0C0E0D0E0AB
:10037000F801EC0FFD1F60818091C00085FFFCCF6C
:100380006093C600CE018C0D9D1D0E943304219602
:10039000C032D10569F780E290E0C80ED91E0894FA
:1003A000E11CF11C93E0E916F10469F6DF91CF91AD
:1003B0001F910F91FF90EF90DF90CF9008950F93D2
:1003C0001F93DF93CF9300D000D0CDB7DEB72DB70A
:1003D0003EB7285030400FB6F8943EBF0FBE2DBF39
:1003E000EDB7FEB731968E010F5F1F4FADB7BEB7A9
:1003F00012961C930E93119724E030E033832283EE
:100400002CEB31E035832483978386830E941D0281
:100410002DB73EB7285F3F4F0FB6F8943EBF0FBED3
:100420002DBFC8010E946B000F900F900F900F908E
:10043000CF91DF911F910F910895AEE0B0E0E3E21C
:10044000F2E00C94EF040D891E898F89988D97FF37
:1004500002C080E090E801979E838D831A83098310
:1004600086E08C839E01255E3F4FCE010196698D0B
:100470007A8DA9010E944E024D815E8157FD0AC00E
:100480002F813885421753070CF49A01020F131F6E
:10049000F80110822E96E4E00C940B05ABE0B0E07E
:1004A000E4E5F2E00C94E1043C012B015A01FC016B
:1004B00017821682838181FD03C06FEF7FEFC6C173
:1004C0009AE0892E1E010894211C311CF30123811E
:1004D000F20123FD859123FF81912F01882309F4E7
:1004E000B2C1853239F423FD859123FF81912F011B
:1004F000853229F490E0B3010E945704E7CF982F8A
:10050000FF24EE249924FFE1FF15D0F09B3269F01F
:100510009C3228F4903259F0933291F40EC09D32FF
:1005200049F0903369F441E024C052E0F52A84E0B8
:10053000F82A28C098E0F92A25C0E0E1FE2A22C066
:10054000F7FC29C0892F80538A3070F4F6FE05C06D
:10055000989C902C1124980E15C0E89CE02C112436
:10056000E80EF0E2FF2A0EC09E3229F4F6FC6BC1C1
:1005700040E4F42A07C09C3619F450E8F52A02C07A
:10058000983649F4F20123FD959123FF91912F01B3
:10059000992309F0B8CF892F8554833018F0805201
:1005A000833038F444E050E0A40EB51E5FE3598375
:1005B0000FC0933631F0933779F0933509F056C078
:1005C00020C0F5018081898342E050E0A40EB51E71
:1005D000610101E010E012C0F501C080D180F6FC9D
:1005E00003C06FEF7FEF02C0692D70E042E050E082
:1005F000A40EB51EC6010E944C048C015FE7F522D3
:1006000014C0F501C080D180F6FC03C06FEF7FEF0E
:1006100002C0692D70E042E050E0A40EB51EC60194
:100620000E9441048C0150E8F52AF3FE07C01AC06D
:1006300080E290E0B3010E945704EA948E2D90E08E
:1006400008171907A8F30EC0F601F7FC8591F7FE0D
:1006500081916F0190E0B3010E945704E110EA9488
:10066000015010400115110579F7EAC0943611F0D8
:10067000993669F5F7FE08C0F50120813181428184
:10068000538184E090E00AC0F501808191819C0152
:10069000442737FD4095542F82E090E0A80EB91E04
:1006A0009FE6F92257FF09C0509540953095219556
:1006B0003F4F4F4F5F4FE0E8FE2ACA01B901A10149
:1006C0002AE030E00E948304D82ED21840C095372B
:1006D00029F41F2D1F7E2AE030E01DC01F2D197F39
:1006E0009F3661F0903720F4983509F0ACC00FC008
:1006F000903739F0983709F0A6C004C028E030E000
:100700000AC0106114FD146020E130E004C014FD43
:10071000166020E132E017FF08C0F50160817181A9
:100720008281938144E050E008C0F501808191818D
:10073000BC0180E090E042E050E0A40EB51EA101B3
:100740000E948304D82ED2188FE7F82EF122F6FEED
:100750000BC05EEFF522D91438F4F4FE07C0F2FCAA
:1007600005C08FEEF82202C01D2D01C0192DF4FE28
:100770000DC0FE01ED0DF11D8081803319F499EE5D
:10078000F92208C01F5FF2FE05C003C08F2D8678D6
:1007900009F01F5F0F2DF3FC14C0F0FE0FC01E15F3
:1007A00010F09D2C0BC09D2C9E0C911A1E2D06C086
:1007B00080E290E0B3010E9457041F5F1E15C0F352
:1007C00004C01E1510F4E11A01C0EE2404FF0FC08E
:1007D00080E390E0B3010E94570402FF1DC001FDB9
:1007E00003C088E790E00EC088E590E00BC0802F42
:1007F000867891F001FF02C08BE201C080E2F7FC35
:100800008DE290E0B3010E94570406C080E390E0BF
:10081000B3010E9457049A94D914C0F3DA94F101F9
:10082000ED0DF11D808190E0B3010E945704DD20A1
:10083000A9F706C080E290E0B3010E945704EA9451
:10084000EE20C1F743CEF30166817781CB012B9671
:10085000E2E10C94FD04F999FECF92BD81BDF89AB6
:10086000992780B50895262FF999FECF1FBA92BD1A
:1008700081BD20BD0FB6F894FA9AF99A0FBE019681
:100880000895FC010590615070400110D8F78095E3
:1008900090958E0F9F1F0895FC016150704001904C
:1008A0000110D8F7809590958E0F9F1F08950F9394
:1008B0001F93CF93DF938C01EB018B8181FF1BC0D2
:1008C00082FF0DC02E813F818C819D8128173907C1
:1008D00064F4E881F9810193F983E88306C0E8852F
:1008E000F985802F0995892B31F48E819F8101969E
:1008F0009F838E8302C00FEF1FEFC801DF91CF915E
:100900001F910F910895FA01AA27283051F1203143
:1009100081F1E8946F936E7F6E5F7F4F8F4F9F4F93
:10092000AF4FB1E03ED0B4E03CD0670F781F891FD5
:100930009A1FA11D680F791F8A1F911DA11D6A0FA3
:10094000711D811D911DA11D20D009F468943F9156
:100950002AE0269F11243019305D3193DEF6CF0155
:100960000895462F4770405D4193B3E00FD0C9F71B
:10097000F6CF462F4F70405D4A3318F0495D31FD88
:100980004052419302D0A9F7EACFB4E0A6959795DB
:10099000879577956795BA95C9F7009761057105B1
:1009A00008959B01AC010A2E0694579547953795FB
:1009B0002795BA95C9F7620F731F841F951FA01D55
:1009C00008952F923F924F925F926F927F928F92F3
:1009D0009F92AF92BF92CF92DF92EF92FF920F93CE
:1009E0001F93CF93DF93CDB7DEB7CA1BDB0B0FB6D8
:1009F000F894DEBF0FBECDBF09942A883988488895
:100A00005F846E847D848C849B84AA84B984C8842A
:100A1000DF80EE80FD800C811B81AA81B981CE0F21
:100A2000D11D0FB6F894DEBF0FBECDBFED01089506
:040A3000F894FFCF68
:100A3400203120002032200020506C616E7420315F
:100A44003A2000466C61673A2000626567696E204F
:100A54006C6F6F7000696E697469616C2073746186
:100A640074653A2000203020002033200020707567
:100A7400736820627574746F6E212000206E657730
:100A840020706C616E743A20003043616C656E6452
:100A9400756C61313235303835303030313030308A
:100AA400323030303330303034003000004265674B
:100AB4006F6E696132363030373530303031303036
:100AC40030323030303330303034003000486962F6
:100AD40069736375733336303039353030303130C3
:100AE400303032303030333030303400256400015F
:020AF400000000
:00000001FF
