:100000000C9434000C9449000C9449000C94490061
:100010000C9449000C9449000C9449000C9449003C
:100020000C9449000C9449000C9449000C9449002C
:100030000C9449000C9449000C9449000C9449001C
:100040000C9449000C9449000C9449000C9449000C
:100050000C9449000C9449000C9449000C944900FC
:100060000C9449000C94490011241FBECFEFD8E036
:10007000DEBFCDBF11E0A0E0B1E0E2E4F3E002C0FA
:1000800005900D92AC31B107D9F70E943F010C9455
:100090009F010C9400009093C5008093C400E1EC94
:1000A000F0E080818860808380818061808386E049
:1000B0008093C2000895982F8091C00085FFFCCFE7
:1000C0009093C6000895CF93DF93EC0105C0992764
:1000D00087FD90950E945B0089918823C1F7DF918D
:1000E000CF910895BF92CF92DF92EF92FF920F933C
:1000F0001F93CF93DF93B82EFB01D901E701411580
:10010000510531F40115110519F490E080E054C057
:1001100084EA8093BC008091BC0087FFFCCF909163
:10012000B900987F983009F09FC08B2D8E7F809307
:10013000BB0084E88093BC008091BC0087FFFCCFAB
:100140009091B900987F9831B1F0903209F08CC04D
:1001500088C080818093BB002093BC008091BC004C
:1001600087FFFCCF9091B900987F41505040983262
:10017000C9F4319601C024E84115510551F716C064
:100180008C918093BB002093BC008091BC0087FFC2
:10019000FCCF9091B900987F01501040983211F433
:1001A000119605C0903309F05FC05BC024E80115CB
:1001B000110531F791E081E0C114D10409F44EC07A
:1001C000882311F428E001C020E184EA8093BC0078
:1001D0008091BC0087FFFCCF9091B900987F921767
:1001E00009F042C081E0B82AB092BB0084E8809355
:1001F000BC008091BC0087FFFCCF9091B900987F34
:10020000903419F0983481F52CC00894C108D108B5
:1002100024EC11C02093BC008091BC0087FFFCCF70
:100220009091B900987F0894C108D1089035E1F405
:100230008091BB008993C114D10461F784E8809355
:10024000BC008091BC0087FFFCCF9091B900987FE3
:10025000983551F48091BB00888302C0992321F026
:1002600090E084E98093BC00892FDF91CF911F91AA
:100270000F91FF90EF90DF90CF90BF9008958F92F5
:100280009F92AF92BF92CF92DF92EF92FF920F9325
:100290001F93DF93CF930F92CDB7DEB78FE390E03C
:1002A0009093C5008093C4008091C10088608093C2
:1002B000C1008091C10080618093C10086E080937D
:1002C000C2001092B9008BE58093B80025EFA22EF2
:1002D000B12C4E010894811C911C80E091E00E9499
:1002E000630080E395E7F5013197F1F70197D9F7BE
:1002F0008EE091E00E94630081E760E070E040E002
:1003000050E020E030E000E010E0740191E0C92E00
:10031000D12C0E94720099818091C00085FFFCCF92
:100320009093C60080E197E2F5013197F1F70197CC
:10033000D9F7D3CF1092B9008093B8000895F894FC
:02034000FFCFED
:100342006461746120696E636F6D696E6700207706
:0C03520072697465206461746120000011
:00000001FF
