:100000000C9434000C9449000C9449000C94490061
:100010000C9449000C9449000C9449000C9449003C
:100020000C9449000C9449000C9449000C9449002C
:100030000C9449000C9449000C9449000C9449001C
:100040000C9449000C9449000C9449000C9449000C
:100050000C9449000C9449000C9449000C944900FC
:100060000C9449000C94490011241FBECFEFD8E036
:10007000DEBFCDBF11E0A0E0B1E0EAE4FBE002C0EA
:1000800005900D92A036B107D9F70E9444010C9457
:10009000A3050C9400009093C5008093C400E1EC8C
:1000A000F0E080818860808380818061808386E049
:1000B0008093C2000895982F8091C00085FFFCCFE7
:1000C0009093C6000895CF93DF93EC0105C0992764
:1000D00087FD90950E945B0089918823C1F7DF918D
:1000E000CF910895BF92CF92DF92EF92FF920F933C
:1000F0001F93CF93DF93B82EFB01D901E701411580
:10010000510531F40115110519F490E080E054C057
:1001100084EA8093BC008091BC0087FFFCCF909163
:10012000B900987F983009F09FC08B2D8E7F809307
:10013000BB0084E88093BC008091BC0087FFFCCFAB
:100140009091B900987F9831B1F0903209F08CC04D
:1001500088C080818093BB002093BC008091BC004C
:1001600087FFFCCF9091B900987F41505040983262
:10017000C9F4319601C024E84115510551F716C064
:100180008C918093BB002093BC008091BC0087FFC2
:10019000FCCF9091B900987F01501040983211F433
:1001A000119605C0903309F05FC05BC024E80115CB
:1001B000110531F791E081E0C114D10409F44EC07A
:1001C000882311F428E001C020E184EA8093BC0078
:1001D0008091BC0087FFFCCF9091B900987F921767
:1001E00009F042C081E0B82AB092BB0084E8809355
:1001F000BC008091BC0087FFFCCF9091B900987F34
:10020000903419F0983481F52CC00894C108D108B5
:1002100024EC11C02093BC008091BC0087FFFCCF70
:100220009091B900987F0894C108D1089035E1F405
:100230008091BB008993C114D10461F784E8809355
:10024000BC008091BC0087FFFCCF9091B900987FE3
:10025000983551F48091BB00888302C0992321F026
:1002600090E084E98093BC00892FDF91CF911F91AA
:100270000F91FF90EF90DF90CF90BF900895109274
:10028000B9008093B80008952F923F924F925F92E9
:100290006F927F928F929F92AF92BF92CF92DF9296
:1002A000EF92FF920F931F93DF93CF93CDB7DEB7FB
:1002B000CE56D0400FB6F894DEBF0FBECDBF8FE351
:1002C00090E09093C5008093C4008091C100886045
:1002D0008093C1008091C10080618093C10086E05D
:1002E0008093C2001092B9008AE28093B80080E344
:1002F00095E725EF30E0F9013197F1F70197D9F74C
:1003000083E090E0988B8F879E878D8781E090E0D7
:100310009C878B8784EB90E09A87898783EB90E0BA
:1003200098878F8381EA90E09E838D8380EA90E0B6
:100330009C838B8382EB90E09A83898382E5BE0164
:100340006F5F7F4F41E050E020E030E000E010E0E0
:1003500093E3E92EF12CEC0EFD1EB1E0CB2ED12C57
:100360000E9472008BA99CA98035910521F480E040
:1003700091E00E946300A3E04A2E512C4C0E5D1EBA
:10038000F7E4AF2EB12CAC0EBD1E82E5B20141E008
:1003900050E09E01255F3F4F01E010E07501E1E074
:1003A000CE2ED12C0E947200D5018D919C91019787
:1003B00019F489E091E002C086E191E00E946300B7
:1003C00082E5BE016B5F7F4F41E050E09E01235FFD
:1003D0003F4F01E010E0EE24FF24CC24DD240E94F6
:1003E000720035E1632E712C6C0E7D1E2AE4222EE4
:1003F00021E0322E84E291E00E94630080E395E7E1
:10040000E5EFF0E03197F1F70197D1F782E5B2011E
:1004100041E050E09E01215F3F4F01E010E09BE58D
:10042000E92EF12CEC0EFD1EB1E0CB2ED12C0E945A
:10043000720080E395E7E5EFF0E03197F1F701977F
:10044000D1F782E5BE01695F7F4F41E050E020E0D7
:1004500030E000E010E0AFE1EA2EF12CEC0EFD1EE2
:10046000F1E0CF2ED12C0E9472008F8D803349F3A2
:1004700082E5BE01675F7F4F41E050E020E030E061
:10048000E1E1EE2EF12CEC0EFD1E94E0C92ED12CF4
:100490000E94720082E5B20141E050E09E01255FBA
:1004A0003F4F01E010E0EE24FF24CC24DD240E9425
:1004B00072008AE391E00E9463009A888824EDB775
:1004C000FEB738970FB6F894FEBF0FBEEDBF31965A
:1004D000ADB7BEB712967C926E9211978AE090E00B
:1004E0009383828335822482898990E0882999299F
:1004F000978386830E94BE02ADB7BEB718960FB62B
:10050000F894BEBF0FBEADBF8DE491E00E946300C2
:10051000C3010E9463008FE491E00E946300BC88E5
:10052000AA24EDB7FEB738970FB6F894FEBF0FBEFA
:10053000EDBF3196ADB7BEB712967C926E92119711
:100540008AE090E093838283358224828B8990E0D5
:100550008A299B29978386830E94BE02ADB7BEB7C6
:1005600018960FB6F894BEBF0FBEADBF8DE491E0F4
:100570000E946300C3010E9463003CCFAEE0B0E084
:10058000E4ECF2E00C947A050D891E898F89988D30
:1005900097FF02C080E090E801979E838D831A83C5
:1005A000098386E08C839E01255E3F4FCE01019634
:1005B000698D7A8DA9010E94EF024D815E8157FD00
:1005C0000AC02F813885421753070CF49A01020F95
:1005D000131FF80110822E96E4E00C949605ABE010
:1005E000B0E0E5EFF2E00C946C053C012B015A0100
:1005F000FC0117821682838181FD03C06FEF7FEFBC
:10060000C6C19AE0892E1E010894211C311CF301F9
:100610002381F20123FD859123FF81912F018823FE
:1006200009F4B2C1853239F423FD859123FF81910C
:100630002F01853229F490E0B3010E94E204E7CF54
:10064000982FFF24EE249924FFE1FF15D0F09B3270
:1006500069F09C3228F4903259F0933291F40EC034
:100660009D3249F0903369F441E024C052E0F52A0C
:1006700084E0F82A28C098E0F92A25C0E0E1FE2AA3
:1006800022C0F7FC29C0892F80538A3070F4F6FE0F
:1006900005C0989C902C1124980E15C0E89CE02C65
:1006A0001124E80EF0E2FF2A0EC09E3229F4F6FC77
:1006B0006BC140E4F42A07C09C3619F450E8F52ACF
:1006C00002C0983649F4F20123FD959123FF9191E0
:1006D0002F01992309F0B8CF892F8554833018F062
:1006E0008052833038F444E050E0A40EB51E5FE33E
:1006F00059830FC0933631F0933779F0933509F071
:1007000056C020C0F5018081898342E050E0A40EEC
:10071000B51E610101E010E012C0F501C080D1807A
:10072000F6FC03C06FEF7FEF02C0692D70E042E07E
:1007300050E0A40EB51EC6010E94D7048C015FE7ED
:10074000F52214C0F501C080D180F6FC03C06FEF24
:100750007FEF02C0692D70E042E050E0A40EB51EAC
:10076000C6010E94CC048C0150E8F52AF3FE07C0B4
:100770001AC080E290E0B3010E94E204EA948E2D58
:1007800090E008171907A8F30EC0F601F7FC859151
:10079000F7FE81916F0190E0B3010E94E204E11045
:1007A000EA94015010400115110579F7EAC094361A
:1007B00011F0993669F5F7FE08C0F5012081318105
:1007C0004281538184E090E00AC0F50180819181EB
:1007D0009C01442737FD4095542F82E090E0A80EFD
:1007E000B91E9FE6F92257FF09C0509540953095F4
:1007F00021953F4F4F4F5F4FE0E8FE2ACA01B901F4
:10080000A1012AE030E00E940E05D82ED21840C087
:10081000953729F41F2D1F7E2AE030E01DC01F2DC3
:10082000197F9F3661F0903720F4983509F0ACC0FD
:100830000FC0903739F0983709F0A6C004C028E0FF
:1008400030E00AC0106114FD146020E130E004C003
:1008500014FD166020E132E017FF08C0F501608149
:1008600071818281938144E050E008C0F50180816C
:100870009181BC0180E090E042E050E0A40EB51E02
:10088000A1010E940E05D82ED2188FE7F82EF12272
:10089000F6FE0BC05EEFF522D91438F4F4FE07C063
:1008A000F2FC05C08FEEF82202C01D2D01C0192DEB
:1008B000F4FE0DC0FE01ED0DF11D8081803319F4B1
:1008C00099EEF92208C01F5FF2FE05C003C08F2D0C
:1008D000867809F01F5F0F2DF3FC14C0F0FE0FC0E7
:1008E0001E1510F09D2C0BC09D2C9E0C911A1E2DD8
:1008F00006C080E290E0B3010E94E2041F5F1E1573
:10090000C0F304C01E1510F4E11A01C0EE2404FF68
:100910000FC080E390E0B3010E94E20402FF1DC01B
:1009200001FD03C088E790E00EC088E590E00BC0B1
:10093000802F867891F001FF02C08BE201C080E237
:10094000F7FC8DE290E0B3010E94E20406C080E370
:1009500090E0B3010E94E2049A94D914C0F3DA94AF
:10096000F101ED0DF11D808190E0B3010E94E204E0
:10097000DD20A9F706C080E290E0B3010E94E20406
:10098000EA94EE20C1F743CEF30166817781CB0173
:100990002B96E2E10C948805FC01059061507040B3
:1009A0000110D8F7809590958E0F9F1F0895FC0138
:1009B0006150704001900110D8F7809590958E0F8E
:1009C0009F1F08950F931F93CF93DF938C01EB012B
:1009D0008B8181FF1BC082FF0DC02E813F818C81E6
:1009E0009D812817390764F4E881F9810193F9831F
:1009F000E88306C0E885F985802F0995892B31F4B5
:100A00008E819F8101969F838E8302C00FEF1FEF1F
:100A1000C801DF91CF911F910F910895FA01AA2784
:100A2000283051F1203181F1E8946F936E7F6E5F31
:100A30007F4F8F4F9F4FAF4FB1E03ED0B4E03CD0DF
:100A4000670F781F891F9A1FA11D680F791F8A1FC2
:100A5000911DA11D6A0F711D811D911DA11D20D029
:100A600009F468943F912AE0269F11243019305DE3
:100A70003193DEF6CF010895462F4770405D4193D4
:100A8000B3E00FD0C9F7F6CF462F4F70405D4A3321
:100A900018F0495D31FD4052419302D0A9F7EACFE9
:100AA000B4E0A6959795879577956795BA95C9F718
:100AB00000976105710508959B01AC010A2E06940B
:100AC0005795479537952795BA95C9F7620F731FC4
:100AD000841F951FA01D08952F923F924F925F9201
:100AE0006F927F928F929F92AF92BF92CF92DF923E
:100AF000EF92FF920F931F93CF93DF93CDB7DEB7A3
:100B0000CA1BDB0B0FB6F894DEBF0FBECDBF099436
:100B10002A88398848885F846E847D848C849B848D
:100B2000AA84B984C884DF80EE80FD800C811B819B
:100B3000AA81B981CE0FD11D0FB6F894DEBF0FBECA
:0A0B4000CDBFED010895F894FFCF3A
:100B4A00202020666F756E640020706F776572656D
:100B5A0064206F6E200020706F7765726564206F65
:100B6A006666200020696E636F6D696E6720646136
:100B7A0074612061727261792000207669736962FA
:100B8A006C65206C6967687420002564000A00207F
:100B9A00696E6661726564206C696768742000001A
:00000001FF
