:100000000C9434000C9451000C9451000C94510049
:100010000C9495030C9451000C9451000C945100D5
:100020000C9451000C9451000C9451000C9451000C
:100030000C9451000C9451000C9451000C945100FC
:100040000C9451000C9451000C9451000C945100EC
:100050000C9451000C9451000C9451000C945100DC
:100060000C9451000C94510011241FBECFEFD8E026
:10007000DEBFCDBF18E0A0E0B1E0EEE4F9E402C0DD
:1000800005900D92A435B107D9F718E0A4E5B8E0C2
:1000900001C01D92A038B107E1F70E94F9190C9434
:1000A000A5240C9400009093C5008093C400E1EC5B
:1000B000F0E080818860808380818061808386E039
:1000C0008093C2000895982F8091C00085FFFCCFD7
:1000D0009093C6000895CF93DF93EC0105C0992754
:1000E00087FD90950E94630089918823C1F7DF9175
:1000F000CF9108958091C00087FFFCCF8091C6000A
:100100000895BF92CF92DF92EF92FF920F931F93C9
:10011000CF93DF93B82EFB01D901E70141155105BB
:1001200031F40115110519F490E080E054C084EA1F
:100130008093BC008091BC0087FFFCCF9091B900F8
:10014000987F983009F0A1C08B2D8E7F8093BB00E3
:1001500084E88093BC008091BC0087FFFCCF909125
:10016000B900987F9831B1F0903209F08EC08AC002
:1001700080818093BB002093BC008091BC0087FFEE
:10018000FCCF9091B900987F415050409832C9F40B
:10019000319601C024E84115510551F716C08C91E4
:1001A0008093BB002093BC008091BC0087FFFCCFF4
:1001B0009091B900987F01501040983211F4119637
:1001C00005C0903309F061C05DC024E80115110538
:1001D00031F791E081E0C114D10409F44EC09923B4
:1001E00011F428E001C020E184EA8093BC008091F2
:1001F000BC0087FFFCCF9091B900987F921709F05F
:1002000044C081E0B82AB092BB0084E88093BC006F
:100210008091BC0087FFFCCF9091B900987F90340B
:1002200019F0983491F52EC00894C108D10824EC37
:1002300011C02093BC008091BC0087FFFCCF90913F
:10024000B900987F0894C108D1089035F1F48091E5
:10025000BB008993C114D10461F784E88093BC008A
:100260008091BC0087FFFCCF9091B900987F9835B2
:1002700061F48091BB00888304C0882311F490E06E
:1002800004C090E084E98093BC00892FDF91CF9176
:100290001F910F91FF90EF90DF90CF90BF90089546
:1002A0001092B9008093B8000895529A5A988CEC35
:1002B0009CEA0197F1F752984A9BFECF08954A991C
:1002C000FECF4A9BFECF4A99FECF089540E050E012
:1002D00020E030E063EA4A9BFECF862F8A95F1F753
:1002E000C901880F991F4A9B03C09C01216001C06E
:1002F0009C014A99FECF4F5F5F4F4830510559F737
:10030000C9010895569A5E9808955E9A80E090E635
:100310000197F1F7089580E090E60197F1F75E9874
:1003200008953B9880917C00806480937C0080914C
:100330007C008F7780937C0080917C00806280932A
:100340007C0080917C00836080937C0080917C00A5
:10035000837F80937C0080917A00876080937A000D
:1003600080917A00806880937A0080917A0080641E
:1003700080937A0080917A0086FDFCCF809179008D
:1003800090E008950F931F93182F062F80E091E0BF
:100390000E946B00113311F482E305C0003311F0A9
:1003A00083E301C085E3809377081F910F9108953F
:1003B000CF92DF92EF92FF920F931F93DF93CF9331
:1003C00000D0CDB7DEB71092B9008BE58093B800AE
:1003D0008EEF898381E58A8380E560E070E040E00C
:1003E00050E09E012F5F3F4F02E010E0EE24FF241B
:1003F000CC24DD240E94810080E090E60197F1F793
:100400000F900F90CF91DF911F910F91FF90EF9080
:10041000DF90CF900895CF92DF92EF92FF920F93EB
:100420001F93DF93CF9300D00F92CDB7DEB790E448
:100430009B8380915408882319F49093540810C02A
:10044000803411F484E103C0843129F484E580937D
:1004500054088B8305C0843519F4109254081B820C
:1004600085E48A838EEF898380E560E070E040E078
:1004700050E09E012F5F3F4F03E010E0EE24FF2489
:10048000CC24DD240E94810080E090E60197F1F702
:100490000F900F900F90CF91DF911F910F91FF90D0
:1004A000EF90DF90CF900895CF92DF92EF92FF927E
:1004B0000F931F93DF93CF9300D00F92CDB7DEB78A
:1004C0008EEF898385E48A831B8280E560E070E09B
:1004D00040E050E09E012F5F3F4F03E010E0EE242C
:1004E000FF24CC24DD240E94810080E090E6019767
:1004F000F1F70F900F900F90CF91DF911F910F9117
:10050000FF90EF90DF90CF900895CF92DF92EF921F
:10051000FF920F931F93DF93CF9300D00F92CDB72D
:10052000DEB78EEF898385E48A8380E48B8380E560
:1005300060E070E040E050E09E012F5F3F4F03E03D
:1005400010E0EE24FF24CC24DD240E94810080E012
:1005500090E60197F1F70F900F900F90CF91DF91F8
:100560001F910F91FF90EF90DF90CF900895CF9261
:10057000DF92EF92FF920F931F93DF93CF9300D000
:100580000F92CDB7DEB78EEF898385E48A8384E14D
:100590008B8380E560E070E040E050E09E012F5FDB
:1005A0003F4F03E010E0EE24FF24CC24DD240E9422
:1005B000810080E090E60197F1F70F900F900F9087
:1005C000CF91DF911F910F91FF90EF90DF90CF902F
:1005D0000895CF92DF92EF92FF920F931F93DF93D4
:1005E000CF9300D00F92CDB7DEB78EEF898385E42D
:1005F0008A8384E58B8380E560E070E040E050E032
:100600009E012F5F3F4F03E010E0EE24FF24CC2437
:10061000DD240E94810080E090E60197F1F70F90C1
:100620000F900F90CF91DF911F910F91FF90EF905E
:10063000DF90CF900895CF92DF92EF92FF920F93C9
:100640001F939C018B0180E560E070E040E050E08A
:10065000EE24FF24CC24DD240E94810080E090E67B
:100660000197F1F71F910F91FF90EF90DF90CF90DE
:10067000089586B1282F2270382F34708091570842
:1006800090915808892B09F041C03323E9F42223C3
:10069000C1F181E080937D0820915D0830915E0872
:1006A00080915F08909160080197281739073CF402
:1006B0002F5F3F4F30935E0820935D0819C0109262
:1006C0005E0810925D0814C0222321F582E0809319
:1006D0007D0880915D0890915E08009721F48091DB
:1006E0005F0890916008019790935E0880935D0881
:1006F00081E38093D30681E090E090935808809343
:1007000057081092D2061092D1060895332361F053
:10071000222351F081E090E09093D2068093D1069D
:10072000109258081092570808951F920F920FB612
:100730000F9211242F933F934F935F936F937F9367
:100740008F939F93AF93BF93EF93FF930E943903CF
:1007500080E090E60197F1F7FF91EF91BF91AF91A3
:100760009F918F917F916F915F914F913F912F91C9
:100770000F900FBE0F901F9018952F923F924F929F
:100780005F926F927F928F929F92AF92BF92CF9221
:10079000DF92EF92FF920F931F93DF93CF93CDB72A
:1007A000DEB7C057D0400FB6F894DEBF0FBECDBF46
:1007B00082EB90E09A83898380EA90E09C838B832C
:1007C00081EA90E09E838D8383EB90E098878F830E
:1007D00084EB90E09A87898781E090E09C878B8703
:1007E0001E861D8683E090E0988B8F879A8B898B7D
:1007F0001092B9008AE28093B80082E5BE016F5F73
:100800007F4F41E050E020E030E000E010E0E5E321
:10081000EE2EF12CEC0EFD1E91E0C92ED12C0E9483
:1008200081008DA99EA98035910521F48DE191E08B
:100830000E946B0003E0602E712C6C0E7D1E1BE08D
:10084000412E512C4C0E5D1E82E5B30141E050E07B
:10085000920101E010E0B9E4EB2EF12CEC0EFD1E4C
:10086000A1E0CA2ED12C0E948100F5E02F2E312C60
:100870002C0E3D1E82E5B10141E050E09E01215F5A
:100880003F4FEE24FF24CC24DD240E94810082E52A
:10089000B30141E050E09E012F5E3F4FEDE5EE2EAB
:1008A000F12CEC0EFD1E91E0C92ED12C0E9481008E
:1008B00017E0812E912C8C0E9D1EB1E2AB2EB12C37
:1008C000AC0EBD1E82E5B40141E050E020E030E016
:1008D00000E010E07501A1E0CA2ED12C0E94810039
:1008E00089A1803379F382E5BE01675F7F4F41E0E4
:1008F00050E020E030E0F3E1EF2EF12CEC0EFD1E95
:10090000E4E0CE2ED12C0E94810082E5B30141E0CB
:1009100050E0920101E010E0EE24FF24CC24DD241D
:100920000E94810086E291E00E946B009C8980E039
:10093000AB88BB24A82AB92A8E01095E1F4F8DB748
:100940009EB708970FB6F8949EBF0FBE8DBFEDB748
:10095000FEB73196ADB7BEB712961C930E931197A2
:100960008AE090E09383828384E391E0958384839B
:10097000B782A6820E9463218DB79EB708960FB6F4
:10098000F8949EBF0FBE8DBFC8010E946B0087E325
:1009900091E00E946B0082E5B10141E050E09E01D0
:1009A000235F3F4F01E010E00E948100B092760883
:1009B000A0927508C059DF4F0FB6F894DEBF0FBE86
:1009C000CDBFCF91DF911F910F91FF90EF90DF90FE
:1009D000CF90BF90AF909F908F907F906F905F90DF
:1009E0004F903F902F9008950F931F93DF93CF93D5
:1009F00000D000D0CDB7DEB72DB73EB7285030407D
:100A00000FB6F8943EBF0FBE2DBFEDB7FEB73196BF
:100A10008E010F5F1F4FADB7BEB712961C930E939A
:100A2000119724E030E03383228324E331E03583DF
:100A30002483978386830E9463212DB73EB7285F66
:100A40003F4F0FB6F8943EBF0FBE2DBFC8010E94A6
:100A50006B000F900F900F900F90CF91DF911F912F
:100A60000F910895EF92FF920F931F93569A5E98FD
:100A70005E9AE12CF0E6FF2EC7010197F1F70E9484
:100A800091018C0189E391E00E946B00C8010E94F2
:100A9000F404C7010197F1F75E9810937F08009363
:100AA0007E081F910F91FF90EF900895CF92DF92F3
:100AB000EF92FF920F931F93282FE82FF92FDF015A
:100AC0000D900020E9F71197AE1BBF0B80E560E0A9
:100AD00070E040E050E0392F8D01EE24FF24CC245B
:100AE000DD240E94810080E090E60197F1F71F91DC
:100AF0000F91FF90EF90DF90CF9008956F927F92CB
:100B00008F929F92AF92BF92CF92DF92EF92FF921D
:100B10000F931F93DF93CF930F92CDB7DEB784E48B
:100B200091E00E946B008091D006803309F0A9C04B
:100B300080E691E00E946B000E94D8018FE891E06E
:100B40000E945605CC24DD24AA24BB243E0108942F
:100B5000611C711CC114D10439F4E090FB06F090C3
:100B6000FC0684EA91E011C081E0C816D10439F492
:100B7000E0902207F09023078DEA91E006C0E09014
:100B80004907F0904A0786EB91E00E946B00F7015D
:100B90008081813309F06CC0A1E28A2E912C8E0CE9
:100BA0009F1C81A1813339F082A1813321F083A17F
:100BB000882309F45AC021E030E0F701E20FF31F67
:100BC000E0818091C00085FFFCCFE093C6002F5FDD
:100BD0003F4F2A30310589F70E948502F1E0AF16B8
:100BE000B10429F40E94B70201E010E007C082E0DE
:100BF000A816B104C9F70E94E902F6CFF701E00F89
:100C0000F11F80818983C30161E070E00E941B03B2
:100C10000F5F1F4F0A30110589F78FEB91E00E949B
:100C20005605F4018081813341F481EC91E00E940A
:100C30006B008FEC91E00E945605F70182A1813391
:100C400041F482ED91E00E946B008DED91E00E94F5
:100C50005605F70183A1813341F480EE91E00E94B3
:100C60006B008DEE91E00E9456050894A11CB11C0A
:100C70000894C11CD11CF3E0CF16D10409F06ACF4F
:100C800016C080EF91E00E946B000E94D80184E3BF
:100C900092E00E9456050E94850286E492E00E943E
:100CA00056050E94B7028BE592E00E94560580E54A
:100CB00093EC25EF30E0F9013197F1F70197D9F77F
:100CC0001899FECF8DE692E00E946B0080E380933E
:100CD000D00683E3809377080F90CF91DF911F9127
:100CE0000F91FF90EF90DF90CF90BF90AF909F90CB
:100CF0008F907F906F9008952F923F924F925F92C6
:100D00006F927F928F929F92AF92BF92CF92DF921B
:100D1000EF92FF920F931F93DF93CF93CDB7DEB780
:100D20002A970FB6F894DEBF0FBECDBF8DE792E0D5
:100D30000E946B000E94D80181E090E090935E08D1
:100D400080935D0820983A98399888B1866088B970
:100D50008091680082608093680080916C0086605A
:100D600080936C00189BFECF789486B1982F927078
:100D700082FD07C0992319F410927D0809C081E013
:100D800005C0992311F482E001C083E080937D08BF
:100D900080917D0880937C088DE992E00E946B0031
:100DA000E091FB06F091FC068081813321F0E1E0C7
:100DB0008E2E912C65C08DB79EB708970FB6F8940C
:100DC0009EBF0FBE8DBFEDB7FEB731968E010E5F91
:100DD0001F4FADB7BEB712961C930E93119785E0C7
:100DE00090E09383828384E391E09583848381E020
:100DF00090E0978386830E946321EDB7FEB7389613
:100E00000FB6F894FEBF0FBEEDBF8FEB91E00E94CE
:100E10006B00C8010E946B004091FB065091FC06DC
:100E200021E030E0FA01E20FF31FE0818091C00081
:100E300085FFFCCFE093C6002F5F3F4F2A3031057E
:100E400089F781EB92E00E94560501E010E05E0117
:100E50000894A11CB11CE091FB06F091FC06E00F88
:100E6000F11F80818983C50161E070E00E941B034E
:100E70000F5F1F4F0A30110571F772E0872E912C1A
:100E80008FEB91E00E946B00E0912207F091230725
:100E90008081813309F069C08DB79EB708970FB67E
:100EA000F8949EBF0FBE8DBFEDB7FEB731968E0191
:100EB0000E5F1F4FADB7BEB712961C930E931197DE
:100EC00085E090E09383828384E391E0958384833B
:100ED000978286820E946321EDB7FEB738960FB6DF
:100EE000F894FEBF0FBEEDBF8FEB91E00E946B0048
:100EF000C8010E946B00409122075091230721E016
:100F000030E0FA01E20FF31FE0818091C00085FF1D
:100F1000FCCFE093C6002F5F3F4F2A30310589F7A1
:100F2000F2E08F16910411F40E94850281EB92E0A9
:100F30000E94560501E010E05E010894A11CB11C5E
:100F4000E0912207F0912307E00FF11F8081898350
:100F5000C50161E070E00E941B030F5F1F4F0A3064
:100F6000110571F70894811C911C8FEB91E00E9490
:100F70006B00E0914907F0914A078081813309F0C5
:100F800070C08DB79EB708970FB6F8949EBF0FBE7E
:100F90008DBFEDB7FEB731968E010E5F1F4FADB717
:100FA000BEB712961C930E93119785E090E0938341
:100FB000828384E391E095838483978286820E9472
:100FC0006321EDB7FEB738960FB6F894FEBF0FBE9B
:100FD000EDBF8FEB91E00E946B00C8010E946B0097
:100FE0004091490750914A0721E030E0FA01E20FB1
:100FF000F31FE0818091C00085FFFCCFE093C60025
:101000002F5F3F4F2A30310589F7F2E08F169104A8
:1010100019F40E94850206C083E08816910411F439
:101020000E94B70281EB92E00E94560501E010E0B9
:101030005E010894A11CB11CE0914907F0914A0798
:10104000E00FF11F80818983C50161E070E00E949B
:101050001B030F5F1F4F0A30110571F70894811CA5
:10106000911C8FEB91E00E946B0092E08916910435
:1010700019F40E9485020DC0A3E08A16910419F4A8
:101080000E94B70206C0B4E08B16910411F40E94CE
:10109000E9028AEB92E00E94560562ECA62E62E01D
:1010A000B62EF50190818091C00085FFFCCF909312
:1010B000C6000894A11CB11CFBECAF16F2E0BF0601
:1010C00081F78CEC92E00E946B008DB79EB7089779
:1010D0000FB6F8949EBF0FBE8DBFEDB7FEB7319629
:1010E0008E010E5F1F4FADB7BEB712961C930E93C5
:1010F000119785E090E09383828384E391E0958368
:101100008483978286820E946321EDB7FEB738966A
:101110000FB6F894FEBF0FBEEDBFC8010E946B0072
:1011200084ED92E00E946B0080915D0890915E08D2
:10113000009729F486EF9FEFA80EB91E3FC08130BB
:101140009105B1F46090FB067090FC06D3018C9180
:10115000813371F16090220770902307F301808141
:10116000813331F1A0904907B0904A07350126C07C
:1011700082309105B1F4A0902207B0902307D501E9
:101180008C91813329F4662477246A147B04B1F4AA
:10119000A0904907B0904A07F5018081813351F44E
:1011A0000DC0039739F4A0904907B0904A0706C0D4
:1011B000530104C080E090E09C01590121E030E03F
:1011C000F501E20FF31FE0818091C00085FFFCCFA5
:1011D000E093C6002F5F3F4F2A30310589F788EE34
:1011E00092E00E946B008DB79EB708970FB6F894F7
:1011F0009EBF0FBE8DBFEDB7FEB731968E010E5F5D
:101200001F4FADB7BEB712961C930E93119755E0C2
:10121000C52ED12CD382C28244E3E42E41E0F42EC9
:10122000F582E48280915F089091600897838683BD
:101230000E946321EDB7FEB738960FB6F894FEBF53
:101240000FBEEDBFC8010E946B00909260088092B3
:101250005F0888E093E00E946B008DB79EB7089707
:101260000FB6F8949EBF0FBE8DBFEDB7FEB7319697
:10127000ADB7BEB712961C930E931197D382C2825C
:10128000F582E48280915F0890916008978386835D
:101290000E946321EDB7FEB738960FB6F894FEBFF3
:1012A0000FBEEDBFC8010E946B0080915D08909158
:1012B0005E08009709F066C0F2E08F16910489F489
:1012C0000E9454028FEB91E00E9456050E94850215
:1012D00089E293E00E9456050E94B7028FEB91E0ED
:1012E00014C083E08816910491F50E9454028FEB9C
:1012F00091E00E9456050E9485028FEB91E00E94CA
:1013000056050E94B70289E293E00E9456050E94AA
:10131000E9028FEB91E00E94560531ECA32E32E0FA
:10132000B32E90E39A87998798879F8322E0E22ED5
:10133000F12CEC0EFD1E95E0492E512C84E3C82EB5
:1013400081E0D82E1E010894211C311CA9C3A4E001
:101350008A16910411F70E9454028FEB91E00E94CB
:1013600056050E9485028FEB91E00E9456050E946F
:10137000B7028FEB91E00E9456050E94E90289E2D4
:1013800093E0C9CF8130910511F56090FB06709014
:10139000FC06F3018081813371F060902207709028
:1013A0002307D3018C91813331F0A0904907B0908D
:1013B0004A07350101C053010E94540289E293E0BB
:1013C0000E9456050E9485028FEB91E01FC082307B
:1013D000910519F5E0912207F0912307808181336F
:1013E00019F46E167F0639F4E0914907F0914A0727
:1013F0008081813309F45F010E9454028FEB91E0F8
:101400000E9456050E94850289E293E00E945605DB
:101410000E94B7028FEB91E017C0039709F081CFCC
:10142000A0904907B0904A070E9454028FEB91E0C8
:101430000E9456050E9485028FEB91E00E9456059E
:101440000E94B70289E293E00E9456050E94E902D9
:101450008FEB91E00E94560564CF18993DC28091B0
:10146000550890915608892B09F036C28BE293E01B
:101470000E946B00E1E0F0E0F0935608E09355081D
:101480008DE393E00E946B0021E030E0F501E20F74
:10149000F31FE0818091C00085FFFCCFE093C60080
:1014A0002F5F3F4F2A30310589F7F1ECAF16F2E09C
:1014B000BF0619F481E389871AC08091FB069091D9
:1014C000FC06A816B90671F08091220790912307B7
:1014D000A816B90639F08091490790914A07A816D5
:1014E000B90629F4E0E3D501EC93F1E3F887E09144
:1014F000FB06F091FC068081813321F402E0802E0E
:10150000912C03C011E0812E912CE0912207F091E3
:1015100023078081813319F40894811C911CE09188
:101520004907F0914A078081813319F40894811C9E
:10153000911C9092600880925F0880E493E00E9482
:101540006B008DB79EB708970FB6F8949EBF0FBE7D
:101550008DBFEDB7FEB73196ADB7BEB71296FC9210
:10156000EE92119753824282D582C48280915F08A5
:1015700090916008978386830E946321EDB7FEB740
:1015800038960FB6F894FEBF0FBEEDBFC7010E949C
:101590006B0080E693E00E946B0021E030E0F501F3
:1015A000E20FF31FE0818091C00085FFFCCFE09344
:1015B000C6002F5F3F4F2A30310589F790E0E09158
:1015C000FB06F091FC068081803309F491E020E075
:1015D000E0912207F09123078081803309F421E014
:1015E0009223292F30E040E050E0E0914907F0914C
:1015F0004A078081803311F441E050E024233523F1
:10160000232B11F0F1E3FA878985813309F46AC14C
:101610000E94D801E091FB06F091FC0680818133A5
:1016200009F057C0ADB7BEB718970FB6F894BEBF54
:101630000FBEADBFEDB7FEB731961296FC92EE929B
:10164000119753824282D582C482978286820E94F9
:101650006321EDB7FEB738960FB6F894FEBF0FBE04
:10166000EDBF8FEB91E00E946B00C7010E946B0001
:101670004091FB065091FC0621E030E0FA01E20FB8
:10168000F31FE0818091C00085FFFCCFE093C6008E
:101690002F5F3F4F2A30310589F70E94540281EBBA
:1016A00092E00E94560501E010E0E091FB06F09107
:1016B000FC06E00FF11F80818983C10161E070E0C9
:1016C0000E941B030F5F1F4F0A30110571F7F1E3F2
:1016D000FF838FEB91E00E946B00E0912207F09175
:1016E00023078081813309F05EC08DB79EB70897CC
:1016F0000FB6F8949EBF0FBE8DBFEDB7FEB7319603
:10170000ADB7BEB71296FC92EE9211975382428209
:10171000D582C482978286820E946321EDB7FEB78C
:1017200038960FB6F894FEBF0FBEEDBF8FEB91E079
:101730000E946B00C7010E946B00409122075091EC
:10174000230721E030E0FA01E20FF31FE0818091EE
:10175000C00085FFFCCFE093C6002F5F3F4F2A30CB
:10176000310589F7F3E08F16910429F48F818133D5
:1017700011F40E94850281EB92E00E94560501E07F
:1017800010E0E0912207F0912307E00FF11F808124
:101790008983C10161E070E00E941B030F5F1F4F4E
:1017A0000A30110571F78FEB91E00E946B00E09118
:1017B0004907F0914A078081813309F060C0ADB7D5
:1017C000BEB718970FB6F894BEBF0FBEADBFEDB74A
:1017D000FEB731961296FC92EE9211975382428296
:1017E000D582C482978286820E946321EDB7FEB7BC
:1017F00038960FB6F894FEBF0FBEEDBF8FEB91E0A9
:101800000E946B00C7010E946B00409149075091F4
:101810004A0721E030E0FA01E20FF31FE0818091F6
:10182000C00085FFFCCFE093C6002F5F3F4F2A30FA
:10183000310589F7F3E08F16910419F40E948502AF
:1018400006C084E08816910411F40E94B70281EB6F
:1018500092E00E94560501E010E0E0914907F09106
:101860004A07E00FF11F80818983C10161E070E0C8
:101870000E941B030F5F1F4F0A30110571F78FEB9A
:1018800091E00E946B0092E08916910419F40E9485
:1018900085020DC0A3E08A16910419F40E94B702D4
:1018A00006C0B4E08B16910411F40E94E9028AEBA1
:1018B00092E00E945605E2ECF2E090818091C00037
:1018C00085FFFCCF9093C600319682E0EB3CF80791
:1018D000A1F70E94540206C0189B04C0109256083B
:1018E000109255088091D306813309F0D9C082E760
:1018F00093E00E946B0080915D0890915E080097D4
:1019000009F051C092E08916910489F40E945402B2
:101910008FEB91E00E9456050E94850289E293E0D8
:101920000E9456050E94B7028FEB91E014C0A3E01D
:101930008A169104B9F40E9454028FEB91E00E9440
:1019400056050E9485028FEB91E00E9456050E9489
:10195000B70289E293E00E9456050E94E9028FEBEC
:1019600091E01AC0B4E08B169104C1F40E945402B5
:101970008FEB91E00E9456050E9485028FEB91E06B
:101980000E9456050E94B7028FEB91E00E94560517
:101990000E94E90289E293E00E945605B1ECAB2E69
:1019A000B2E0BB2E69C08130910511F56090FB0655
:1019B0007090FC06F3018081813371F06090220702
:1019C00070902307D3018C91813331F0A0904907A7
:1019D000B0904A07350101C053010E94540289E2C8
:1019E00093E00E9456050E9485028FEB91E01FC094
:1019F0008230910519F5E0912207F091230780814B
:101A0000813319F46E167F0639F4E0914907F0919D
:101A10004A078081813309F45F010E9454028FEBF1
:101A200091E00E9456050E94850289E293E00E949F
:101A300056050E94B7028FEB91E016C00397E1F4C0
:101A4000A0904907B0904A070E9454028FEB91E0A2
:101A50000E9456050E9485028FEB91E00E94560578
:101A60000E94B70289E293E00E9456050E94E902B3
:101A70008FEB91E00E94560521E030E0F501E20F86
:101A8000F31FE0818091C00085FFFCCFE093C6008A
:101A90002F5F3F4F2A30310589F7B0E3B093D3066B
:101AA000E985E13321F0FA85F13309F0D6CC888558
:101AB000813339F48091CF06813319F480E3809328
:101AC000CF069A85913311F485E304C0A985A1332B
:101AD00019F483E3809377082A960FB6F894DEBF53
:101AE0000FBECDBFCF91DF911F910F91FF90EF906F
:101AF000DF90CF90BF90AF909F908F907F906F902E
:101B00005F904F903F902F9008950F931F93CF9326
:101B1000DF9385E893E00E946B000E94D80189EA78
:101B200093E00E9456050E9485028AEB93E00E9492
:101B300056050E94B7028CEC93E00E9456050E9465
:101B4000E9028CED93E00E94560510925E08109217
:101B50005D0883E090E09093600880935F08209890
:101B60003A98399888B1866088B980916800826017
:101B70008093680080916C00866080936C007894FC
:101B800086B1982F927082FD07C0992319F41092A4
:101B90007D0809C081E005C0992311F482E001C0ED
:101BA00083E080937D0880917D0880937C08189B5A
:101BB000FECF8FEE93E00E946B0080915D089091C4
:101BC0005E08009739F484E094E00E946B000E9464
:101BD00085020FC0019739F484E194E00E946B0004
:101BE0000E94B70206C08AE294E00E946B000E9445
:101BF000E90289E293E00E945605C1E0D0E000E3EB
:101C0000189910C08091550890915608892B51F46D
:101C100083E494E00E946B00D0935608C09355086B
:101C200011E307C0189B04C0109256081092550883
:101C300010E38091D306813309F048C08FEE93E022
:101C40000E946B0080915D0890915E08009779F486
:101C500084E094E00E946B000E94850289E293E098
:101C60000E9456050E94B7028FEB91E010C00197C9
:101C7000A9F484E194E00E946B000E9485028FEB3E
:101C800091E00E9456050E94B70289E293E00E940B
:101C900056050E94E9028FEB91E014C08AE294E0BD
:101CA0000E946B000E9485028FEB91E00E94560516
:101CB0000E94B7028FEB91E00E9456050E94E90254
:101CC00089E293E00E9456050093D306103309F48D
:101CD00097CF87E594E00E946B0080915D0890911A
:101CE0005E08009719F484E094E007C0019719F4A6
:101CF00084E194E002C08AE294E00E946B0080914B
:101D00005D0890915E088230910511F487E312C05E
:101D10008130910511F484E30DC0892B69F4809121
:101D2000CF06803311F485E305C0813329F4809315
:101D3000D00686E380937708DF91CF911F910F91B2
:101D400008952F923F924F925F926F927F928F925F
:101D50009F92AF92BF92CF92DF92EF92FF920F933A
:101D60001F93DF93CF93CDB7DEB7CE57D0400FB6DA
:101D7000F894DEBF0FBECDBF6624772461147104D2
:101D800039F4E090FB06F090FC0684EA91E011C083
:101D900021E06216710439F4E0902207F0902307E5
:101DA0008DEA91E006C0E0904907F0904A0786EB83
:101DB00091E00E946B008BE694E00E946B0082E74A
:101DC00094E00E946B009BE0C92ED12CCE0CDF1C4E
:101DD000D7011B968C91BAE08B02800111248CE014
:101DE000A82EB12CAE0CBF1CF7018485992787FD66
:101DF0009095080F191F005112402DB73EB728507B
:101E000030400FB6F8943EBF0FBE2DBFEDB7FEB702
:101E1000319621E030E02C0F3D1FADB7BEB71296D2
:101E20003C932E9311974AE050E05383428384E31E
:101E300091E095838483178306830E946321ADB765
:101E4000BEB718960FB6F894BEBF0FBEADBFCE0199
:101E500001960E946B008091C00085FFFCCFB0E22C
:101E6000B093C600F60190818091C00085FFFCCF41
:101E70009093C600D5019C918091C00085FFFCCF56
:101E80009093C6008EE794E00E946B00F701958561
:101E90008091C00085FFFCCF9093C600D7011E96AD
:101EA0006C918091C00085FFFCCF6093C60040918B
:101EB0007808509179084017510708F46AC0892FB3
:101EC000992787FD9095C0979C01B3E0220F331F9F
:101ED000BA95E1F7880F991F280F391F862F992788
:101EE00087FD9095C097820F931F8417950708F47C
:101EF00050C0080F191F1695079520E3F70121A37D
:101F00008BE894E00E946B0020917808309179086A
:101F1000C801059728173907A0F0C8010596821750
:101F2000930778F086E994E00E946B000F2EF0E0B2
:101F3000AF2EF0E0BF2EF0E8CF2EF0E4DF2EF02D34
:101F40003AC0C8010A9728173907A0F0065F1F4F4B
:101F50000217130778F08DE994E00E946B000F2EB2
:101F6000F0E0AF2EF0E0BF2EF0E6CF2EF0E4DF2E53
:101F7000F02D21C08AEA94E00E946B000F2EF0E061
:101F8000AF2EF0E0BF2EF0E4CF2EF0E4DF2EF02DE8
:101F900012C087EB94E00E946B00E1E3D7019196B9
:101FA000EC930F2EF0E0AF2EF0E0BF2EF0E0CF2E3E
:101FB000FFE3DF2EF02D87EC94E00E946B0082E7B8
:101FC00094E00E946B00EFE08E2E912C8E0C9F1CF3
:101FD00070E1472E512C4E0C5F1C61E1262E312CF6
:101FE0002E0C3F1CD70151968C915197082F112729
:101FF00007FD1095005310401F968C911F9799274D
:1020000087FD9095C09724E630E0FC01E29FC00177
:10201000E39F900DF29F900D1124080F191F509609
:102020008C91992787FD9095C0979C0153E0220FD2
:10203000331F5A95E1F7880F991F280F391F020F98
:10204000131F2DB73EB7285030400FB6F8943EBF4F
:102050000FBE2DBFEDB7FEB7319621E030E02C0F5B
:102060003D1FADB7BEB712963C932E9311974AE031
:1020700050E05383428384E391E095838483178304
:1020800006830E946321ADB7BEB718960FB6F894C9
:10209000BEBF0FBEADBFCE0101960E946B00809106
:1020A000C00085FFFCCFB0E2B093C600F401908180
:1020B0008091C00085FFFCCF9093C600D2019C9117
:1020C0008091C00085FFFCCF9093C600F101908104
:1020D0008091C00085FFFCCF9093C60082ED94E014
:1020E0000E946B00D70152969C918091C00085FFA1
:1020F000FCCF9093C600D7015396EC918091C0001D
:1021000085FFFCCFE093C600D70154962C918091B7
:10211000C00085FFFCCF2093C60060917E087091BF
:102120007F086017710708F475C0422F552747FDD7
:10213000509540535040892F992787FD9095C0971F
:1021400024E630E0DC01A29FC001A39F900DB29F66
:10215000900D1124480F591F8E2F992787FD9095B8
:10216000C0979C01B3E0220F331FBA95E1F7880FA7
:10217000991F280F391F420F531F4617570708F49E
:1021800049C0040F151F1695079520E3F70122A3F8
:102190008BE894E00E946B0020917E0830917F08CC
:1021A000C801C2972817390780F0C801C296821764
:1021B000930758F086E994E00E946B00C601B501D0
:1021C00020E030E040E850E415C0C8018659904056
:1021D00028173907A0F00A561F4F0217130778F087
:1021E0008DE994E00E946B00C601B50120E030E06B
:1021F00040E650E40E94091C4B015C011DC08AEAC4
:1022000094E00E946B00C601B50120E030E040E49C
:1022100050E4F0CF87EB94E00E946B00C601B5015B
:1022200020E030E040E05FE30E94091C4B015C01CC
:10223000E1E3D7019296EC9380EE94E00E946B006C
:1022400082E794E00E946B00E5E14E2E512C4E0C8B
:102250005F1CD70155968C915597992787FD9095CE
:10226000C09720E137E2F9018E9F90018F9F300DDA
:102270009E9F300D112487010A5E1F4F77E1272EA4
:10228000312C2E0C3F1CA701485E5F4FEF965FAFCD
:102290004EAFEF97C7014996ED969FAF8EAFED9782
:1022A00059968C91C82EDD24C7FCD094A0EDBFEFC9
:1022B000CA0EDB1EC20ED31EF7018689992787FD41
:1022C0009095C09728EE33E0AC01429FC001439F38
:1022D000900D529F900D1124C80ED91E8789992701
:1022E00087FD9095C09724E630E0DC01A29FC001F5
:1022F000A39F900DB29F900D1124C80ED91E808D02
:10230000992787FD9095C0979C0163E0220F331FAA
:102310006A95E1F7880F991F280F391FC20ED31E47
:10232000EDB7FEB738970FB6F894FEBF0FBEEDBFFE
:10233000319621E030E02C0F3D1FADB7BEB71296AD
:102340003C932E9311974AE050E05383428384E3F9
:1023500091E095838483D782C6820E946321ADB7C2
:10236000BEB718960FB6F894BEBF0FBEADBFCE0174
:1023700001960E946B008091C00085FFFCCFB0E207
:10238000B093C600F20190818091C00085FFFCCF20
:102390009093C600D8019C918091C00085FFFCCF2E
:1023A0009093C600F10190818091C00085FFFCCF21
:1023B0009093C600EF96AEADBFADEF979C91809124
:1023C000C00085FFFCCF9093C600ED96EEADFFAD4B
:1023D000ED9790818091C00085FFFCCF9093C6005F
:1023E00082ED94E00E946B00D7015A969C918091F7
:1023F000C00085FFFCCF9093C600F701538D8091FC
:10240000C00085FFFCCF5093C600D7015C966C914D
:102410008091C00085FFFCCF6093C600F701758DE9
:102420008091C00085FFFCCF7093C600D7015E96F7
:102430004C918091C00085FFFCCF4093C600892F4E
:10244000992787FD9095C09720E137E2FC01E29F34
:10245000C001E39F900DF29F900D1124042F1127CE
:1024600007FD109500531040080F191F852F99275D
:1024700087FD9095C09728EE33E0AC01429FC001E4
:10248000439F900D529F900D1124080F191F862F06
:10249000992787FD9095C09724E630E0DC01A29F44
:1024A000C001A39F900DB29F900D1124080F191F1A
:1024B000872F992787FD9095C0979C0143E0220FB5
:1024C000331F4A95E1F7880F991F280F391F020F14
:1024D000131FEDB7FEB738970FB6F894FEBF0FBEC7
:1024E000EDBF319621E030E02C0F3D1FADB7BEB7F8
:1024F00012963C932E9311974AE050E05383428307
:102500008DEE94E095838483178306830E94632174
:10251000ADB7BEB718960FB6F894BEBF0FBEADBF2D
:10252000CE0101960E946B008091C00085FFFCCF18
:10253000B0E2B093C60080917508909176088C1532
:102540009D0508F44DC00817190708F449C00C0D83
:102550001D1D1695079520E3F70123A38BE894E052
:102560000E946B002091750830917608C801C297CF
:102570002817390780F0C801C2968217930758F0D0
:1025800086E994E00E946B00C501B40120E030E0D0
:1025900040E050E415C0C80186599040281739071B
:1025A000A0F00A561F4F0217130778F08DE994E048
:1025B0000E946B00C501B40120E030E040EC5FE315
:1025C0000E94091C4B015C011DC08AEA94E00E9434
:1025D0006B00C501B40120E030E040E85FE3F0CFDC
:1025E00087EB94E00E946B00C501B40120E030E06D
:1025F00040E85EE30E94091C4B015C01E1E3D70166
:102600009396EC936114710439F4EB968CAE9DAE05
:10261000AEAEBFAEEB9711C0F1E06F16710439F0AA
:10262000E3968CAE9DAEAEAEBFAEE39706C0E79626
:102630008CAE9DAEAEAEBFAEE7970894611C711C28
:1026400023E06216710409F099CBEB966CAD7DAD79
:102650008EAD9FADEB97E7962CAD3DAD4EAD5FAD2A
:10266000E7970E94DC1D88237CF1EB966CAD7DAD75
:102670008EAD9FADEB97E3962CAD3DAD4EAD5FAD0E
:10268000E3970E94DC1D87FF05C0F2E35F2EE3E3C2
:102690006E2E2EC0E7966CAD7DAD8EAD9FADE797EB
:1026A000E3962CAD3DAD4EAD5FADE3970E94DC1DD2
:1026B00087FF05C071E3572E63E3662E37C051E3F1
:1026C000552E42E3642E2BC0E7966CAD7DAD8EADEA
:1026D0009FADE797E3962CAD3DAD4EAD5FADE39773
:1026E0000E94DC1D87FF07C033E3532E22E3622ED6
:1026F00091E3792E1DC0E3966CAD7DAD8EAD9FAD9F
:10270000E397EB962CAD3DAD4EAD5FADEB970E94E0
:10271000DC1D87FF07C082E3582E01E3602E13E320
:10272000712E06C0B3E35B2EA1E36A2EF2E37F2E87
:10273000EB966CAD7DAD8EAD9FADEB970E94601AB0
:102740006B017C0180E090E00E94BE1E9B01AC0109
:10275000C501B4010E94D81B20E030E040E251E402
:102760000E94361C0E94B8214DB75EB748505040B9
:102770000FB6F8945EBF0FBE4DBF0DB71EB70F5F0B
:102780001F4F9E01255F3F4FADB7BEB712963C93DA
:102790002E93119720EF34E0F80133832283D58202
:1027A000C4820E94601AD80117967C936E93169784
:1027B0000E949421EDB7FEB738960FB6F894FEBF8D
:1027C0000FBEEDBF89EF94E00E946B004091FB06C5
:1027D0005091FC0621E030E0FA01E20FF31FE081A6
:1027E0008091C00085FFFCCFE093C6002F5F3F4F74
:1027F0002A30310589F78091C00085FFFCCF80E247
:102800008093C600CE010B960E946B008091C000A1
:1028100085FFFCCF80E28093C6008091C00085FFD9
:10282000FCCF5092C6008091C00085FFFCCF80E2B3
:102830008093C600E7966CAD7DAD8EAD9FADE797FA
:102840000E94601A6B017C0180E090E00E94BE1E35
:102850009B01AC01C501B4010E94D81B20E030E00F
:1028600040E251E40E94361C0E94B8212DB73EB7C9
:10287000285030400FB6F8943EBF0FBE2DBF0DB7A5
:102880001EB70F5F1F4F9E01255F3F4FADB7BEB70D
:1028900012963C932E93119723E035E0F801338391
:1028A0002283D582C4820E94601AD80117967C9335
:1028B0006E9316970E949421EDB7FEB738960FB627
:1028C000F894FEBF0FBEEDBF8AE095E00E946B005A
:1028D000409122075091230721E030E0FA01E20FF6
:1028E000F31FE0818091C00085FFFCCFE093C6001C
:1028F0002F5F3F4F2A30310589F78091C00085FF57
:10290000FCCF80E28093C600CE010B960E946B0044
:102910008091C00085FFFCCF80E28093C60080914B
:10292000C00085FFFCCF6092C6008091C00085FF8B
:10293000FCCF80E28093C600E3966CAD7DAD8EAD9A
:102940009FADE3970E94601A6B017C0180E090E0EC
:102950000E94BE1E9B01AC01C501B4010E94D81BA0
:1029600020E030E040E251E40E94361C0E94B82191
:102970002DB73EB7285030400FB6F8943EBF0FBE7B
:102980002DBF0DB71EB70F5F1F4F9E01255F3F4F35
:10299000ADB7BEB712963C932E93119724E135E064
:1029A000F80133832283D582C4820E94601AD80141
:1029B00017967C936E9316970E949421EDB7FEB7FD
:1029C00038960FB6F894FEBF0FBEEDBF8091C000E1
:1029D00085FFFCCF8AE08093C6008CE195E00E94E1
:1029E0006B004091490750914A0721E030E0FA011D
:1029F000E20FF31FE0818091C00085FFFCCFE093E0
:102A0000C6002F5F3F4F2A30310589F78091C00003
:102A100085FFFCCF80E28093C600CE010B960E941A
:102A20006B008091C00085FFFCCF80E28093C600E0
:102A30008091C00085FFFCCF7092C6008091C000DD
:102A400085FFFCCF80E28093C600E091FB06F09109
:102A5000FC06578EE0912207F0912307678EE091E4
:102A60004907F0914A07778E0091FB061091FC060A
:102A7000EB966CAD7DAD8EAD9FADEB970E946A1E5F
:102A8000605DD80190966C93009122071091230706
:102A9000E7966CAD7DAD8EAD9FADE7970E946A1E47
:102AA000605DF80160A30091490710914A07E39621
:102AB0006CAD7DAD8EAD9FADE3970E946A1E605DEB
:102AC000D80190966C93C258DF4F0FB6F894DEBFD2
:102AD0000FBECDBFCF91DF911F910F91FF90EF906F
:102AE000DF90CF90BF90AF909F908F907F906F902E
:102AF0005F904F903F902F9008957F928F929F927A
:102B0000AF92BF92CF92DF92EF92FF920F931F93FB
:102B1000DF93CF9300D0CDB7DEB783E38093770800
:102B200086E295E00E946B000E94D80182E495E065
:102B30000E9456058CE495E00E946B00E091FB0634
:102B4000F091FC0690A18091C00085FFFCCF90938E
:102B5000C6000E94A10EE091FB06F091FC0690A138
:102B60008091C00085FFFCCF9093C60088E595E07A
:102B70000E946B00A090FB06B090FC06F501878DCB
:102B80008133A1F0A0902207B0902307F501878D33
:102B9000813361F0A0904907B0904A07F501878D15
:102BA000813321F080E090E09C0159010E94850270
:102BB0008FEB91E00E9456058DE695E00E94560548
:102BC00001E010E07E010894E11CF11CF501E00F2A
:102BD000F11FE0818091C00085FFFCCFE093C6002B
:102BE000E983C70161E070E00E941B030F5F1F4F84
:102BF0000A30110559F78DE393E00E946B008501BF
:102C0000005E1F4FF50190A18091C00085FFFCCFB1
:102C10009093C60081E795E00E946B008FEB91E0F6
:102C20000E945605F80180818983CE01019661E0FA
:102C300070E00E941B0381E795E00E94560587E73C
:102C400095E00E946B00C090FB06D090FC06F60158
:102C5000878D8233A1F0C0902207D0902307F60120
:102C6000878D823361F0C0904907D0904A07F60102
:102C7000878D823321F080E090E09C0169010E9401
:102C8000B7028FEB91E00E9456058EE795E00E9417
:102C9000560501E010E07E010894E11CF11CF601EC
:102CA000E00FF11FE0818091C00085FFFCCFE09331
:102CB000C600E983C70161E070E00E941B030F5F5B
:102CC0001F4F0A30110559F78DE393E00E946B0006
:102CD0008601005E1F4FF60190A18091C00085FF24
:102CE000FCCF9093C60081E795E00E946B008FEBCC
:102CF00091E00E945605F80180818983CE010196FA
:102D000061E070E00E941B0381E795E00E94560598
:102D10000E94E9028FEB91E00E94560582E895E05F
:102D20000E94560586E895E00E946B00E090FB0645
:102D3000F090FC06F701878D8333A1F0E090220725
:102D4000F0902307F701878D833361F0E090490706
:102D5000F0904A07F701878D833321F080E090E0FF
:102D60009C01790101E010E04E010894811C911C46
:102D7000F701E00FF11FE0818091C00085FFFCCFDB
:102D8000E093C600E983C40161E070E00E941B0388
:102D90000F5F1F4F0A30110559F78DE393E00E9432
:102DA0006B008701005E1F4FF70190A18091C0006A
:102DB00085FFFCCF9093C60081E795E00E946B00F1
:102DC0008FEB91E00E945605F80180818983CE0146
:102DD000019661E070E00E941B0381E795E00E948C
:102DE000560583E090E09093600880935F082098F8
:102DF0003A98399888B1866088B980916800826075
:102E00008093680080916C00866080936C00789459
:102E100086B1982F927082FD07C0992319F4109201
:102E20007D0809C081E005C0992311F482E001C04A
:102E300083E080937D0880917D0880937C088DE8F5
:102E400095E00E946B0080915D0890915E0800976C
:102E500041F40E94850289E293E00E9456058501B3
:102E600011C0019741F40E94B70289E293E00E94E9
:102E70005605860107C00E94E90289E293E00E949C
:102E80005605870121E030E0F801E20FF31FE081F1
:102E90008091C00085FFFCCFE093C6002F5F3F4FBD
:102EA0002A30310589F731E0832E912C20E3722EF0
:102EB000189911C08091550890915608892B59F4A2
:102EC0008FE995E00E946B00909256088092550819
:102ED000F1E3FA830BC0189903C080E38A8306C02C
:102EE0001092560810925508E0E3EA838091D306C9
:102EF000813309F05AC08DE895E00E946B00809103
:102F00005D0890915E080097A1F40E94850289E215
:102F100093E00E9456050E94B7028FEB91E00E9459
:102F200056050E94E9028FEB91E00E94560585014B
:102F300029C00197A1F40E9485028FEB91E00E94C5
:102F400056050E94B70289E293E00E9456050E944E
:102F5000E9028FEB91E00E945605860113C00E94A2
:102F600085028FEB91E00E9456050E94B7028FEB1D
:102F700091E00E9456050E94E90289E293E00E94D6
:102F80005605870121E030E0F801E20FF31FE081F0
:102F90008091C00085FFFCCFE093C6002F5F3F4FBC
:102FA0002A30310589F77092D306FA81F03309F49B
:102FB0007FCF80EB95E00E946B0021E030E0F801CC
:102FC000E20FF31FE0818091C00085FFFCCFE0930A
:102FD000C6002F5F3F4F2A30310589F78091FB06ED
:102FE0009091FC060817190771F0809122079091C3
:102FF00023070817190739F08091490790914A076C
:103000000817190719F481E3F801808390E0E09133
:10301000FB06F091FC068081813309F491E020E009
:10302000E0912207F09123078081813309F421E0A8
:103030009223292F30E040E050E0E0914907F091E1
:103040004A078081813311F441E050E02423352385
:10305000232B39F081E38093CF0681EC95E00E9429
:103060006B0083E3809377080F900F90CF91DF91EF
:103070001F910F91FF90EF90DF90CF90BF90AF9096
:103080009F908F907F900895AF92BF92CF92DF92E2
:10309000EF92FF920F931F93DF93CF93CDB7DEB7DD
:1030A000C456D0400FB6F894DEBF0FBECDBF7B0133
:1030B000AA2797FDA095BA2FBC01CD010E940C1E36
:1030C00020E030E040E151E40E94361C20E030E096
:1030D00040EA50E40E94301D5B016C010027F7FCC0
:1030E0000095102FC801B7010E940C1E20E030E0AF
:1030F00040E151E40E94361C20E030E040EA50E418
:103100000E94301D20E030E040E251E40E94301D7A
:103110009B01AC01C601B5010E94091C20E030E012
:1031200040E052E40E94091C7B018C010E946A1E4F
:103130005B016C01B501882777FD8095982F0E946F
:103140000C1E9B01AC01C801B7010E94D81B20E0F6
:1031500030E040E251E40E94361C0E94B8212DB7B5
:103160003EB7285030400FB6F8943EBF0FBE2DBF7B
:103170000DB71EB70F5F1F4F7E010894E11CF11CB5
:10318000EDB7FEB7F282E18220EF34E0F80133833D
:103190002283B582A4820E946A1EF8017783668327
:1031A0000E9494212DB73EB7285F3F4F0FB6F89489
:1031B0003EBF0FBE2DBFC7010E946B00B0927908C1
:1031C000A0927808CC59DF4F0FB6F894DEBF0FBE3F
:1031D000CDBFCF91DF911F910F91FF90EF90DF90C6
:1031E000CF90BF90AF900895CF92DF92EF92FF9271
:1031F0000F931F93CF93DF9380E395E725EF30E0A4
:10320000F9013197F1F70197D9F70E9455010E9412
:103210005F010E9466017C010E9466018C010E9490
:1032200066016C010E946601EC010E9466010E0DB0
:103230001F1D0C0D1D1D0C0F1D1F8017910741F444
:103240008BED95E00E946B00C601BE010E94441800
:10325000DF91CF911F910F91FF90EF90DF90CF9072
:1032600008951F93CF93DF9389EE95E00E946B0042
:103270000E94D8010E94850285E096E00E945605D2
:1032800080E593EC25EF30E0F9013197F1F70197F4
:10329000D9F789E196E00E946B008091C00085FF1C
:1032A000FCCF80E38093C60080E296E00E946B0032
:1032B0008091C00085FFFCCF80E38093C60080E052
:1032C00090E0C0E0D0E0019627E28031920739F427
:1032D0008FE296E00E946B00219680E090E0CE3174
:1032E000D10511F010E345C08AE396E00E946B001F
:1032F0000E94F4180E9432050E94BD030E94A10E94
:10330000E091FB06F091FC068081813349F481A1B4
:10331000813341F082A1813329F083A1813311F0FF
:1033200010E301C011E3E0912207F09123078081AF
:10333000813351F481A1813331F082A1813319F0BD
:1033400083A1813309F411E3E0914907F0914A0721
:103350008081813351F481A1813331F082A18133A5
:1033600019F083A1813309F411E380E090E0C0E01B
:10337000D0E0189907C08DE692E00E946B001133EF
:1033800031F403C0103309F49ECF86E301C083E318
:1033900080937708DF91CF911F9108950F931F932A
:1033A00086E496E00E946B000E94D8010E9485028C
:1033B00086E696E00E9456050E94F4180E94B70225
:1033C0008DE393E00E9456050AE716E0C8010E94CB
:1033D00056050E943205C8010E9456050E94BD0391
:1033E000C8010E94560585E3809377081F910F91CD
:1033F00008958FE390E09093C5008093C40080917E
:10340000C10088608093C1008091C1008061809379
:10341000C10086E08093C2000E94D80181E896E056
:103420000E9456050E94850286E996E00E94560594
:103430000E94B7028BEA96E00E9456050E94E902BC
:1034400081E896E00E94560580E593EC25EF30E098
:10345000F9013197F1F70197D9F781E38093770864
:10346000809177088433F1F085333CF4823389F01E
:10347000833394F48133F9F407C08633B1F0863393
:1034800074F08733C1F414C081E360E30E94C20189
:10349000E7CF0E94CE19E4CF0E94850DE1CF0E94B4
:1034A0007D15DECF0E947C06DBCF0E947E05D8CF43
:1034B0000E943119D5CF80EC96E00E946B00D0CFEE
:1034C000EF92FF920F931F937B018C0120E030E07D
:1034D00040E05FE40E94DC1D88238CF0C801B70146
:1034E00020E030E040E05FE40E94D81B0E946A1EAA
:1034F0009B01AC01205030404040504806C0C801FC
:10350000B7010E946A1E9B01AC01B901CA011F915B
:103510000F91FF90EF900895A0E0B0E0E2E9FAE1AA
:103520000C942C21DC012B01FA019C91923008F4BF
:1035300039C1EB018881823008F433C1943069F4D9
:10354000843009F02FC111969C91119789819817A9
:1035500009F428C1ABE4B7E025C1843009F421C1E6
:103560008230A9F4923009F01DC19A01AD0188E0C2
:10357000EA010990AE01E90109929E018150C1F76B
:10358000E201898111969C918923818308C192303F
:1035900009F407C112962D903C901397EB018A8194
:1035A0009B811496AD90BD90CD90DC901797EC80E8
:1035B000FD800E811F819101281B390BB90137FF56
:1035C00004C066277727621B730B603271050CF00D
:1035D00061C0121613066CF537014801062E04C0AF
:1035E00096948794779467940A94D2F721E030E018
:1035F00040E050E004C0220F331F441F551F6A955E
:10360000D2F721503040404050402E213F214023EE
:103610005123211531054105510521F021E030E00C
:1036200040E050E079018A01E628F72808291929A5
:103630003CC0232BD1F1260E371E35014601062E44
:1036400004C096948794779467940A94D2F721E003
:1036500030E040E050E004C0220F331F441F551FEC
:103660006A95D2F721503040404050402A213B21FA
:103670004C215D21211531054105510521F021E045
:1036800030E040E050E059016A01A628B728C82878
:10369000D9280BC0821593052CF01C01AA24BB2449
:1036A000650103C0EE24FF24870111969C91D2018D
:1036B00011968C91981709F445C0992339F0A80107
:1036C00097012A193B094C095D0906C0A60195011D
:1036D0002E193F09400B510B57FD08C01182338250
:1036E000228224833583468357831DC081E08183F2
:1036F0003382228288279927DC01821B930BA40B3B
:10370000B50B84839583A683B7830DC0220F331F27
:10371000441F551F248335834683578382819381B9
:103720000197938382832481358146815781DA0111
:10373000C9010197A109B1098F5F9F4FAF4FBF43E7
:1037400028F30BC0918333822282EA0CFB1C0C1DF0
:103750001D1DE482F5820683178383E08083248124
:1037600035814681578157FF1AC0C901AA2797FDA5
:10377000A095BA2F81709070A070B0705695479543
:1037800037952795822B932BA42BB52B8483958378
:10379000A683B78382819381019693838283DF011D
:1037A00001C0D201CD01CDB7DEB7E2E10C944821D2
:1037B000A0E2B0E0EEEDFBE10C94382169837A835E
:1037C0008B839C832D833E834F835887E9E0EE2EC5
:1037D000F12CEC0EFD1ECE010196B7010E945B207C
:1037E0008E010F5E1F4FCE010596B8010E945B202F
:1037F0008A8991E089278A8BC701B801AE01475EAB
:103800005F4F0E948C1A0E94861FA096E6E00C94DF
:103810005421A0E2B0E0EFE0FCE10C943821698390
:103820007A838B839C832D833E834F835887F9E073
:10383000EF2EF12CEC0EFD1ECE010196B7010E9479
:103840005B208E010F5E1F4FCE010596B8010E94CE
:103850005B20C701B801AE01475E5F4F0E948C1A22
:103860000E94861FA096E6E00C945421A0E2B0E0EE
:10387000ECE3FCE10C942C2169837A838B839C8399
:103880002D833E834F835887CE010196BE01675F2B
:103890007F4F0E945B20CE010596BE016F5E7F4F79
:1038A0000E945B209985923088F089898230C8F027
:1038B000943019F4823051F404C0843029F49230E9
:1038C00081F48BE497E0C6C0923049F420E09A85F9
:1038D0008A89981321E02A87CE010996BBC08230DD
:1038E00049F420E09A858A89981321E02A8BCE0139
:1038F0004196B0C02D843E844F8458886D887E8860
:103900008F88988CEE24FF248701AA24BB246501AC
:1039100040E050E060E070E0E0E0F0E0C101817084
:103920009070892BE9F0E60CF71C081D191D9A010F
:10393000AB012A0D3B1D4C1D5D1D80E090E0A0E019
:10394000B0E0E614F7040805190520F481E090E0E2
:10395000A0E0B0E0BA01A901480F591F6A1F7B1F00
:10396000AA0CBB1CCC1CDD1C97FE08C081E090E0BB
:10397000A0E0B0E0A82AB92ACA2ADB2A3196E032B0
:10398000F10549F0660C771C881C991C56944794E5
:1039900037942794C3CFFA85EA892B893C898B8594
:1039A0009C85280F391F2E5F3F4F17C0CA018170B9
:1039B0009070892B61F016950795F794E79480E055
:1039C00090E0A0E0B0E8E82AF92A0A2B1B2B7695B4
:1039D0006795579547952F5F3F4F77FDE7CF0CC011
:1039E000440F551F661F771F17FD4160EE0CFF1C2B
:1039F000001F111F21503040403090E0590790E0E7
:103A0000690790E4790760F32B8F3C8FDB01CA01D3
:103A10008F779070A070B07080349105A105B105CA
:103A200061F447FD0AC0E114F1040105110529F014
:103A3000405C5F4F6F4F7F4F40781A8EFE1711F03A
:103A400081E08A8F4D8F5E8F6F8F78A383E0898F9F
:103A5000CE0149960E94861FA096E2E10C9448216F
:103A6000A8E1B0E0E6E3FDE10C94342169837A83B8
:103A70008B839C832D833E834F835887B9E0EB2E45
:103A8000F12CEC0EFD1ECE010196B7010E945B20C9
:103A90008E010F5E1F4FCE010596B8010E945B207C
:103AA0002985223008F47EC03989323010F4B801FB
:103AB0007CC08A859A8989278A87243011F0223030
:103AC00031F4231709F06EC06BE477E06EC0343038
:103AD00039F41D861E861F86188A1C861B8604C024
:103AE000323021F484E08987B7015FC02B853C85A3
:103AF0008B899C89281B390B3C872B87ED84FE849E
:103B00000F851889AD88BE88CF88D88CEA14FB044D
:103B10000C051D0540F4EE0CFF1C001F111F215069
:103B200030403C872B8720E030E040E050E080E0F0
:103B300090E0A0E0B0E460E070E0EA14FB040C0563
:103B40001D0540F0282B392B4A2B5B2BEA18FB086C
:103B50000C091D09B695A79597958795EE0CFF1C46
:103B6000001F111F6F5F7F4F6F31710531F7DA0151
:103B7000C9018F779070A070B07080349105A10555
:103B8000B10561F427FD0AC0E114F1040105110536
:103B900029F0205C3F4F4F4F5F4F20782D873E87A5
:103BA0004F87588BBE01675F7F4FCB010E94861FF6
:103BB0006896EAE00C945021A8E1B0E0E2EEFDE165
:103BC0000C94382169837A838B839C832D833E8375
:103BD0004F83588789E0E82EF12CEC0EFD1ECE01B4
:103BE0000196B7010E945B208E010F5E1F4FCE0130
:103BF0000596B8010E945B208985823040F0898952
:103C0000823028F0C701B8010E94D32001C08FEF95
:103C10006896E6E00C945421A8E0B0E0E2E1FEE111
:103C20000C9435219B01AC0183E08983DA01C90141
:103C30008827B7FD83959927AA27BB27B82E21157A
:103C400031054105510519F482E089833AC0882382
:103C5000A9F0203080E0380780E0480780E8580766
:103C600029F460E070E080E09FEC30C0EE24FF2497
:103C70008701E21AF30A040B150B02C079018A01CD
:103C80008EE1C82ED12CDC82CB82ED82FE820F83A6
:103C90001887C801B7010E94371F01971816190627
:103CA00084F4082E04C0EE0CFF1C001F111F0A94A0
:103CB000D2F7ED82FE820F831887C81AD90ADC82F8
:103CC000CB82BA82CE0101960E94861F2896E9E037
:103CD0000C945121ACE0B0E0E0E7FEE10C943C2113
:103CE00069837A838B839C83CE010196BE016B5FCF
:103CF0007F4F0E945B208D81823061F1823050F1D4
:103D0000843021F48E81882351F12EC02F81388593
:103D100037FD20C06E812F3131051CF06623F9F08C
:103D200023C08EE190E0821B930B29853A854B8559
:103D30005C8504C056954795379527958A95D2F7A7
:103D40006623B1F050954095309521953F4F4F4FE8
:103D50005F4F0EC020E030E040E050E009C02FEFA0
:103D60003FEF4FEF5FE704C020E030E040E050E875
:103D7000B901CA012C96E2E00C945821A8E0B0E009
:103D8000E4ECFEE10C9434217B018C01611571059A
:103D90008105910519F482E0898360C083E08983FD
:103DA0008EE1C82ED12CDC82CB82ED82FE820F8385
:103DB0001887C801B7010E94371FFC013197F7FF30
:103DC0003BC0222733272E1B3F0B57016801022ED1
:103DD00004C0D694C794B794A7940A94D2F740E04D
:103DE00050E060E070E081E090E0A0E0B0E004C06E
:103DF000880F991FAA1FBB1F2A95D2F70197A10907
:103E0000B1098E219F21A023B1230097A105B105FF
:103E100021F041E050E060E070E04A295B296C2924
:103E20007D294D835E836F8378878EE190E08E1BC2
:103E30009F0B9C838B8312C0309781F00E2E04C0A1
:103E4000EE0CFF1C001F111F0A94D2F7ED82FE82B8
:103E50000F831887CE1ADF0ADC82CB821A82CE014A
:103E600001960E94861F2896EAE00C945021EF925A
:103E7000FF920F931F937B018C0180E0E81680E096
:103E8000F80681E0080780E0180788F48FEFE8164D
:103E9000F1040105110531F028F088E090E0A0E080
:103EA000B0E017C080E090E0A0E0B0E012C080E099
:103EB000E81680E0F80680E0080781E0180728F09F
:103EC00088E190E0A0E0B0E004C080E190E0A0E0F4
:103ED000B0E020E230E040E050E0281B390B4A0B14
:103EE0005B0B04C016950795F794E7948A95D2F773
:103EF000F701ED5AF84F8081281B3109410951091A
:103F0000C9011F910F91FF90EF900895DF92EF92FA
:103F1000FF920F931F93FC01E480F58006811781C7
:103F2000D1808081823048F480E090E0A0E1B0E070
:103F3000E82AF92A0A2B1B2BA5C0843009F49FC05C
:103F4000823021F4EE24FF24870105C0E114F1043E
:103F50000105110519F4E0E0F0E096C0628173817B
:103F60009FEF623879070CF05BC022E83FEF261B19
:103F7000370B2A3131052CF020E030E040E050E0F2
:103F80002AC0B801A701022E04C0769567955795FF
:103F900047950A94D2F781E090E0A0E0B0E004C039
:103FA000880F991FAA1FBB1F2A95D2F70197A10955
:103FB000B1098E219F21A023B1230097A105B1054E
:103FC00021F081E090E0A0E0B0E09A01AB01282B65
:103FD000392B4A2B5B2BDA01C9018F779070A070C7
:103FE000B07080349105A105B10539F427FF09C0EF
:103FF000205C3F4F4F4F5F4F04C0215C3F4F4F4FFE
:104000005F4FE0E0F0E02030A0E03A07A0E04A0790
:10401000A0E45A0710F0E1E0F0E079018A0127C03E
:104020006038710564F5FB01E158FF4FD801C70105
:104030008F779070A070B07080349105A105B105A4
:1040400039F4E7FE0DC080E490E0A0E0B0E004C0E9
:104050008FE390E0A0E0B0E0E80EF91E0A1F1B1FFE
:1040600017FF05C016950795F794E794319687E0FA
:1040700016950795F794E7948A95D1F705C0EE2435
:10408000FF248701EFEFF0E06E2F679566276795B5
:10409000902F9F77D794DD24D7948E2F8695492F24
:1040A000462B582F5D29B701CA011F910F91FF9030
:1040B000EF90DF900895FC01DB0140815181228166
:1040C000622F6F7770E0221F2227221F9381892F92
:1040D000880F822B282F30E0991F9927991F11965E
:1040E0009C93119721153105A9F5411551056105DD
:1040F000710511F482E037C082E89FEF13969C931C
:104100008E9312979A01AB0167E0220F331F441F71
:10411000551F6A95D1F783E08C930DC0220F331F92
:10412000441F551F12968D919C91139701971396DA
:104130009C938E931297203080E0380780E04807E8
:1041400080E4580758F314962D933D934D935C9358
:10415000179708952F3F310579F4411551056105F1
:10416000710519F484E08C93089564FF03C081E025
:104170008C9312C01C9210C02F57304013963C9362
:104180002E93129783E08C9387E0440F551F661F90
:10419000771F8A95D1F7706414964D935D936D9354
:1041A0007C93179708951F93DC01FB019C9192303B
:1041B00008F447C08081823008F443C0943051F441
:1041C00011961C91843099F58181682F70E0611BF4
:1041D00071093FC0843021F0923031F48230B9F15E
:1041E0008181882389F12DC011961C91119782300D
:1041F000F1F081811817D9F412962D913C91139703
:10420000828193818217930794F028173907BCF0B5
:1042100014968D919D910D90BC91A02D2481358196
:1042200046815781281739074A075B0718F411237D
:1042300041F00AC082179307A407B50740F4112381
:1042400019F061E070E005C06FEF7FEF02C060E041
:1042500070E0CB011F9108952F923F924F925F9291
:104260006F927F928F929F92AF92BF92CF92DF9286
:10427000EF92FF920F931F93CF93DF93CDB7DEB7EB
:10428000CA1BDB0B0FB6F894DEBF0FBECDBF09947F
:104290002A88398848885F846E847D848C849B84D6
:1042A000AA84B984C884DF80EE80FD800C811B81E4
:1042B000AA81B981CE0FD11D0FB6F894DEBF0FBE13
:1042C000CDBFED010895AEE0B0E0E9E6F1E20C9477
:1042D0003A210D891E898F89988D97FF02C080E051
:1042E00090E801979E838D831A83098386E08C83EF
:1042F0009E01255E3F4FCE010196698D7A8DA90101
:104300000E94BF214D815E8157FD0AC02F813885F3
:10431000421753070CF49A01020F131FF801108281
:104320002E96E4E00C945621AEE0B0E0EAE9F1E22A
:104330000C943A210D891E8986E08C831A830983A7
:104340008FEF9FE79E838D839E01275E3F4FCE01B7
:1043500001966F89788DA9010E94BF212F81388530
:10436000020F131FF80110822E96E4E00C945621E0
:10437000ACD220F09F3708F4C0C27EC298C2ABE036
:10438000B0E0E5ECF1E20C942C213C012B015A0148
:10439000FC0117821682838181FD03C06FEF7FEFDE
:1043A000C6C19AE0892E1E010894211C311CF3011C
:1043B0002381F20123FD859123FF81912F01882321
:1043C00009F4B2C1853239F423FD859123FF81912F
:1043D0002F01853229F490E0B3010E94B223E7CF88
:1043E000982FFF24EE249924FFE1FF15D0F09B3293
:1043F00069F09C3228F4903259F0933291F40EC057
:104400009D3249F0903369F441E024C052E0F52A2E
:1044100084E0F82A28C098E0F92A25C0E0E1FE2AC5
:1044200022C0F7FC29C0892F80538A3070F4F6FE31
:1044300005C0989C902C1124980E15C0E89CE02C87
:104440001124E80EF0E2FF2A0EC09E3229F4F6FC99
:104450006BC140E4F42A07C09C3619F450E8F52AF1
:1044600002C0983649F4F20123FD959123FF919102
:104470002F01992309F0B8CF892F8554833018F084
:104480008052833038F444E050E0A40EB51E5FE360
:1044900059830FC0933631F0933779F0933509F093
:1044A00056C020C0F5018081898342E050E0A40E0F
:1044B000B51E610101E010E012C0F501C080D1809D
:1044C000F6FC03C06FEF7FEF02C0692D70E042E0A1
:1044D00050E0A40EB51EC6010E94A7238C015FE721
:1044E000F52214C0F501C080D180F6FC03C06FEF47
:1044F0007FEF02C0692D70E042E050E0A40EB51ECF
:10450000C6010E949C238C0150E8F52AF3FE07C0E7
:104510001AC080E290E0B3010E94B223EA948E2D8B
:1045200090E008171907A8F30EC0F601F7FC859173
:10453000F7FE81916F0190E0B3010E94B223E11078
:10454000EA94015010400115110579F7EAC094363C
:1045500011F0993669F5F7FE08C0F5012081318127
:104560004281538184E090E00AC0F501808191810D
:104570009C01442737FD4095542F82E090E0A80E1F
:10458000B91E9FE6F92257FF09C050954095309516
:1045900021953F4F4F4F5F4FE0E8FE2ACA01B90116
:1045A000A1012AE030E00E94DE23D82ED21840C0BC
:1045B000953729F41F2D1F7E2AE030E01DC01F2DE6
:1045C000197F9F3661F0903720F4983509F0ACC020
:1045D0000FC0903739F0983709F0A6C004C028E022
:1045E00030E00AC0106114FD146020E130E004C026
:1045F00014FD166020E132E017FF08C0F50160816C
:1046000071818281938144E050E008C0F50180818E
:104610009181BC0180E090E042E050E0A40EB51E24
:10462000A1010E94DE23D82ED2188FE7F82EF122A6
:10463000F6FE0BC05EEFF522D91438F4F4FE07C085
:10464000F2FC05C08FEEF82202C01D2D01C0192D0D
:10465000F4FE0DC0FE01ED0DF11D8081803319F4D3
:1046600099EEF92208C01F5FF2FE05C003C08F2D2E
:10467000867809F01F5F0F2DF3FC14C0F0FE0FC009
:104680001E1510F09D2C0BC09D2C9E0C911A1E2DFA
:1046900006C080E290E0B3010E94B2231F5F1E15A6
:1046A000C0F304C01E1510F4E11A01C0EE2404FF8B
:1046B0000FC080E390E0B3010E94B22302FF1DC04F
:1046C00001FD03C088E790E00EC088E590E00BC0D4
:1046D000802F867891F001FF02C08BE201C080E25A
:1046E000F7FC8DE290E0B3010E94B22306C080E3A4
:1046F00090E0B3010E94B2239A94D914C0F3DA94E3
:10470000F101ED0DF11D808190E0B3010E94B22313
:10471000DD20A9F706C080E290E0B3010E94B22339
:10472000EA94EE20C1F743CEF30166817781CB0195
:104730002B96E2E10C944821FC01059061507040F9
:104740000110D8F7809590958E0F9F1F0895FC015A
:104750006150704001900110D8F7809590958E0FB0
:104760009F1F08950F931F93CF93DF938C01EB014D
:104770008B8181FF1BC082FF0DC02E813F818C8108
:104780009D812817390764F4E881F9810193F98341
:10479000E88306C0E885F985802F0995892B31F4D7
:1047A0008E819F8101969F838E8302C00FEF1FEF42
:1047B000C801DF91CF911F910F910895FA01AA27A7
:1047C000283051F1203181F1E8946F936E7F6E5F54
:1047D0007F4F8F4F9F4FAF4FB1E03ED0B4E03CD002
:1047E000670F781F891F9A1FA11D680F791F8A1FE5
:1047F000911DA11D6A0F711D811D911DA11D20D04C
:1048000009F468943F912AE0269F11243019305D05
:104810003193DEF6CF010895462F4770405D4193F6
:10482000B3E00FD0C9F7F6CF462F4F70405D4A3343
:1048300018F0495D31FD4052419302D0A9F7EACF0B
:10484000B4E0A6959795879577956795BA95C9F73A
:1048500000976105710508959B01AC010A2E06942D
:104860005795479537952795BA95C9F7620F731FE6
:10487000841F951FA01D0895882371F4772321F0CC
:104880009850872B762F07C0662311F499270DC007
:104890009051862B70E060E02AF09A95660F771FA2
:1048A000881FDAF7880F9695879597F908959F3FA7
:1048B00031F0915020F4879577956795B795880FDB
:1048C000911D9695879597F9089525D0A0F0BEE79C
:1048D000B91788F4BB279F3860F41616B11D672FEF
:1048E000782F8827985FF7CF869577956795B11DC4
:1048F00093959639C8F30895E894BB2766277727E0
:10490000CB0197F9089557FD9058440F551F59F062
:104910005F3F71F04795880F97FB991F61F09F3FAC
:1049200079F087950895121613061406551FF2CFD5
:104930004695F1DF08C0161617061806991FF1CF25
:0E49400086957105610508940895F894FFCFDF
:10494E0020696E20706F776572206F6E20737461B0
:10495E0074652066756E6374696F6E20002020206A
:10496E00666F756E6400204272696768746E657357
:10497E00733A20002564000A004D6F6973747572D6
:10498E00653A200020696E207761726E696E67202D
:10499E0073746174652066756E6374696F6E200042
:1049AE005761726E696E673A20506C65617365204F
:1049BE00436865636B2074686520666F6C6C6F77F7
:1049CE00696E6720506C616E7473202D2020005725
:1049DE0041524E494E4720436865636B20506C61CF
:1049EE006E74730020706C616E7431200020706CD8
:1049FE00616E7432200020706C616E743320002062
:104A0E00002054656D706572617475726520005476
:104A1E002000204D6F69737475726520004D200063
:104A2E00204272696768746E6573732000422000BD
:104A3E005761726E696E673A204D617820506C61D5
:104A4E006E747320526561636865642E20506C65C8
:104A5E006173652072656D6F7665206120706C6183
:104A6E006E7420746F206164642061206E657720FF
:104A7E006F6E650020202020205741524E494E4730
:104A8E002020202020004D6178204E756D20506C26
:104A9E00616E747320416464656400506C6561736B
:104AAE00652052656D6F7665204F6E650020424120
:104ABE00434B2053454C4543544544200020696EDA
:104ACE00206564697420706C616E747320737461F8
:104ADE0074652066756E6374696F6E2000204F508A
:104AEE0054494F4E5320544F2052454D4F5645205A
:104AFE00002052656D6F76652000204261636B2049
:104B0E00000000000000006261636B00434F554ED1
:104B1E00543A20000A0A20706C616E742073656C22
:104B2E0065637465643A20006D61785F6E756D5FC4
:104B3E006F7074696F6E735F726F746572792070C7
:104B4E0072657365743A20006D61785F6E756D5F86
:104B5E006F7074696F6E735F726F746572792070A7
:104B6E006F73747365743A20002300204F505449BC
:104B7E004F4E2053454C45435445442000202000C1
:104B8E006D61785F6E756D5F6F7074696F6E735F58
:104B9E00726F74657279207570646174653A200065
:104BAE00204F7074696F6E2043686F73656E203D81
:104BBE002000206F7074696F6E2073656C6563746E
:104BCE0065643A200020696E2073656C65637420FD
:104BDE0066756E6374696F6E20737461746520669A
:104BEE00756E6374696F6E200053656C6563742017
:104BFE0046756E6374696F6E3A0020312E204164E3
:104C0E0064204E657720506C616E740020322E2029
:104C1E004564697420506C616E74730020332E20CD
:104C2E004D6F6E6974657220506C616E74730020E6
:104C3E0066756E6374696F6E2073656C65637465FB
:104C4E00643A200020616464206E657720706C6188
:104C5E006E74200020656469742063757272656ECF
:104C6E007420706C616E74732000206D6F6E6974A9
:104C7E006F722063757272656E7420706C616E74E3
:104C8E007320002046554E4354494F4E2053454CF9
:104C9E00454354454420002046756E6374696F6E1B
:104CAE002043686F73656E203D20002054454D50A3
:104CBE0020006C6F772072616E67653A200068691C
:104CCE0067682072616E67653A200020494E205257
:104CDE00414E474520002042455354200020534565
:104CEE00434F4E44204245535400205448495244A9
:104CFE0020424553542000204F55545349444520DB
:104D0E0052414E47452000204D4F49535455524570
:104D1E00200020686967682072616E67653A20001E
:104D2E00204252494748544E4553532000257500A2
:104D3E0025642E253031640A00706C616E7420314A
:104D4E003A200025642E25640A00706C616E742072
:104D5E00323A200025642E2530316400706C616E6D
:104D6E007420333A200020696E20726573756C745E
:104D7E00732073746174652066756E6374696F6EEB
:104D8E002000526573756C74733A20002073636F44
:104D9E0072657320313A20000A0A504C414E54205D
:104DAE0052414E4B494E473A20312E2000312E2093
:104DBE0000202F203130000A0A20322E2000322E01
:104DCE002000332E20000A0A20332E200020706C83
:104DDE00616E742073656C65637465643A2000209F
:104DEE00504C414E542053454C45435445442000AD
:104DFE0020506C616E742043686F73656E203D2089
:104E0E000020464C4147204D415820504C414E54B5
:104E1E00532052454143484544200054656D70650A
:104E2E007261747572653A200020696E206D6F6E26
:104E3E0069746F722073746174652066756E637425
:104E4E00696F6E20002020204D6F6E69746F72693D
:104E5E006E672E2E2E20202000206261636B2000B4
:104E6E00207761726E696E6720666C616720002024
:104E7E0031207365636F6E642000203330207365BC
:104E8E00636F6E64200020696E2063616C696272CC
:104E9E006174696F6E2073746174652066756E63DC
:104EAE0074696F6E200020436170747572696E674D
:104EBE0020446174612E2E2E2000232323232323CE
:104ECE0000232323232323232323232323232323C7
:104EDE002323232323002020202020474152444512
:104EEE004E494E472B20202020200020202020201D
:104EFE002020454534353920202020202020200038
:104F0E00206E6F7420696E2073746174652000309A
:104F1E003001003003003043616C656E64756C6166
:104F2E003132353835313030323030303135303055
:104F3E003939393939303030303000D606302048E2
:104F4E00696269736375733336303935323030398F
:104F5E0039393939393939393939393930303030D7
:104F6E003000FD063020204265676F6E6961323673
:104F7E0030373532303039393930303030303031F9
:104F8E003530303030303030002407000000000063
:104F9E0000000000010202030303030404040404DE
:104FAE0004040405050505050505050505050505A6
:104FBE000505050606060606060606060606060686
:104FCE000606060606060606060606060606060673
:104FDE000606060707070707070707070707070756
:104FEE000707070707070707070707070707070743
:104FFE000707070707070707070707070707070733
:10500E000707070707070707070707070707070722
:10501E000707070808080808080808080808080805
:10502E0008080808080808080808080808080808F2
:10503E0008080808080808080808080808080808E2
:10504E0008080808080808080808080808080808D2
:10505E0008080808080808080808080808080808C2
:10506E0008080808080808080808080808080808B2
:10507E0008080808080808080808080808080808A2
:10508E000808080808080808080808080808080892
:04509E0008080800F6
:00000001FF
