:100000000C9434000C9451000C9451000C94510049
:100010000C944A030C9451000C9451000C94510020
:100020000C9451000C9451000C9451000C9451000C
:100030000C9451000C9451000C9451000C945100FC
:100040000C9451000C9451000C9451000C945100EC
:100050000C9451000C9451000C9451000C945100DC
:100060000C9451000C94510011241FBECFEFD8E026
:10007000DEBFCDBF15E0A0E0B1E0EEE1F0E402C0EC
:1000800005900D92A43AB107D9F715E0A4EAB5E0BE
:1000900001C01D92A73BB107E1F70E9461150C94C6
:1000A0000D200C9400009093C5008093C400E1ECF7
:1000B000F0E080818860808380818061808386E039
:1000C0008093C2000895982F8091C00085FFFCCFD7
:1000D0009093C6000895CF93DF93EC0105C0992754
:1000E00087FD90950E94630089918823C1F7DF9175
:1000F000CF9108958091C00087FFFCCF8091C6000A
:100100000895BF92CF92DF92EF92FF920F931F93C9
:10011000CF93DF93B82EFB01D901E70141155105BB
:1001200031F40115110519F490E080E054C084EA1F
:100130008093BC008091BC0087FFFCCF9091B900F8
:10014000987F983009F09FC08B2D8E7F8093BB00E5
:1001500084E88093BC008091BC0087FFFCCF909125
:10016000B900987F9831B1F0903209F08CC088C006
:1001700080818093BB002093BC008091BC0087FFEE
:10018000FCCF9091B900987F415050409832C9F40B
:10019000319601C024E84115510551F716C08C91E4
:1001A0008093BB002093BC008091BC0087FFFCCFF4
:1001B0009091B900987F01501040983211F4119637
:1001C00005C0903309F05FC05BC024E8011511053C
:1001D00031F791E081E0C114D10409F44EC08823C5
:1001E00011F428E001C020E184EA8093BC008091F2
:1001F000BC0087FFFCCF9091B900987F921709F05F
:1002000042C081E0B82AB092BB0084E88093BC0071
:100210008091BC0087FFFCCF9091B900987F90340B
:1002200019F0983481F52CC00894C108D10824EC49
:1002300011C02093BC008091BC0087FFFCCF90913F
:10024000B900987F0894C108D1089035E1F48091F5
:10025000BB008993C114D10461F784E88093BC008A
:100260008091BC0087FFFCCF9091B900987F9835B2
:1002700051F48091BB00888302C0992321F090E063
:1002800084E98093BC00892FDF91CF911F910F915A
:10029000FF90EF90DF90CF90BF9008951092B9003B
:1002A0008093B8000895529A5A988CEC9CEA019772
:1002B000F1F752984A9BFECF08954A99FECF4A9B88
:1002C000FECF4A99FECF089540E050E020E030E0B4
:1002D00063EA4A9BFECF862F8A95F1F7C901880F02
:1002E000991F4A9B03C09C01216001C09C014A994F
:1002F000FECF4F5F5F4F4830510559F7C901089550
:10030000569A5E9808955E9A80E090E60197F1F71C
:10031000089580E090E60197F1F75E9808953B9884
:1003200080917C00806480937C0080917C008F773A
:1003300080937C0080917C00806280937C0080911F
:100340007C00836080937C0080917C00837F80931D
:100350007C0080917A00876080937A0080917A0097
:10036000806880937A0080917A00806480937A001C
:1003700080917A0086FDFCCF8091790090E008950D
:100380000F931F93182F062F80E091E00E946B00BF
:10039000113311F482E305C0003311F083E301C08F
:1003A00085E38093B0051F910F910895CF92DF925E
:1003B000EF92FF920F931F93DF93CF9300D0CDB7AF
:1003C000DEB71092B9008BE58093B8008EEF898379
:1003D00081E58A8380E560E070E040E050E09E01C6
:1003E0002F5F3F4F02E010E0EE24FF24CC24DD24F9
:1003F0000E94810080E090E60197F1F70F900F9046
:10040000CF91DF911F910F91FF90EF90DF90CF90F0
:100410000895CF92DF92EF92FF920F931F93DF9395
:10042000CF9300D00F92CDB7DEB78EEF898385E4EE
:100430008A831B8280E560E070E040E050E09E012E
:100440002F5F3F4F03E010E0EE24FF24CC24DD2497
:100450000E94810080E090E60197F1F70F900F90E5
:100460000F90CF91DF911F910F91FF90EF90DF9050
:10047000CF900895CF92DF92EF92FF920F931F9348
:10048000DF93CF9300D00F92CDB7DEB78EEF898385
:1004900085E48A8380E48B8380E560E070E040E05F
:1004A00050E09E012F5F3F4F03E010E0EE24FF2459
:1004B000CC24DD240E94810080E090E60197F1F7D2
:1004C0000F900F900F90CF91DF911F910F91FF90A0
:1004D000EF90DF90CF900895CF92DF92EF92FF924E
:1004E0000F931F93DF93CF9300D00F92CDB7DEB75A
:1004F0008EEF898385E48A8384E18B8380E560E0E5
:1005000070E040E050E09E012F5F3F4F03E010E0BD
:10051000EE24FF24CC24DD240E94810080E090E6BC
:100520000197F1F70F900F900F90CF91DF911F91EE
:100530000F91FF90EF90DF90CF900895CF92DF92D0
:10054000EF92FF920F931F93DF93CF9300D00F9200
:10055000CDB7DEB78EEF898385E48A8384E58B830C
:1005600080E560E070E040E050E09E012F5F3F4F8B
:1005700003E010E0EE24FF24CC24DD240E9481005F
:1005800080E090E60197F1F70F900F900F90CF91D8
:10059000DF911F910F91FF90EF90DF90CF90089522
:1005A000CF92DF92EF92FF920F931F939C018B01EA
:1005B00080E560E070E040E050E0EE24FF24CC24D1
:1005C000DD240E94810080E090E60197F1F71F9101
:1005D0000F91FF90EF90DF90CF90089586B1282F74
:1005E0002270382F34708091A6059091A705892B31
:1005F00009F041C03323E9F42223C1F181E0809363
:10060000B4052091AA053091AB058091AC0590917D
:10061000AD050197281739073CF42F5F3F4F309302
:10062000AB052093AA0519C01092AB051092AA053C
:1006300014C0222321F582E08093B4058091AA059D
:100640009091AB05009721F48091AC059091AD0598
:1006500001979093AB058093AA0581E380932304CF
:1006600081E090E09093A7058093A6051092220464
:10067000109221040895332361F0222351F081E088
:1006800090E090932204809321041092A705109289
:10069000A60508951F920F920FB60F9211242F9363
:1006A0003F934F935F936F937F938F939F93AF93FA
:1006B000BF93EF93FF930E94EE0280E090E60197D4
:1006C000F1F7FF91EF91BF91AF919F918F917F9142
:1006D0006F915F914F913F912F910F900FBE0F90AF
:1006E0001F901895CF92DF92EF92FF920F931F9376
:1006F000282FE82FF92FDF010D900020E9F711973F
:10070000AE1BBF0B80E560E070E040E050E0392FA9
:100710008D01EE24FF24CC24DD240E94810080E0A2
:1007200090E60197F1F71F910F91FF90EF90DF9006
:10073000CF9008956F927F928F929F92AF92BF92C7
:10074000CF92DF92EF92FF920F931F93DF93CF939D
:100750000F92CDB7DEB78DE191E00E946B008091E2
:100760002004803309F087C00E94D60189E391E01C
:100770000E947203AA24BB24CC24DD243E010894E9
:10078000611C711CC114D10439F4E0904B04F09049
:100790004C048EE491E011C081E0C816D10439F414
:1007A000E0907204F090730487E591E006C0E09059
:1007B0009904F0909A0480E691E00E946B00F701A2
:1007C0008081813309F04EC031E2832E912C8E0C52
:1007D0009F1C81A1813331F082A1813319F083A163
:1007E0008823E9F10E943A02F1E0AF16B10429F43E
:1007F0000E946C0201E010E007C082E0A816B1047C
:10080000C9F70E949E02F6CFF701E00FF11F808129
:100810008983C30161E070E00E94D0020F5F1F4F27
:100820000A30110589F789E691E00E947203F4010C
:100830008081813321F48BE691E00E947203F701FD
:1008400082A1813321F48EE691E00E947203F701C8
:1008500083A1813321F481E791E00E94720308941F
:10086000A11CB11C0894C11CD11CF3E0CF16D1040B
:1008700009F088CF12C00E94D60184E791E00E945F
:1008800072030E943A0286E891E00E9472030E947D
:100890006C028BE991E00E94720380E593EC25EFF6
:1008A00030E0F9013197F1F70197D9F71899FECFA8
:1008B00080E38093200483E38093B0050F90CF9171
:1008C000DF911F910F91FF90EF90DF90CF90BF903D
:1008D000AF909F908F907F906F9008954F925F920E
:1008E0007F928F929F92AF92BF92CF92DF92EF92C0
:1008F000FF920F931F93DF93CF9300D000D00F92FE
:10090000CDB7DEB78DEA91E00E946B000E94D60160
:1009100081E090E09093AB058093AA0520983A98E7
:10092000399888B1866088B9809168008260809328
:10093000680080916C00866080936C00189BFECFED
:10094000789486B1982F927082FD07C0992319F48C
:100950001092B40509C081E005C0992311F482E02A
:1009600001C083E08093B4058091B4058093B30502
:10097000E0914B04F0914C048081813321F011E02F
:10098000C12ED12C1FC08DEC91E00E94720301E0BA
:1009900010E07E010894E11CF11CE0914B04F09101
:1009A0004C04E00FF11F80818983C70161E070E092
:1009B0000E94D0020F5F1F4F0A30110571F7B2E09D
:1009C000CB2ED12CE0917204F0917304808181339D
:1009D00029F582E0C816D10411F40E943A028DEC88
:1009E00091E00E94720301E010E07E010894E11C96
:1009F000F11CE0917204F0917304E00FF11F80810B
:100A00008983C70161E070E00E94D0020F5F1F4F31
:100A10000A30110571F70894C11CD11CE0919904AA
:100A2000F0919A048081813361F5E2E0CE16D10421
:100A300019F40E943A0206C0F3E0CF16D10411F473
:100A40000E946C028DEC91E00E94720301E010E0C4
:100A50007E010894E11CF11CE0919904F0919A0444
:100A6000E00FF11F80818983C70161E070E00E947F
:100A7000D0020F5F1F4F0A30110571F70894C11C97
:100A8000D11C82E0C816D10419F40E943A020DC0AC
:100A9000E3E0CE16D10419F40E946C0206C0F4E023
:100AA000CF16D10411F40E949E0286ED91E00E94BF
:100AB00072038091AA059091AB05009729F4ADEDE2
:100AC000EA2EA1E0FA2E3FC081309105B1F4A0904A
:100AD0004B04B0904C04F5018081813371F1A090FA
:100AE0007204B0907304F5018081813331F1E0909C
:100AF0009904F0909A04570126C082309105B1F410
:100B0000E0907204F0907304F7018081813329F43E
:100B1000AA24BB24AE14BF04B1F4E0909904F09071
:100B20009A04F7018081813351F40DC0039739F4A1
:100B3000E0909904F0909A0406C0750104C080E02A
:100B400090E09C017901D092AD05C092AC058091F6
:100B5000AA059091AB05009709F05FC0F2E0CF16AF
:100B6000D10489F40E94090289E691E00E9472038F
:100B70000E943A0288EE91E00E9472030E946C0289
:100B800089E691E014C083E0C816D10459F50E94AB
:100B9000090289E691E00E9472030E943A0289E606
:100BA00091E00E9472030E946C0288EE91E00E9424
:100BB00072030E949E0289E691E00E947203FDED9D
:100BC000EF2EF1E0FF2EE0E3EA83ED83EC83EB838D
:100BD000E1E04E2E512C4E010894811C911C70E3D3
:100BE000772E66C2F4E0CF16D10449F70E940902BD
:100BF00089E691E00E9472030E943A0289E691E040
:100C00000E9472030E946C0289E691E00E947203C6
:100C10000E949E0288EE91E0D0CF8130910511F5BF
:100C2000A0904B04B0904C04F5018081813371F0A9
:100C3000A0907204B0907304F5018081813331F08B
:100C4000E0909904F0909A04570101C075010E9448
:100C5000090288EE91E00E9472030E943A0289E63E
:100C600091E01FC08230910519F5E0917204F09176
:100C700073048081813319F4AE16BF0639F4E09114
:100C80009904F0919A048081813309F47F010E94D4
:100C9000090289E691E00E9472030E943A0288EEFE
:100CA00091E00E9472030E946C0289E691E017C0F5
:100CB000039709F088CFE0909904F0909A040E947D
:100CC000090289E691E00E9472030E943A0289E6D5
:100CD00091E00E9472030E946C0288EE91E00E94F3
:100CE00072030E949E0289E691E00E9472036BCF1C
:100CF000189910C18091A4059091A505892B09F040
:100D000009C15092A5054092A405FDEDEF16F1E052
:100D1000FF0619F481E38C8319C080914B049091F4
:100D20004C04E816F90671F08091720490917304F6
:100D3000E816F90639F08091990490919A04E81622
:100D4000F90621F4F7017082F1E3FB83E0914B0493
:100D5000F0914C048081813321F462E0C62ED12CC5
:100D600003C051E0C52ED12CE0917204F0917304C0
:100D70008081813319F40894C11CD11CE09199043D
:100D8000F0919A048081813319F40894C11CD11C1C
:100D9000D092AD05C092AC0590E0E0914B04F0918B
:100DA0004C048081803309F491E020E0E0917204EA
:100DB000F09173048081803309F421E09223292F7C
:100DC00030E040E050E0E0919904F0919A04808195
:100DD000803311F441E050E024233523232B11F01C
:100DE00081E38D83EC81E13309F49AC00E94D6013E
:100DF000E0914B04F0914C0480818133E1F40E9436
:100E000009028DEC91E00E94720301E010E0E09194
:100E10004B04F0914C04E00FF11F80818983C401E1
:100E200061E070E00E94D0020F5F1F4F0A30110591
:100E300071F7F1E3FA83E0917204F0917304808119
:100E4000813309F583E0C816D10429F4EA81E1333E
:100E500011F40E943A028DEC91E00E94720301E0CD
:100E600010E0E0917204F0917304E00FF11F8081B3
:100E70008983C40161E070E00E94D0020F5F1F4FC0
:100E80000A30110571F7E0919904F0919A0480817C
:100E9000813329F5F3E0CF16D10419F40E943A0208
:100EA00006C084E0C816D10411F40E946C028DECD7
:100EB00091E00E94720301E010E0E0919904F0914A
:100EC0009A04E00FF11F80818983C40161E070E022
:100ED0000E94D0020F5F1F4F0A30110571F7E2E048
:100EE000CE16D10419F40E943A020DC0F3E0CF16D9
:100EF000D10419F40E946C0206C084E0C816D10423
:100F000011F40E949E0286ED91E00E9472030E94FD
:100F1000090206C0189B04C01092A5051092A405F2
:100F200080912304813309F0C3C08091AA05909178
:100F3000AB05009709F051C0E2E0CE16D10489F468
:100F40000E94090289E691E00E9472030E943A021F
:100F500088EE91E00E9472030E946C0289E691E0A3
:100F600014C0F3E0CF16D104B9F40E94090289E657
:100F700091E00E9472030E943A0289E691E00E9489
:100F800072030E946C0288EE91E00E9472030E943C
:100F90009E0289E691E01AC084E0C816D104C1F42B
:100FA0000E94090289E691E00E9472030E943A02BF
:100FB00089E691E00E9472030E946C0289E691E04A
:100FC0000E9472030E949E0288EE91E00E947203CA
:100FD0004DEDE42E41E0F42E69C08130910511F50C
:100FE000A0904B04B0904C04F5018081813371F0E6
:100FF000A0907204B0907304F5018081813331F0C8
:10100000E0909904F0909A04570101C075010E9484
:10101000090288EE91E00E9472030E943A0289E67A
:1010200091E01FC08230910519F5E0917204F091B2
:1010300073048081813319F4AE16BF0639F4E09150
:101040009904F0919A048081813309F47F010E9410
:10105000090289E691E00E9472030E943A0288EE3A
:1010600091E00E9472030E946C0289E691E016C032
:101070000397E1F4E0909904F0909A040E94090229
:1010800089E691E00E9472030E943A0289E691E0AB
:101090000E9472030E946C0288EE91E00E9472032B
:1010A0000E949E0289E691E00E94720370922304DE
:1010B000FC81F13321F08D81813309F019CEEB8170
:1010C000E13339F480911F04813319F480E3809374
:1010D0001F04FD81F13311F485E304C08C81813359
:1010E00019F483E38093B0050F900F900F900F9049
:1010F0000F90CF91DF911F910F91FF90EF90DF90B4
:10110000CF90BF90AF909F908F907F905F904F90C7
:1011100008950F931F93CF93DF938AEE91E00E947F
:101120006B000E94D6018EE092E00E9472030E9442
:101130003A028FE192E00E9472030E946C0281E306
:1011400092E00E9472030E949E0281E492E00E945B
:1011500072031092AB051092AA0583E090E0909381
:10116000AD058093AC0520983A98399888B186608F
:1011700088B98091680082608093680080916C00DB
:10118000866080936C00789486B1982F927082FD6F
:1011900007C0992319F41092B40509C081E005C075
:1011A000992311F482E001C083E08093B40580911B
:1011B000B4058093B305189BFECF0E943A0288EED7
:1011C00091E00E94720300E3C1E0D0E018990CC0E6
:1011D0008091A4059091A505892B31F4D093A505A4
:1011E000C093A40511E307C0189B04C01092A50585
:1011F0001092A40510E3809123048133C1F58091FE
:10120000AA059091AB05009759F40E943A0288EE26
:1012100091E00E9472030E946C0289E691E00CC08A
:10122000019789F40E943A0289E691E00E947203D4
:101230000E946C0288EE91E00E9472030E949E025E
:1012400089E691E010C00E943A0289E691E00E948E
:1012500072030E946C0289E691E00E9472030E9470
:101260009E0288EE91E00E947203009323041033E3
:1012700009F4ACCF8091AA059091AB05823091051D
:1012800011F487E312C08130910511F484E30DC09D
:10129000892B69F480911F04803311F485E305C024
:1012A000813329F48093200486E38093B005DF9195
:1012B000CF911F910F9108952F923F924F925F927D
:1012C0006F927F928F929F92AF92BF92CF92DF9256
:1012D000EF92FF920F931F93DF93CF93CDB7DEB7BB
:1012E000C057D0400FB6F894DEBF0FBECDBF82EB23
:1012F00090E09A83898380EA90E09C838B8381EAE3
:1013000090E09E838D8383EB90E098878F8384EBBE
:1013100090E09A87898781E090E09C878B871E8682
:101320001D8683E090E0988B8F879A8B898B109233
:10133000B9008AE28093B80082E5BE016F5F7F4FFB
:1013400041E050E020E030E000E010E0E5E3EE2E88
:10135000F12CEC0EFD1E91E0C92ED12C0E948100D3
:101360008DA99EA98035910521F484E592E00E9423
:101370006B0003E0602E712C6C0E7D1E1BE0412E75
:10138000512C4C0E5D1E82E5B30141E050E092010C
:1013900001E010E0B9E4EB2EF12CEC0EFD1EA1E013
:1013A000CA2ED12C0E948100F5E02F2E312C2C0E5C
:1013B0003D1E82E5B10141E050E09E01215F3F4FBB
:1013C000EE24FF24CC24DD240E94810082E5B301B9
:1013D00041E050E09E012F5E3F4FEDE5EE2EF12CF7
:1013E000EC0EFD1E91E0C92ED12C0E948100B7E0C9
:1013F0008B2E912C8C0E9D1EA1E2AA2EB12CAC0E30
:10140000BD1E82E5B40141E050E020E030E000E0A4
:1014100010E07501F1E0CF2ED12C0E94810089A14E
:10142000803379F382E5BE01675F7F4F41E050E092
:1014300020E030E0E3E1EE2EF12CEC0EFD1E94E016
:10144000C92ED12C0E94810082E5B30141E050E019
:10145000920101E010E0EE24FF24CC24DD240E9460
:1014600081008DE592E00E946B009C8980E0AB8852
:10147000BB24A82AB92A8E01095E1F4F8DB79EB7DB
:1014800008970FB6F8949EBF0FBE8DBFEDB7FEB79D
:101490003196ADB7BEB712961C930E9311978AE0A2
:1014A00090E0938382838BE692E095838483B78276
:1014B000A6820E94CB1C8DB79EB708960FB6F894F3
:1014C0009EBF0FBE8DBFC8010E946B008EE692E0EA
:1014D0000E946B0082E5B10141E050E09E01235F74
:1014E0003F4F01E010E00E948100B092AF05A09252
:1014F000AE05C059DF4F0FB6F894DEBF0FBECDBFAB
:10150000CF91DF911F910F91FF90EF90DF90CF90DF
:10151000BF90AF909F908F907F906F905F904F9013
:101520003F902F9008950F931F93DF93CF9300D098
:1015300000D0CDB7DEB72DB73EB7285030400FB63C
:10154000F8943EBF0FBE2DBFEDB7FEB731968E01AA
:101550000F5F1F4FADB7BEB712961C930E93119736
:1015600024E030E0338322832BE632E0358324838A
:10157000978386830E94CB1C2DB73EB7285F3F4FD1
:101580000FB6F8943EBF0FBE2DBFC8010E946B007E
:101590000F900F900F900F90CF91DF911F910F91AF
:1015A0000895EF92FF920F931F93569A5E985E9A5A
:1015B000E12CF0E6FF2EC7010197F1F70E948F01A1
:1015C0008C0180E792E00E946B00C8010E94930AA0
:1015D000C7010197F1F75E981093B6050093B50522
:1015E0001F910F91FF90EF9008952F923F924F928D
:1015F0005F926F927F928F929F92AF92BF92CF92A3
:10160000DF92EF92FF920F931F93DF93CF93CDB7AB
:10161000DEB7CE57D0400FB6F894DEBF0FBECDBFB9
:10162000662477246114710439F4E0904B04F0903F
:101630004C048EE491E011C021E06216710439F48B
:10164000E0907204F090730487E591E006C0E090AA
:101650009904F0909A0480E691E00E946B008BE779
:1016600092E00E946B0082E892E00E946B00ABE087
:10167000CA2ED12CCE0CDF1CD7011B968C91BAE060
:101680008B0280011124FCE0AF2EB12CAE0CBF1CEC
:10169000F7018485992787FD9095080F191F005140
:1016A00012402DB73EB7285030400FB6F8943EBFD9
:1016B0000FBE2DBFEDB7FEB7319621E030E02C0F05
:1016C0003D1FADB7BEB712963C932E9311974AE0DB
:1016D00050E0538342838BE692E0958384831783A3
:1016E00006830E94CB1CADB7BEB718960FB6F89410
:1016F000BEBF0FBEADBFCE0101960E946B008091B0
:10170000C00085FFFCCFB0E2B093C600F601908127
:101710008091C00085FFFCCF9093C600D5019C91BD
:101720008091C00085FFFCCF9093C6008EE892E0C8
:101730000E946B00F70195858091C00085FFFCCF6A
:101740009093C600D7011E966C918091C00085FFD2
:10175000FCCF6093C6004091B1055091B20540178F
:10176000510708F46AC0892F992787FD9095C09783
:101770009C01E3E0220F331FEA95E1F7880F991FE0
:10178000280F391F862F992787FD9095C097820FC4
:10179000931F8417950708F450C0080F191F16955A
:1017A000079520E3F70121A38BE992E00E946B00EB
:1017B0002091B1053091B205C80105972817390766
:1017C000A0F0C80105968217930778F086EA92E0A8
:1017D0000E946B000F2EF0E0AF2EF0E0BF2EF0E87D
:1017E000CF2EF0E4DF2EF02D3AC0C8010A9728175B
:1017F0003907A0F0065F1F4F0217130778F08DEA34
:1018000092E00E946B000F2EF0E0AF2EF0E0BF2EB2
:10181000F0E6CF2EF0E4DF2EF02D21C08AEB92E02F
:101820000E946B000F2EF0E0AF2EF0E0BF2EF0E430
:10183000CF2EF0E4DF2EF02D12C087EC92E00E9454
:101840006B00E1E3D7019196EC930F2EF0E0AF2E01
:10185000F0E0BF2EF0E0CF2EFFE3DF2EF02D87ED7E
:1018600092E00E946B0082E892E00E946B000FE021
:10187000802E912C8E0C9F1C10E1412E512C4E0C71
:101880005F1CB1E12B2E312C2E0C3F1CD701519641
:101890008C915197082F112707FD10950053104088
:1018A0001F968C911F97992787FD9095C09724E6E6
:1018B00030E0FC01E29FC001E39F900DF29F900D8C
:1018C0001124080F191F50968C91992787FD909528
:1018D000C0979C01A3E0220F331FAA95E1F7880F60
:1018E000991F280F391F020F131F2DB73EB728501D
:1018F00030400FB6F8943EBF0FBE2DBFEDB7FEB718
:10190000319621E030E02C0F3D1FADB7BEB71296E7
:101910003C932E9311974AE050E0538342838BE629
:1019200092E095838483178306830E94CB1CADB716
:10193000BEB718960FB6F894BEBF0FBEADBFCE01AE
:1019400001960E946B008091C00085FFFCCFB0E241
:10195000B093C600F40190818091C00085FFFCCF58
:101960009093C600D2019C918091C00085FFFCCF6E
:101970009093C600F10190818091C00085FFFCCF5B
:101980009093C60082EE92E00E946B00D7015296BF
:101990009C918091C00085FFFCCF9093C600D70139
:1019A0005396EC918091C00085FFFCCFE093C60078
:1019B000D70154962C918091C00085FFFCCF2093D5
:1019C000C6006091B5057091B6056017710708F4FF
:1019D00075C0422F552747FD509540535040892FE1
:1019E000992787FD9095C09724E630E0DC01A29FFF
:1019F000C001A39F900DB29F900D1124480F591F55
:101A00008E2F992787FD9095C0979C01E3E0220FC8
:101A1000331FEA95E1F7880F991F280F391F420FEE
:101A2000531F4617570708F449C0040F151F169592
:101A3000079520E3F70122A38BE992E00E946B0057
:101A40002091B5053091B605C801C297281739070E
:101A500080F0C801C2968217930758F086EA92E098
:101A60000E946B00C601B50120E030E040E850E480
:101A700015C0C8018659904028173907A0F00A56AA
:101A80001F4F0217130778F08DEA92E00E946B0057
:101A9000C601B50120E030E040E650E40E94711735
:101AA0004B015C011DC08AEB92E00E946B00C601F5
:101AB000B50120E030E040E450E4F0CF87EC92E064
:101AC0000E946B00C601B50120E030E040E05FE31A
:101AD0000E9471174B015C01E1E3D7019296EC93F0
:101AE00080EF92E00E946B0082E892E00E946B001F
:101AF000F5E14F2E512C4E0C5F1CD70155968C9161
:101B00005597992787FD9095C09720E137E2F90115
:101B10008E9F90018F9F300D9E9F300D1124870165
:101B20000A5E1F4FE7E12E2E312C2E0C3F1CA70121
:101B3000485E5F4FEF965FAF4EAFEF97C701499694
:101B4000ED969FAF8EAFED9759968C91C82EDD2400
:101B5000C7FCD094A0EDBFEFCA0EDB1EC20ED31E91
:101B6000F7018689992787FD9095C09728EE33E085
:101B7000AC01429FC001439F900D529F900D1124D4
:101B8000C80ED91E8789992787FD9095C09724E6AE
:101B900030E0DC01A29FC001A39F900DB29F900D89
:101BA0001124C80ED91E808D992787FD9095C09766
:101BB0009C0173E0220F331F7A95E1F7880F991F7C
:101BC000280F391FC20ED31EEDB7FEB738970FB6D8
:101BD000F894FEBF0FBEEDBF319621E030E02C0F30
:101BE0003D1FADB7BEB712963C932E9311974AE0B6
:101BF00050E0538342838BE692E095838483D782BF
:101C0000C6820E94CB1CADB7BEB718960FB6F8942B
:101C1000BEBF0FBEADBFCE0101960E946B0080918A
:101C2000C00085FFFCCFB0E2B093C600F201908106
:101C30008091C00085FFFCCF9093C600D8019C9195
:101C40008091C00085FFFCCF9093C600F101908188
:101C50008091C00085FFFCCF9093C600EF96AEAD9B
:101C6000BFADEF979C918091C00085FFFCCF909312
:101C7000C600ED96EEADFFADED9790818091C0006E
:101C800085FFFCCF9093C60082EE92E00E946B002D
:101C9000D7015A969C918091C00085FFFCCF90930C
:101CA000C600F701538D8091C00085FFFCCF509393
:101CB000C600D7015C966C918091C00085FFFCCF77
:101CC0006093C600F701758D8091C00085FFFCCF41
:101CD0007093C600D7015E964C918091C00085FF3D
:101CE000FCCF4093C600892F992787FD9095C09718
:101CF00020E137E2FC01E29FC001E39F900DF29FDB
:101D0000900D1124042F112707FD1095005310404A
:101D1000080F191F852F992787FD9095C09728EEEA
:101D200033E0AC01429FC001439F900D529F900D44
:101D30001124080F191F862F992787FD9095C097AA
:101D400024E630E0DC01A29FC001A39F900DB29F6A
:101D5000900D1124080F191F872F992787FD909543
:101D6000C0979C0153E0220F331F5A95E1F7880F6B
:101D7000991F280F391F020F131FEDB7FEB73897B1
:101D80000FB6F894FEBF0FBEEDBF319621E030E0F4
:101D90002C0F3D1FADB7BEB712963C932E931197F3
:101DA0004AE050E0538342838DEF92E09583848331
:101DB000178306830E94CB1CADB7BEB718960FB62B
:101DC000F894BEBF0FBEADBFCE0101960E946B005E
:101DD0008091C00085FFFCCFB0E2B093C600809137
:101DE000AE059091AF058C159D0508F44DC0081700
:101DF000190708F449C00C0D1D1D1695079520E321
:101E0000F70123A38BE992E00E946B002091AE05BD
:101E10003091AF05C801C2972817390780F0C80173
:101E2000C2968217930758F086EA92E00E946B00F0
:101E3000C501B40120E030E040E050E415C0C80125
:101E40008659904028173907A0F00A561F4F0217ED
:101E5000130778F08DEA92E00E946B00C501B4018F
:101E600020E030E040EC5FE30E9471174B015C0121
:101E70001DC08AEB92E00E946B00C501B40120E016
:101E800030E040E85FE3F0CF87EC92E00E946B0027
:101E9000C501B40120E030E040E85EE30E94711724
:101EA0004B015C01E1E3D7019396EC93611471045B
:101EB00039F4EB968CAE9DAEAEAEBFAEEB9711C0D3
:101EC000F1E06F16710439F0E3968CAE9DAEAEAEC4
:101ED000BFAEE39706C0E7968CAE9DAEAEAEBFAE8A
:101EE000E7970894611C711C23E06216710409F0E5
:101EF00099CBEB966CAD7DAD8EAD9FADEB97E79634
:101F00002CAD3DAD4EAD5FADE7970E9444198823DF
:101F10007CF1EB966CAD7DAD8EAD9FADEB97E3960E
:101F20002CAD3DAD4EAD5FADE3970E94441987FFE8
:101F300005C0A2E35A2EF3E36F2E2EC0E7966CADD8
:101F40007DAD8EAD9FADE797E3962CAD3DAD4EAD2B
:101F50005FADE3970E94441987FF05C0E1E35E2E61
:101F600073E3672E37C061E3562E52E3652E2BC014
:101F7000E7966CAD7DAD8EAD9FADE797E3962CAD4A
:101F80003DAD4EAD5FADE3970E94441987FF07C09A
:101F900043E3542E32E3632E21E3722E1DC0E396F9
:101FA0006CAD7DAD8EAD9FADE397EB962CAD3DADA9
:101FB0004EAD5FADEB970E94441987FF07C092E3D7
:101FC000592E81E3682E03E3702E06C013E3512ED1
:101FD000B1E36B2EA2E37A2EEB966CAD7DAD8EADA8
:101FE0009FADEB970E94C8156B017C0180E090E0EB
:101FF0000E94261A9B01AC01C501B4010E94401742
:1020000020E030E040E251E40E949E170E94201D33
:102010004DB75EB7485050400FB6F8945EBF0FBE44
:102020004DBF0DB71EB70F5F1F4F9E01255F3F4F7E
:10203000ADB7BEB712963C932E93119720E033E0D4
:10204000F80133832283D582C4820E94C815D80147
:1020500017967C936E9316970E94FC1CEDB7FEB703
:1020600038960FB6F894FEBF0FBEEDBF89E093E03F
:102070000E946B0040914B0450914C0421E030E0F1
:10208000FA01E20FF31FE0818091C00085FFFCCFD1
:10209000E093C6002F5F3F4F2A30310589F78091CA
:1020A000C00085FFFCCF80E28093C600CE010B9676
:1020B0000E946B008091C00085FFFCCF80E280937E
:1020C000C6008091C00085FFFCCF5092C600809171
:1020D000C00085FFFCCF80E28093C600E7966CAD20
:1020E0007DAD8EAD9FADE7970E94C8156B017C0159
:1020F00080E090E00E94261A9B01AC01C501B4016A
:102100000E94401720E030E040E251E40E949E1718
:102110000E94201D2DB73EB7285030400FB6F894CE
:102120003EBF0FBE2DBF0DB71EB70F5F1F4F9E01E5
:10213000255F3F4FADB7BEB712963C932E931197D4
:1021400023E133E0F80133832283D582C4820E94E5
:10215000C815D80117967C936E9316970E94FC1CA5
:10216000EDB7FEB738960FB6F894FEBF0FBEEDBFC1
:102170008AE193E00E946B004091720450917304D5
:1021800021E030E0FA01E20FF31FE0818091C0000E
:1021900085FFFCCFE093C6002F5F3F4F2A3031050B
:1021A00089F78091C00085FFFCCF80E28093C60054
:1021B000CE010B960E946B008091C00085FFFCCF82
:1021C00080E28093C6008091C00085FFFCCF6092C2
:1021D000C6008091C00085FFFCCF80E28093C600DE
:1021E000E3966CAD7DAD8EAD9FADE3970E94C815B3
:1021F0006B017C0180E090E00E94261A9B01AC01FB
:10220000C501B4010E94401720E030E040E251E4F3
:102210000E949E170E94201D2DB73EB728503040C7
:102220000FB6F8943EBF0FBE2DBF0DB71EB70F5FA0
:102230001F4F9E01255F3F4FADB7BEB712963C932F
:102240002E93119724E233E0F80133832283D58261
:10225000C4820E94C815D80117967C936E93169776
:102260000E94FC1CEDB7FEB738960FB6F894FEBF7F
:102270000FBEEDBF8091C00085FFFCCF8AE0809348
:10228000C6008CE293E00E946B004091990450914B
:102290009A0421E030E0FA01E20FF31FE08180911F
:1022A000C00085FFFCCFE093C6002F5F3F4F2A3070
:1022B000310589F78091C00085FFFCCF80E28093D3
:1022C000C600CE010B960E946B008091C00085FF76
:1022D000FCCF80E28093C6008091C00085FFFCCFD8
:1022E0007092C6008091C00085FFFCCF80E2809391
:1022F000C600E0914B04F0914C04578EE0917204BB
:10230000F0917304678EE0919904F0919A04778EAE
:1023100000914B0410914C04EB966CAD7DAD8EADED
:102320009FADEB970E94D219605DD80190966C9397
:102330000091720410917304E7966CAD7DAD8EAD83
:102340009FADE7970E94D219605DF80160A30091EC
:10235000990410919A04E3966CAD7DAD8EAD9FAD5E
:10236000E3970E94D219605DD80190966C93C25891
:10237000DF4F0FB6F894DEBF0FBECDBFCF91DF9118
:102380001F910F91FF90EF90DF90CF90BF90AF9093
:102390009F908F907F906F905F904F903F902F9085
:1023A00008958F929F92AF92BF92CF92DF92EF9259
:1023B000FF920F931F93DF93CF930F92CDB7DEB7AA
:1023C00083E38093B0050E94D60186E393E00E94E8
:1023D00072030E94F50AA0904B04B0904C04F501E2
:1023E000878D8133A1F0A0907204B0907304F50141
:1023F000878D813361F0A0909904B0909A04F50123
:10240000878D813321F080E090E09C0159010E948A
:102410003A0280E493E00E94720301E010E07E0142
:102420000894E11CF11CF501E00FF11F8081898304
:10243000C70161E070E00E94D0020F5F1F4F0A30B9
:10244000110589F789E691E00E947203F50180A1E8
:102450008983C70161E070E00E94D00285E493E0C7
:102460000E947203C0904B04D0904C04F601878DFB
:102470008233A1F0C0907204D0907304F601878D6E
:10248000823361F0C0909904D0909A04F601878D50
:10249000823321F080E090E09C0169010E946C028F
:1024A0008BE493E00E94720301E010E07E01089447
:1024B000E11CF11CF601E00FF11F80818983C70147
:1024C00061E070E00E94D0020F5F1F4F0A301105DB
:1024D00089F789E691E00E947203F60180A1898361
:1024E000C70161E070E00E94D00285E493E00E94A1
:1024F00072030E949E0280E593E00E947203E090C6
:102500004B04F0904C04F701878D8333A1F0E090E9
:102510007204F0907304F701878D833361F0E090CB
:102520009904F0909A04F701878D833321F080E0BD
:1025300090E09C01790101E010E04E010894811CBB
:10254000911CF701E00FF11F80818983C40161E0D4
:1025500070E00E94D0020F5F1F4F0A30110589F70B
:1025600089E691E00E947203F70180A18983C4018A
:1025700061E070E00E94D00285E493E00E94720363
:1025800083E090E09093AD058093AC0520983A9855
:10259000399888B1866088B980916800826080939C
:1025A000680080916C00866080936C00789486B19E
:1025B000982F927082FD07C0992319F41092B405E8
:1025C00009C081E005C0992311F482E001C083E0D5
:1025D0008093B4058091B4058093B3058091AA05DA
:1025E0009091AB05009741F40E943A0288EE91E089
:1025F0000E947203D50111C0019741F40E946C0240
:1026000088EE91E00E947203D60107C00E949E02EC
:1026100088EE91E00E947203D70121E030E0FD01D5
:10262000E20FF31FE0818091C00085FFFCCFE093B3
:10263000C6002F5F3F4F2A30310589F711E0812E08
:10264000912C00E318990CC08091A4059091A505E8
:10265000892B31F49092A5058092A40511E307C05F
:10266000189B04C01092A5051092A40510E3809158
:102670002304813309F045C08091AA059091AB05F0
:102680000097A1F40E943A0288EE91E00E94720342
:102690000E946C0289E691E00E9472030E949E02F1
:1026A00089E691E00E947203D50129C00197A1F447
:1026B0000E943A0289E691E00E9472030E946C0235
:1026C00088EE91E00E9472030E949E0289E691E0EA
:1026D0000E947203D60113C00E943A0289E691E07B
:1026E0000E9472030E946C0289E691E00E947203CC
:1026F0000E949E0288EE91E00E947203D70100932F
:102700002304103309F49ECF80914B0490914C0424
:10271000A817B90771F08091720490917304A817FB
:10272000B90739F08091990490919A04A817B907D4
:1027300011F481E38C9390E0E0914B04F0914C0410
:102740008081813309F491E020E0E0917204F091FE
:1027500073048081813309F421E09223292F30E032
:1027600040E050E0E0919904F0919A048081813337
:1027700011F441E050E024233523232B19F081E3A9
:1027800080931F0483E38093B0050F90CF91DF9176
:102790001F910F91FF90EF90DF90CF90BF90AF907F
:1027A0009F908F900895AF92BF92CF92DF92EF9259
:1027B000FF920F931F93DF93CF93CDB7DEB7C4562D
:1027C000D0400FB6F894DEBF0FBECDBF7B01AA2765
:1027D00097FDA095BA2FBC01CD010E94741920E08D
:1027E00030E040E151E40E949E1720E030E040EAF2
:1027F00050E40E9498185B016C010027F7FC0095DB
:10280000102FC801B7010E94741920E030E040E1A8
:1028100051E40E949E1720E030E040EA50E40E941C
:10282000981820E030E040E251E40E9498189B01A3
:10283000AC01C601B5010E94711720E030E040E014
:1028400052E40E9471177B018C010E94D2195B0136
:102850006C01B501882777FD8095982F0E94741927
:102860009B01AC01C801B7010E94401720E030E095
:1028700040E251E40E949E170E94201D2DB73EB7F2
:10288000285030400FB6F8943EBF0FBE2DBF0DB795
:102890001EB70F5F1F4F7E010894E11CF11CEDB7BE
:1028A000FEB7F282E18220E033E0F8013383228335
:1028B000B582A4820E94D219F801778366830E94B0
:1028C000FC1C2DB73EB7285F3F4F0FB6F8943EBFB4
:1028D0000FBE2DBFC7010E946B00B092B205A0923F
:1028E000B105CC59DF4F0FB6F894DEBF0FBECDBF98
:1028F000CF91DF911F910F91FF90EF90DF90CF90DC
:10290000BF90AF900895CF92DF92EF92FF920F9316
:102910001F93CF93DF9380E395E725EF30E0F90134
:102920003197F1F70197D9F70E9453010E945D0199
:102930000E9464017C010E9464018C010E94640178
:102940006C010E946401EC010E9464010E0D1F1DC8
:102950000C0D1D1D0C0F1D1F8017910741F485E5FF
:1029600093E00E946B00C601BE010E94D313DF9169
:10297000CF911F910F91FF90EF90DF90CF9008952E
:1029800083E693E00E946B000E94D6010E943A0207
:102990008FE793E00E94720380E593EC25EF30E02F
:1029A000F9013197F1F70197D9F780E090E020E045
:1029B00030E0019647E28031940721F42F5F3F4FCA
:1029C00080E090E02E31310511F040E341C00E94DB
:1029D00083140E94D10A0E945C090E94F50AE091CA
:1029E0004B04F0914C048081813349F481A18133FF
:1029F00041F082A1813329F083A1813311F040E3BA
:102A000001C041E3E0917204F0917304808181334D
:102A100051F481A1813331F082A1813319F083A176
:102A2000813309F441E3E0919904F0919A048081A3
:102A3000813351F481A1813331F082A1813319F0C6
:102A400083A1813309F441E380E090E020E030E0AD
:102A5000189903C0413331F403C0403309F4A9CFBE
:102A600086E301C083E38093B00508950F931F931D
:102A700083E993E00E946B000E94D6010E943A0213
:102A800083EB93E00E9472030E9483140E946C0205
:102A900087EC93E00E9472030AEC13E0C8010E94E5
:102AA00072030E94D10AC8010E9472030E945C094D
:102AB000C8010E94720385E38093B0051F910F91B6
:102AC00008958FE390E09093C5008093C4008091B7
:102AD000C10088608093C1008091C10080618093B3
:102AE000C10086E08093C2000E94D60181ED93E090
:102AF0000E9472030E943A0286EE93E00E947203E3
:102B00000E946C028BEF93E00E9472030E949E026F
:102B100081ED93E00E94720380E593EC25EF30E0B5
:102B2000F9013197F1F70197D9F781E38093B00567
:102B30008091B0058433F1F085333CF4823389F021
:102B4000833394F48133F9F407C08633B1F08633CC
:102B500074F08733C1F414C081E360E30E94C001C4
:102B6000E7CF0E943615E4CF0E948908E1CF0E948A
:102B7000D111DECF0E946E04DBCF0E949A03D8CF22
:102B80000E94C014D5CF80E194E00E946B00D0CFAA
:102B9000EF92FF920F931F937B018C0120E030E0B6
:102BA00040E05FE40E94441988238CF0C801B7011B
:102BB00020E030E040E05FE40E9440170E94D2191C
:102BC0009B01AC01205030404040504806C0C80135
:102BD000B7010E94D2199B01AC01B901CA011F9132
:102BE0000F91FF90EF900895A0E0B0E0EAEFF5E1DB
:102BF0000C94941CDC012B01FA019C91923008F496
:102C000039C1EB018881823008F433C1943069F412
:102C1000843009F02FC111969C91119789819817E2
:102C200009F428C1ABE9B4E025C1843009F421C11D
:102C30008230A9F4923009F01DC19A01AD0188E0FB
:102C4000EA010990AE01E90109929E018150C1F7A4
:102C5000E201898111969C918923818308C1923078
:102C600009F407C112962D903C901397EB018A81CD
:102C70009B811496AD90BD90CD90DC901797EC8021
:102C8000FD800E811F819101281B390BB90137FF8F
:102C900004C066277727621B730B603271050CF046
:102CA00061C0121613066CF537014801062E04C0E8
:102CB00096948794779467940A94D2F721E030E051
:102CC00040E050E004C0220F331F441F551F6A9597
:102CD000D2F721503040404050402E213F21402328
:102CE0005123211531054105510521F021E030E046
:102CF00040E050E079018A01E628F72808291929DF
:102D00003CC0232BD1F1260E371E35014601062E7D
:102D100004C096948794779467940A94D2F721E03C
:102D200030E040E050E004C0220F331F441F551F25
:102D30006A95D2F721503040404050402A213B2133
:102D40004C215D21211531054105510521F021E07E
:102D500030E040E050E059016A01A628B728C828B1
:102D6000D9280BC0821593052CF01C01AA24BB2482
:102D7000650103C0EE24FF24870111969C91D201C6
:102D800011968C91981709F445C0992339F0A80140
:102D900097012A193B094C095D0906C0A601950156
:102DA0002E193F09400B510B57FD08C01182338289
:102DB000228224833583468357831DC081E081832B
:102DC0003382228288279927DC01821B930BA40B74
:102DD000B50B84839583A683B7830DC0220F331F61
:102DE000441F551F248335834683578382819381F3
:102DF0000197938382832481358146815781DA014B
:102E0000C9010197A109B1098F5F9F4FAF4FBF4320
:102E100028F30BC0918333822282EA0CFB1C0C1D29
:102E20001D1DE482F5820683178383E0808324815D
:102E300035814681578157FF1AC0C901AA2797FDDE
:102E4000A095BA2F81709070A070B070569547957C
:102E500037952795822B932BA42BB52B84839583B1
:102E6000A683B78382819381019693838283DF0156
:102E700001C0D201CD01CDB7DEB7E2E10C94B01CA8
:102E8000A0E2B0E0E6E4F7E10C94A01C69837A8349
:102E90008B839C832D833E834F835887E9E0EE2EFE
:102EA000F12CEC0EFD1ECE010196B7010E94C31B52
:102EB0008E010F5E1F4FCE010596B8010E94C31B05
:102EC0008A8991E089278A8BC701B801AE01475EE4
:102ED0005F4F0E94F4150E94EE1AA096E6E00C9453
:102EE000BC1CA0E2B0E0E7E7F7E10C94A01C69830A
:102EF0007A838B839C832D833E834F835887F9E0AD
:102F0000EF2EF12CEC0EFD1ECE010196B7010E94B2
:102F1000C31B8E010F5E1F4FCE010596B8010E94A4
:102F2000C31BC701B801AE01475E5F4F0E94F41595
:102F30000E94EE1AA096E6E00C94BC1CA0E2B0E061
:102F4000E4EAF7E10C94941C69837A838B839C8375
:102F50002D833E834F835887CE010196BE01675F64
:102F60007F4F0E94C31BCE010596BE016F5E7F4F4F
:102F70000E94C31B9985923088F089898230C8F0FD
:102F8000943019F4823051F404C0843029F4923022
:102F900081F48BE994E0C6C0923049F420E09A8530
:102FA0008A89981321E02A87CE010996BBC0823016
:102FB00049F420E09A858A89981321E02A8BCE0172
:102FC0004196B0C02D843E844F8458886D887E8899
:102FD0008F88988CEE24FF248701AA24BB246501E6
:102FE00040E050E060E070E0E0E0F0E0C1018170BE
:102FF0009070892BE9F0E60CF71C081D191D9A0149
:10300000AB012A0D3B1D4C1D5D1D80E090E0A0E052
:10301000B0E0E614F7040805190520F481E090E01B
:10302000A0E0B0E0BA01A901480F591F6A1F7B1F39
:10303000AA0CBB1CCC1CDD1C97FE08C081E090E0F4
:10304000A0E0B0E0A82AB92ACA2ADB2A3196E032E9
:10305000F10549F0660C771C881C991C569447941E
:1030600037942794C3CFFA85EA892B893C898B85CD
:103070009C85280F391F2E5F3F4F17C0CA018170F2
:103080009070892B61F016950795F794E79480E08E
:1030900090E0A0E0B0E8E82AF92A0A2B1B2B7695ED
:1030A0006795579547952F5F3F4F77FDE7CF0CC04A
:1030B000440F551F661F771F17FD4160EE0CFF1C64
:1030C000001F111F21503040403090E0590790E020
:1030D000690790E4790760F32B8F3C8FDB01CA010D
:1030E0008F779070A070B07080349105A105B10504
:1030F00061F447FD0AC0E114F1040105110529F04E
:10310000405C5F4F6F4F7F4F40781A8EFE1711F073
:1031100081E08A8F4D8F5E8F6F8F78A383E0898FD8
:10312000CE0149960E94EE1AA096E2E10C94B01CE2
:10313000A8E1B0E0EEE9F8E10C949C1C69837A8385
:103140008B839C832D833E834F835887B9E0EB2E7E
:10315000F12CEC0EFD1ECE010196B7010E94C31B9F
:103160008E010F5E1F4FCE010596B8010E94C31B52
:103170002985223008F47EC03989323010F4B80134
:103180007CC08A859A8989278A87243011F0223069
:1031900031F4231709F06EC06BE974E06EC034306F
:1031A00039F41D861E861F86188A1C861B8604C05D
:1031B000323021F484E08987B7015FC02B853C85DC
:1031C0008B899C89281B390B3C872B87ED84FE84D7
:1031D0000F851889AD88BE88CF88D88CEA14FB0487
:1031E0000C051D0540F4EE0CFF1C001F111F2150A3
:1031F00030403C872B8720E030E040E050E080E02A
:1032000090E0A0E0B0E460E070E0EA14FB040C059C
:103210001D0540F0282B392B4A2B5B2BEA18FB08A5
:103220000C091D09B695A79597958795EE0CFF1C7F
:10323000001F111F6F5F7F4F6F31710531F7DA018A
:10324000C9018F779070A070B07080349105A1058E
:10325000B10561F427FD0AC0E114F104010511056F
:1032600029F0205C3F4F4F4F5F4F20782D873E87DE
:103270004F87588BBE01675F7F4FCB010E94EE1ACC
:103280006896EAE00C94B81CA8E1B0E0EAE4F9E141
:103290000C94A01C69837A838B839C832D833E834B
:1032A0004F83588789E0E82EF12CEC0EFD1ECE01ED
:1032B0000196B7010E94C31B8E010F5E1F4FCE0106
:1032C0000596B8010E94C31B8985823040F0898928
:1032D000823028F0C701B8010E943B1C01C08FEF6B
:1032E0006896E6E00C94BC1CA8E0B0E0EAE7F9E1DF
:1032F0000C949D1C9B01AC0183E08983DA01C90118
:103300008827B7FD83959927AA27BB27B82E2115B3
:1033100031054105510519F482E089833AC08823BB
:10332000A9F0203080E0380780E0480780E858079F
:1033300029F460E070E080E09FEC30C0EE24FF24D0
:103340008701E21AF30A040B150B02C079018A0106
:103350008EE1C82ED12CDC82CB82ED82FE820F83DF
:103360001887C801B7010E949F1A019718161906FD
:1033700084F4082E04C0EE0CFF1C001F111F0A94D9
:10338000D2F7ED82FE820F831887C81AD90ADC8231
:10339000CB82BA82CE0101960E94EE1A2896E9E00D
:1033A0000C94B91CACE0B0E0E8EDF9E10C94A41C7D
:1033B00069837A838B839C83CE010196BE016B5F08
:1033C0007F4F0E94C31B8D81823061F1823050F1AA
:1033D000843021F48E81882351F12EC02F813885CD
:1033E00037FD20C06E812F3131051CF06623F9F0C6
:1033F00023C08EE190E0821B930B29853A854B8593
:103400005C8504C056954795379527958A95D2F7E0
:103410006623B1F050954095309521953F4F4F4F21
:103420005F4F0EC020E030E040E050E009C02FEFD9
:103430003FEF4FEF5FE704C020E030E040E050E8AE
:10344000B901CA012C96E2E00C94C01CA8E0B0E0DF
:10345000ECE2FAE10C949C1C7B018C016115710576
:103460008105910519F482E0898360C083E0898336
:103470008EE1C82ED12CDC82CB82ED82FE820F83BE
:103480001887C801B7010E949F1AFC013197F7FF06
:103490003BC0222733272E1B3F0B57016801022E0A
:1034A00004C0D694C794B794A7940A94D2F740E086
:1034B00050E060E070E081E090E0A0E0B0E004C0A7
:1034C000880F991FAA1FBB1F2A95D2F70197A10940
:1034D000B1098E219F21A023B1230097A105B10539
:1034E00021F041E050E060E070E04A295B296C295E
:1034F0007D294D835E836F8378878EE190E08E1BFC
:103500009F0B9C838B8312C0309781F00E2E04C0DA
:10351000EE0CFF1C001F111F0A94D2F7ED82FE82F1
:103520000F831887CE1ADF0ADC82CB821A82CE0183
:1035300001960E94EE1A2896EAE00C94B81CEF92CD
:10354000FF920F931F937B018C0180E0E81680E0CF
:10355000F80681E0080780E0180788F48FEFE81686
:10356000F1040105110531F028F088E090E0A0E0B9
:10357000B0E017C080E090E0A0E0B0E012C080E0D2
:10358000E81680E0F80680E0080781E0180728F0D8
:1035900088E190E0A0E0B0E004C080E190E0A0E02D
:1035A000B0E020E230E040E050E0281B390B4A0B4D
:1035B0005B0B04C016950795F794E7948A95D2F7AC
:1035C000F701ED55FB4F8081281B31094109510955
:1035D000C9011F910F91FF90EF900895DF92EF9234
:1035E000FF920F931F93FC01E480F5800681178101
:1035F000D1808081823048F480E090E0A0E1B0E0AA
:10360000E82AF92A0A2B1B2BA5C0843009F49FC095
:10361000823021F4EE24FF24870105C0E114F10477
:103620000105110519F4E0E0F0E096C062817381B4
:103630009FEF623879070CF05BC022E83FEF261B52
:10364000370B2A3131052CF020E030E040E050E02B
:103650002AC0B801A701022E04C076956795579538
:1036600047950A94D2F781E090E0A0E0B0E004C072
:10367000880F991FAA1FBB1F2A95D2F70197A1098E
:10368000B1098E219F21A023B1230097A105B10587
:1036900021F081E090E0A0E0B0E09A01AB01282B9E
:1036A000392B4A2B5B2BDA01C9018F779070A07000
:1036B000B07080349105A105B10539F427FF09C028
:1036C000205C3F4F4F4F5F4F04C0215C3F4F4F4F37
:1036D0005F4FE0E0F0E02030A0E03A07A0E04A07CA
:1036E000A0E45A0710F0E1E0F0E079018A0127C078
:1036F0006038710564F5FB01E158FF4FD801C7013F
:103700008F779070A070B07080349105A105B105DD
:1037100039F4E7FE0DC080E490E0A0E0B0E004C022
:103720008FE390E0A0E0B0E0E80EF91E0A1F1B1F37
:1037300017FF05C016950795F794E794319687E033
:1037400016950795F794E7948A95D1F705C0EE246E
:10375000FF248701EFEFF0E06E2F679566276795EE
:10376000902F9F77D794DD24D7948E2F8695492F5D
:10377000462B582F5D29B701CA011F910F91FF9069
:10378000EF90DF900895FC01DB014081518122819F
:10379000622F6F7770E0221F2227221F9381892FCB
:1037A000880F822B282F30E0991F9927991F119697
:1037B0009C93119721153105A9F541155105610516
:1037C000710511F482E037C082E89FEF13969C9355
:1037D0008E9312979A01AB0167E0220F331F441FAB
:1037E000551F6A95D1F783E08C930DC0220F331FCC
:1037F000441F551F12968D919C9113970197139614
:103800009C938E931297203080E0380780E0480721
:1038100080E4580758F314962D933D934D935C9391
:10382000179708952F3F310579F44115510561052A
:10383000710519F484E08C93089564FF03C081E05E
:103840008C9312C01C9210C02F57304013963C939B
:103850002E93129783E08C9387E0440F551F661FC9
:10386000771F8A95D1F7706414964D935D936D938D
:103870007C93179708951F93DC01FB019C91923074
:1038800008F447C08081823008F443C0943051F47A
:1038900011961C91843099F58181682F70E0611B2D
:1038A00071093FC0843021F0923031F48230B9F197
:1038B0008181882389F12DC011961C911197823046
:1038C000F1F081811817D9F412962D913C9113973C
:1038D000828193818217930794F028173907BCF0EF
:1038E00014968D919D910D90BC91A02D24813581D0
:1038F00046815781281739074A075B0718F41123B7
:1039000041F00AC082179307A407B50740F41123BA
:1039100019F061E070E005C06FEF7FEF02C060E07A
:1039200070E0CB011F9108952F923F924F925F92CA
:103930006F927F928F929F92AF92BF92CF92DF92BF
:10394000EF92FF920F931F93CF93DF93CDB7DEB724
:10395000CA1BDB0B0FB6F894DEBF0FBECDBF0994B8
:103960002A88398848885F846E847D848C849B840F
:10397000AA84B984C884DF80EE80FD800C811B811D
:10398000AA81B981CE0FD11D0FB6F894DEBF0FBE4C
:10399000CDBFED010895AEE0B0E0E1EDFCE10C94A7
:1039A000A21C0D891E898F89988D97FF02C080E027
:1039B00090E801979E838D831A83098386E08C8328
:1039C0009E01255E3F4FCE010196698D7A8DA9013A
:1039D0000E94271D4D815E8157FD0AC02F813885C9
:1039E000421753070CF49A01020F131FF8011082BB
:1039F0002E96E4E00C94BE1CAEE0B0E0E2E0FDE107
:103A00000C94A21C0D891E8986E08C831A8309837D
:103A10008FEF9FE79E838D839E01275E3F4FCE01F0
:103A200001966F89788DA9010E94271D2F81388505
:103A3000020F131FF80110822E96E4E00C94BE1CB6
:103A4000ACD220F09F3708F4C0C27EC298C2ABE06F
:103A5000B0E0EDE2FDE10C94941C3C012B015A0115
:103A6000FC0117821682838181FD03C06FEF7FEF17
:103A7000C6C19AE0892E1E010894211C311CF30155
:103A80002381F20123FD859123FF81912F0188235A
:103A900009F4B2C1853239F423FD859123FF819168
:103AA0002F01853229F490E0B3010E941A1FE7CF5D
:103AB000982FFF24EE249924FFE1FF15D0F09B32CC
:103AC00069F09C3228F4903259F0933291F40EC090
:103AD0009D3249F0903369F441E024C052E0F52A68
:103AE00084E0F82A28C098E0F92A25C0E0E1FE2AFF
:103AF00022C0F7FC29C0892F80538A3070F4F6FE6B
:103B000005C0989C902C1124980E15C0E89CE02CC0
:103B10001124E80EF0E2FF2A0EC09E3229F4F6FCD2
:103B20006BC140E4F42A07C09C3619F450E8F52A2A
:103B300002C0983649F4F20123FD959123FF91913B
:103B40002F01992309F0B8CF892F8554833018F0BD
:103B50008052833038F444E050E0A40EB51E5FE399
:103B600059830FC0933631F0933779F0933509F0CC
:103B700056C020C0F5018081898342E050E0A40E48
:103B8000B51E610101E010E012C0F501C080D180D6
:103B9000F6FC03C06FEF7FEF02C0692D70E042E0DA
:103BA00050E0A40EB51EC6010E940F1F8C015FE7F6
:103BB000F52214C0F501C080D180F6FC03C06FEF80
:103BC0007FEF02C0692D70E042E050E0A40EB51E08
:103BD000C6010E94041F8C0150E8F52AF3FE07C0BD
:103BE0001AC080E290E0B3010E941A1FEA948E2D61
:103BF00090E008171907A8F30EC0F601F7FC8591AD
:103C0000F7FE81916F0190E0B3010E941A1FE1104D
:103C1000EA94015010400115110579F7EAC0943675
:103C200011F0993669F5F7FE08C0F5012081318160
:103C30004281538184E090E00AC0F5018081918146
:103C40009C01442737FD4095542F82E090E0A80E58
:103C5000B91E9FE6F92257FF09C05095409530954F
:103C600021953F4F4F4F5F4FE0E8FE2ACA01B9014F
:103C7000A1012AE030E00E94461FD82ED21840C091
:103C8000953729F41F2D1F7E2AE030E01DC01F2D1F
:103C9000197F9F3661F0903720F4983509F0ACC059
:103CA0000FC0903739F0983709F0A6C004C028E05B
:103CB00030E00AC0106114FD146020E130E004C05F
:103CC00014FD166020E132E017FF08C0F5016081A5
:103CD00071818281938144E050E008C0F5018081C8
:103CE0009181BC0180E090E042E050E0A40EB51E5E
:103CF000A1010E94461FD82ED2188FE7F82EF1227C
:103D0000F6FE0BC05EEFF522D91438F4F4FE07C0BE
:103D1000F2FC05C08FEEF82202C01D2D01C0192D46
:103D2000F4FE0DC0FE01ED0DF11D8081803319F40C
:103D300099EEF92208C01F5FF2FE05C003C08F2D67
:103D4000867809F01F5F0F2DF3FC14C0F0FE0FC042
:103D50001E1510F09D2C0BC09D2C9E0C911A1E2D33
:103D600006C080E290E0B3010E941A1F1F5F1E157B
:103D7000C0F304C01E1510F4E11A01C0EE2404FFC4
:103D80000FC080E390E0B3010E941A1F02FF1DC024
:103D900001FD03C088E790E00EC088E590E00BC00D
:103DA000802F867891F001FF02C08BE201C080E293
:103DB000F7FC8DE290E0B3010E941A1F06C080E379
:103DC00090E0B3010E941A1F9A94D914C0F3DA94B8
:103DD000F101ED0DF11D808190E0B3010E941A1FE9
:103DE000DD20A9F706C080E290E0B3010E941A1F0F
:103DF000EA94EE20C1F743CEF30166817781CB01CF
:103E00002B96E2E10C94B01CFC01059061507040CF
:103E10000110D8F7809590958E0F9F1F0895FC0193
:103E20006150704001900110D8F7809590958E0FE9
:103E30009F1F08950F931F93CF93DF938C01EB0186
:103E40008B8181FF1BC082FF0DC02E813F818C8141
:103E50009D812817390764F4E881F9810193F9837A
:103E6000E88306C0E885F985802F0995892B31F410
:103E70008E819F8101969F838E8302C00FEF1FEF7B
:103E8000C801DF91CF911F910F910895FA01AA27E0
:103E9000283051F1203181F1E8946F936E7F6E5F8D
:103EA0007F4F8F4F9F4FAF4FB1E03ED0B4E03CD03B
:103EB000670F781F891F9A1FA11D680F791F8A1F1E
:103EC000911DA11D6A0F711D811D911DA11D20D085
:103ED00009F468943F912AE0269F11243019305D3F
:103EE0003193DEF6CF010895462F4770405D419330
:103EF000B3E00FD0C9F7F6CF462F4F70405D4A337D
:103F000018F0495D31FD4052419302D0A9F7EACF44
:103F1000B4E0A6959795879577956795BA95C9F773
:103F200000976105710508959B01AC010A2E069466
:103F30005795479537952795BA95C9F7620F731F1F
:103F4000841F951FA01D0895882371F4772321F005
:103F50009850872B762F07C0662311F499270DC040
:103F60009051862B70E060E02AF09A95660F771FDB
:103F7000881FDAF7880F9695879597F908959F3FE0
:103F800031F0915020F4879577956795B795880F14
:103F9000911D9695879597F9089525D0A0F0BEE7D5
:103FA000B91788F4BB279F3860F41616B11D672F28
:103FB000782F8827985FF7CF869577956795B11DFD
:103FC00093959639C8F30895E894BB276627772719
:103FD000CB0197F9089557FD9058440F551F59F09C
:103FE0005F3F71F04795880F97FB991F61F09F3FE6
:103FF00079F087950895121613061406551FF2CF0F
:104000004695F1DF08C0161617061806991FF1CF5E
:0E40100086957105610508940895F894FFCF18
:10401E0020696E20706F776572206F6E20737461E9
:10402E0074652066756E6374696F6E200020696E0C
:10403E00207761726E696E67207374617465206695
:10404E00756E6374696F6E20005741524E494E472C
:10405E0020436865636B20506C616E747300207032
:10406E006C616E7431200020706C616E74322000B1
:10407E0020706C616E7433200020005420004D209F
:10408E000042200020202020205741524E494E470A
:10409E002020202020004D6178204E756D20506C20
:1040AE00616E747320416464656400506C65617365
:1040BE00652052656D6F7665204F6E650020696EC6
:1040CE00206564697420706C616E74732073746102
:1040DE0074652066756E6374696F6E20002052657C
:1040EE006D6F76652000204261636B20000000003A
:1040FE000000006261636B00230020696E2073650F
:10410E006C6563742066756E6374696F6E2073746C
:10411E006174652066756E6374696F6E20005365F9
:10412E006C6563742046756E6374696F6E3A002019
:10413E00312E20416464204E657720506C616E7480
:10414E000020322E204564697420506C616E7473A9
:10415E000020332E204D6F6E6974657220506C6195
:10416E006E747300202020666F756E64002042729C
:10417E00696768746E6573733A20002564000A00DF
:10418E004D6F6973747572653A20002054454D5019
:10419E0020006C6F772072616E67653A2000686947
:1041AE0067682072616E67653A200020494E205282
:1041BE00414E474520002042455354200020534590
:1041CE00434F4E44204245535400205448495244D4
:1041DE0020424553542000204F5554534944452006
:1041EE0052414E47452000204D4F4953545552459C
:1041FE00200020686967682072616E67653A20004A
:10420E00204252494748544E4553532000257500CD
:10421E0025642E253031640A00706C616E74203175
:10422E003A200025642E25640A00706C616E74209D
:10423E00323A200025642E2530316400706C616E98
:10424E007420333A2000526573756C74733A2000F3
:10425E0020312E2000202F2031300020322E200041
:10426E0020332E200054656D706572617475726511
:10427E003A200020696E206D6F6E69746F72207324
:10428E00746174652066756E6374696F6E200020AC
:10429E0020204D6F6E69746F72696E672E2E2E2000
:1042AE0020200020696E2063616C696272617469FE
:1042BE006F6E2073746174652066756E6374696FBA
:1042CE006E200020436170747572696E67204461C0
:1042DE0074612E2E2E20002020002323232323233F
:1042EE0000232323232323232323232323232323B3
:1042FE0023232323230020202020204741524445FE
:10430E004E494E472B202020202000202020202008
:10431E002020454534353920202020202020200023
:10432E00206E6F7420696E20737461746520003086
:10433E003001003003003043616C656E64756C6152
:10434E003132353835313030323030303135303041
:10435E003939393939303030303000260430204880
:10436E00696269736375733336303935323030397B
:10437E0039393939393939393939393930303030C3
:10438E0030004D043020204265676F6E6961323611
:10439E0030373532303039393930303030303031E5
:1043AE003530303030303030007404000000000002
:1043BE0000000000010202030303030404040404CA
:1043CE000404040505050505050505050505050592
:1043DE000505050606060606060606060606060672
:1043EE00060606060606060606060606060606065F
:1043FE000606060707070707070707070707070742
:10440E00070707070707070707070707070707072E
:10441E00070707070707070707070707070707071E
:10442E00070707070707070707070707070707070E
:10443E0007070708080808080808080808080808F1
:10444E0008080808080808080808080808080808DE
:10445E0008080808080808080808080808080808CE
:10446E0008080808080808080808080808080808BE
:10447E0008080808080808080808080808080808AE
:10448E00080808080808080808080808080808089E
:10449E00080808080808080808080808080808088E
:1044AE00080808080808080808080808080808087E
:0444BE0008080800E2
:00000001FF
