:100000000C9434000C9451000C9451000C94510049
:100010000C94F4020C9451000C9451000C94510077
:100020000C9451000C9451000C9451000C9451000C
:100030000C9451000C9451000C9451000C945100FC
:100040000C9451000C9451000C9451000C945100EC
:100050000C9451000C9451000C9451000C945100DC
:100060000C9451000C94510011241FBECFEFD8E026
:10007000DEBFCDBF15E0A0E0B1E0EAE7F7E302C0E4
:1000800005900D92AC3BB107D9F715E0ACEBB5E0AC
:1000900001C01D92A53EB107E1F70E9424110C9406
:1000A000BB1B0C9400009093C5008093C400E1EC4E
:1000B000F0E080818860808380818061808386E039
:1000C0008093C2000895982F8091C00085FFFCCFD7
:1000D0009093C6000895CF93DF93EC0105C0992754
:1000E00087FD90950E94630089918823C1F7DF9175
:1000F000CF9108958091C00087FFFCCF8091C6000A
:100100000895BF92CF92DF92EF92FF920F931F93C9
:10011000CF93DF93B82EFB01D901E70141155105BB
:1001200031F40115110519F490E080E054C084EA1F
:100130008093BC008091BC0087FFFCCF9091B900F8
:10014000987F983009F09FC08B2D8E7F8093BB00E5
:1001500084E88093BC008091BC0087FFFCCF909125
:10016000B900987F9831B1F0903209F08CC088C006
:1001700080818093BB002093BC008091BC0087FFEE
:10018000FCCF9091B900987F415050409832C9F40B
:10019000319601C024E84115510551F716C08C91E4
:1001A0008093BB002093BC008091BC0087FFFCCFF4
:1001B0009091B900987F01501040983211F4119637
:1001C00005C0903309F05FC05BC024E8011511053C
:1001D00031F791E081E0C114D10409F44EC08823C5
:1001E00011F428E001C020E184EA8093BC008091F2
:1001F000BC0087FFFCCF9091B900987F921709F05F
:1002000042C081E0B82AB092BB0084E88093BC0071
:100210008091BC0087FFFCCF9091B900987F90340B
:1002200019F0983481F52CC00894C108D10824EC49
:1002300011C02093BC008091BC0087FFFCCF90913F
:10024000B900987F0894C108D1089035E1F48091F5
:10025000BB008993C114D10461F784E88093BC008A
:100260008091BC0087FFFCCF9091B900987F9835B2
:1002700051F48091BB00888302C0992321F090E063
:1002800084E98093BC00892FDF91CF911F910F915A
:10029000FF90EF90DF90CF90BF9008951092B9003B
:1002A0008093B8000895529A5A988CEC9CEA019772
:1002B000F1F752984A9BFECF08954A99FECF4A9B88
:1002C000FECF4A99FECF089540E050E020E030E0B4
:1002D00063EA4A9BFECF862F8A95F1F7C901880F02
:1002E000991F4A9B03C09C01216001C09C014A994F
:1002F000FECF4F5F5F4F4830510559F7C901089550
:10030000569A5E9808955E9A80E090E60197F1F71C
:10031000089580E090E60197F1F75E9808953B9884
:1003200080917C00806480937C0080917C008F773A
:1003300080937C0080917C00806280937C0080911F
:100340007C00836080937C0080917C00837F80931D
:100350007C0080917A00876080937A0080917A0097
:10036000806880937A0080917A00806480937A001C
:1003700080917A0086FDFCCF8091790090E008950D
:100380000F931F93182F062F80E091E00E946B00BF
:10039000113311F482E305C0003311F083E301C08F
:1003A00085E38093DE051F910F9108950F931F93AE
:1003B000CF93DF938DE191E00E946B001092C50511
:1003C0001092C40583E090E09093C7058093C60522
:1003D00020983A98399888B1866088B980916800E9
:1003E00082608093680080916C00866080936C00CE
:1003F000789486B1982F927082FD07C0992319F4E2
:100400001092E20509C081E005C0992311F482E051
:1004100001C083E08093E2058091E2058093E105CD
:10042000189BFECF81E491E00E946B008091C4058F
:100430009091C505009719F486E591E007C00197F2
:1004400019F486E691E002C08CE791E00E946B000F
:10045000C1E0D0E000E3189910C08091BC059091F4
:10046000BD05892B51F485E991E00E946B00D09382
:10047000BD05C093BC0511E307C0189B04C01092D2
:10048000BD051092BC0510E3809144048133C1F492
:1004900081E491E00E946B008091C4059091C505B4
:1004A000009719F486E591E007C0019719F486E6F4
:1004B00091E002C08CE791E00E946B00009344043D
:1004C000103349F289EA91E00E946B008091C405E3
:1004D0009091C505009719F486E591E007C0019752
:1004E00019F486E691E002C08CE791E00E946B006F
:1004F0008091C4059091C5058230910511F487E380
:1005000010C08130910511F484E30BC0892B59F49C
:1005100080914104803311F485E303C0813319F4E1
:1005200086E38093DE05DF91CF911F910F910895AF
:1005300086B1282F2270382F34708091BE0590919B
:10054000BF05892B09F041C03323E9F42223C1F10F
:1005500081E08093E2052091C4053091C50580912A
:10056000C6059091C70501972817390739F02F5F05
:100570003F4F3093C5052093C40519C01092C5059F
:100580001092C40514C0222321F582E08093E20575
:100590008091C4059091C505009721F48091C6050E
:1005A0009091C70501979093C5058093C40581E399
:1005B0008093440481E090E09093BF058093BE0552
:1005C00010924304109242040895332361F02223D1
:1005D00051F081E090E090934304809342041092A4
:1005E000BF051092BE0508951F920F920FB60F928D
:1005F00011242F933F934F935F936F937F938F9328
:100600009F93AF93BF93EF93FF930E94980280E074
:1006100090E60197F1F7FF91EF91BF91AF919F9114
:100620008F917F916F915F914F913F912F910F909B
:100630000FBE0F901F9018958DEB91E00E946B00FC
:10064000089589ED91E00E946B000895CF92DF92AA
:10065000EF92FF920F931F93DF93CF93CDB7DEB747
:1006600027970FB6F894DEBF0FBECDBF85EF91E0A0
:100670000E946B001092C5051092C40584E090E0C2
:100680009093C7058093C60520983A98399888B109
:10069000866088B98091680082608093680080914C
:1006A0006C00866080936C00189BFECF789486B1B6
:1006B000982F927082FD07C0992319F41092E205D9
:1006C00009C081E005C0992311F482E001C083E0F4
:1006D0008093E2058091E2058093E10585E192E057
:1006E0000E946B00E0916904F0916A04808181337B
:1006F00021F061E0E62EF12C45C08DB79EB708973A
:100700000FB6F8949EBF0FBE8DBFEDB7FEB7319602
:100710008E010F5F1F4FADB7BEB712961C930E939D
:10072000119785E090E09383828389E292E095833C
:10073000848381E090E0978386830E947918EDB7E7
:10074000FEB738960FB6F894FEBF0FBEEDBFC801D6
:100750000E946B004091690450916A0421E030E0EE
:10076000FA01E20FF31FE0818091C00085FFFCCF0A
:10077000E093C6002F5F3F4F2A30310589F752E0E2
:10078000E52EF12CE0918D04F0918E04808181336F
:1007900009F043C08DB79EB708970FB6F8949EBF77
:1007A0000FBE8DBFEDB7FEB731968E010F5F1F4FA5
:1007B000ADB7BEB712961C930E93119785E090E0EB
:1007C0009383828389E292E095838483F782E68231
:1007D0000E947918EDB7FEB738960FB6F894FEBFB1
:1007E0000FBEEDBFC8010E946B0040918D04509177
:1007F0008E0421E030E0FA01E20FF31FE0818091E6
:10080000C00085FFFCCFE093C6002F5F3F4F2A302A
:10081000310589F70894E11CF11CE091B104F091D5
:10082000B2048081813309F043C08DB79EB7089729
:100830000FB6F8949EBF0FBE8DBFEDB7FEB73196D1
:100840008E010F5F1F4FADB7BEB712961C930E936C
:10085000119785E090E09383828389E292E095830B
:100860008483F782E6820E947918EDB7FEB7389646
:100870000FB6F894FEBF0FBEEDBFC8010E946B001B
:100880004091B1045091B20421E030E0FA01E20F4E
:10089000F31FE0818091C00085FFFCCFE093C6008C
:1008A0002F5F3F4F2A30310589F70894E11CF11C76
:1008B0008DB79EB708970FB6F8949EBF0FBE8DBF39
:1008C000EDB7FEB731968E010F5F1F4FADB7BEB7C4
:1008D00012961C930E93119785E090E09383828388
:1008E00089E292E095838483F782E6820E947918F8
:1008F000EDB7FEB738960FB6F894FEBF0FBEEDBF4A
:10090000C8010E946B000DE212E0D8019C91809119
:10091000C00085FFFCCF9093C6000F5F1F4FB2E071
:1009200006331B0791F787E392E00E946B008091EA
:10093000C4059091C505009719F40A50104013C0E2
:100940008130910529F40091690410916A040BC06B
:10095000029729F400918D0410918E0404C0009137
:10096000B1041091B20421E030E0F801E20FF31F6E
:10097000E0818091C00085FFFCCFE093C6002F5F2F
:100980003F4F2A30310589F7E0E3EE8340E3F42E50
:1009900031E0C32ED12C18995FC08091BC05909195
:1009A000BD05892B09F058C08BE492E00E946B00D2
:1009B000D092BD05C092BC058DE592E00E946B000F
:1009C00021E030E0F801E20FF31FE0818091C000E8
:1009D00085FFFCCFE093C6002F5F3F4F2A303105E3
:1009E00089F7F2E00C321F0719F481E38F831EC0F0
:1009F0008091690490916A040817190789F0809121
:100A00008D0490918E040817190751F08091B1045C
:100A10009091B2040817190719F0F0E3FF8306C09C
:100A2000D801FC92B0E3BF83E1E3EE8380E692E07D
:100A30000E946B0021E030E0F801E20FF31FE0813B
:100A40008091C00085FFFCCFE093C6002F5F3F4F31
:100A50002A30310589F70BC0189903C0F0E3FF83F2
:100A600006C01092BD051092BC0580E38F83809173
:100A700044048133B1F582E792E00E946B008091DB
:100A8000C4059091C505009719F40CE212E016C058
:100A90008130910529F40091690410916A040EC017
:100AA0008230910529F400918D0410918E0406C0C6
:100AB000039721F40091B1041091B20421E030E0D9
:100AC000F801E20FF31FE0818091C00085FFFCCFA9
:100AD000E093C6002F5F3F4F2A30310589F7F0922F
:100AE00044049F81903309F456CFAE81A13339F489
:100AF00080914104813319F480E38093410485E3BC
:100B00008093DE0527960FB6F894DEBF0FBECDBFEB
:100B1000CF91DF911F910F91FF90EF90DF90CF90D9
:100B200008952F923F924F925F926F927F928F9291
:100B30009F92AF92BF92CF92DF92EF92FF920F936C
:100B40001F93DF93CF93CDB7DEB7C057D0400FB61A
:100B5000F894DEBF0FBECDBF8FE390E09093C50049
:100B60008093C4008091C10088608093C10080910F
:100B7000C10080618093C10086E08093C200109222
:100B8000B9008AE28093B80080E395E725EF30E072
:100B9000F9013197F1F70197D9F78FE390E090933E
:100BA000C5008093C4008091C10088608093C1001B
:100BB0008091C10080618093C10086E08093C20073
:100BC0001092B9008AE28093B80080E395E725EFA0
:100BD00030E0F9013197F1F70197D9F783E090E020
:100BE0009A8B898B988B8F871E861D8681E090E07B
:100BF0009C878B8784EB90E09A87898783EB90E0D2
:100C000098878F8381EA90E09E838D8380EA90E0CD
:100C10009C838B8382EB90E09A83898382E5BE017B
:100C20006F5F7F4F41E050E020E030E000E010E0F7
:100C3000E5E3EE2EF12CEC0EFD1E91E0C92ED12C39
:100C40000E9481008DA99EA98035910521F485E837
:100C500092E00E946B0003E0602E712C6C0E7D1EF2
:100C60001BE0412E512C4C0E5D1E82E5B30141E08C
:100C700050E0920101E010E0B9E4EB2EF12CEC0E13
:100C8000FD1EA1E0CA2ED12C0E948100F5E02F2E7E
:100C9000312C2C0E3D1E82E5B10141E050E09E0159
:100CA000215F3F4FEE24FF24CC24DD240E948100ED
:100CB00080E395E725EF30E0F9013197F1F70197EF
:100CC000D9F782E5B30141E050E09E012F5E3F4F2E
:100CD00001E010E0EDE5EE2EF12CEC0EFD1E91E0B2
:100CE000C92ED12C0E94810080E395E725EF30E0EA
:100CF000F9013197F1F70197D9F717E0812E912C7F
:100D00008C0E9D1EB1E2AB2EB12CAC0EBD1E82E549
:100D1000B40141E050E020E030E000E010E0750177
:100D2000A1E0CA2ED12C0E94810089A1803379F3E1
:100D300082E5BE01675F7F4F41E050E020E030E098
:100D4000F3E1EF2EF12CEC0EFD1EE4E0CE2ED12CC3
:100D50000E94810082E5B30141E050E0920101E090
:100D600010E0EE24FF24CC24DD240E9481008EE8D4
:100D700092E00E946B009C8980E0AB88BB24A82A8B
:100D8000B92A8E01095E1F4F8DB79EB708970FB61F
:100D9000F8949EBF0FBE8DBFEDB7FEB73196ADB7CD
:100DA000BEB712961C930E9311978AE090E093833E
:100DB000828389E292E095838483B782A6820E942F
:100DC00079188DB79EB708960FB6F8949EBF0FBEE0
:100DD0008DBFC8010E946B008CE992E00E946B00FD
:100DE00082E5B10141E050E09E01235F3F4F01E009
:100DF00010E00E948100B092DD05A092DC05C05990
:100E0000DF4F0FB6F894DEBF0FBECDBFCF91DF919D
:100E10001F910F91FF90EF90DF90CF90BF90AF9018
:100E20009F908F907F906F905F904F903F902F900A
:100E300008950F931F93DF93CF9300D000D0CDB7C9
:100E4000DEB72DB73EB7285030400FB6F8943EBFFE
:100E50000FBE2DBFEDB7FEB731968E010F5F1F4F4E
:100E6000ADB7BEB712961C930E93119724E030E0F5
:100E70003383228329E232E0358324839783868378
:100E80000E9479182DB73EB7285F3F4F0FB6F894F0
:100E90003EBF0FBE2DBFC8010E946B000F900F9088
:100EA0000F900F90CF91DF911F910F910895EF92C6
:100EB000FF920F931F93569A5E985E9AE12CF0E68C
:100EC000FF2EC7010197F1F70E948F018C018EE977
:100ED00092E00E946B00C8010E941907C7010197A8
:100EE000F1F75E981093E4050093E3051F910F91CD
:100EF000FF90EF9008952F923F924F925F926F92E2
:100F00007F928F929F92AF92BF92CF92DF92EF9299
:100F1000FF920F931F93DF93CF93CDB7DEB7CE57DA
:100F2000D0400FB6F894DEBF0FBECDBF4424552489
:100F30004114510439F4E0906904F0906A0489EA9C
:100F400092E011C021E04216510439F4E0908D0482
:100F5000F0908E0482EB92E006C0E090B104F09035
:100F6000B2048BEB92E00E946B0084EC92E00E9452
:100F70006B008BEC92E00E946B00ABE0CA2ED12C90
:100F8000CE0CDF1CD7011B968C91BAE08B0280013E
:100F90001124FCE0AF2EB12CAE0CBF1CF7018485F0
:100FA000992787FD9095080F191F005112402DB702
:100FB0003EB7285030400FB6F8943EBF0FBE2DBF4D
:100FC000EDB7FEB7319621E030E02C0F3D1FADB7F5
:100FD000BEB712963C932E9311974AE050E053838C
:100FE000428389E292E095838483178306830E947B
:100FF0007918ADB7BEB718960FB6F894BEBF0FBE3E
:10100000ADBFCE0101960E946B008091C00085FFAC
:10101000FCCFB0E2B093C600F60190818091C00091
:1010200085FFFCCF9093C600D5019C918091C000B4
:1010300085FFFCCF9093C60087ED92E00E946B0085
:10104000F70195858091C00085FFFCCF9093C60085
:10105000D7011E966C918091C00085FFFCCF6093F4
:10106000C6004091DF055091E0054017510708F494
:1010700067C0892F992787FD9095C0979C01E3E071
:10108000220F331FEA95E1F7880F991F280F391FA8
:10109000862F992787FD9095C097820F931F8417FD
:1010A000950708F44DC0080F191F1695079584EE93
:1010B00092E00E946B002091DF053091E005C801AD
:1010C000059728173907A0F0C801059682179307DE
:1010D00078F08FEE92E00E946B000F2EF0E0AF2EC2
:1010E000F0E0BF2EF0E8CF2EF0E4DF2EF02D36C07A
:1010F000C8010A9728173907A0F0065F1F4F02178B
:10110000130778F086EF92E00E946B000F2EF0E05C
:10111000AF2EF0E0BF2EF0E6CF2EF0E4DF2EF02D64
:101120001DC083E093E00E946B000F2EF0E0AF2E15
:10113000F0E0BF2EF0E4CF2EF0E4DF2EF02D0EC055
:1011400080E193E00E946B000F2EF0E0AF2EF0E004
:10115000BF2EF0E0CF2EFFE3DF2EF02D80E293E0F4
:101160000E946B008BEC92E00E946B008FE0882E57
:10117000912C8E0C9F1C00E1602E712C6E0C7F1C3C
:1011800011E1212E312C2E0C3F1CF7018189082FF3
:10119000112707FD1095005310408785992787FD7B
:1011A0009095C0979C0144E650E0249FC001259F84
:1011B000900D349F900D1124080F191F80899927D5
:1011C00087FD9095C0979C01B3E0220F331FBA951D
:1011D000E1F7880F991F280F391F020F131F8DB7D2
:1011E0009EB708970FB6F8949EBF0FBE8DBFEDB7A0
:1011F000FEB7319621E030E02C0F3D1FADB7BEB7F2
:1012000012963C932E9311974AE050E05383428309
:1012100089E292E095838483178306830E9479187C
:10122000ADB7BEB718960FB6F894BEBF0FBEADBF30
:10123000CE0101960E946B008091C00085FFFCCF1B
:10124000B0E2B093C600F40190818091C00085FFA8
:10125000FCCF9093C600D3019C918091C00085FF84
:10126000FCCF9093C600F10190818091C00085FF72
:10127000FCCF9093C6008BE293E00E946B00D701F5
:1012800052969C918091C00085FFFCCF9093C60040
:10129000F70133898091C00085FFFCCF3093C600F1
:1012A000D70154962C918091C00085FFFCCF2093EC
:1012B000C6006091E3057091E4056017710708F4BA
:1012C0006EC0422F552747FD509540535040892FFF
:1012D000992787FD9095C097FC01A4E6B0E0EA9FAE
:1012E000C001EB9F900DFA9F900D1124480F591FDC
:1012F000832F992787FD9095C0979C01F3E0220FDB
:10130000331FFA95E1F7880F991F280F391F420FF5
:10131000531F4617570708F442C0040F151F1695B0
:10132000079584EE92E00E946B002091E3053091D6
:10133000E405C801C2972817390780F0C801C29692
:101340008217930758F08FEE92E00E946B00C6015F
:10135000B50120E030E040E850E42BC0C8018659D8
:1013600090402817390780F00A561F4F02171307BD
:1013700058F086EF92E00E946B00C601B50120E0B4
:1013800030E040E650E415C083E093E00E946B003B
:10139000C601B50120E030E040E450E40AC080E13D
:1013A00093E00E946B00C601B50120E030E040E010
:1013B0005FE30E941F134B015C0189E393E00E94ED
:1013C0006B008BEC92E00E946B00B5E16B2E712CF0
:1013D0006E0C7F1CF7018589992787FD9095C09732
:1013E00020E137E2A901849F9001859F300D949FF1
:1013F000300D112487010A5E1F4FA7E12A2E312CE0
:101400002E0C3F1CC7014896EF969FAF8EAFEF970B
:10141000D7015996ED96BFAFAEAFED97818DC82E2F
:10142000DD24C7FCD09440ED5FEFC40ED51EC20E84
:10143000D31E8689992787FD9095C09728EE33E0C3
:10144000DC01A29FC001A39F900DB29F900D1124BB
:10145000C80ED91E8789992787FD9095C097FC01F2
:1014600024E630E0E29FC001E39F900DF29F900DD3
:101470001124C80ED91ED70158968C91992787FD43
:101480009095C0979C0173E0220F331F7A95E1F786
:10149000880F991F280F391FC20ED31EEDB7FEB754
:1014A00038970FB6F894FEBF0FBEEDBF319621E01E
:1014B00030E02C0F3D1FADB7BEB712963C932E9374
:1014C00011974AE050E05383428389E292E095838A
:1014D0008483D782C6820E947918ADB7BEB71896AA
:1014E0000FB6F894BEBF0FBEADBFCE0101960E94ED
:1014F0006B008091C00085FFFCCFB0E2B093C600C6
:10150000F30190818091C00085FFFCCF9093C600CD
:10151000D8019C918091C00085FFFCCF9093C600BC
:10152000F10190818091C00085FFFCCF9093C600AF
:10153000EF96AEADBFADEF979C918091C00085FF57
:10154000FCCF9093C600ED96EEADFFADED97908188
:101550008091C00085FFFCCF9093C6008BE293E0A2
:101560000E946B00D7015A969C918091C00085FF24
:10157000FCCF9093C600F701538D8091C00085FF8A
:10158000FCCF5093C600D7015C967C918091C0003F
:1015900085FFFCCF7093C600F701658D8091C00078
:1015A00085FFFCCF6093C600D7015E964C91809179
:1015B000C00085FFFCCF4093C600892F992787FD87
:1015C0009095C09720E137E2FC01E29FC001E39FC4
:1015D000900DF29F900D1124042F112707FD1095F7
:1015E00000531040080F191F852F992787FD9095EC
:1015F000C09728EE33E0AC01429FC001439F900D9D
:10160000529F900D1124080F191F872F992787FDCE
:101610009095C097DC01E4E6F0E0AE9FC001AF9F7B
:10162000900DBE9F900D1124080F191F862F99272A
:1016300087FD9095C0979C0153E0220F331F5A9568
:10164000E1F7880F991F280F391F020F131F2DB7BD
:101650003EB7285030400FB6F8943EBF0FBE2DBFA6
:10166000EDB7FEB7319621E030E02C0F3D1FADB74E
:10167000BEB712963C932E9311974AE050E05383E5
:10168000428386E493E095838483178306830E94D4
:101690007918ADB7BEB718960FB6F894BEBF0FBE97
:1016A000ADBFCE0101960E946B008091C00085FF06
:1016B000FCCFB0E2B093C6008091DC059091DD05CF
:1016C0008C159D0508F446C00817190708F442C098
:1016D0000C0D1D1D1695079584EE92E00E946B007F
:1016E0002091DC053091DD05C801C2972817390724
:1016F00080F0C801C2968217930758F08FEE92E0EF
:101700000E946B00C501B40120E030E040E050E4ED
:101710002BC0C801865990402817390780F00A5617
:101720001F4F0217130758F086EF92E00E946B00DC
:10173000C501B40120E030E040EC5FE315C083E078
:1017400093E00E946B00C501B40120E030E040E866
:101750005FE30AC080E193E00E946B00C501B40121
:1017600020E030E040E85EE30E941F134B015C0183
:101770004114510439F4EB966CAF7DAF8EAF9FAF3F
:10178000EB9711C0E1E04E16510439F0E3966CAFCF
:101790007DAF8EAF9FAFE39706C0E7966CAF7DAF8E
:1017A0008EAF9FAFE7970894411C511CF3E04F1692
:1017B000510409F0BDCBEB966CAD7DAD8EAD9FAD08
:1017C000EB97E7962CAD3DAD4EAD5FADE7970E9430
:1017D000F21488238CF1EB966CAD7DAD8EAD9FAD90
:1017E000EB97E3962CAD3DAD4EAD5FADE3970E9418
:1017F000F21487FF05C0A1E35A2EF2E36F2E14C046
:10180000E7966CAD7DAD8EAD9FADE797E3962CADC1
:101810003DAD4EAD5FADE3970E94F21487FF07C068
:10182000E2E35E2E71E3672E63E3762E37C053E367
:10183000552E41E3642E14C0E7966CAD7DAD8EADA0
:101840009FADE797E3962CAD3DAD4EAD5FADE39711
:101850000E94F21487FF07C031E3532E23E3622E68
:1018600092E3792E1BC0E3966CAD7DAD8EAD9FAD3E
:10187000E397EB962CAD3DAD4EAD5FADEB970E947F
:10188000F21487FF05C083E3582E02E3602E04C0E4
:1018900012E3512EB3E36B2EA1E37A2EEB966CADDF
:1018A0007DAD8EAD9FADEB970E9476116B017C01F3
:1018B00080E090E00E94D4159B01AC01C501B40109
:1018C0000E94EE1220E030E040E251E40E944C130E
:1018D0000E94CE182DB73EB7285030400FB6F8946E
:1018E0003EBF0FBE2DBF0DB71EB70F5F1F4F9E012E
:1018F000255F3F4FADB7BEB712963C932E9311971D
:1019000029E433E0F80133832283D582C4820E9424
:101910007611D80117967C936E9316970E94AA1899
:10192000EDB7FEB738960FB6F894FEBF0FBEEDBF09
:1019300082E593E00E946B004091690450916A0433
:1019400021E030E0FA01E20FF31FE0818091C00056
:1019500085FFFCCFE093C6002F5F3F4F2A30310553
:1019600089F78091C00085FFFCCF80E28093C6009C
:10197000CE010B960E946B008091C00085FFFCCFCA
:1019800080E28093C6008091C00085FFFCCF60920A
:10199000C6008091C00085FFFCCF80E28093C60026
:1019A000E7966CAD7DAD8EAD9FADE7970E94761149
:1019B0006B017C0180E090E00E94D4159B01AC019A
:1019C000C501B4010E94EE1220E030E040E251E493
:1019D0000E944C130E94CE182DB73EB728503040BD
:1019E0000FB6F8943EBF0FBE2DBF0DB71EB70F5FE9
:1019F0001F4F9E01255F3F4FADB7BEB712963C9378
:101A00002E9311972CE533E0F80133832283D5829E
:101A1000C4820E947611D80117967C936E93169714
:101A20000E94AA18EDB7FEB738960FB6F894FEBF1D
:101A30000FBEEDBF83E693E00E946B0040918D04E2
:101A400050918E0421E030E0FA01E20FF31FE081B3
:101A50008091C00085FFFCCFE093C6002F5F3F4F11
:101A60002A30310589F78091C00085FFFCCF80E2E4
:101A70008093C600CE010B960E946B008091C0003F
:101A800085FFFCCF80E28093C6008091C00085FF77
:101A9000FCCF7092C6008091C00085FFFCCF80E231
:101AA0008093C600E3966CAD7DAD8EAD9FADE397A0
:101AB0000E9476116B017C0180E090E00E94D415B9
:101AC0009B01AC01C501B4010E94EE1220E030E0A0
:101AD00040E251E40E944C130E94CE182DB73EB74D
:101AE000285030400FB6F8943EBF0FBE2DBF0DB743
:101AF0001EB70F5F1F4F9E01255F3F4FADB7BEB7AB
:101B000012963C932E9311972DE633E0F801338320
:101B10002283D582C4820E947611D80117967C93C5
:101B20006E9316970E94AA18EDB7FEB738960FB6B7
:101B3000F894FEBF0FBEEDBF8091C00085FFFCCFC3
:101B40008AE08093C60085E793E00E946B00409195
:101B5000B1045091B20421E030E0FA01E20FF31F2A
:101B6000E0818091C00085FFFCCFE093C6002F5F2D
:101B70003F4F2A30310589F78091C00085FFFCCFA7
:101B800080E28093C600CE010B960E946B0080918C
:101B9000C00085FFFCCF80E28093C6008091C0002A
:101BA00085FFFCCF5092C6008091C00085FFFCCF1E
:101BB00080E28093C600E0916904F0916A04678E28
:101BC000E0918D04F0918E04778EE091B104F09154
:101BD000B204578E0091690410916A04EB966CADC3
:101BE0007DAD8EAD9FADEB970E948015605DD801F5
:101BF00090966C9300918D0410918E04E7966CADD5
:101C00007DAD8EAD9FADE7970E948015605DF801B8
:101C100060A30091B1041091B204E3966CAD7DAD68
:101C20008EAD9FADE3970E948015605DD8019096C0
:101C30006C93C258DF4F0FB6F894DEBF0FBECDBF16
:101C4000CF91DF911F910F91FF90EF90DF90CF9098
:101C5000BF90AF909F908F907F906F905F904F90CC
:101C60003F902F9008956F927F929F92AF92BF9274
:101C7000CF92DF92EF92FF920F931F93DF93CF9358
:101C80000F92CDB7DEB78FE793E00E946B008BE930
:101C900093E00E946B00E0916904F0916A0490A1C6
:101CA0008091C00085FFFCCF9093C6000E947B0707
:101CB000E0916904F0916A0490A18091C00085FFD1
:101CC000FCCF9093C60087EA93E00E946B00C0901F
:101CD0006904D0906A04F601878D8133A1F0C09029
:101CE0008D04D0908E04F601878D813361F0C09011
:101CF000B104D090B204F601878D813321F080E0E9
:101D000090E09C01690121E030E0F601E20FF31F51
:101D1000E0818091C00085FFFCCFE093C6002F5F7B
:101D20003F4F2A30310589F78DE592E00E946B0024
:101D3000F60190A18091C00085FFFCCF9093C60072
:101D40008CEB93E00E946B0082EC93E00E946B00AE
:101D5000E0906904F0906A04F701878D8233A1F066
:101D6000E0908D04F0908E04F701878D823361F04E
:101D7000E090B104F090B204F701878D823321F036
:101D800080E090E09C01790121E030E0F701E20F72
:101D9000F31FE0818091C00085FFFCCFE093C60077
:101DA0002F5F3F4F2A30310589F78DE592E00E9481
:101DB0006B00F70190A18091C00085FFFCCF90934C
:101DC000C6008CEB93E00E946B0089EC93E00E94CC
:101DD0006B000091690410916A04F801878D8333C8
:101DE000A1F000918D0410918E04F801878D83334A
:101DF00061F00091B1041091B204F801878D833332
:101E000021F080E090E09C01890121E030E0F801C0
:101E1000E20FF31FE0818091C00085FFFCCFE093CB
:101E2000C6002F5F3F4F2A30310589F78DE592E0DC
:101E30000E946B00F80190A18091C00085FFFCCF4B
:101E40009093C6008CEB93E00E946B0083E090E0DF
:101E50009093C7058093C60520983A98399888B121
:101E6000866088B980916800826080936800809164
:101E70006C00866080936C00789486B1982F927085
:101E800082FD07C0992319F41092E20509C081E090
:101E900005C0992311F482E001C083E08093E2053C
:101EA0008091E2058093E10580ED93E00E946B0054
:101EB0008091C4059091C505009711F4360105C0C5
:101EC000019711F0380101C0370121E030E0F30142
:101ED000E20FF31FE0818091C00085FFFCCFE0930B
:101EE000C6002F5F3F4F2A30310589F781E0A82EC9
:101EF000B12CB0E39B2E189911C08091BC05909134
:101F0000BD05892B59F482EE93E00E946B00B092DC
:101F1000BD05A092BC05F1E3F9830BC0189903C07D
:101F200080E3898306C01092BD051092BC05E0E3F2
:101F3000E98380914404813321F580ED93E00E9490
:101F40006B008091C4059091C505009711F436018E
:101F500005C0019711F0380101C0370121E030E0E0
:101F6000F301E20FF31FE0818091C00085FFFCCFF9
:101F7000E093C6002F5F3F4F2A30310589F79092DA
:101F80004404F981F03309F4B6CF83EF93E00E9463
:101F90006B0021E030E0F301E20FF31FE08180915C
:101FA000C00085FFFCCFE093C6002F5F3F4F2A3073
:101FB000310589F78091690490916A046816790661
:101FC00019F481E3F3010BC0E0918D04F0918E04CC
:101FD000309721F4E091B104F091B20481E3808361
:101FE00090E0E0916904F0916A048081813309F402
:101FF00091E020E0E0918D04F0918E0480818133A6
:1020000009F421E09223292F30E040E050E0E091F4
:10201000B104F091B2048081813311F441E050E0C9
:1020200024233523232B19F081E38093410483E398
:102030008093DE050F90CF91DF911F910F91FF905C
:10204000EF90DF90CF90BF90AF909F907F906F9078
:102050000895AF92BF92CF92DF92EF92FF920F93CB
:102060001F93DF93CF93CDB7DEB7C456D0400FB6E2
:10207000F894DEBF0FBECDBF7B01AA2797FDA095C8
:10208000BA2FBC01CD010E94221520E030E040E1D2
:1020900051E40E944C1320E030E040EA50E40E94FA
:1020A00046145B016C010027F7FC0095102FC80156
:1020B000B7010E94221520E030E040E151E40E9487
:1020C0004C1320E030E040EA50E40E94461420E047
:1020D00030E040E251E40E9446149B01AC01C6018D
:1020E000B5010E941F1320E030E040E052E40E945E
:1020F0001F137B018C010E9480155B016C01B501EF
:10210000882777FD8095982F0E9422159B01AC01AE
:10211000C801B7010E94EE1220E030E040E251E435
:102120000E944C130E94CE182DB73EB72850304065
:102130000FB6F8943EBF0FBE2DBF0DB71EB70F5F91
:102140001F4F7E010894E11CF11CEDB7FEB7F2822F
:10215000E18229E433E0F80133832283B582A4824B
:102160000E948015F801778366830E94AA182DB714
:102170003EB7285F3F4F0FB6F8943EBF0FBE2DBF4E
:10218000C7010E946B00B092E005A092DF05CC5918
:10219000DF4F0FB6F894DEBF0FBECDBFCF91DF91FA
:1021A0001F910F91FF90EF90DF90CF90BF90AF9075
:1021B0000895CF92DF92EF92FF920F931F93CF93E8
:1021C000DF9380E395E725EF30E0F9013197F1F7F0
:1021D0000197D9F70E9453010E945D010E9464019A
:1021E0007C010E9464018C010E9464016C010E94C8
:1021F0006401EC010E9464010E0D1F1D0C0D1D1DDC
:102200000C0F1D1F8017910741F484E094E00E9499
:102210006B00C601BE010E942910DF91CF911F9172
:102220000F91FF90EF90DF90CF90089582E194E0BE
:102230000E946B000E94D9100E9457070E949105CE
:1022400085E38093DE050895CF93DF938FE390E0DD
:102250009093C5008093C4008091C10088608093F2
:10226000C1008091C10080618093C10086E08093AD
:10227000C20081E38093DE05C0E0D0E08091DE05FE
:102280008433F1F085333CF4823389F0833394F462
:102290008133F9F407C08633B1F0863374F08733A5
:1022A000C1F414C081E360E30E94C00116C00E9423
:1022B000161113C00E94D60110C00E94330E0DC02B
:1022C0000E9426030AC00E94210307C00E941C032B
:1022D00004C082E394E00E946B002196CA30D105CD
:1022E00069F680E090E0DF91CF910895EF92FF9240
:1022F0000F931F937B018C0120E030E040E05FE40E
:102300000E94F21488238CF0C801B70120E030E06D
:1023100040E05FE40E94EE120E9480159B01AC0138
:10232000205030404040504806C0C801B7010E94CC
:1023300080159B01AC01B901CA011F910F91FF905B
:10234000EF900895A0E0B0E0E8EAF1E10C944218C3
:10235000DC012B01FA019C91923008F439C1EB01A8
:102360008881823008F433C1943069F4843009F0F4
:102370002FC111969C9111978981981709F428C152
:10238000A3EBB4E025C1843009F421C18230A9F463
:10239000923009F01DC19A01AD0188E0EA0109906F
:1023A000AE01E90109929E018150C1F7E2018981E4
:1023B00011969C918923818308C1923009F407C149
:1023C00012962D903C901397EB018A819B81149675
:1023D000AD90BD90CD90DC901797EC80FD800E8184
:1023E0001F819101281B390BB90137FF04C06627F3
:1023F0007727621B730B603271050CF061C01216F7
:1024000013066CF537014801062E04C09694879494
:10241000779467940A94D2F721E030E040E050E0EE
:1024200004C0220F331F441F551F6A95D2F7215055
:102430003040404050402E213F2140235123211560
:1024400031054105510521F021E030E040E050E048
:1024500079018A01E628F728082919293CC0232B8D
:10246000D1F1260E371E35014601062E04C0969482
:102470008794779467940A94D2F721E030E040E0A3
:1024800050E004C0220F331F441F551F6A95D2F736
:1024900021503040404050402A213B214C215D21B9
:1024A000211531054105510521F021E030E040E0E2
:1024B00050E059016A01A628B728C828D9280BC0BE
:1024C000821593052CF01C01AA24BB24650103C0CE
:1024D000EE24FF24870111969C91D20111968C91D4
:1024E000981709F445C0992339F0A80197012A19D2
:1024F0003B094C095D0906C0A60195012E193F094B
:10250000400B510B57FD08C0118233822282248375
:102510003583468357831DC081E0818333822282C5
:1025200088279927DC01821B930BA40BB50B8483AE
:102530009583A683B7830DC0220F331F441F551FF9
:1025400024833583468357838281938101979383C4
:1025500082832481358146815781DA01C90101973F
:10256000A109B1098F5F9F4FAF4FBF4328F30BC045
:10257000918333822282EA0CFB1C0C1D1D1DE48218
:10258000F5820683178383E0808324813581468129
:10259000578157FF1AC0C901AA2797FDA095BA2FE6
:1025A00081709070A070B0705695479537952795BB
:1025B000822B932BA42BB52B84839583A683B7837F
:1025C00082819381019693838283DF0101C0D201CE
:1025D000CD01CDB7DEB7E2E10C945E18A0E2B0E029
:1025E000E4EFF2E10C944E1869837A838B839C8329
:1025F0002D833E834F835887E9E0EE2EF12CEC0EBD
:10260000FD1ECE010196B7010E9471178E010F5E6B
:102610001F4FCE010596B8010E9471178A8991E07B
:1026200089278A8BC701B801AE01475E5F4F0E94C0
:10263000A2110E949C16A096E6E00C946A18A0E2F3
:10264000B0E0E5E2F3E10C944E1869837A838B8362
:102650009C832D833E834F835887F9E0EF2EF12C26
:10266000EC0EFD1ECE010196B7010E9471178E017E
:102670000F5E1F4FCE010596B8010E947117C7016A
:10268000B801AE01475E5F4F0E94A2110E949C16E6
:10269000A096E6E00C946A18A0E2B0E0E2E5F3E16F
:1026A0000C94421869837A838B839C832D833E83A9
:1026B0004F835887CE010196BE01675F7F4F0E940E
:1026C0007117CE010596BE016F5E7F4F0E94711794
:1026D0009985923088F089898230C8F0943019F455
:1026E000823051F404C0843029F4923081F483EBB9
:1026F00094E0C6C0923049F420E09A858A89981304
:1027000021E02A87CE010996BBC0823049F420E03F
:102710009A858A89981321E02A8BCE014196B0C010
:102720002D843E844F8458886D887E888F88988C4D
:10273000EE24FF248701AA24BB24650140E050E079
:1027400060E070E0E0E0F0E0C10181709070892B02
:10275000E9F0E60CF71C081D191D9A01AB012A0DC2
:102760003B1D4C1D5D1D80E090E0A0E0B0E0E61454
:10277000F7040805190520F481E090E0A0E0B0E03E
:10278000BA01A901480F591F6A1F7B1FAA0CBB1C65
:10279000CC1CDD1C97FE08C081E090E0A0E0B0E01A
:1027A000A82AB92ACA2ADB2A3196E032F10549F073
:1027B000660C771C881C991C569447943794279470
:1027C000C3CFFA85EA892B893C898B859C85280FA4
:1027D000391F2E5F3F4F17C0CA0181709070892B3F
:1027E00061F016950795F794E79480E090E0A0E0FB
:1027F000B0E8E82AF92A0A2B1B2B7695679557959E
:1028000047952F5F3F4F77FDE7CF0CC0440F551F13
:10281000661F771F17FD4160EE0CFF1C001F111F84
:1028200021503040403090E0590790E0690790E433
:10283000790760F32B8F3C8FDB01CA018F77907093
:10284000A070B07080349105A105B10561F447FD19
:102850000AC0E114F1040105110529F0405C5F4F45
:102860006F4F7F4F40781A8EFE1711F081E08A8FEC
:102870004D8F5E8F6F8F78A383E0898FCE0149964D
:102880000E949C16A096E2E10C945E18A8E1B0E0CC
:10289000ECE4F4E10C944A1869837A838B839C837B
:1028A0002D833E834F835887B9E0EB2EF12CEC0E3D
:1028B000FD1ECE010196B7010E9471178E010F5EB9
:1028C0001F4FCE010596B8010E947117298522304D
:1028D00008F47EC03989323010F4B8017CC08A8592
:1028E0009A8989278A87243011F0223031F42317FE
:1028F00009F06EC063EB74E06EC0343039F41D86AD
:102900001E861F86188A1C861B8604C0323021F45E
:1029100084E08987B7015FC02B853C858B899C89C2
:10292000281B390B3C872B87ED84FE840F85188983
:10293000AD88BE88CF88D88CEA14FB040C051D0531
:1029400040F4EE0CFF1C001F111F215030403C874B
:102950002B8720E030E040E050E080E090E0A0E015
:10296000B0E460E070E0EA14FB040C051D0540F0E3
:10297000282B392B4A2B5B2BEA18FB080C091D0965
:10298000B695A79597958795EE0CFF1C001F111F14
:102990006F5F7F4F6F31710531F7DA01C9018F77B2
:1029A0009070A070B07080349105A105B10561F4FC
:1029B00027FD0AC0E114F1040105110529F0205C8E
:1029C0003F4F4F4F5F4F20782D873E874F87588B63
:1029D000BE01675F7F4FCB010E949C166896EAE0BC
:1029E0000C946618A8E1B0E0E8EFF4E10C944E18FE
:1029F00069837A838B839C832D833E834F8358879F
:102A000089E0E82EF12CEC0EFD1ECE010196B701F7
:102A10000E9471178E010F5E1F4FCE010596B801FF
:102A20000E9471178985823040F08989823028F0B0
:102A3000C701B8010E94E91701C08FEF6896E6E070
:102A40000C946A18A8E0B0E0E8E2F5E10C944B18A9
:102A50009B01AC0183E08983DA01C9018827B7FDB6
:102A600083959927AA27BB27B82E21153105410543
:102A7000510519F482E089833AC08823A9F02030F7
:102A800080E0380780E0480780E8580729F460E0D4
:102A900070E080E09FEC30C0EE24FF248701E21A52
:102AA000F30A040B150B02C079018A018EE1C82ECE
:102AB000D12CDC82CB82ED82FE820F831887C80185
:102AC000B7010E944D1601971816190684F4082EB6
:102AD00004C0EE0CFF1C001F111F0A94D2F7ED82F8
:102AE000FE820F831887C81AD90ADC82CB82BA8289
:102AF000CE0101960E949C162896E9E00C94671876
:102B0000ACE0B0E0E6E8F5E10C94521869837A8312
:102B10008B839C83CE010196BE016B5F7F4F0E9429
:102B200071178D81823061F1823050F1843021F44F
:102B30008E81882351F12EC02F81388537FD20C02A
:102B40006E812F3131051CF06623F9F023C08EE130
:102B500090E0821B930B29853A854B855C8504C0E8
:102B600056954795379527958A95D2F76623B1F004
:102B700050954095309521953F4F4F4F5F4F0EC078
:102B800020E030E040E050E009C02FEF3FEF4FEF92
:102B90005FE704C020E030E040E050E8B901CA013E
:102BA0002C96E2E00C946E18A8E0B0E0EAEDF5E1B6
:102BB0000C944A187B018C01611571058105910502
:102BC00019F482E0898360C083E089838EE1C82E96
:102BD000D12CDC82CB82ED82FE820F831887C80164
:102BE000B7010E944D16FC013197F7FF3BC0222729
:102BF00033272E1B3F0B57016801022E04C0D694C9
:102C0000C794B794A7940A94D2F740E050E060E0EC
:102C100070E081E090E0A0E0B0E004C0880F991F70
:102C2000AA1FBB1F2A95D2F70197A109B1098E21CE
:102C30009F21A023B1230097A105B10521F041E018
:102C400050E060E070E04A295B296C297D294D83C2
:102C50005E836F8378878EE190E08E1B9F0B9C8351
:102C60008B8312C0309781F00E2E04C0EE0CFF1C37
:102C7000001F111F0A94D2F7ED82FE820F8318877E
:102C8000CE1ADF0ADC82CB821A82CE0101960E9424
:102C90009C162896EAE00C946618EF92FF920F9328
:102CA0001F937B018C0180E0E81680E0F80681E04C
:102CB000080780E0180788F48FEFE816F104010593
:102CC000110531F028F088E090E0A0E0B0E017C0F6
:102CD00080E090E0A0E0B0E012C080E0E81680E084
:102CE000F80680E0080781E0180728F088E190E006
:102CF000A0E0B0E004C080E190E0A0E0B0E020E21D
:102D000030E040E050E0281B390B4A0B5B0B04C05D
:102D100016950795F794E7948A95D2F7F701E5544D
:102D2000FB4F8081281B310941095109C9011F91BD
:102D30000F91FF90EF900895DF92EF92FF920F9323
:102D40001F93FC01E480F58006811781D18080818A
:102D5000823048F480E090E0A0E1B0E0E82AF92A6F
:102D60000A2B1B2BA5C0843009F49FC0823021F4AC
:102D7000EE24FF24870105C0E114F10401051105CB
:102D800019F4E0E0F0E096C0628173819FEF623851
:102D900079070CF05BC022E83FEF261B370B2A3186
:102DA00031052CF020E030E040E050E02AC0B801CE
:102DB000A701022E04C076956795579547950A940A
:102DC000D2F781E090E0A0E0B0E004C0880F991F46
:102DD000AA1FBB1F2A95D2F70197A109B1098E211D
:102DE0009F21A023B1230097A105B10521F081E027
:102DF00090E0A0E0B0E09A01AB01282B392B4A2BE0
:102E00005B2BDA01C9018F779070A070B0708034AD
:102E10009105A105B10539F427FF09C0205C3F4F9A
:102E20004F4F5F4F04C0215C3F4F4F4F5F4FE0E07B
:102E3000F0E02030A0E03A07A0E04A07A0E45A07FB
:102E400010F0E1E0F0E079018A0127C060387105F7
:102E500064F5FB01E158FF4FD801C7018F779070EF
:102E6000A070B07080349105A105B10539F4E7FE7A
:102E70000DC080E490E0A0E0B0E004C08FE390E0FB
:102E8000A0E0B0E0E80EF91E0A1F1B1F17FF05C0E7
:102E900016950795F794E794319687E01695079570
:102EA000F794E7948A95D1F705C0EE24FF248701B3
:102EB000EFEFF0E06E2F679566276795902F9F776D
:102EC000D794DD24D7948E2F8695492F462B582FE3
:102ED0005D29B701CA011F910F91FF90EF90DF901C
:102EE0000895FC01DB01408151812281622F6F77BF
:102EF00070E0221F2227221F9381892F880F822BA7
:102F0000282F30E0991F9927991F11969C931197AC
:102F100021153105A9F5411551056105710511F41A
:102F200082E037C082E89FEF13969C938E931297AE
:102F30009A01AB0167E0220F331F441F551F6A95AA
:102F4000D1F783E08C930DC0220F331F441F551F10
:102F500012968D919C911397019713969C938E9343
:102F60001297203080E0380780E0480780E4580757
:102F700058F314962D933D934D935C9317970895B2
:102F80002F3F310579F4411551056105710519F49B
:102F900084E08C93089564FF03C081E08C9312C099
:102FA0001C9210C02F57304013963C932E931297CB
:102FB00083E08C9387E0440F551F661F771F8A9527
:102FC000D1F7706414964D935D936D937C9317972E
:102FD00008951F93DC01FB019C91923008F447C0D7
:102FE0008081823008F443C0943051F411961C91D2
:102FF000843099F58181682F70E0611B71093FC0B1
:10300000843021F0923031F48230B9F1818188230B
:1030100089F12DC011961C9111978230F1F08181B8
:103020001817D9F412962D913C91139782819381B0
:103030008217930794F028173907BCF014968D91E6
:103040009D910D90BC91A02D2481358146815781A1
:10305000281739074A075B0718F4112341F00AC003
:1030600082179307A407B50740F4112319F061E014
:1030700070E005C06FEF7FEF02C060E070E0CB0151
:103080001F9108952F923F924F925F926F927F927D
:103090008F929F92AF92BF92CF92DF92EF92FF9268
:1030A0000F931F93CF93DF93CDB7DEB7CA1BDB0B14
:1030B0000FB6F894DEBF0FBECDBF09942A883988B9
:1030C00048885F846E847D848C849B84AA84B984C0
:1030D000C884DF80EE80FD800C811B81AA81B981CC
:1030E000CE0FD11D0FB6F894DEBF0FBECDBFED01E0
:1030F0000895AEE0B0E0EFE7F8E10C9450180D89C8
:103100001E898F89988D97FF02C080E090E8019713
:103110009E838D831A83098386E08C839E01255EBE
:103120003F4FCE010196698D7A8DA9010E94D51875
:103130004D815E8157FD0AC02F81388542175307A4
:103140000CF49A01020F131FF80110822E96E4E08E
:103150000C946C18AEE0B0E0E0EBF8E10C94501881
:103160000D891E8986E08C831A8309838FEF9FE780
:103170009E838D839E01275E3F4FCE0101966F890E
:10318000788DA9010E94D5182F813885020F131F51
:10319000F80110822E96E4E00C946C18ACD220F06A
:1031A0009F3708F4C0C27EC298C2ABE0B0E0EBED3E
:1031B000F8E10C9442183C012B015A01FC011782E2
:1031C0001682838181FD03C06FEF7FEFC6C19AE055
:1031D000892E1E010894211C311CF3012381F20168
:1031E00023FD859123FF81912F01882309F4B2C12A
:1031F000853239F423FD859123FF81912F0185329A
:1032000029F490E0B3010E94C81AE7CF982FFF2459
:10321000EE249924FFE1FF15D0F09B3269F09C3237
:1032200028F4903259F0933291F40EC09D3249F057
:10323000903369F441E024C052E0F52A84E0F82A92
:1032400028C098E0F92A25C0E0E1FE2A22C0F7FC58
:1032500029C0892F80538A3070F4F6FE05C0989CEF
:10326000902C1124980E15C0E89CE02C1124E80E37
:10327000F0E2FF2A0EC09E3229F4F6FC6BC140E456
:10328000F42A07C09C3619F450E8F52A02C0983693
:1032900049F4F20123FD959123FF91912F01992388
:1032A00009F0B8CF892F8554833018F080528330CD
:1032B00038F444E050E0A40EB51E5FE359830FC01C
:1032C000933631F0933779F0933509F056C020C02A
:1032D000F5018081898342E050E0A40EB51E6101B2
:1032E00001E010E012C0F501C080D180F6FC03C0FF
:1032F0006FEF7FEF02C0692D70E042E050E0A40E56
:10330000B51EC6010E94BD1A8C015FE7F52214C0EC
:10331000F501C080D180F6FC03C06FEF7FEF02C0E3
:10332000692D70E042E050E0A40EB51EC6010E9477
:10333000B21A8C0150E8F52AF3FE07C01AC080E2E9
:1033400090E0B3010E94C81AEA948E2D90E008170D
:103350001907A8F30EC0F601F7FC8591F7FE8191DD
:103360006F0190E0B3010E94C81AE110EA94015085
:1033700010400115110579F7EAC0943611F099361D
:1033800069F5F7FE08C0F501208131814281538142
:1033900084E090E00AC0F501808191819C0144277E
:1033A00037FD4095542F82E090E0A80EB91E9FE6AD
:1033B000F92257FF09C050954095309521953F4F10
:1033C0004F4F5F4FE0E8FE2ACA01B901A1012AE090
:1033D00030E00E94F41AD82ED21840C0953729F454
:1033E0001F2D1F7E2AE030E01DC01F2D197F9F3644
:1033F00061F0903720F4983509F0ACC00FC09037D9
:1034000039F0983709F0A6C004C028E030E00AC0BF
:10341000106114FD146020E130E004C014FD16605A
:1034200020E132E017FF08C0F501608171818281DF
:10343000938144E050E008C0F50180819181BC0196
:1034400080E090E042E050E0A40EB51EA1010E9491
:10345000F41AD82ED2188FE7F82EF122F6FE0BC000
:103460005EEFF522D91438F4F4FE07C0F2FC05C073
:103470008FEEF82202C01D2D01C0192DF4FE0DC0E3
:10348000FE01ED0DF11D8081803319F499EEF922D2
:1034900008C01F5FF2FE05C003C08F2D867809F0BB
:1034A0001F5F0F2DF3FC14C0F0FE0FC01E1510F0AF
:1034B0009D2C0BC09D2C9E0C911A1E2D06C080E2E7
:1034C00090E0B3010E94C81A1F5F1E15C0F304C02C
:1034D0001E1510F4E11A01C0EE2404FF0FC080E3B2
:1034E00090E0B3010E94C81A02FF1DC001FD03C095
:1034F00088E790E00EC088E590E00BC0802F8678CA
:1035000091F001FF02C08BE201C080E2F7FC8DE286
:1035100090E0B3010E94C81A06C080E390E0B301B6
:103520000E94C81A9A94D914C0F3DA94F101ED0DEF
:10353000F11D808190E0B3010E94C81ADD20A9F737
:1035400006C080E290E0B3010E94C81AEA94EE201F
:10355000C1F743CEF30166817781CB012B96E2E17F
:103560000C945E18FC010590615070400110D8F772
:10357000809590958E0F9F1F0895FC0161507040BB
:1035800001900110D8F7809590958E0F9F1F089598
:103590000F931F93CF93DF938C01EB018B8181FFFE
:1035A0001BC082FF0DC02E813F818C819D81281719
:1035B000390764F4E881F9810193F983E88306C04F
:1035C000E885F985802F0995892B31F48E819F81BB
:1035D00001969F838E8302C00FEF1FEFC801DF911A
:1035E000CF911F910F910895FA01AA27283051F128
:1035F000203181F1E8946F936E7F6E5F7F4F8F4F24
:103600009F4FAF4FB1E03ED0B4E03CD0670F781F82
:10361000891F9A1FA11D680F791F8A1F911DA11D67
:103620006A0F711D811D911DA11D20D009F46894A0
:103630003F912AE0269F11243019305D3193DEF648
:10364000CF010895462F4770405D4193B3E00FD0FE
:10365000C9F7F6CF462F4F70405D4A3318F0495DE9
:1036600031FD4052419302D0A9F7EACFB4E0A695CC
:103670009795879577956795BA95C9F700976105EE
:10368000710508959B01AC010A2E06945795479544
:1036900037952795BA95C9F7620F731F841F951F39
:1036A000A01D0895882371F4772321F09850872B6B
:1036B000762F07C0662311F499270DC09051862BF1
:1036C00070E060E02AF09A95660F771F881FDAF79E
:1036D000880F9695879597F908959F3F31F09150FF
:1036E00020F4879577956795B795880F911D9695E6
:1036F000879597F9089525D0A0F0BEE7B91788F40B
:10370000BB279F3860F41616B11D672F782F8827C6
:10371000985FF7CF869577956795B11D9395963904
:10372000C8F30895E894BB2766277727CB0197F95C
:10373000089557FD9058440F551F59F05F3F71F0A1
:103740004795880F97FB991F61F09F3F79F0879508
:103750000895121613061406551FF2CF4695F1DF91
:1037600008C0161617061806991FF1CF8695710521
:0A377000610508940895F894FFCF56
:10377A0020696E20706F776572206F6E2073746196
:10378A0074652066756E6374696F6E200020696EB9
:10379A002073656C6563742066756E6374696F6EF9
:1037AA002073746174652066756E6374696F6E2028
:1037BA00002066756E6374696F6E2073656C65634D
:1037CA007465643A200020616464206E6577207015
:1037DA006C616E742000206564697420637572726E
:1037EA00656E7420706C616E74732000206D6F6E4C
:1037FA0069746F722063757272656E7420706C6181
:10380A006E747320002046554E4354494F4E205340
:10381A00454C454354454420002046756E637469FF
:10382A006F6E2043686F73656E203D200020696EBD
:10383A00206D6F6E69746F7220737461746520668F
:10384A00756E6374696F6E200020696E20776172ED
:10385A006E696E672073746174652066756E637431
:10386A00696F6E200020696E206564697420706C2F
:10387A00616E74732073746174652066756E637407
:10388A00696F6E2000204F5054494F4E5320544FB9
:10389A002052454D4F564520002564000000000087
:1038AA0000006261636B000A0A20706C616E74200A
:1038BA0073656C65637465643A2000204F505449FF
:1038CA004F4E2053454C4543544544200020200088
:1038DA00204F7074696F6E2043686F73656E203D68
:1038EA002000206F7074696F6E2073656C65637455
:1038FA0065643A2000202020666F756E64002042BD
:10390A0072696768746E6573733A20000A004D6FB6
:10391A006973747572653A200020706C616E743137
:10392A00200020706C616E7432200020706C616E11
:10393A00743320002054454D5020006C6F7720725C
:10394A00616E67653A2000686967682072616E6710
:10395A00653A200020494E2052414E47452000201A
:10396A00424553542000205345434F4E442042457C
:10397A00535400205448495244204245535420008D
:10398A00204F5554534944452052414E4745200043
:10399A00204D4F49535455524520002068696768A5
:1039AA002072616E67653A200020425249474854A6
:1039BA004E455353200025750025642E2530316469
:1039CA000A00706C616E7420313A200025642E253D
:1039DA00640A00706C616E7420323A200025642EED
:1039EA002530316400706C616E7420333A200020F7
:1039FA00696E20726573756C747320737461746573
:103A0A002066756E6374696F6E20002073636F722F
:103A1A00657320313A20000A0A504C414E54205214
:103A2A00414E4B494E473A20312E2000202F20315B
:103A3A0030000A0A20322E20000A0A20332E2000E3
:103A4A0020706C616E742073656C65637465643A8A
:103A5A00200020504C414E542053454C4543544578
:103A6A0044200020506C616E742043686F73656E49
:103A7A00203D200054656D70657261747572653AF7
:103A8A00200020696E2063616C6962726174696FDB
:103A9A006E2073746174652066756E6374696F6EE7
:103AAA002000206E6F7420696E2073746174652023
:103ABA00003001003003003043616C656E64756C40
:103ACA00613132353835313030323030303135309D
:103ADA0030393939393930300047043000486962A1
:103AEA006973637573333630393532303039393961
:103AFA00393939393939393939393030006B043083
:103B0A0000004265676F6E69613236303735323090
:103B1A00303939393030303030303135303030307A
:103B2A00008F0400000000000000000001020203F0
:103B3A000303030404040404040404050505050539
:103B4A000505050505050505050505060606060616
:103B5A0006060606060606060606060606060606FB
:103B6A0006060606060606060606060707070707E6
:103B7A0007070707070707070707070707070707CB
:103B8A0007070707070707070707070707070707BB
:103B9A0007070707070707070707070707070707AB
:103BAA000707070707070707070707080808080896
:103BBA00080808080808080808080808080808087B
:103BCA00080808080808080808080808080808086B
:103BDA00080808080808080808080808080808085B
:103BEA00080808080808080808080808080808084B
:103BFA00080808080808080808080808080808083B
:103C0A00080808080808080808080808080808082A
:103C1A00080808080808080808080808080808081A
:0C3C2A0008080808080808080808080036
:00000001FF
