:100000000C9434000C9451000C9451000C94510049
:100010000C94F6020C9451000C9451000C94510075
:100020000C9451000C9451000C9451000C9451000C
:100030000C9451000C9451000C9451000C945100FC
:100040000C9451000C9451000C9451000C945100EC
:100050000C9451000C9451000C9451000C945100DC
:100060000C9451000C94510011241FBECFEFD8E026
:10007000DEBFCDBF17E0A0E0B1E0E8EAFCE302C0DC
:1000800005900D92A032B107D9F717E0A0E2B7E0D2
:1000900001C01D92AB34B107E1F70E94C7130C9465
:1000A000521E0C9400009093C5008093C400E1ECB4
:1000B000F0E080818860808380818061808386E039
:1000C0008093C2000895982F8091C00085FFFCCFD7
:1000D0009093C6000895CF93DF93EC0105C0992754
:1000E00087FD90950E94630089918823C1F7DF9175
:1000F000CF9108958091C00087FFFCCF8091C6000A
:100100000895BF92CF92DF92EF92FF920F931F93C9
:10011000CF93DF93B82EFB01D901E70141155105BB
:1001200031F40115110519F490E080E054C084EA1F
:100130008093BC008091BC0087FFFCCF9091B900F8
:10014000987F983009F09FC08B2D8E7F8093BB00E5
:1001500084E88093BC008091BC0087FFFCCF909125
:10016000B900987F9831B1F0903209F08CC088C006
:1001700080818093BB002093BC008091BC0087FFEE
:10018000FCCF9091B900987F415050409832C9F40B
:10019000319601C024E84115510551F716C08C91E4
:1001A0008093BB002093BC008091BC0087FFFCCFF4
:1001B0009091B900987F01501040983211F4119637
:1001C00005C0903309F05FC05BC024E8011511053C
:1001D00031F791E081E0C114D10409F44EC08823C5
:1001E00011F428E001C020E184EA8093BC008091F2
:1001F000BC0087FFFCCF9091B900987F921709F05F
:1002000042C081E0B82AB092BB0084E88093BC0071
:100210008091BC0087FFFCCF9091B900987F90340B
:1002200019F0983481F52CC00894C108D10824EC49
:1002300011C02093BC008091BC0087FFFCCF90913F
:10024000B900987F0894C108D1089035E1F48091F5
:10025000BB008993C114D10461F784E88093BC008A
:100260008091BC0087FFFCCF9091B900987F9835B2
:1002700051F48091BB00888302C0992321F090E063
:1002800084E98093BC00892FDF91CF911F910F915A
:10029000FF90EF90DF90CF90BF9008951092B9003B
:1002A0008093B8000895529A5A988CEC9CEA019772
:1002B000F1F752984A9BFECF08954A99FECF4A9B88
:1002C000FECF4A99FECF089540E050E020E030E0B4
:1002D00063EA4A9BFECF862F8A95F1F7C901880F02
:1002E000991F4A9B03C09C01216001C09C014A994F
:1002F000FECF4F5F5F4F4830510559F7C901089550
:10030000569A5E9808955E9A80E090E60197F1F71C
:10031000089580E090E60197F1F75E9808953B9884
:1003200080917C00806480937C0080917C008F773A
:1003300080937C0080917C00806280937C0080911F
:100340007C00836080937C0080917C00837F80931D
:100350007C0080917A00876080937A0080917A0097
:10036000806880937A0080917A00806480937A001C
:1003700080917A0086FDFCCF8091790090E008950D
:100380000F931F93182F062F80E091E00E946B00BF
:10039000113311F482E305C0003311F083E301C08F
:1003A00085E3809342071F910F9108950F931F9348
:1003B000CF93DF938DE191E00E946B0010922907AB
:1003C0001092280783E090E090932B0780932A07F0
:1003D00020983A98399888B1866088B980916800E9
:1003E00082608093680080916C00866080936C00CE
:1003F000789486B1982F927082FD07C0992319F4E2
:100400001092480709C081E005C0992311F482E0E9
:1004100001C083E080934807809148078093470795
:10042000189BFECF81E491E00E946B008091280729
:1004300090912907009719F486E591E007C001978C
:1004400019F486E691E002C08CE791E00E946B000F
:10045000C1E0D0E000E3189910C08091200790918E
:100460002107892B51F485E991E00E946B00D0931C
:100470002107C093200711E307C0189B04C0109206
:1004800021071092200710E38091A0058133C1F469
:1004900081E491E00E946B008091280790912907E8
:1004A000009719F486E591E007C0019719F486E6F4
:1004B00091E002C08CE791E00E946B000093A005E0
:1004C000103349F289EA91E00E946B00809128077D
:1004D00090912907009719F486E591E007C00197EC
:1004E00019F486E691E002C08CE791E00E946B006F
:1004F00080912807909129078230910511F487E3B4
:1005000012C08130910511F484E30DC0892B69F488
:1005100080919C05803311F485E305C0813329F473
:1005200080939D0586E380934207DF91CF911F91D1
:100530000F91089586B1282F2270382F3470809142
:10054000220790912307892B09F041C03323E9F456
:100550002223C1F181E08093480720912807309140
:10056000290780912A0790912B07019728173907AF
:100570003CF42F5F3F4F309329072093280719C081
:10058000109229071092280714C0222321F582E037
:10059000809348078091280790912907009721F4BC
:1005A00080912A0790912B070197909329078093B8
:1005B000280781E38093A00581E090E090932307D2
:1005C0008093220710929F0510929E050895332371
:1005D00061F0222351F081E090E090939F05809399
:1005E0009E05109223071092220708951F920F92E2
:1005F0000FB60F9211242F933F934F935F936F93F6
:100600007F938F939F93AF93BF93EF93FF930E943A
:100610009A0280E090E60197F1F7FF91EF91BF9188
:10062000AF919F918F917F916F915F914F913F918A
:100630002F910F900FBE0F901F9018950F931F933F
:10064000CF93DF938DEB91E00E946B0080919D052D
:10065000803309F05AC089ED91E00E946B0000E000
:1006600010E00115110539F4C091C805D091C905F4
:1006700088E092E010C00130110539F4C091EF0517
:10068000D091F00581E192E006C0C0911606D091AC
:1006900017068AE192E00E946B008881813371F530
:1006A00099A1913331F08AA1813319F08BA188236C
:1006B00029F121E030E0FE01E20FF31FE08180919B
:1006C000C00085FFFCCFE093C6002F5F3F4F2A306C
:1006D000310589F7913321F483E292E00E946B00A7
:1006E0008AA1813321F481E392E00E946B008BA107
:1006F000813321F48CE392E00E946B000F5F1F4F67
:100700000330110509F0ADCF04C089E492E00E94E6
:100710006B0080E593EC25EF30E0F9013197F1F7BC
:100720000197D9F71899FECF8DE892E00E946B00EF
:1007300080E380939D0583E380934207DF91CF910F
:100740001F910F9108952F923F924F925F926F9257
:100750007F928F929F92AF92BF92CF92DF92EF9251
:10076000FF920F931F93DF93CF93CDB7DEB72897F8
:100770000FB6F894DEBF0FBECDBF8DE992E00E94A8
:100780006B00109229071092280720983A98399800
:1007900088B1866088B98091680082608093680023
:1007A00080916C00866080936C00189BFECF7894DB
:1007B00086B1982F927082FD07C0992319F4109288
:1007C000480709C081E005C0992311F482E001C007
:1007D00083E08093480780914807809347078DEB1B
:1007E00092E00E946B00E091C805F091C9058081FC
:1007F000813321F0F1E06F2E712C49C08DB79EB787
:1008000008970FB6F8949EBF0FBE8DBFEDB7FEB729
:1008100031968E010F5F1F4FADB7BEB712961C9376
:100820000E93119785E090E09383828381ED92E0AF
:100830009583848381E090E0978386830E94101BD8
:10084000EDB7FEB738960FB6F894FEBF0FBEEDBFFA
:1008500084ED92E00E946B00C8010E946B00409101
:10086000C8055091C90521E030E0FA01E20FF31FFD
:10087000E0818091C00085FFFCCFE093C6002F5F30
:100880003F4F2A30310589F7E2E06E2E712C84ED5E
:1008900092E00E946B00E091EF05F091F0058081FD
:1008A000813309F047C08DB79EB708970FB6F8940B
:1008B0009EBF0FBE8DBFEDB7FEB731968E010F5FA5
:1008C0001F4FADB7BEB712961C930E93119785E0DC
:1008D00090E09383828381ED92E095838483778295
:1008E00066820E94101BEDB7FEB738960FB6F894DB
:1008F000FEBF0FBEEDBF84ED92E00E946B00C80109
:100900000E946B004091EF055091F00521E030E02E
:10091000FA01E20FF31FE0818091C00085FFFCCF58
:10092000E093C6002F5F3F4F2A30310589F70894C6
:10093000611C711C84ED92E00E946B00E091160630
:10094000F09117068081813309F047C08DB79EB7BB
:1009500008970FB6F8949EBF0FBE8DBFEDB7FEB7D8
:1009600031968E010F5F1F4FADB7BEB712961C9325
:100970000E93119785E090E09383828381ED92E05E
:1009800095838483778266820E94101BEDB7FEB741
:1009900038960FB6F894FEBF0FBEEDBF84ED92E01F
:1009A0000E946B00C8010E946B0040911606509196
:1009B000170621E030E0FA01E20FF31FE081809199
:1009C000C00085FFFCCFE093C6002F5F3F4F2A3069
:1009D000310589F70894611C711C84ED92E00E9436
:1009E0006B0077EDA72E72E0B72ED5019C91809118
:1009F000C00085FFFCCF9093C6000894A11CB11CD9
:100A0000B0EEAB16B2E0BB0681F781EE92E00E9439
:100A10006B00EDB7FEB738970FB6F894FEBF0FBE68
:100A2000EDBF31968E010F5F1F4FADB7BEB7129667
:100A30001C930E93119785E090E09383828381ED60
:100A400092E095838483778266820E94101BEDB7C3
:100A5000FEB738960FB6F894FEBF0FBEEDBFC801C3
:100A60000E946B0089EE92E00E946B008091280743
:100A7000909129078130910529F486EF9FEFA80E08
:100A8000B91E3EC00097B1F48090C8059090C9058A
:100A9000D4018C91813371F18090EF059090F00535
:100AA000F4018081813331F1A0901606B0901706D1
:100AB000450126C082309105B1F4A090EF05B090B9
:100AC000F005D5018C91813329F4882499248A1466
:100AD0009B04B1F4A0901606B0901706F501808132
:100AE000813351F40DC0039739F4A0901606B090ED
:100AF000170606C0540104C080E090E09C01590133
:100B000021E030E0F501E20FF31FE0818091C000A9
:100B100085FFFCCFE093C6002F5F3F4F2A303105A1
:100B200089F78DEF92E00E946B008DB79EB7089712
:100B30000FB6F8949EBF0FBE8DBFEDB7FEB73196CE
:100B40008E010F5F1F4FADB7BEB712961C930E9369
:100B5000119765E0C62ED12CD382C28251EDE52ECD
:100B600052E0F52EF582E48280912A0790912B07BE
:100B7000978386830E94101BEDB7FEB738960FB699
:100B8000F894FEBF0FBEEDBFC8010E946B007092CB
:100B90002B0760922A078DE193E00E946B008DB7CE
:100BA0009EB708970FB6F8949EBF0FBE8DBFEDB7E6
:100BB000FEB73196ADB7BEB712961C930E93119740
:100BC000D382C282F582E48280912A0790912B071A
:100BD000978386830E94101BEDB7FEB738960FB639
:100BE000F894FEBF0FBEEDBFC8010E946B00F0E39A
:100BF000F887FF83FE8341E0242E312CC02E012F85
:100C000035E0432E512C7F2C10E33AC11899D4C003
:100C10008091200790912107892B09F0CDC08EE3A8
:100C200093E00E946B00309221072092200780E51C
:100C300093E00E946B0021E030E0F501E20FF31F2A
:100C4000E0818091C00085FFFCCFE093C6002F5F5C
:100C50003F4F2A30310589F786EDA81682E0B806A5
:100C600019F491E39F831EC08091C8059091C90536
:100C7000A816B90699F08091EF059091F005A81695
:100C8000B90629F4F5011083F1E3FE830BC08091CE
:100C9000160690911706A816B90621F4D5011C93E3
:100CA000B1E3BE83E091C805F091C905808181332D
:100CB00019F422E030E002C021E030E0E091EF05DD
:100CC000F091F0058081813311F42F5F3F4FE09167
:100CD0001606F09117068081813311F42F5F3F4F84
:100CE00030932B0720932A0783E593E00E946B0043
:100CF000EDB7FEB738970FB6F894FEBF0FBEEDBF45
:100D00003196ADB7BEB71196CC92119712960C934F
:100D100053824282E482758280912A0790912B0748
:100D2000978386830E94101BEDB7FEB738960FB6E7
:100D3000F894FEBF0FBEEDBF8C2D902F0E946B006C
:100D400083E793E00E946B0021E030E0F501E20FC1
:100D5000F31FE0818091C00085FFFCCFE093C600C7
:100D60002F5F3F4F2A30310589F790E0E091C805A9
:100D7000F091C9058081803309F491E020E0E09191
:100D8000EF05F091F0058081803309F421E0922392
:100D9000292F30E040E050E0E0911606F091170670
:100DA0008081803311F441E050E024233523232B4C
:100DB00049F0F1E3F88706C0189B04C010922107A0
:100DC000109220078091A005813311F0D50157C002
:100DD00085E893E00E946B00809128079091290795
:100DE0008130910519F4A6EDB2E036C00097A9F460
:100DF0008090C8059090C905D4018C91813349F148
:100E00008090EF059090F005F4018081813309F125
:100E100080901606909017061CC08230910591F4C0
:100E2000A091EF05B091F0058C91813319F48A16E9
:100E30009B0691F4A0911606B09117068C91813310
:100E400051F40AC0039739F4A0911606B091170621
:100E500003C0D40101C0D50121E030E0FD01E20F63
:100E6000F31FE0818091C00085FFFCCFE093C600B6
:100E70002F5F3F4F2A30310589F71093A0055D01A0
:100E8000FF81F13321F08885813309F0BFCE9E8147
:100E9000913339F480919C05813319F480E3809378
:100EA0009C05A885A13311F485E304C0BF81B1334B
:100EB00019F483E38093420728960FB6F894DEBFB7
:100EC0000FBECDBFCF91DF911F910F91FF90EF909B
:100ED000DF90CF90BF90AF909F908F907F906F905A
:100EE0005F904F903F902F9008952F923F924F9296
:100EF0005F926F927F928F929F92AF92BF92CF92AA
:100F0000DF92EF92FF920F931F93DF93CF93CDB7B2
:100F1000DEB7C057D0400FB6F894DEBF0FBECDBFCE
:100F20008FE390E09093C5008093C4008091C1004E
:100F300088608093C1008091C10080618093C1006E
:100F400086E08093C2001092B9008AE28093B800D4
:100F500080E395E725EF30E0F9013197F1F701974C
:100F6000D9F78FE390E09093C5008093C4008091FF
:100F7000C10088608093C1008091C100806180932E
:100F8000C10086E08093C2001092B9008AE280938B
:100F9000B80080E395E725EF30E0F9013197F1F7EC
:100FA0000197D9F783E090E09A8B898B988B8F8794
:100FB0001E861D8681E090E09C878B8784EB90E005
:100FC0009A87898783EB90E098878F8381EA90E006
:100FD0009E838D8380EA90E09C838B8382EB90E0FC
:100FE0009A83898382E5BE016F5F7F4F41E050E0C5
:100FF00020E030E000E010E0F5E3EF2EF12CEC0E05
:10100000FD1EE1E0CE2ED12C0E9481008DA99EA96B
:101010008035910521F488E993E00E946B0033E06C
:10102000632E712C6C0E7D1E2BE0422E512C4C0E2B
:101030005D1E82E5B30141E050E0920101E010E065
:1010400099E4E92EF12CEC0EFD1EB1E0CB2ED12C53
:101050000E948100A5E02A2E312C2C0E3D1E82E537
:10106000B10141E050E09E01215F3F4FEE24FF249B
:10107000CC24DD240E94810080E395E725EF30E059
:10108000F9013197F1F70197D9F782E5B30141E012
:1010900050E09E012F5E3F4F01E010E0FDE5EF2E96
:1010A000F12CEC0EFD1EE1E0CE2ED12C0E94810031
:1010B00080E395E725EF30E0F9013197F1F70197EB
:1010C000D9F737E0832E912C8C0E9D1E21E2A22EA3
:1010D000B12CAC0EBD1E82E5B40141E050E020E031
:1010E00030E000E010E0750191E0C92ED12C0E94A3
:1010F000810089A1803379F382E5BE01675F7F4F6C
:1011000041E050E020E030E0B3E1EB2EF12CEC0EBA
:10111000FD1EA4E0CA2ED12C0E94810082E5B301FD
:1011200041E050E0920101E010E0EE24FF24CC24E5
:10113000DD240E94810081EA93E00E946B009C897B
:1011400080E0AB88BB24A82AB92A8E01095E1F4F14
:101150008DB79EB708970FB6F8949EBF0FBE8DBF90
:10116000EDB7FEB73196ADB7BEB712961C930E938E
:1011700011978AE090E09383828381ED92E09583DA
:101180008483B782A6820E94101B8DB79EB70896F3
:101190000FB6F8949EBF0FBE8DBFC8010E946B00B2
:1011A0008FEA93E00E946B0082E5B10141E050E0DC
:1011B0009E01235F3F4F01E010E00E948100B0924A
:1011C0004107A0924007C059DF4F0FB6F894DEBF29
:1011D0000FBECDBFCF91DF911F910F91FF90EF9088
:1011E000DF90CF90BF90AF909F908F907F906F9047
:1011F0005F904F903F902F9008950F931F93DF9330
:10120000CF9300D000D0CDB7DEB72DB73EB7285072
:1012100030400FB6F8943EBF0FBE2DBFEDB7FEB7FE
:1012200031968E010F5F1F4FADB7BEB712961C935C
:101230000E93119724E030E03383228321ED32E0D6
:1012400035832483978386830E94101B2DB73EB776
:10125000285F3F4F0FB6F8943EBF0FBE2DBFC801A9
:101260000E946B000F900F900F900F90CF91DF9125
:101270001F910F910895EF92FF920F931F93569A2B
:101280005E985E9AE12CA0E6FA2EC7010197F1F76D
:101290000E948F018C0181EB93E00E946B00C801DA
:1012A0000E94FD08C7010197F1F75E9810934A0765
:1012B000009349071F910F91FF90EF9008952F928F
:1012C0003F924F925F926F927F928F929F92AF92D6
:1012D000BF92CF92DF92EF92FF920F931F93DF9313
:1012E000CF93CDB7DEB7CE57D0400FB6F894DEBF60
:1012F0000FBECDBF662477246114710439F4E090E9
:10130000C805F090C90588E092E011C021E062169E
:10131000710439F4E090EF05F090F00581E192E07E
:1013200006C0E0901606F09017068AE192E00E944F
:101330006B008CEB93E00E946B0083EC93E00E94C7
:101340006B00ABE0CA2ED12CCE0CDF1CD7011B9654
:101350008C91BAE08B0280011124FCE0AF2EB12CFD
:10136000AE0CBF1CF7018485992787FD9095080F67
:10137000191F005112402DB73EB7285030400FB60C
:10138000F8943EBF0FBE2DBFEDB7FEB7319621E0FA
:1013900030E02C0F3D1FADB7BEB712963C932E9395
:1013A00011974AE050E05383428381ED92E09583A8
:1013B0008483178306830E94101BADB7BEB71896AF
:1013C0000FB6F894BEBF0FBEADBFCE0101960E940E
:1013D0006B008091C00085FFFCCFB0E2B093C600E7
:1013E000F60190818091C00085FFFCCF9093C600EC
:1013F000D5019C918091C00085FFFCCF9093C600E1
:101400008FEC93E00E946B00F70195858091C000FE
:1014100085FFFCCF9093C600D7011E966C918091FA
:10142000C00085FFFCCF6093C600409143075091F8
:1014300044074017510708F46AC0892F992787FD90
:101440009095C0979C01E3E0220F331FEA95E1F7E6
:10145000880F991F280F391F862F992787FD909590
:10146000C097820F931F8417950708F450C0080F88
:10147000191F1695079520E3F70121A38CED93E042
:101480000E946B002091430730914407C8010597E3
:1014900028173907A0F0C80105968217930778F03E
:1014A00087EE93E00E946B000F2EF0E0AF2EF0E08D
:1014B000BF2EF0E8CF2EF0E4DF2EF02D3AC0C801A9
:1014C0000A9728173907A0F0065F1F4F0217130766
:1014D00078F08EEE93E00E946B000F2EF0E0AF2EBE
:1014E000F0E0BF2EF0E6CF2EF0E4DF2EF02D21C08D
:1014F0008BEF93E00E946B000F2EF0E0AF2EF0E038
:10150000BF2EF0E4CF2EF0E4DF2EF02D12C088E0E5
:1015100094E00E946B00E1E3D7019196EC930F2ECB
:10152000F0E0AF2EF0E0BF2EF0E0CF2EFFE3DF2E95
:10153000F02D88E194E00E946B0083EC93E00E9420
:101540006B000FE0802E912C8E0C9F1C10E1412E21
:10155000512C4E0C5F1CB1E12B2E312C2E0C3F1C5C
:10156000D70151968C915197082F112707FD10959F
:10157000005310401F968C911F97992787FD9095D7
:10158000C09724E630E0FC01E29FC001E39F900D8C
:10159000F29F900D1124080F191F50968C919927D6
:1015A00087FD9095C0979C01A3E0220F331FAA9559
:1015B000E1F7880F991F280F391F020F131F2DB74E
:1015C0003EB7285030400FB6F8943EBF0FBE2DBF37
:1015D000EDB7FEB7319621E030E02C0F3D1FADB7DF
:1015E000BEB712963C932E9311974AE050E0538376
:1015F000428381ED92E095838483178306830E9462
:10160000101BADB7BEB718960FB6F894BEBF0FBE8D
:10161000ADBFCE0101960E946B008091C00085FF96
:10162000FCCFB0E2B093C600F40190818091C0007D
:1016300085FFFCCF9093C600D2019C918091C000A1
:1016400085FFFCCF9093C600F10190818091C0008E
:1016500085FFFCCF9093C60083E294E00E946B006C
:10166000D70152969C918091C00085FFFCCF90934A
:10167000C600D7015396EC918091C00085FFFCCF46
:10168000E093C600D70154962C918091C00085FF4D
:10169000FCCF2093C6006091490770914A076017FC
:1016A000710708F475C0422F552747FD50954053E8
:1016B0005040892F992787FD9095C09724E630E008
:1016C000DC01A29FC001A39F900DB29F900D112439
:1016D000480F591F8E2F992787FD9095C0979C0121
:1016E000E3E0220F331FEA95E1F7880F991F280FD7
:1016F000391F420F531F4617570708F449C0040FFC
:10170000151F1695079520E3F70122A38CED93E0B2
:101710000E946B002091490730914A07C801C29787
:101720002817390780F0C801C2968217930758F02E
:1017300087EE93E00E946B00C601B50120E030E027
:1017400040E850E415C0C801865990402817390771
:10175000A0F00A561F4F0217130778F08EEE93E0A1
:101760000E946B00C601B50120E030E040E650E485
:101770000E94B6154B015C011DC08BEF93E00E94E7
:101780006B00C601B50120E030E040E450E4F0CF4A
:1017900088E094E00E946B00C601B50120E030E0D3
:1017A00040E05FE30E94B6154B015C01E1E3D70125
:1017B0009296EC9381E394E00E946B0083EC93E0BB
:1017C0000E946B00F5E14F2E512C4E0C5F1CD7018F
:1017D00055968C915597992787FD9095C09720E154
:1017E00037E2F9018E9F90018F9F300D9E9F300D43
:1017F000112487010A5E1F4FE7E12E2E312C2E0C9B
:101800003F1CA701485E5F4FEF965FAF4EAFEF976B
:10181000C7014996ED969FAF8EAFED9759968C9183
:10182000C82EDD24C7FCD094A0EDBFEFCA0EDB1E8E
:10183000C20ED31EF7018689992787FD9095C09720
:1018400028EE33E0AC01429FC001439F900D529FB0
:10185000900D1124C80ED91E8789992787FD909570
:10186000C09724E630E0DC01A29FC001A39F900D49
:10187000B29F900D1124C80ED91E808D992787FD27
:101880009095C0979C0173E0220F331F7A95E1F782
:10189000880F991F280F391FC20ED31EEDB7FEB750
:1018A00038970FB6F894FEBF0FBEEDBF319621E01A
:1018B00030E02C0F3D1FADB7BEB712963C932E9370
:1018C00011974AE050E05383428381ED92E0958383
:1018D0008483D782C6820E94101BADB7BEB718960C
:1018E0000FB6F894BEBF0FBEADBFCE0101960E94E9
:1018F0006B008091C00085FFFCCFB0E2B093C600C2
:10190000F20190818091C00085FFFCCF9093C600CA
:10191000D8019C918091C00085FFFCCF9093C600B8
:10192000F10190818091C00085FFFCCF9093C600AB
:10193000EF96AEADBFADEF979C918091C00085FF53
:10194000FCCF9093C600ED96EEADFFADED97908184
:101950008091C00085FFFCCF9093C60083E294E0A5
:101960000E946B00D7015A969C918091C00085FF20
:10197000FCCF9093C600F701538D8091C00085FF86
:10198000FCCF5093C600D7015C966C918091C0004B
:1019900085FFFCCF6093C600F701758D8091C00074
:1019A00085FFFCCF7093C600D7015E964C91809165
:1019B000C00085FFFCCF4093C600892F992787FD83
:1019C0009095C09720E137E2FC01E29FC001E39FC0
:1019D000900DF29F900D1124042F112707FD1095F3
:1019E00000531040080F191F852F992787FD9095E8
:1019F000C09728EE33E0AC01429FC001439F900D99
:101A0000529F900D1124080F191F862F992787FDCB
:101A10009095C09724E630E0DC01A29FC001A39F0F
:101A2000900DB29F900D1124080F191F872F992731
:101A300087FD9095C0979C0153E0220F331F5A9564
:101A4000E1F7880F991F280F391F020F131FEDB7F9
:101A5000FEB738970FB6F894FEBF0FBEEDBF3196B4
:101A600021E030E02C0F3D1FADB7BEB712963C937E
:101A70002E9311974AE050E0538342838EE394E023
:101A800095838483178306830E94101BADB7BEB76E
:101A900018960FB6F894BEBF0FBEADBFCE0101962B
:101AA0000E946B008091C00085FFFCCFB0E2B09334
:101AB000C60080914007909141078C159D0508F460
:101AC0004DC00817190708F449C00C0D1D1D1695C7
:101AD000079520E3F70123A38CED93E00E946B00B0
:101AE0002091400730914107C801C2972817390754
:101AF00080F0C801C2968217930758F087EE93E0F2
:101B00000E946B00C501B40120E030E040E050E4E9
:101B100015C0C8018659904028173907A0F00A5609
:101B20001F4F0217130778F08EEE93E00E946B00B0
:101B3000C501B40120E030E040EC5FE30E94B6153F
:101B40004B015C011DC08BEF93E00E946B00C5014F
:101B5000B40120E030E040E85FE3F0CF88E094E0BB
:101B60000E946B00C501B40120E030E040E85EE374
:101B70000E94B6154B015C01E1E3D7019396EC930B
:101B80006114710439F4EB968CAE9DAEAEAEBFAE6F
:101B9000EB9711C0F1E06F16710439F0E3968CAE4B
:101BA0009DAEAEAEBFAEE39706C0E7968CAE9DAEDF
:101BB000AEAEBFAEE7970894611C711C23E06216BD
:101BC000710409F099CBEB966CAD7DAD8EAD9FADF8
:101BD000EB97E7962CAD3DAD4EAD5FADE7970E941C
:101BE000891788237CF1EB966CAD7DAD8EAD9FADF2
:101BF000EB97E3962CAD3DAD4EAD5FADE3970E9404
:101C0000891787FF05C0B2E35B2EA3E36A2E2EC0BF
:101C1000E7966CAD7DAD8EAD9FADE797E3962CADAD
:101C20003DAD4EAD5FADE3970E94891787FF05C0BC
:101C3000F1E35F2EE3E36E2E37C071E3572E62E3CC
:101C4000662E2BC0E7966CAD7DAD8EAD9FADE79750
:101C5000E3962CAD3DAD4EAD5FADE3970E94891785
:101C600087FF07C053E3552E42E3642E31E3732E02
:101C70001DC0E3966CAD7DAD8EAD9FADE397EB9649
:101C80002CAD3DAD4EAD5FADEB970E94891787FF40
:101C900007C022E3522E91E3692E83E3782E06C01B
:101CA00003E3502E11E3612EB2E37B2EEB966CAD75
:101CB0007DAD8EAD9FADEB970E940D146B017C0145
:101CC00080E090E00E946B189B01AC01C501B4015B
:101CD0000E94851520E030E040E251E40E94E315C7
:101CE0000E94651B4DB75EB7485050400FB6F89440
:101CF0005EBF0FBE4DBF0DB71EB70F5F1F4F9E01DA
:101D0000255F3F4FADB7BEB712963C932E93119708
:101D100021E434E0F80133832283D582C4820E9417
:101D20000D14D80117967C936E9316970E94411B51
:101D3000EDB7FEB738960FB6F894FEBF0FBEEDBFF5
:101D40008AE494E00E946B004091C8055091C90557
:101D500021E030E0FA01E20FF31FE0818091C00042
:101D600085FFFCCFE093C6002F5F3F4F2A3031053F
:101D700089F78091C00085FFFCCF80E28093C60088
:101D8000CE010B960E946B008091C00085FFFCCFB6
:101D900080E28093C6008091C00085FFFCCF509206
:101DA000C6008091C00085FFFCCF80E28093C60012
:101DB000E7966CAD7DAD8EAD9FADE7970E940D149B
:101DC0006B017C0180E090E00E946B189B01AC01EC
:101DD000C501B4010E94851520E030E040E251E4E5
:101DE0000E94E3150E94651B2DB73EB72850304076
:101DF0000FB6F8943EBF0FBE2DBF0DB71EB70F5FD5
:101E00001F4F9E01255F3F4FADB7BEB712963C9363
:101E10002E93119724E534E0F80133832283D58291
:101E2000C4820E940D14D80117967C936E93169766
:101E30000E94411BEDB7FEB738960FB6F894FEBF6F
:101E40000FBEEDBF8BE594E00E946B004091EF0563
:101E50005091F00521E030E0FA01E20FF31FE0813C
:101E60008091C00085FFFCCFE093C6002F5F3F4FFD
:101E70002A30310589F78091C00085FFFCCF80E2D0
:101E80008093C600CE010B960E946B008091C0002B
:101E900085FFFCCF80E28093C6008091C00085FF63
:101EA000FCCF6092C6008091C00085FFFCCF80E22D
:101EB0008093C600E3966CAD7DAD8EAD9FADE3978C
:101EC0000E940D146B017C0180E090E00E946B1871
:101ED0009B01AC01C501B4010E94851520E030E0F2
:101EE00040E251E40E94E3150E94651B2DB73EB706
:101EF000285030400FB6F8943EBF0FBE2DBF0DB72F
:101F00001EB70F5F1F4F9E01255F3F4FADB7BEB796
:101F100012963C932E93119725E634E0F801338313
:101F20002283D582C4820E940D14D80117967C9317
:101F30006E9316970E94411BEDB7FEB738960FB609
:101F4000F894FEBF0FBEEDBF8091C00085FFFCCFAF
:101F50008AE08093C6008DE694E00E946B00409179
:101F600016065091170621E030E0FA01E20FF31F48
:101F7000E0818091C00085FFFCCFE093C6002F5F19
:101F80003F4F2A30310589F78091C00085FFFCCF93
:101F900080E28093C600CE010B960E946B00809178
:101FA000C00085FFFCCF80E28093C6008091C00016
:101FB00085FFFCCF7092C6008091C00085FFFCCFEA
:101FC00080E28093C600E091C805F091C905578E64
:101FD000E091EF05F091F005678EE0911606F09123
:101FE0001706778E0091C8051091C905EB966CAD68
:101FF0007DAD8EAD9FADEB970E941718605DD80147
:1020000090966C930091EF051091F005E7966CADFA
:102010007DAD8EAD9FADE7970E941718605DF8010A
:1020200060A30091160610911706E3966CAD7DAD86
:102030008EAD9FADE3970E941718605DD801909612
:102040006C93C258DF4F0FB6F894DEBF0FBECDBF02
:10205000CF91DF911F910F91FF90EF90DF90CF9084
:10206000BF90AF909F908F907F906F905F904F90B8
:102070003F902F9008956F927F929F92AF92BF9260
:10208000CF92DF92EF92FF920F931F93DF93CF9344
:102090000F92CDB7DEB787E794E00E946B0083E92B
:1020A00094E00E946B00E091C805F091C90590A1F1
:1020B0008091C00085FFFCCF9093C6000E945F090D
:1020C000E091C805F091C90590A18091C00085FFFD
:1020D000FCCF9093C6008FE994E00E946B00C09003
:1020E000C805D090C905F601878D8133A1F0C09055
:1020F000EF05D090F005F601878D813361F0C09037
:102100001606D0901706F601878D813321F080E006
:1021100090E09C01690121E030E0F601E20FF31F3D
:10212000E0818091C00085FFFCCFE093C6002F5F67
:102130003F4F2A30310589F780E593E00E946B001C
:10214000F60190A18091C00085FFFCCF9093C6005E
:1021500084EB94E00E946B008AEB94E00E946B0099
:10216000E090C805F090C905F701878D8233A1F092
:10217000E090EF05F090F005F701878D823361F074
:10218000E0901606F0901706F701878D823321F054
:1021900080E090E09C01790121E030E0F701E20F5E
:1021A000F31FE0818091C00085FFFCCFE093C60063
:1021B0002F5F3F4F2A30310589F780E593E00E9479
:1021C0006B00F70190A18091C00085FFFCCF909338
:1021D000C60084EB94E00E946B0081EC94E00E94C6
:1021E0006B000091C8051091C905F801878D8333F4
:1021F000A1F00091EF051091F005F801878D833370
:1022000061F00091160610911706F801878D83334F
:1022100021F080E090E09C01890121E030E0F801AC
:10222000E20FF31FE0818091C00085FFFCCFE093B7
:10223000C6002F5F3F4F2A30310589F780E593E0D4
:102240000E946B00F80190A18091C00085FFFCCF37
:102250009093C60084EB94E00E946B0083E090E0D2
:1022600090932B0780932A0720983A98399888B141
:10227000866088B980916800826080936800809150
:102280006C00866080936C00789486B1982F927071
:1022900082FD07C0992319F41092480709C081E014
:1022A00005C0992311F482E001C083E080934807C0
:1022B000809148078093470788EC94E00E946B0068
:1022C0008091280790912907009711F4360105C0E5
:1022D000019711F0380101C0370121E030E0F3012E
:1022E000E20FF31FE0818091C00085FFFCCFE093F7
:1022F000C6002F5F3F4F2A30310589F781E0A82EB5
:10230000B12CB0E39B2E189911C0809120079091B9
:102310002107892B59F48AED94E00E946B00B0925A
:102320002107A0922007F1E3F9830BC0189903C09D
:1023300080E3898306C01092210710922007E0E312
:10234000E9838091A005813321F588EC94E00E9417
:102350006B008091280790912907009711F43601AE
:1023600005C0019711F0380101C0370121E030E0CC
:10237000F301E20FF31FE0818091C00085FFFCCFE5
:10238000E093C6002F5F3F4F2A30310589F79092C6
:10239000A005F981F03309F4B6CF8BEE94E00E94EA
:1023A0006B0021E030E0F301E20FF31FE081809148
:1023B000C00085FFFCCFE093C6002F5F3F4F2A305F
:1023C000310589F78091C8059091C905681679068D
:1023D00071F08091EF059091F0056816790639F05B
:1023E00080911606909117066816790619F481E314
:1023F000F301808390E0E091C805F091C9058081E8
:10240000813309F491E020E0E091EF05F091F005CF
:102410008081813309F421E09223292F30E040E0CC
:1024200050E0E0911606F09117068081813311F497
:1024300041E050E024233523232B39F081E38093BE
:102440009C058CEF94E00E946B0083E3809342072D
:102450000F90CF91DF911F910F91FF90EF90DF9040
:10246000CF90BF90AF909F907F906F900895AF9264
:10247000BF92CF92DF92EF92FF920F931F93DF9361
:10248000CF93CDB7DEB7C456D0400FB6F894DEBFB9
:102490000FBECDBF7B01AA2797FDA095BA2FBC0127
:1024A000CD010E94B91720E030E040E151E40E94E4
:1024B000E31520E030E040EA50E40E94DD165B01C5
:1024C0006C010027F7FC0095102FC801B7010E948E
:1024D000B91720E030E040E151E40E94E31520E02C
:1024E00030E040EA50E40E94DD1620E030E040E2B7
:1024F00051E40E94DD169B01AC01C601B5010E94AA
:10250000B61520E030E040E052E40E94B6157B01B1
:102510008C010E9417185B016C01B501882777FDBB
:102520008095982F0E94B9179B01AC01C801B70193
:102530000E94851520E030E040E251E40E94E3155E
:102540000E94651B2DB73EB7285030400FB6F89457
:102550003EBF0FBE2DBF0DB71EB70F5F1F4F7E01D1
:102560000894E11CF11CEDB7FEB7F282E18221E490
:1025700034E0F80133832283B582A4820E941718C5
:10258000F801778366830E94411B2DB73EB7285F11
:102590003F4F0FB6F8943EBF0FBE2DBFC7010E943C
:1025A0006B00B0924407A0924307CC59DF4F0FB69F
:1025B000F894DEBF0FBECDBFCF91DF911F910F9179
:1025C000FF90EF90DF90CF90BF90AF900895CF92A3
:1025D000DF92EF92FF920F931F93CF93DF9380E3ED
:1025E00095E725EF30E0F9013197F1F70197D9F739
:1025F0000E9453010E945D010E9464017C010E94BF
:1026000064018C010E9464016C010E946401EC0170
:102610000E9464010E0D1F1D0C0D1D1D0C0F1D1FB2
:102620008017910741F486E195E00E946B00C60196
:10263000BE010E943712DF91CF911F910F91FF9041
:10264000EF90DF90CF9008951F93CF93DF9384E2B4
:1026500095E00E946B0080E593EC25EF30E0F901F6
:102660003197F1F70197D9F780E495E00E946B006C
:102670008091C00085FFFCCF80E38093C60087E493
:1026800095E00E946B008091C00085FFFCCF80E345
:102690008093C60080E090E0C0E0D0E0019627E2A1
:1026A0008031920739F486E595E00E946B0021960F
:1026B00080E090E0CE31D10511F010E345C081E615
:1026C00095E00E946B000E94E7120E943B090E9465
:1026D00075070E945F09E091C805F091C9058081E6
:1026E000813349F481A1813341F082A1813329F002
:1026F00083A1813311F010E301C011E3E091EF05F4
:10270000F091F0058081813351F481A1813331F062
:1027100082A1813319F083A1813309F411E3E0919F
:102720001606F09117068081813351F481A181331F
:1027300031F082A1813319F083A1813309F411E3CF
:1027400080E090E0C0E0D0E0189907C08DE892E00A
:102750000E946B00113331F403C0103309F49ECF93
:1027600086E301C083E380934207DF91CF911F91FD
:1027700008958DE695E00E946B000E94E7120E948A
:102780003B090E94750785E38093420708958FE314
:1027900090E09093C5008093C4008091C100886050
:1027A0008093C1008091C10080618093C10086E068
:1027B0008093C20081E38093420780914207843373
:1027C000F1F085333CF4823389F0833394F4813320
:1027D000F9F407C08633B1F0863374F08733C1F45F
:1027E00014C081E360E30E94C001E7CF0E94B913E7
:1027F000E4CF0E94D601E1CF0E943B10DECF0E94C1
:10280000A303DBCF0E941E03D8CF0E942413D5CF91
:102810008DE895E00E946B00D0CFEF92FF920F936E
:102820001F937B018C0120E030E040E05FE40E94D8
:10283000891788238CF0C801B70120E030E040E020
:102840005FE40E9485150E9417189B01AC0120507F
:1028500030404040504806C0C801B7010E941718D8
:102860009B01AC01B901CA011F910F91FF90EF903C
:102870000895A0E0B0E0EFE3F4E10C94D91ADC0194
:102880002B01FA019C91923008F439C1EB01888147
:10289000823008F433C1943069F4843009F02FC1D8
:1028A00011969C9111978981981709F428C1A8E184
:1028B000B6E025C1843009F421C18230A9F49230F8
:1028C00009F01DC19A01AD0188E0EA010990AE014D
:1028D000E90109929E018150C1F7E20189811196B7
:1028E0009C918923818308C1923009F407C1129613
:1028F0002D903C901397EB018A819B811496AD90AB
:10290000BD90CD90DC901797EC80FD800E811F81EB
:102910009101281B390BB90137FF04C066277727BF
:10292000621B730B603271050CF061C01216130646
:102930006CF537014801062E04C09694879477946D
:1029400067940A94D2F721E030E040E050E004C000
:10295000220F331F441F551F6A95D2F72150304074
:10296000404050402E213F21402351232115310565
:102970004105510521F021E030E040E050E07901CF
:102980008A01E628F728082919293CC0232BD1F110
:10299000260E371E35014601062E04C096948794F4
:1029A000779467940A94D2F721E030E040E050E059
:1029B00004C0220F331F441F551F6A95D2F72150C0
:1029C0003040404050402A213B214C215D212115BF
:1029D00031054105510521F021E030E040E050E0B3
:1029E00059016A01A628B728C828D9280BC0821522
:1029F00093052CF01C01AA24BB24650103C0EE241E
:102A0000FF24870111969C91D20111968C91981701
:102A100009F445C0992339F0A80197012A193B0907
:102A20004C095D0906C0A60195012E193F09400B0E
:102A3000510B57FD08C011823382228224833583D3
:102A4000468357831DC081E0818333822282882799
:102A50009927DC01821B930BA40BB50B8483958310
:102A6000A683B7830DC0220F331F441F551F248335
:102A70003583468357838281938101979383828331
:102A80002481358146815781DA01C9010197A10965
:102A9000B1098F5F9F4FAF4FBF4328F30BC09183A6
:102AA00033822282EA0CFB1C0C1D1D1DE482F58280
:102AB0000683178383E08083248135814681578193
:102AC00057FF1AC0C901AA2797FDA095BA2F817098
:102AD0009070A070B0705695479537952795822BCA
:102AE000932BA42BB52B84839583A683B7838281F4
:102AF0009381019693838283DF0101C0D201CD01CE
:102B0000CDB7DEB7E2E10C94F51AA0E2B0E0EBE855
:102B1000F5E10C94E51A69837A838B839C832D837A
:102B20003E834F835887E9E0EE2EF12CEC0EFD1E1C
:102B3000CE010196B7010E94081A8E010F5E1F4F49
:102B4000CE010596B8010E94081A8A8991E089276A
:102B50008A8BC701B801AE01475E5F4F0E943914EE
:102B60000E943319A096E6E00C94011BA0E2B0E0AD
:102B7000ECEBF5E10C94E51A69837A838B839C83F3
:102B80002D833E834F835887F9E0EF2EF12CEC0E16
:102B9000FD1ECE010196B7010E94081A8E010F5E3C
:102BA0001F4FCE010596B8010E94081AC701B8014F
:102BB000AE01475E5F4F0E9439140E943319A09600
:102BC000E6E00C94011BA0E2B0E0E9EEF5E10C9424
:102BD000D91A69837A838B839C832D833E834F83A9
:102BE0005887CE010196BE01675F7F4F0E94081A89
:102BF000CE010596BE016F5E7F4F0E94081A99852F
:102C0000923088F089898230C8F0943019F482308B
:102C100051F404C0843029F4923081F488E196E0C4
:102C2000C6C0923049F420E09A858A89981321E041
:102C30002A87CE010996BBC0823049F420E09A85EC
:102C40008A89981321E02A8BCE014196B0C02D8449
:102C50003E844F8458886D887E888F88988CEE24B7
:102C6000FF248701AA24BB24650140E050E060E016
:102C700070E0E0E0F0E0C10181709070892BE9F034
:102C8000E60CF71C081D191D9A01AB012A0D3B1D0E
:102C90004C1D5D1D80E090E0A0E0B0E0E614F7047C
:102CA0000805190520F481E090E0A0E0B0E0BA0149
:102CB000A901480F591F6A1F7B1FAA0CBB1CCC1C03
:102CC000DD1C97FE08C081E090E0A0E0B0E0A82AFB
:102CD000B92ACA2ADB2A3196E032F10549F0660C9E
:102CE000771C881C991C5694479437942794C3CF1B
:102CF000FA85EA892B893C898B859C85280F391FA9
:102D00002E5F3F4F17C0CA0181709070892B61F010
:102D100016950795F794E79480E090E0A0E0B0E87E
:102D2000E82AF92A0A2B1B2B769567955795479524
:102D30002F5F3F4F77FDE7CF0CC0440F551F661F35
:102D4000771F17FD4160EE0CFF1C001F111F215063
:102D50003040403090E0590790E0690790E47907EF
:102D600060F32B8F3C8FDB01CA018F779070A070CE
:102D7000B07080349105A105B10561F447FD0AC02A
:102D8000E114F1040105110529F0405C5F4F6F4F1C
:102D90007F4F40781A8EFE1711F081E08A8F4D8F99
:102DA0005E8F6F8F78A383E0898FCE0149960E9452
:102DB0003319A096E2E10C94F51AA8E1B0E0E3EE35
:102DC000F6E10C94E11A69837A838B839C832D83CB
:102DD0003E834F835887B9E0EB2EF12CEC0EFD1E9D
:102DE000CE010196B7010E94081A8E010F5E1F4F97
:102DF000CE010596B8010E94081A2985223008F4F0
:102E00007EC03989323010F4B8017CC08A859A8935
:102E100089278A87243011F0223031F4231709F0F2
:102E20006EC068E176E06EC0343039F41D861E86CF
:102E30001F86188A1C861B8604C0323021F484E069
:102E40008987B7015FC02B853C858B899C89281BAE
:102E5000390B3C872B87ED84FE840F851889AD885C
:102E6000BE88CF88D88CEA14FB040C051D0540F4FD
:102E7000EE0CFF1C001F111F215030403C872B8798
:102E800020E030E040E050E080E090E0A0E0B0E4FE
:102E900060E070E0EA14FB040C051D0540F0282BEF
:102EA000392B4A2B5B2BEA18FB080C091D09B69538
:102EB000A79597958795EE0CFF1C001F111F6F5F5C
:102EC0007F4F6F31710531F7DA01C9018F7790704B
:102ED000A070B07080349105A105B10561F427FDA3
:102EE0000AC0E114F1040105110529F0205C3F4FEF
:102EF0004F4F5F4F20782D873E874F87588BBE01FD
:102F0000675F7F4FCB010E9433196896EAE00C940B
:102F1000FD1AA8E1B0E0EFE8F7E10C94E51A698347
:102F20007A838B839C832D833E834F83588789E0EC
:102F3000E82EF12CEC0EFD1ECE010196B7010E9489
:102F4000081A8E010F5E1F4FCE010596B8010E9430
:102F5000081A8985823040F08989823028F0C701BB
:102F6000B8010E94801A01C08FEF6896E6E00C94C9
:102F7000011BA8E0B0E0EFEBF7E10C94E21A9B0133
:102F8000AC0183E08983DA01C9018827B7FD839505
:102F90009927AA27BB27B82E2115310541055105D0
:102FA00019F482E089833AC08823A9F0203080E0B8
:102FB000380780E0480780E8580729F460E070E0AF
:102FC00080E09FEC30C0EE24FF248701E21AF30A70
:102FD000040B150B02C079018A018EE1C82ED12C99
:102FE000DC82CB82ED82FE820F831887C801B70195
:102FF0000E94E41801971816190684F4082E04C0DC
:10300000EE0CFF1C001F111F0A94D2F7ED82FE8206
:103010000F831887C81AD90ADC82CB82BA82CE0104
:1030200001960E9433192896E9E00C94FE1AACE050
:10303000B0E0EDE1F8E10C94E91A69837A838B83BF
:103040009C83CE010196BE016B5F7F4F0E94081AE0
:103050008D81823061F1823050F1843021F48E8193
:10306000882351F12EC02F81388537FD20C06E8115
:103070002F3131051CF06623F9F023C08EE190E07A
:10308000821B930B29853A854B855C8504C0569538
:103090004795379527958A95D2F76623B1F05095D5
:1030A0004095309521953F4F4F4F5F4F0EC020E028
:1030B00030E040E050E009C02FEF3FEF4FEF5FE717
:1030C00004C020E030E040E050E8B901CA012C968D
:1030D000E2E00C94051BA8E0B0E0E1E7F8E10C9415
:1030E000E11A7B018C01611571058105910519F4C7
:1030F00082E0898360C083E089838EE1C82ED12C71
:10310000DC82CB82ED82FE820F831887C801B70173
:103110000E94E418FC013197F7FF3BC022273327B8
:103120002E1B3F0B57016801022E04C0D694C79492
:10313000B794A7940A94D2F740E050E060E070E0C2
:1031400081E090E0A0E0B0E004C0880F991FAA1FC2
:10315000BB1F2A95D2F70197A109B1098E219F21A2
:10316000A023B1230097A105B10521F041E050E073
:1031700060E070E04A295B296C297D294D835E83DC
:103180006F8378878EE190E08E1B9F0B9C838B83EF
:1031900012C0309781F00E2E04C0EE0CFF1C001FF1
:1031A000111F0A94D2F7ED82FE820F831887CE1A80
:1031B000DF0ADC82CB821A82CE0101960E9433198B
:1031C0002896EAE00C94FD1AEF92FF920F931F935A
:1031D0007B018C0180E0E81680E0F80681E00807BA
:1031E00080E0180788F48FEFE816F1040105110557
:1031F00031F028F088E090E0A0E0B0E017C080E077
:1032000090E0A0E0B0E012C080E0E81680E0F806B0
:1032100080E0080781E0180728F088E190E0A0E04E
:10322000B0E004C080E190E0A0E0B0E020E230E057
:1032300040E050E0281B390B4A0B5B0B04C016958D
:103240000795F794E7948A95D2F7F701E05EF94F76
:103250008081281B310941095109C9011F910F9132
:10326000FF90EF900895DF92EF92FF920F931F93DC
:10327000FC01E480F58006811781D1808081823055
:1032800048F480E090E0A0E1B0E0E82AF92A0A2BB7
:103290001B2BA5C0843009F49FC0823021F4EE249A
:1032A000FF24870105C0E114F1040105110519F49B
:1032B000E0E0F0E096C0628173819FEF62387907A9
:1032C0000CF05BC022E83FEF261B370B2A3131059B
:1032D0002CF020E030E040E050E02AC0B801A70127
:1032E000022E04C076956795579547950A94D2F7B4
:1032F00081E090E0A0E0B0E004C0880F991FAA1F11
:10330000BB1F2A95D2F70197A109B1098E219F21F0
:10331000A023B1230097A105B10521F081E090E041
:10332000A0E0B0E09A01AB01282B392B4A2B5B2B94
:10333000DA01C9018F779070A070B0708034910568
:10334000A105B10539F427FF09C0205C3F4F4F4F5D
:103350005F4F04C0215C3F4F4F4F5F4FE0E0F0E014
:103360002030A0E03A07A0E04A07A0E45A0710F096
:10337000E1E0F0E079018A0127C06038710564F569
:10338000FB01E158FF4FD801C7018F779070A07003
:10339000B07080349105A105B10539F4E7FE0DC088
:1033A00080E490E0A0E0B0E004C08FE390E0A0E013
:1033B000B0E0E80EF91E0A1F1B1F17FF05C0169587
:1033C0000795F794E794319687E016950795F7945B
:1033D000E7948A95D1F705C0EE24FF248701EFEF2B
:1033E000F0E06E2F679566276795902F9F77D794AB
:1033F000DD24D7948E2F8695492F462B582F5D2993
:10340000B701CA011F910F91FF90EF90DF900895CF
:10341000FC01DB01408151812281622F6F7770E0D6
:10342000221F2227221F9381892F880F822B282F6A
:1034300030E0991F9927991F11969C931197211598
:103440003105A9F5411551056105710511F482E0B9
:1034500037C082E89FEF13969C938E9312979A0140
:10346000AB0167E0220F331F441F551F6A95D1F748
:1034700083E08C930DC0220F331F441F551F1296FB
:103480008D919C911397019713969C938E9312970D
:10349000203080E0380780E0480780E4580758F380
:1034A00014962D933D934D935C93179708952F3F5A
:1034B000310579F4411551056105710519F484E070
:1034C0008C93089564FF03C081E08C9312C01C921A
:1034D00010C02F57304013963C932E93129783E0E1
:1034E0008C9387E0440F551F661F771F8A95D1F78D
:1034F000706414964D935D936D937C931797089524
:103500001F93DC01FB019C91923008F447C080813D
:10351000823008F443C0943051F411961C918430E9
:1035200099F58181682F70E0611B71093FC084307B
:1035300021F0923031F48230B9F18181882389F110
:103540002DC011961C9111978230F1F081811817CE
:10355000D9F412962D913C91139782819381821711
:10356000930794F028173907BCF014968D919D911C
:103570000D90BC91A02D248135814681578128175B
:1035800039074A075B0718F4112341F00AC0821774
:103590009307A407B50740F4112319F061E070E028
:1035A00005C06FEF7FEF02C060E070E0CB011F91BC
:1035B00008952F923F924F925F926F927F928F92D7
:1035C0009F92AF92BF92CF92DF92EF92FF920F93B2
:1035D0001F93CF93DF93CDB7DEB7CA1BDB0B0FB6BC
:1035E000F894DEBF0FBECDBF09942A883988488879
:1035F0005F846E847D848C849B84AA84B984C8840F
:10360000DF80EE80FD800C811B81AA81B981CE0F05
:10361000D11D0FB6F894DEBF0FBECDBFED010895EA
:10362000AEE0B0E0E6E1FBE10C94E71A0D891E89FB
:103630008F89988D97FF02C080E090E801979E8364
:103640008D831A83098386E08C839E01255E3F4F1C
:10365000CE010196698D7A8DA9010E946C1B4D8166
:103660005E8157FD0AC02F813885421753070CF43D
:103670009A01020F131FF80110822E96E4E00C94B9
:10368000031BAEE0B0E0E7E4FBE10C94E71A0D8920
:103690001E8986E08C831A8309838FEF9FE79E83C0
:1036A0008D839E01275E3F4FCE0101966F89788DF5
:1036B000A9010E946C1B2F813885020F131FF8018E
:1036C00010822E96E4E00C94031BACD220F09F37BE
:1036D00008F4C0C27EC298C2ABE0B0E0E2E7FBE112
:1036E0000C94D91A3C012B015A01FC011782168255
:1036F000838181FD03C06FEF7FEFC6C19AE0892E01
:103700001E010894211C311CF3012381F20123FDC9
:10371000859123FF81912F01882309F4B2C185325D
:1037200039F423FD859123FF81912F01853229F4FE
:1037300090E0B3010E945F1DE7CF982FFF24EE2495
:103740009924FFE1FF15D0F09B3269F09C3228F4F8
:10375000903259F0933291F40EC09D3249F090337B
:1037600069F441E024C052E0F52A84E0F82A28C038
:1037700098E0F92A25C0E0E1FE2A22C0F7FC29C022
:10378000892F80538A3070F4F6FE05C0989C902CE7
:103790001124980E15C0E89CE02C1124E80EF0E2EC
:1037A000FF2A0EC09E3229F4F6FC6BC140E4F42AD5
:1037B00007C09C3619F450E8F52A02C0983649F43F
:1037C000F20123FD959123FF91912F01992309F097
:1037D000B8CF892F8554833018F08052833038F465
:1037E00044E050E0A40EB51E5FE359830FC093364A
:1037F00031F0933779F0933509F056C020C0F501C8
:103800008081898342E050E0A40EB51E610101E091
:1038100010E012C0F501C080D180F6FC03C06FEF4C
:103820007FEF02C0692D70E042E050E0A40EB51EAB
:10383000C6010E94541D8C015FE7F52214C0F501FA
:10384000C080D180F6FC03C06FEF7FEF02C0692D0E
:1038500070E042E050E0A40EB51EC6010E94491D72
:103860008C0150E8F52AF3FE07C01AC080E290E010
:10387000B3010E945F1DEA948E2D90E0081719078E
:10388000A8F30EC0F601F7FC8591F7FE81916F0158
:1038900090E0B3010E945F1DE110EA9401501040D6
:1038A0000115110579F7EAC0943611F0993669F5DA
:1038B000F7FE08C0F501208131814281538184E007
:1038C00090E00AC0F501808191819C01442737FD79
:1038D0004095542F82E090E0A80EB91E9FE6F92291
:1038E00057FF09C050954095309521953F4F4F4F58
:1038F0005F4FE0E8FE2ACA01B901A1012AE030E0E9
:103900000E948B1DD82ED21840C0953729F41F2D48
:103910001F7E2AE030E01DC01F2D197F9F3661F009
:10392000903720F4983509F0ACC00FC0903739F0CB
:10393000983709F0A6C004C028E030E00AC0106142
:1039400014FD146020E130E004C014FD166020E195
:1039500032E017FF08C0F501608171818281938197
:1039600044E050E008C0F50180819181BC0180E015
:1039700090E042E050E0A40EB51EA1010E948B1D14
:10398000D82ED2188FE7F82EF122F6FE0BC05EEF8C
:10399000F522D91438F4F4FE07C0F2FC05C08FEE0E
:1039A000F82202C01D2D01C0192DF4FE0DC0FE012C
:1039B000ED0DF11D8081803319F499EEF92208C0D4
:1039C0001F5FF2FE05C003C08F2D867809F01F5FD0
:1039D0000F2DF3FC14C0F0FE0FC01E1510F09D2C2F
:1039E0000BC09D2C9E0C911A1E2D06C080E290E00B
:1039F000B3010E945F1D1F5F1E15C0F304C01E159A
:103A000010F4E11A01C0EE2404FF0FC080E390E03F
:103A1000B3010E945F1D02FF1DC001FD03C088E7C6
:103A200090E00EC088E590E00BC0802F867891F082
:103A300001FF02C08BE201C080E2F7FC8DE290E062
:103A4000B3010E945F1D06C080E390E0B3010E94B5
:103A50005F1D9A94D914C0F3DA94F101ED0DF11DB4
:103A6000808190E0B3010E945F1DDD20A9F706C0B0
:103A700080E290E0B3010E945F1DEA94EE20C1F75E
:103A800043CEF30166817781CB012B96E2E10C9462
:103A9000F51AFC010590615070400110D8F780952F
:103AA00090958E0F9F1F0895FC016150704001900A
:103AB0000110D8F7809590958E0F9F1F08950F9352
:103AC0001F93CF93DF938C01EB018B8181FF1BC090
:103AD00082FF0DC02E813F818C819D81281739077F
:103AE00064F4E881F9810193F983E88306C0E885ED
:103AF000F985802F0995892B31F48E819F8101965C
:103B00009F838E8302C00FEF1FEFC801DF91CF911B
:103B10001F910F910895FA01AA27283051F1203101
:103B200081F1E8946F936E7F6E5F7F4F8F4F9F4F51
:103B3000AF4FB1E03ED0B4E03CD0670F781F891F93
:103B40009A1FA11D680F791F8A1F911DA11D6A0F61
:103B5000711D811D911DA11D20D009F468943F9114
:103B60002AE0269F11243019305D3193DEF6CF0113
:103B70000895462F4770405D4193B3E00FD0C9F7D9
:103B8000F6CF462F4F70405D4A3318F0495D31FD46
:103B90004052419302D0A9F7EACFB4E0A695979599
:103BA000879577956795BA95C9F70097610571056F
:103BB00008959B01AC010A2E0694579547953795B9
:103BC0002795BA95C9F7620F731F841F951FA01D13
:103BD0000895882371F4772321F09850872B762F4E
:103BE00007C0662311F499270DC09051862B70E011
:103BF00060E02AF09A95660F771F881FDAF7880F22
:103C00009695879597F908959F3F31F0915020F44C
:103C1000879577956795B795880F911D96958795A8
:103C200097F9089525D0A0F0BEE7B91788F4BB270F
:103C30009F3860F41616B11D672F782F8827985F7C
:103C4000F7CF869577956795B11D93959639C8F30B
:103C50000895E894BB2766277727CB0197F9089545
:103C600057FD9058440F551F59F05F3F71F047952D
:103C7000880F97FB991F61F09F3F79F08795089512
:103C8000121613061406551FF2CF4695F1DF08C031
:103C9000161617061806991FF1CF8695710561054E
:083CA00008940895F894FFCF89
:103CA80020696E20706F776572206F6E2073746163
:103CB80074652066756E6374696F6E200020696E86
:103CC8002073656C6563742066756E6374696F6EC6
:103CD8002073746174652066756E6374696F6E20F5
:103CE800002066756E6374696F6E2073656C65631A
:103CF8007465643A200020616464206E65772070E2
:103D08006C616E742000206564697420637572723A
:103D1800656E7420706C616E74732000206D6F6E18
:103D280069746F722063757272656E7420706C614D
:103D38006E747320002046554E4354494F4E20530D
:103D4800454C454354454420002046756E637469CC
:103D58006F6E2043686F73656E203D200020696E8A
:103D6800207761726E696E6720737461746520666E
:103D7800756E6374696F6E20005761726E696E6745
:103D88003A20506C6561736520436865636B2074E5
:103D9800686520666F6C6C6F77696E6720506C6120
:103DA8006E7473202D20200020706C616E74312099
:103DB8000020706C616E7432200020706C616E742B
:103DC8003320002054656D706572617475726520CA
:103DD80000204D6F69737475726520002042726906
:103DE8006768746E65737320005761726E696E67D9
:103DF8003A204D617820506C616E74732052656171
:103E0800636865642E20506C656173652072656D0A
:103E18006F7665206120706C616E7420746F20610C
:103E280064642061206E6577206F6E6500204241D2
:103E3800434B2053454C4543544544200020696E6C
:103E4800206564697420706C616E7473207374618A
:103E580074652066756E6374696F6E2000204F501C
:103E680054494F4E5320544F2052454D4F564520EC
:103E78000025640020000000000000006261636B00
:103E880000434F554E543A20000A0A20706C616E68
:103E9800742073656C65637465643A20006D61789D
:103EA8005F6E756D5F6F7074696F6E735F726F743C
:103EB800657279207072657365743A20006D617857
:103EC8005F6E756D5F6F7074696F6E735F726F741C
:103ED80065727920706F73747365743A2000204F8F
:103EE8005054494F4E2053454C45435445442000B7
:103EF8002020006D61785F6E756D5F6F7074696FFB
:103F08006E735F726F746572792075706461746521
:103F18003A2000204F7074696F6E2043686F736594
:103F28006E203D2000206F7074696F6E2073656C81
:103F380065637465643A2000202020666F756E649E
:103F480000204272696768746E6573733A20000ACC
:103F5800004D6F6973747572653A20002054454DA1
:103F68005020006C6F772072616E67653A20006898
:103F78006967682072616E67653A200020494E20A3
:103F880052414E47452000204245535420002053BB
:103F980045434F4E4420424553540020544849520B
:103FA8004420424553542000204F5554534944451A
:103FB8002052414E47452000204D4F4953545552F9
:103FC80045200020686967682072616E67653A203D
:103FD80000204252494748544E4553532000257506
:103FE8000025642E253031640A00706C616E7420DF
:103FF800313A200025642E25640A00706C616E74C5
:1040080020323A200025642E2530316400706C611E
:104018006E7420333A200020696E20726573756CC7
:1040280074732073746174652066756E6374696F48
:104038006E20002073636F72657320313A20000A86
:104048000A504C414E542052414E4B494E473A205B
:10405800312E2000202F203130000A0A20322E2055
:10406800000A0A20332E200020706C616E742073C1
:10407800656C65637465643A200020504C414E5469
:104088002053454C4543544544200020506C616EF4
:10409800742043686F73656E203D200020464C41B4
:1040A80047204D415820504C414E545320524541D1
:1040B80043484544200054656D706572617475729B
:1040C800653A200020696E206D6F6E69746F7220EA
:1040D80073746174652066756E6374696F6E200011
:1040E800206261636B2000207761726E696E6720C1
:1040F800666C616720002031207365636F6E6420F1
:1041080000203330207365636F6E64200020696E71
:104118002063616C6962726174696F6E2073746187
:1041280074652066756E6374696F6E2000206E6F0B
:104138007420696E2073746174652000303001004A
:104148003003003043616C656E64756C61313235E3
:104158003835313030323030303135303039393926
:104168003939303030303000A30530004869626991
:1041780073637573333630393532303039393939FC
:10418800393939393939393939303030303000CA6C
:10419800053000004265676F6E6961323630373529
:1041A80032303039393930303030303031353030E4
:1041B800303030303000F105000000000000000011
:1041C80000010202030303030404040404040404B6
:1041D8000505050505050505050505050505050587
:1041E8000606060606060606060606060606060667
:1041F8000606060606060606060606060606060657
:104208000707070707070707070707070707070736
:104218000707070707070707070707070707070726
:104228000707070707070707070707070707070716
:104238000707070707070707070707070707070706
:1042480008080808080808080808080808080808E6
:1042580008080808080808080808080808080808D6
:1042680008080808080808080808080808080808C6
:1042780008080808080808080808080808080808B6
:1042880008080808080808080808080808080808A6
:104298000808080808080808080808080808080896
:1042A8000808080808080808080808080808080886
:1042B8000808080808080808080808080808080876
:00000001FF
