:100000000C9434000C9449000C9449000C94490061
:100010000C9449000C9449000C9449000C9449003C
:100020000C9449000C9449000C9449000C9449002C
:100030000C9449000C9449000C9449000C9449001C
:100040000C9449000C9449000C9449000C9449000C
:100050000C9449000C9449000C9449000C944900FC
:100060000C9449000C94490011241FBECFEFD8E036
:10007000DEBFCDBF11E0A0E0B1E0E8E4F3E002C0F4
:1000800005900D92AA30B107D9F70E943F010C9458
:10009000A2010C9400009093C5008093C400E1EC91
:1000A000F0E080818860808380818061808386E049
:1000B0008093C2000895982F8091C00085FFFCCFE7
:1000C0009093C6000895CF93DF93EC0105C0992764
:1000D00087FD90950E945B0089918823C1F7DF918D
:1000E000CF910895BF92CF92DF92EF92FF920F933C
:1000F0001F93CF93DF93B82EFB01D901E701411580
:10010000510531F40115110519F490E080E054C057
:1001100084EA8093BC008091BC0087FFFCCF909163
:10012000B900987F983009F09FC08B2D8E7F809307
:10013000BB0084E88093BC008091BC0087FFFCCFAB
:100140009091B900987F9831B1F0903209F08CC04D
:1001500088C080818093BB002093BC008091BC004C
:1001600087FFFCCF9091B900987F41505040983262
:10017000C9F4319601C024E84115510551F716C064
:100180008C918093BB002093BC008091BC0087FFC2
:10019000FCCF9091B900987F01501040983211F433
:1001A000119605C0903309F05FC05BC024E80115CB
:1001B000110531F791E081E0C114D10409F44EC07A
:1001C000882311F428E001C020E184EA8093BC0078
:1001D0008091BC0087FFFCCF9091B900987F921767
:1001E00009F042C081E0B82AB092BB0084E8809355
:1001F000BC008091BC0087FFFCCF9091B900987F34
:10020000903419F0983481F52CC00894C108D108B5
:1002100024EC11C02093BC008091BC0087FFFCCF70
:100220009091B900987F0894C108D1089035E1F405
:100230008091BB008993C114D10461F784E8809355
:10024000BC008091BC0087FFFCCF9091B900987FE3
:10025000983551F48091BB00888302C0992321F026
:1002600090E084E98093BC00892FDF91CF911F91AA
:100270000F91FF90EF90DF90CF90BF900895CF92B5
:10028000DF92EF92FF920F931F93DF93CF9300D0F3
:100290000F92CDB7DEB78FE390E09093C5008093C7
:1002A000C4008091C10088608093C1008091C1002A
:1002B00080618093C10086E08093C2001092B900F3
:1002C0008BE58093B80080E395E725EF30E0F901F6
:1002D0003197F1F70197D9F78EEF898385E48A8307
:1002E00080E48B8380E560E070E040E050E09E01B8
:1002F0002F5F3F4F03E010E0EE24FF24CC24DD24E9
:100300000E94720080E090E60197F1F780E560E0DE
:1003100070E040E050E020E031E009E010E00E94B1
:1003200072000F900F900F90CF91DF911F910F915E
:10033000FF90EF90DF90CF9008951092B9008093D6
:08034000B8000895F894FFCF06
:0A034800736F6D657468696E6700DD
:00000001FF
