:100000000C9434000C9451000C9451000C94510049
:100010000C944C030C9451000C9451000C9451001E
:100020000C9451000C9451000C9451000C9451000C
:100030000C9451000C9451000C9451000C945100FC
:100040000C9451000C9451000C9451000C945100EC
:100050000C9451000C9451000C9451000C945100DC
:100060000C9451000C94510011241FBECFEFD8E026
:10007000DEBFCDBF18E0A0E0B1E0ECE1FDE402C0DE
:1000800005900D92A039B107D9F718E0A0E9B8E0C2
:1000900001C01D92AC3BB107E1F70E94E01B0C943C
:1000A0008C260C9400009093C5008093C400E1EC72
:1000B000F0E080818860808380818061808386E039
:1000C0008093C2000895982F8091C00085FFFCCFD7
:1000D0009093C6000895CF93DF93EC0105C0992754
:1000E00087FD90950E94630089918823C1F7DF9175
:1000F000CF9108958091C00087FFFCCF8091C6000A
:100100000895BF92CF92DF92EF92FF920F931F93C9
:10011000CF93DF93B82EFB01D901E70141155105BB
:1001200031F40115110519F490E080E054C084EA1F
:100130008093BC008091BC0087FFFCCF9091B900F8
:10014000987F983009F0A1C08B2D8E7F8093BB00E3
:1001500084E88093BC008091BC0087FFFCCF909125
:10016000B900987F9831B1F0903209F08EC08AC002
:1001700080818093BB002093BC008091BC0087FFEE
:10018000FCCF9091B900987F415050409832C9F40B
:10019000319601C024E84115510551F716C08C91E4
:1001A0008093BB002093BC008091BC0087FFFCCFF4
:1001B0009091B900987F01501040983211F4119637
:1001C00005C0903309F061C05DC024E80115110538
:1001D00031F791E081E0C114D10409F44EC09923B4
:1001E00011F428E001C020E184EA8093BC008091F2
:1001F000BC0087FFFCCF9091B900987F921709F05F
:1002000044C081E0B82AB092BB0084E88093BC006F
:100210008091BC0087FFFCCF9091B900987F90340B
:1002200019F0983491F52EC00894C108D10824EC37
:1002300011C02093BC008091BC0087FFFCCF90913F
:10024000B900987F0894C108D1089035F1F48091E5
:10025000BB008993C114D10461F784E88093BC008A
:100260008091BC0087FFFCCF9091B900987F9835B2
:1002700061F48091BB00888304C0882311F490E06E
:1002800004C090E084E98093BC00892FDF91CF9176
:100290001F910F91FF90EF90DF90CF90BF90089546
:1002A0001092B9008093B8000895529A5A988CEC35
:1002B0009CEA0197F1F752984A9BFECF08954A991C
:1002C000FECF4A9BFECF4A99FECF089540E050E012
:1002D00020E030E063EA4A9BFECF862F8A95F1F753
:1002E000C901880F991F4A9B03C09C01216001C06E
:1002F0009C014A99FECF4F5F5F4F4830510559F737
:10030000C9010895569A5E9808955E9A80E090E635
:100310000197F1F7089580E090E60197F1F75E9874
:1003200008953B9880917C00806480937C0080914C
:100330007C008F7780937C0080917C00806280932A
:100340007C0080917C00836080937C0080917C00A5
:10035000837F80937C0080917A00876080937A000D
:1003600080917A00806880937A0080917A0080641E
:1003700080937A0080917A0086FDFCCF809179008D
:1003800090E008950F931F93182F062F80E091E0BF
:100390000E946B00113311F482E305C0003311F0A9
:1003A00083E301C085E38093B3081F910F91089503
:1003B000CF92DF92EF92FF920F931F93DF93CF9331
:1003C00000D0CDB7DEB71092B90082E48093B800B8
:1003D0008EEF898381E58A8380E560E070E040E00C
:1003E00050E09E012F5F3F4F02E010E0EE24FF241B
:1003F000CC24DD240E94810080E090E60197F1F793
:100400000F900F90CF91DF911F910F91FF90EF9080
:10041000DF90CF900895CF92DF92EF92FF920F93EB
:100420001F93DF93CF9300D00F92CDB7DEB78EEF3F
:10043000898385E48A831B8280E560E070E040E088
:1004400050E09E012F5F3F4F03E010E0EE24FF24B9
:10045000CC24DD240E94810080E090E60197F1F732
:100460000F900F900F90CF91DF911F910F91FF9000
:10047000EF90DF90CF900895CF92DF92EF92FF92AE
:100480000F931F93DF93CF9300D00F92CDB7DEB7BA
:100490008EEF898385E48A8380E48B8380E560E046
:1004A00070E040E050E09E012F5F3F4F03E010E01E
:1004B000EE24FF24CC24DD240E94810080E090E61D
:1004C0000197F1F70F900F900F90CF91DF911F914F
:1004D0000F91FF90EF90DF90CF900895CF92DF9231
:1004E000EF92FF920F931F93DF93CF9300D00F9261
:1004F000CDB7DEB78EEF898385E48A8384E18B8371
:1005000080E560E070E040E050E09E012F5F3F4FEB
:1005100003E010E0EE24FF24CC24DD240E948100BF
:1005200080E090E60197F1F70F900F900F90CF9138
:10053000DF911F910F91FF90EF90DF90CF90089582
:10054000CF92DF92EF92FF920F931F93DF93CF939F
:1005500000D00F92CDB7DEB78EEF898385E48A8312
:1005600084E58B8380E560E070E040E050E09E0130
:100570002F5F3F4F03E010E0EE24FF24CC24DD2466
:100580000E94810080E090E60197F1F70F900F90B4
:100590000F90CF91DF911F910F91FF90EF90DF901F
:1005A000CF900895CF92DF92EF92FF920F931F9317
:1005B0009C018B0180E560E070E040E050E0EE24BB
:1005C000FF24CC24DD240E94810080E090E6019786
:1005D000F1F71F910F91FF90EF90DF90CF9008956A
:1005E00086B1282F2270382F347080919308909113
:1005F0009408892B09F041C03323E9F42223C1F187
:1006000081E08093B9082091990830919A088091EF
:100610009B0890919C080197281739073CF42F5F9D
:100620003F4F30939A082093990819C010929A0866
:100630001092990814C0222321F582E08093B90812
:100640008091990890919A08009721F480919B08D5
:1006500090919C08019790939A088093990881E360
:100660008093100781E090E0909394088093930822
:1006700010920F0710920E070895332361F0222382
:1006800051F081E090E090930F0780930E07109255
:1006900094081092930808951F920F920FB60F922C
:1006A00011242F933F934F935F936F937F938F9377
:1006B0009F93AF93BF93EF93FF930E94F00280E06C
:1006C00090E60197F1F7FF91EF91BF91AF919F9164
:1006D0008F917F916F915F914F913F912F910F90EB
:1006E0000FBE0F901F9018952F923F924F925F92DE
:1006F0006F927F928F929F92AF92BF92CF92DF9232
:10070000EF92FF920F931F93DF93CF93CDB7DEB796
:10071000C057D0400FB6F894DEBF0FBECDBF1092C9
:10072000B9008DE18093B80080E395E725EF30E0D4
:10073000F9013197F1F70197D9F783E090E09A8BAF
:10074000898B988B8F871E861D8681E090E09C8721
:100750008B8784EB90E09A87898783EB90E098877A
:100760008F8381EA90E09E838D8380EA90E09C8372
:100770008B8382EB90E09A83898382E5BE016F5F71
:100780007F4F41E050E020E030E000E010E0E5E3A2
:10079000EE2EF12CEC0EFD1E91E0C92ED12C0E9404
:1007A00081008DA99EA98035910521F48DE191E00C
:1007B0000E946B0003E0602E712C6C0E7D1E1BE00E
:1007C000412E512C4C0E5D1EB9E4AB2EB12CAC0E5B
:1007D000BD1E82E5B30141E050E0920101E010E06E
:1007E0007501A1E0CA2ED12C0E948100D5018D9106
:1007F0009C91019719F486E291E002C083E391E0B5
:100800000E946B00F5E02F2E312C2C0E3D1E82E550
:10081000B10141E050E09E01215F3F4F01E010E057
:10082000EE24FF24CC24DD240E94810080E395E7A0
:1008300025EF30E0F9013197F1F70197D9F782E51B
:10084000B30141E050E09E012F5E3F4F01E010E018
:10085000EDE5EE2EF12CEC0EFD1E91E0C92ED12C13
:100860000E94810080E395E725EF30E0F9013197A0
:10087000F1F70197D9F717E0812E912C8C0E9D1E70
:10088000B1E2AB2EB12CAC0EBD1E82E5B40141E04D
:1008900050E020E030E000E010E07501A1E0CA2E59
:1008A000D12C0E94810089A1803379F382E5BE01B9
:1008B000675F7F4F41E050E020E030E0F3E1EF2E52
:1008C000F12CEC0EFD1EE4E0CE2ED12C0E94810016
:1008D00082E5B30141E050E0920101E010E0EE2436
:1008E000FF24CC24DD240E94810081E491E00E9459
:1008F0006B009C8980E0AB88BB24A82AB92A57E109
:10090000852E912C8C0E9D1EEDB7FEB738970FB635
:10091000F894FEBF0FBEEDBF3196ADB7BEB71296CD
:100920009C928E9211974AE0442E512C538242821F
:1009300031E5632E31E0732E75826482B782A68220
:100940000E944A23EDB7FEB738960FB6F894FEBF63
:100950000FBEEDBF84E591E00E946B00C4010E94D0
:100960006B0082E5B10141E050E09E01235F3F4F03
:100970000E94810086E591E00E946B008DB79EB7D2
:1009800008970FB6F8949EBF0FBE8DBFEDB7FEB7A8
:100990003196ADB7BEB712969C928E921197538244
:1009A000428275826482B782A6820E944A23EDB792
:1009B000FEB738960FB6F894FEBF0FBEEDBFC40168
:1009C0000E946B0084E591E00E946B00B092B20837
:1009D000A092B108C059DF4F0FB6F894DEBF0FBE2A
:1009E000CDBFCF91DF911F910F91FF90EF90DF90DE
:1009F000CF90BF90AF909F908F907F906F905F90BF
:100A00004F903F902F9008950F931F93DF93CF93B4
:100A100000D000D0CDB7DEB72DB73EB7285030405C
:100A20000FB6F8943EBF0FBE2DBFEDB7FEB731969F
:100A30008E010F5F1F4FADB7BEB712961C930E937A
:100A4000119724E030E03383228321E531E03583C0
:100A50002483978386830E944A232DB73EB7285F5D
:100A60003F4F0FB6F8943EBF0FBE2DBFC8010E9486
:100A70006B000F900F900F900F90CF91DF911F910F
:100A80000F910895EF92FF920F931F93569A5E98DD
:100A90005E9AE12CF0E6FF2EC7010197F1F70E9464
:100AA00091018C0184E691E00E946B00C8010E94D4
:100AB0000405C7010197F1F75E981093BB080093F6
:100AC000BA081F910F91FF90EF900895CF92DF9297
:100AD000EF92FF920F931F93282FE82FF92FDF013A
:100AE0000D900020E9F71197AE1BBF0B80E560E089
:100AF00070E040E050E0392F8D01EE24FF24CC243B
:100B0000DD240E94810080E090E60197F1F71F91BB
:100B10000F91FF90EF90DF90CF9008956F927F92AA
:100B20008F929F92AF92BF92CF92DF92EF92FF92FD
:100B30000F931F93DF93CF930F92CDB7DEB78FE65E
:100B400091E00E946B0080910D07803309F0CAC0CC
:100B50008BE891E00E946B000E94D8018AEB91E043
:100B60000E946605CC24DD24AA24BB243E010894FF
:100B7000611C711CC114D10439F4E0903807F09065
:100B800039078FEC91E011C081E0C816D10439F427
:100B9000E0905F07F090600788ED91E006C0E0907C
:100BA0008607F090870781EE91E00E946B00F701C5
:100BB0008081813309F08DC0A1E28A2E912C8E0CA8
:100BC0009F1C81A1803339F482A1803321F483A159
:100BD000803309F47BC021E030E0F701E20FF31F1E
:100BE000E0818091C00085FFFCCFE093C6002F5FBD
:100BF0003F4F2A30310589F70E943C02F1E0AF16E1
:100C0000B10429F40E946E0201E010E007C082E006
:100C1000A816B104C9F70E94A002F6CFF701E00FB1
:100C2000F11F80818983C30161E070E00E94D202DC
:100C30000F5F1F4F0A30110589F78AEE91E00E947D
:100C40006605F4018081803399F08CEE91E00E947A
:100C50006B00F4018081813319F48AEF91E002C0C6
:100C60008CEF91E00E9466058EEF91E00E94660590
:100C7000F70182A1803399F081E092E00E946B003D
:100C8000F70182A1813319F48AEF91E002C08CEF61
:100C900091E00E9466058CE092E00E946605F701F3
:100CA00083A1803399F08FE092E00E946B00F701FE
:100CB00083A1813319F48AEF91E002C08CEF91E0B7
:100CC0000E9466058CE192E00E9466050894A11CD2
:100CD000B11C0894C11CD11CF3E0CF16D10409F05B
:100CE00049CF16C08FE192E00E946B000E94D801AC
:100CF00083E692E00E9466050E943C0285E792E04E
:100D00000E9466050E946E028AE892E00E946605D3
:100D100080E593EC25EF30E0F9013197F1F7019789
:100D2000D9F71899FECF8CE992E00E946B0080E31E
:100D300080930D0783E38093B3080F90CF91DF91E9
:100D40001F910F91FF90EF90DF90CF90BF90AF90E9
:100D50009F908F907F906F9008952F923F924F9227
:100D60005F926F927F928F929F92AF92BF92CF923B
:100D7000DF92EF92FF920F931F93DF93CF93CDB744
:100D8000DEB72A970FB6F894DEBF0FBECDBF8CEA50
:100D900092E00E946B000E94D80181E090E0909365
:100DA0009A088093990820983A98399888B1866073
:100DB00088B98091680082608093680080916C009F
:100DC000866080936C00189BFECF789486B1982F34
:100DD000927082FD07C0992319F41092B90809C0D6
:100DE00081E005C0992311F482E001C083E0809383
:100DF000B9088091B9088093B8088CEC92E00E9401
:100E00006B00E0913807F09139078081813321F040
:100E1000E1E08E2E912C65C08DB79EB708970FB676
:100E2000F8949EBF0FBE8DBFEDB7FEB731968E0111
:100E30000E5F1F4FADB7BEB712961C930E9311975E
:100E400085E090E09383828381E591E095838483BC
:100E500081E090E0978386830E944A23EDB7FEB736
:100E600038960FB6F894FEBF0FBEEDBF8AEE91E044
:100E70000E946B00C8010E946B004091380750919E
:100E8000390721E030E0FA01E20FF31FE0818091A1
:100E9000C00085FFFCCFE093C6002F5F3F4F2A3094
:100EA000310589F780EE92E00E94660501E010E0CE
:100EB0005E010894A11CB11CE0913807F09139073C
:100EC000E00FF11F80818983C50161E070E00E941D
:100ED000D2020F5F1F4F0A30110571F772E0872EA3
:100EE000912C8AEE91E00E946B00E0915F07F091F7
:100EF00060078081813309F069C08DB79EB708977C
:100F00000FB6F8949EBF0FBE8DBFEDB7FEB73196FA
:100F10008E010E5F1F4FADB7BEB712961C930E9396
:100F2000119785E090E09383828381E591E095833A
:100F30008483978286820E944A23EDB7FEB7389653
:100F40000FB6F894FEBF0FBEEDBF8AEE91E00E948F
:100F50006B00C8010E946B0040915F0750916007D1
:100F600021E030E0FA01E20FF31FE0818091C00040
:100F700085FFFCCFE093C6002F5F3F4F2A3031053D
:100F800089F7F2E08F16910411F40E943C0280EE82
:100F900092E00E94660501E010E05E010894A11C49
:100FA000B11CE0915F07F0916007E00FF11F8081B5
:100FB0008983C50161E070E00E94D2020F5F1F4F7C
:100FC0000A30110571F70894811C911C8AEE91E09A
:100FD0000E946B00E0918607F09187078081813342
:100FE00009F070C08DB79EB708970FB6F8949EBFF2
:100FF0000FBE8DBFEDB7FEB731968E010E5F1F4F4E
:10100000ADB7BEB712961C930E93119785E090E092
:101010009383828381E591E095838483978286829E
:101020000E944A23EDB7FEB738960FB6F894FEBF7C
:101030000FBEEDBF8AEE91E00E946B00C8010E94D6
:101040006B00409186075091870721E030E0FA015C
:10105000E20FF31FE0818091C00085FFFCCFE09399
:10106000C6002F5F3F4F2A30310589F7F2E08F1617
:10107000910419F40E943C0206C083E08816910492
:1010800011F40E946E0280EE92E00E94660501E07B
:1010900010E05E010894A11CB11CE0918607F0915C
:1010A0008707E00FF11F80818983C50161E070E04F
:1010B0000E94D2020F5F1F4F0A30110571F708948A
:1010C000811C911C8AEE91E00E946B0092E08916CF
:1010D000910419F40E943C020DC0A3E08A16910409
:1010E00019F40E946E0206C0B4E08B16910411F44C
:1010F0000E94A00289EE92E00E94660561EFA62E92
:1011000062E0B62EF50190818091C00085FFFCCF92
:101110009093C6000894A11CB11CFAEFAF16F2E040
:10112000BF0681F78BEF92E00E946B008DB79EB7F0
:1011300008970FB6F8949EBF0FBE8DBFEDB7FEB7F0
:1011400031968E010E5F1F4FADB7BEB712961C933E
:101150000E93119785E090E09383828381E591E07F
:1011600095838483978286820E944A23EDB7FEB7D7
:1011700038960FB6F894FEBF0FBEEDBFC8010E94AF
:101180006B0083E093E00E946B008091990890913E
:101190009A08009729F486EF9FEFA80EB91E3FC06A
:1011A00081309105B1F46090380770903907D30110
:1011B0008C91813371F160905F0770906007F3014B
:1011C0008081813331F1A0908607B0908707350187
:1011D00026C082309105B1F4A0905F07B0906007FF
:1011E000D5018C91813329F4662477246A147B0419
:1011F000B1F4A0908607B0908707F5018081813314
:1012000051F40DC0039739F4A0908607B09087077A
:1012100006C0530104C080E090E09C01590121E028
:1012200030E0F501E20FF31FE0818091C00085FFFF
:10123000FCCFE093C6002F5F3F4F2A30310589F77E
:1012400087E193E00E946B008DB79EB708970FB6B9
:10125000F8949EBF0FBE8DBFEDB7FEB731968E01DD
:101260000E5F1F4FADB7BEB712961C930E9311972A
:1012700055E0C52ED12CD382C28241E5E42E41E057
:10128000F42EF582E48280919B0890919C089783CC
:1012900086830E944A23EDB7FEB738960FB6F894BE
:1012A000FEBF0FBEEDBFC8010E946B0090929C086C
:1012B00080929B0887E393E00E946B008DB79EB7F6
:1012C00008970FB6F8949EBF0FBE8DBFEDB7FEB75F
:1012D0003196ADB7BEB712961C930E931197D38279
:1012E000C282F582E48280919B0890919C0897834A
:1012F00086830E944A23EDB7FEB738960FB6F8945E
:10130000FEBF0FBEEDBFC8010E946B00809199081F
:1013100090919A08009709F066C0F2E08F16910448
:1013200089F40E940B028AEE91E00E9466050E94F9
:101330003C0288E593E00E9466050E946E028AEEF8
:1013400091E014C083E08816910491F50E940B028D
:101350008AEE91E00E9466050E943C028AEE91E0CE
:101360000E9466050E946E0288E593E00E94660571
:101370000E94A0028AEE91E00E94660530EFA32E43
:1013800032E0B32E90E39A87998798879F8322E073
:10139000E22EF12CEC0EFD1E95E0492E512C81E53C
:1013A000C82E81E0D82E1E010894211C311CA9C32F
:1013B000A4E08A16910411F70E940B028AEE91E0D4
:1013C0000E9466050E943C028AEE91E00E9466053A
:1013D0000E946E028AEE91E00E9466050E94A002C1
:1013E00088E593E0C9CF8130910511F56090380709
:1013F00070903907F3018081813371F060905F074D
:1014000070906007D3018C91813331F0A0908607F2
:10141000B0908707350101C053010E940B0288E597
:1014200093E00E9466050E943C028AEE91E01FC094
:101430008230910519F5E0915F07F0916007808196
:10144000813319F46E167F0639F4E0918607F09126
:1014500087078081813309F45F010E940B028AEEC5
:1014600091E00E9466050E943C0288E593E00E949C
:1014700066050E946E028AEE91E017C0039709F09C
:1014800081CFA0908607B09087070E940B028AEE5A
:1014900091E00E9466050E943C028AEE91E00E9463
:1014A00066050E946E0288E593E00E9466050E9430
:1014B000A0028AEE91E00E94660564CF18993DC2B1
:1014C0008091910890919208892B09F036C28AE5A3
:1014D00093E00E946B00E1E0F0E0F0939208E0936B
:1014E00091088CE693E00E946B0021E030E0F5016A
:1014F000E20FF31FE0818091C00085FFFCCFE093F5
:10150000C6002F5F3F4F2A30310589F7F0EFAF1645
:10151000F2E0BF0619F481E389871AC08091380789
:1015200090913907A816B90671F080915F079091E4
:101530006007A816B90639F0809186079091870751
:10154000A816B90629F4E0E3D501EC93F1E3F88796
:10155000E0913807F09139078081813321F402E06E
:10156000802E912C03C011E0812E912CE0915F0719
:10157000F09160078081813319F40894811C911CDB
:10158000E0918607F09187078081813319F40894F0
:10159000811C911C90929C0880929B088FE693E09E
:1015A0000E946B008DB79EB708970FB6F8949EBF48
:1015B0000FBE8DBFEDB7FEB73196ADB7BEB7129671
:1015C000FC92EE92119753824282D582C48280911E
:1015D0009B0890919C08978386830E944A23EDB7CD
:1015E000FEB738960FB6F894FEBF0FBEEDBFC70129
:1015F0000E946B008FE893E00E946B0021E030E0D6
:10160000F501E20FF31FE0818091C00085FFFCCF60
:10161000E093C6002F5F3F4F2A30310589F790E0F5
:10162000E0913807F09139078081803309F491E027
:1016300020E0E0915F07F09160078081803309F43A
:1016400021E09223292F30E040E050E0E09186072E
:10165000F09187078081803311F441E050E024232A
:101660003523232B11F0F1E3FA878985813309F4BF
:101670006AC10E94D801E0913807F0913907808152
:10168000813309F057C0ADB7BEB718970FB6F894BD
:10169000BEBF0FBEADBFEDB7FEB731961296FC923E
:1016A000EE92119753824282D582C48297828682BB
:1016B0000E944A23EDB7FEB738960FB6F894FEBFE6
:1016C0000FBEEDBF8AEE91E00E946B00C7010E9441
:1016D0006B00409138075091390721E030E0FA0162
:1016E000E20FF31FE0818091C00085FFFCCFE09303
:1016F000C6002F5F3F4F2A30310589F70E940B0249
:1017000080EE92E00E94660501E010E0E09138076B
:10171000F0913907E00FF11F80818983C10161E0F9
:1017200070E00E94D2020F5F1F4F0A30110571F75F
:10173000F1E3FF838AEE91E00E946B00E0915F0786
:10174000F09160078081813309F05EC08DB79EB74C
:1017500008970FB6F8949EBF0FBE8DBFEDB7FEB7CA
:101760003196ADB7BEB71296FC92EE9211975382A6
:101770004282D582C482978286820E944A23EDB734
:10178000FEB738960FB6F894FEBF0FBEEDBF8AEED7
:1017900091E00E946B00C7010E946B0040915F07BF
:1017A0005091600721E030E0FA01E20FF31FE08181
:1017B0008091C00085FFFCCFE093C6002F5F3F4FB4
:1017C0002A30310589F7F3E08F16910429F48F81CF
:1017D000813311F40E943C0280EE92E00E94660583
:1017E00001E010E0E0915F07F0916007E00FF11F6A
:1017F00080818983C10161E070E00E94D2020F5FA5
:101800001F4F0A30110571F78AEE91E00E946B00BC
:10181000E0918607F09187078081813309F060C0ED
:10182000ADB7BEB718970FB6F894BEBF0FBEADBF29
:10183000EDB7FEB731961296FC92EE921197538255
:101840004282D582C482978286820E944A23EDB763
:10185000FEB738960FB6F894FEBF0FBEEDBF8AEE06
:1018600091E00E946B00C7010E946B0040918607C7
:101870005091870721E030E0FA01E20FF31FE08189
:101880008091C00085FFFCCFE093C6002F5F3F4FE3
:101890002A30310589F7F3E08F16910419F40E947C
:1018A0003C0206C084E08816910411F40E946E0286
:1018B00080EE92E00E94660501E010E0E09186076C
:1018C000F0918707E00FF11F80818983C10161E0FA
:1018D00070E00E94D2020F5F1F4F0A30110571F7AE
:1018E0008AEE91E00E946B0092E08916910419F44F
:1018F0000E943C020DC0A3E08A16910419F40E94D4
:101900006E0206C0B4E08B16910411F40E94A0028E
:1019100089EE92E00E946605E1EFF2E0908180910D
:10192000C00085FFFCCF9093C600319682E0EA3F6D
:10193000F807A1F70E940B0206C0189B04C0109282
:1019400092081092910880911007813309F0D9C054
:1019500081EA93E00E946B008091990890919A0827
:10196000009709F051C092E08916910489F40E9411
:101970000B028AEE91E00E9466050E943C0288E517
:1019800093E00E9466050E946E028AEE91E014C008
:10199000A3E08A169104B9F40E940B028AEE91E04A
:1019A0000E9466050E943C028AEE91E00E94660554
:1019B0000E946E0288E593E00E9466050E94A002E4
:1019C0008AEE91E01AC0B4E08B169104C1F40E9433
:1019D0000B028AEE91E00E9466050E943C028AEEAC
:1019E00091E00E9466050E946E028AEE91E00E94DC
:1019F00066050E94A00288E593E00E946605B0EFAC
:101A0000AB2EB2E0BB2E69C08130910511F560901C
:101A1000380770903907F3018081813371F060904D
:101A20005F0770906007D3018C91813331F0A090F3
:101A30008607B0908707350101C053010E940B0251
:101A400088E593E00E9466050E943C028AEE91E0E0
:101A50001FC08230910519F5E0915F07F091600792
:101A60008081813319F46E167F0639F4E091860780
:101A7000F09187078081813309F45F010E940B0296
:101A80008AEE91E00E9466050E943C0288E593E0A0
:101A90000E9466050E946E028AEE91E016C00397CE
:101AA000E1F4A0908607B09087070E940B028AEEAF
:101AB00091E00E9466050E943C028AEE91E00E943D
:101AC00066050E946E0288E593E00E9466050E940A
:101AD000A0028AEE91E00E94660521E030E0F50167
:101AE000E20FF31FE0818091C00085FFFCCFE093FF
:101AF000C6002F5F3F4F2A30310589F7B0E3B0931E
:101B00001007E985E13321F0FA85F13309F0D6CCED
:101B10008885813339F480910C07813319F480E38F
:101B200080930C079A85913311F482E304C0A98550
:101B3000A13319F483E38093B3082A960FB6F8947F
:101B4000DEBF0FBECDBFCF91DF911F910F91FF90F0
:101B5000EF90DF90CF90BF90AF909F908F907F904D
:101B60006F905F904F903F902F900895CF92DF92AB
:101B7000EF92FF920F931F93DF93CF93CDB7DEB712
:101B8000C556D0400FB6F894DEBF0FBECDBF813032
:101B9000910529F4E0903807F09039070BC00297BF
:101BA00029F4E0905F07F090600704C0E09086079A
:101BB000F09087070E94D8010E940B0201E010E01C
:101BC0006E010894C11CD11CF701E00FF11F808148
:101BD0008983C60161E070E00E94D2020F5F1F4F4F
:101BE0000A30110589F70E943C0284EB93E00E94C1
:101BF0006605D7011B968C918983C60161E070E070
:101C00000E94D202F70184858983C60161E070E0F9
:101C10000E94D20288EB93E00E946605D7011D96D0
:101C20008C918983C60161E070E00E94D202F701C5
:101C300086858983C60161E070E00E94D2028AEE47
:101C400091E00E9466058DB79EB708970FB6F8948D
:101C50009EBF0FBE8DBFEDB7FEB731968E010E5FF2
:101C60001F4FADB7BEB712961C930E93119784E623
:101C700090E09383828381E591E0958384838091D2
:101C8000B4089091B508978386830E944A23EDB7E4
:101C9000FEB738960FB6F894FEBF0FBEEDBFC80171
:101CA0000E9466058AEE91E00E946B000E946E021F
:101CB0008AEB93E00E9466050FE010E06E01089445
:101CC000C11CD11CF701E00FF11F80818983C6017F
:101CD00061E070E00E94D2020F5F1F4F02311105D8
:101CE00089F788EB93E00E9466056E010894C11C99
:101CF000D11CF701E00FF11F80818983C60161E0EB
:101D000070E00E94D2020F5F1F4F0531110589F765
:101D10008AEE91E00E9466058DB79EB708970FB6D0
:101D2000F8949EBF0FBE8DBFEDB7FEB731968E0102
:101D30000E5F1F4FADB7BEB712961C930E9311974F
:101D400084E690E09383828381E591E095838483A8
:101D50008091BA089091BB08978386830E944A239A
:101D6000EDB7FEB738960FB6F894FEBF0FBEEDBFC5
:101D7000C8010E9466050E94A0028EEB93E00E94BB
:101D8000660506E110E06E010894C11CD11CF70144
:101D9000E00FF11F80818983C60161E070E00E943D
:101DA000D2020F5F1F4F0A31110589F788EB93E0CC
:101DB0000E9466050BE110E06E010894C11CD11C65
:101DC000F701E00FF11F80818983C60161E070E0B7
:101DD0000E94D2020F5F1F4F0F31110589F78AEE63
:101DE00091E00E9466058DB79EB708970FB6F894EC
:101DF0009EBF0FBE8DBFEDB7FEB731968E010E5F51
:101E00001F4FADB7BEB712961C930E93119784E681
:101E100090E09383828381E591E095838483809130
:101E2000B1089091B208978386830E944A23EDB748
:101E3000FEB738960FB6F894FEBF0FBEEDBFC801CF
:101E40000E9466051899FECFCB59DF4F0FB6F89464
:101E5000DEBF0FBECDBFCF91DF911F910F91FF90DD
:101E6000EF90DF90CF9008950F931F93CF93DF9360
:101E700082EC93E00E946B000E94D80186EE93E012
:101E80000E9466050E943C0287EF93E00E9466056F
:101E90000E946E0289E094E00E9466050E94A00202
:101EA00089E194E00E94660510929A0810929908C0
:101EB00083E090E090939C0880939B0820983A9848
:101EC000399888B1866088B9809168008260809373
:101ED000680080916C00866080936C00789486B175
:101EE000982F927082FD07C0992319F41092B908B7
:101EF00009C081E005C0992311F482E001C083E0AC
:101F00008093B9088091B9088093B808189BFECFD8
:101F10008CE294E00E946B008091990890919A085D
:101F2000009739F481E494E00E946B000E943C0227
:101F30000FC0019739F481E594E00E946B000E9484
:101F40006E0206C087E694E00E946B000E94A00229
:101F500088E593E00E946605C1E0D0E000E31899AF
:101F600010C08091910890919208892B51F480E8DB
:101F700094E00E946B00D0939208C093910811E303
:101F800007C0189B04C0109292081092910810E3A9
:101F900080911007813309F048C08CE294E00E94E0
:101FA0006B008091990890919A08009779F481E4E8
:101FB00094E00E946B000E943C0288E593E00E943E
:101FC00066050E946E028AEE91E010C00197A9F4A6
:101FD00081E594E00E946B000E943C028AEE91E051
:101FE0000E9466050E946E0288E593E00E946605E5
:101FF0000E94A0028AEE91E014C087E694E00E945D
:102000006B000E943C028AEE91E00E9466050E94ED
:102010006E028AEE91E00E9466050E94A00288E5A9
:1020200093E00E94660500931007103309F497CFE0
:1020300084E994E00E946B008091990890919A083D
:10204000009719F481E494E007C0019719F481E541
:1020500094E002C087E694E00E946B0080919908AA
:1020600090919A088230910511F487E312C0813073
:10207000910511F484E30DC0892B69F480910C075C
:10208000803311F482E305C0813329F480930D0776
:1020900086E38093B308DF91CF911F910F9108954C
:1020A0002F923F924F925F926F927F928F929F9268
:1020B000AF92BF92CF92DF92EF92FF920F931F9356
:1020C000DF93CF93CDB7DEB7CE57D0400FB6F8949D
:1020D000DEBF0FBECDBF442455244114510439F452
:1020E000E0903807F09039078FEC91E011C021E0C3
:1020F0004216510439F4E0905F07F090600788EDD4
:1021000091E006C0E0908607F090870781EE91E0AD
:102110000E946B0088EA94E00E946B008FEA94E0D2
:102120000E946B009BE0C92ED12CCE0CDF1CD70186
:102130001B968C91BAE08B02800111248CE0A82EB2
:10214000B12CAE0CBF1CF7018485992787FD9095B3
:10215000080F191F005112402DB73EB728503040CC
:102160000FB6F8943EBF0FBE2DBFEDB7FEB7319648
:1021700021E030E02C0F3D1FADB7BEB712963C9367
:102180002E9311974AE050E05383428381E591E01A
:1021900095838483178306830E944A23ADB7BEB715
:1021A00018960FB6F894BEBF0FBEADBFCE01019614
:1021B0000E946B008091C00085FFFCCFB0E2B0931D
:1021C000C600F60190818091C00085FFFCCF9093FE
:1021D000C600D5019C918091C00085FFFCCF9093F3
:1021E000C6008BEB94E00E946B00F701958580910F
:1021F000C00085FFFCCF9093C600D7011E966C915E
:102200008091C00085FFFCCF6093C6004091B40868
:102210005091B5084017510708F46AC0892F9927D3
:1022200087FD9095C0979C01B3E0220F331FBA95AC
:10223000E1F7880F991F280F391F862F992787FDEF
:102240009095C097820F931F8417950708F450C08C
:10225000080F191F1695079520E3F70121A388ECB5
:1022600094E00E946B002091B4083091B508C80139
:10227000059728173907A0F0C8010596821793071C
:1022800078F083ED94E00E946B000F2EF0E0AF2E0B
:10229000F0E0BF2EF0E8CF2EF0E4DF2EF02D43C0AB
:1022A000C8010A9728173907A0F0065F1F4F0217C9
:1022B000130778F08AED94E00E946B000F2EF0E097
:1022C000AF2EF0E0BF2EF0E6CF2EF0E4DF2EF02DA3
:1022D0002AC087EE94E00E946B000F2EF0E0AF2E34
:1022E000F0E0BF2EF0E4CF2EF0E4DF2EF02D1BC087
:1022F00084EF94E00E946B008091B4089091B5083F
:102300008017910710F4E1E301C0E2E3D701919651
:10231000EC930F2EF0E0AF2EF0E0BF2EF0E0CF2ECA
:10232000FFE3DF2EF02D84E095E00E946B008FEA42
:1023300094E00E946B00EFE08E2E912C8E0C9F1C7F
:1023400070E1672E712C6E0C7F1C61E1262E312C02
:102350002E0C3F1CD70151968C915197082F1127B5
:1023600007FD1095005310401F968C911F979927D9
:1023700087FD9095C09724E630E0FC01E29FC00104
:10238000E39F900DF29F900D1124080F191F509696
:102390008C91992787FD9095C0979C0153E0220F5F
:1023A000331F5A95E1F7880F991F280F391F020F25
:1023B000131F2DB73EB7285030400FB6F8943EBFDC
:1023C0000FBE2DBFEDB7FEB7319621E030E02C0FE8
:1023D0003D1FADB7BEB712963C932E9311974AE0BE
:1023E00050E05383428381E591E095838483178392
:1023F00006830E944A23ADB7BEB718960FB6F8946D
:10240000BEBF0FBEADBFCE0101960E946B00809192
:10241000C00085FFFCCFB0E2B093C600F40190810C
:102420008091C00085FFFCCF9093C600D3019C91A2
:102430008091C00085FFFCCF9093C600F101908190
:102440008091C00085FFFCCF9093C6008FE095E09F
:102450000E946B00D70152969C918091C00085FF2D
:10246000FCCF9093C600D7015396EC918091C000A9
:1024700085FFFCCFE093C600D70154962C91809144
:10248000C00085FFFCCF2093C6006091BA08709110
:10249000BB086017710708F475C0422F552747FD28
:1024A000509540535040892F992787FD9095C097AC
:1024B00024E630E0DC01A29FC001A39F900DB29FF3
:1024C000900D1124480F591F8E2F992787FD909545
:1024D000C0979C01B3E0220F331FBA95E1F7880F34
:1024E000991F280F391F420F531F4617570708F42B
:1024F00049C0040F151F1695079520E3F70122A385
:1025000088EC94E00E946B002091BA083091BB08DF
:10251000C801C2972817390780F0C801C2968217F0
:10252000930758F083ED94E00E946B00C601B5015B
:1025300020E030E040E850E420C0C80186599040D7
:102540002817390780F00A561F4F0217130758F053
:102550008AED94E00E946B00C601B50120E030E0F6
:1025600040E650E40AC087EE94E00E946B00C6018A
:10257000B50120E030E040E450E40E94F01D4B0142
:102580005C011BC084EF94E00E946B00C601B501A2
:1025900020E030E040E05FE30E94F01D4B015C0171
:1025A0008091BA089091BB088017910710F4E1E37D
:1025B00001C0E2E3D7019296EC938DE195E00E9491
:1025C0006B008FEA94E00E946B00E5E16E2E712CA7
:1025D0006E0C7F1CD70155968C915597992787FDD6
:1025E0009095C09720E137E2F9018E9F90018F9F6F
:1025F000300D9E9F300D112487010A5E1F4F77E139
:10260000272E312C2E0C3F1CA701485E5F4FEF9602
:102610005FAF4EAFEF97C7014996ED969FAF8EAF74
:10262000ED9759968C91C82EDD24C7FCD094A0ED6F
:10263000BFEFCA0EDB1EC20ED31EF7018689992793
:1026400087FD9095C09728EE33E0AC01429FC00112
:10265000439F900D529F900D1124C80ED91E87895B
:10266000992787FD9095C09724E630E0DC01A29F72
:10267000C001A39F900DB29F900D1124C80ED91ECA
:10268000808D992787FD9095C0979C0163E0220F6C
:10269000331F6A95E1F7880F991F280F391FC20E63
:1026A000D31EEDB7FEB738970FB6F894FEBF0FBE36
:1026B000EDBF319621E030E02C0F3D1FADB7BEB726
:1026C00012963C932E9311974AE050E05383428335
:1026D00081E591E095838483D782C6820E944A2354
:1026E000ADB7BEB718960FB6F894BEBF0FBEADBF5C
:1026F000CE0101960E946B008091C00085FFFCCF47
:10270000B0E2B093C600F30190818091C00085FFD4
:10271000FCCF9093C600D8019C918091C00085FFAA
:10272000FCCF9093C600F10190818091C00085FF9D
:10273000FCCF9093C600EF96AEADBFADEF979C91E6
:102740008091C00085FFFCCF9093C600ED96EEAD62
:10275000FFADED9790818091C00085FFFCCF9093F5
:10276000C6008FE095E00E946B00D7015A969C91BD
:102770008091C00085FFFCCF9093C600F701538D78
:102780008091C00085FFFCCF5093C600D7015C96B6
:102790006C918091C00085FFFCCF6093C600F7016B
:1027A000758D8091C00085FFFCCF7093C600D70166
:1027B0005E964C918091C00085FFFCCF4093C6008F
:1027C000892F992787FD9095C09720E137E2FC017A
:1027D000E29FC001E39F900DF29F900D1124042F02
:1027E000112707FD109500531040080F191F852F62
:1027F000992787FD9095C09728EE33E0AC01429F62
:10280000C001439F900D529F900D1124080F191F76
:10281000862F992787FD9095C09724E630E0DC014C
:10282000A29FC001A39F900DB29F900D1124080F8D
:10283000191F872F992787FD9095C0979C0143E02A
:10284000220F331F4A95E1F7880F991F280F391F70
:10285000020F131FEDB7FEB738970FB6F894FEBFFF
:102860000FBEEDBF319621E030E02C0F3D1FADB71C
:10287000BEB712963C932E9311974AE050E05383D3
:1028800042838AE295E095838483178306830E94BE
:102890004A23ADB7BEB718960FB6F894BEBF0FBEA9
:1028A000ADBFCE0101960E946B008091C00085FFF4
:1028B000FCCFB0E2B093C6008091B1089091B2080D
:1028C0008C159D0508F44DC00817190708F449C078
:1028D0000C0D1D1D1695079520E3F70123A388EC29
:1028E00094E00E946B002091B1083091B208C801B9
:1028F000C2972817390780F0C801C296821793073C
:1029000058F083ED94E00E946B00C501B40120E013
:1029100030E040E050E420C0C801865990402817BC
:10292000390780F00A561F4F0217130758F08AED37
:1029300094E00E946B00C501B40120E030E040EC5F
:102940005FE30AC087EE94E00E946B00C501B4010A
:1029500020E030E040E85FE30E94F01D4B015C01A5
:102960001BC084EF94E00E946B00C501B40120E01D
:1029700030E040E85EE30E94F01D4B015C01809175
:10298000B1089091B2088C159D0510F4E1E301C0E7
:10299000E2E3D7019396EC934114510439F4EB969A
:1029A0008CAE9DAEAEAEBFAEEB9711C0F1E04F1650
:1029B000510439F0E3968CAE9DAEAEAEBFAEE39758
:1029C00006C0E7968CAE9DAEAEAEBFAEE79708945C
:1029D000411C511C23E04216510409F07ECBEB96BA
:1029E0006CAD7DAD8EAD9FADEB97E7962CAD3DAD5B
:1029F0004EAD5FADE7970E94C31F88237CF1EB9635
:102A00006CAD7DAD8EAD9FADEB97E3962CAD3DAD3E
:102A10004EAD5FADE3970E94C31F87FF05C0F2E391
:102A20005F2EE3E36E2E2EC0E7966CAD7DAD8EADCE
:102A30009FADE797E3962CAD3DAD4EAD5FADE3970F
:102A40000E94C31F87FF05C071E3572E63E3662E04
:102A500037C051E3552E42E3642E2BC0E7966CAD90
:102A60007DAD8EAD9FADE797E3962CAD3DAD4EAD00
:102A70005FADE3970E94C31F87FF07C033E3532E68
:102A800022E3622E91E3792E1DC0E3966CAD7DADFD
:102A90008EAD9FADE397EB962CAD3DAD4EAD5FADEA
:102AA000EB970E94C31F87FF07C082E3582E01E304
:102AB000602E13E3712E06C0B3E35B2EA1E36A2EF2
:102AC000F2E37F2EEB966CAD7DAD8EAD9FADEB97B7
:102AD0000E94471C6B017C0180E090E00E94A520D1
:102AE0009B01AC01C501B4010E94BF1D20E030E094
:102AF00040E251E40E941D1E0E949F234DB75EB725
:102B0000485050400FB6F8945EBF0FBE4DBF0DB792
:102B10001EB70F5F1F4F9E01255F3F4FADB7BEB77A
:102B200012963C932E9311972DE235E0F8013383F2
:102B30002283D582C4820E94471CD80117967C93B9
:102B40006E9316970E947B23EDB7FEB738960FB6AB
:102B5000F894FEBF0FBEEDBF86E395E00E946B00C8
:102B6000409138075091390721E030E0FA01E20F37
:102B7000F31FE0818091C00085FFFCCFE093C60089
:102B80002F5F3F4F2A30310589F78091C00085FFC4
:102B9000FCCF80E28093C600CE010B960E946B00B2
:102BA0008091C00085FFFCCF80E28093C6008091B9
:102BB000C00085FFFCCF5092C6008091C00085FF09
:102BC000FCCF80E28093C600E7966CAD7DAD8EAD04
:102BD0009FADE7970E94471C6B017C0180E090E06D
:102BE0000E94A5209B01AC01C501B4010E94BF1D3C
:102BF00020E030E040E251E40E941D1E0E949F232D
:102C00002DB73EB7285030400FB6F8943EBF0FBEE8
:102C10002DBF0DB71EB70F5F1F4F9E01255F3F4FA2
:102C2000ADB7BEB712963C932E93119720E435E0D2
:102C3000F80133832283D582C4820E94471CD801C5
:102C400017967C936E9316970E947B23EDB7FEB781
:102C500038960FB6F894FEBF0FBEEDBF87E495E03F
:102C60000E946B0040915F075091600721E030E0C7
:102C7000FA01E20FF31FE0818091C00085FFFCCFD5
:102C8000E093C6002F5F3F4F2A30310589F78091CE
:102C9000C00085FFFCCF80E28093C600CE010B967A
:102CA0000E946B008091C00085FFFCCF80E2809382
:102CB000C6008091C00085FFFCCF6092C600809165
:102CC000C00085FFFCCF80E28093C600E3966CAD28
:102CD0007DAD8EAD9FADE3970E94471C6B017C01DB
:102CE00080E090E00E94A5209B01AC01C501B401E9
:102CF0000E94BF1D20E030E040E251E40E941D1E12
:102D00000E949F232DB73EB7285030400FB6F8944D
:102D10003EBF0FBE2DBF0DB71EB70F5F1F4F9E01E9
:102D2000255F3F4FADB7BEB712963C932E931197D8
:102D300021E535E0F80133832283D582C4820E94E5
:102D4000471CD80117967C936E9316970E947B239D
:102D5000EDB7FEB738960FB6F894FEBF0FBEEDBFC5
:102D60008091C00085FFFCCF8AE08093C60089E592
:102D700095E00E946B00409186075091870721E003
:102D800030E0FA01E20FF31FE0818091C00085FF7F
:102D9000FCCFE093C6002F5F3F4F2A30310589F703
:102DA0008091C00085FFFCCF80E28093C600CE01F9
:102DB0000B960E946B008091C00085FFFCCF80E2E3
:102DC0008093C6008091C00085FFFCCF7092C60042
:102DD0008091C00085FFFCCF80E28093C600E09127
:102DE0003807F0913907578EE0915F07F09160073F
:102DF000678EE0918607F0918707778E00913807FC
:102E000010913907EB966CAD7DAD8EAD9FADEB9714
:102E10000E945120605DD80190966C9300915F07ED
:102E200010916007E7966CAD7DAD8EAD9FADE797D5
:102E30000E945120605DF80160A300918607109107
:102E40008707E3966CAD7DAD8EAD9FADE3970E9495
:102E50005120605DD80190966C93C258DF4F0FB639
:102E6000F894DEBF0FBECDBFCF91DF911F910F91C0
:102E7000FF90EF90DF90CF90BF90AF909F908F909A
:102E80007F906F905F904F903F902F9008957F922A
:102E90008F929F92AF92BF92CF92DF92EF92FF926A
:102EA0000F931F93DF93CF9300D0CDB7DEB783E3AB
:102EB0008093B30883E695E00E946B000E94D801DE
:102EC0008FE795E00E94660589E895E00E946B0017
:102ED000E0913807F091390790A18091C00085FFFB
:102EE000FCCF9093C6000E945010E0913807F091FB
:102EF000390790A18091C00085FFFCCF9093C60058
:102F000085E995E00E946B00A0903807B0903907E2
:102F1000F501878D8133A1F0A0905F07B090600725
:102F2000F501878D813361F0A0908607B090870707
:102F3000F501878D813321F080E090E09C015901FB
:102F40000E943C028AEE91E00E9466058AEA95E0C2
:102F50000E94660501E010E07E010894E11CF11C6E
:102F6000F501E00FF11FE0818091C00085FFFCCFEB
:102F7000E093C600E983C70161E070E00E94D202DD
:102F80000F5F1F4F0A30110559F78CE693E00E943E
:102F90006B008501005E1F4FF50190A18091C0007C
:102FA00085FFFCCF9093C6008EEA95E00E946B00EF
:102FB0008AEE91E00E946605F80180818983CE0146
:102FC000019661E070E00E94D2028EEA95E00E94D4
:102FD000660584EB95E00E946B00C0903807D090A6
:102FE0003907F601878D8233A1F0C0905F07D0903A
:102FF0006007F601878D823361F0C0908607D0901C
:103000008707F601878D823321F080E090E09C01F4
:1030100069010E946E028AEE91E00E9466058BEBC8
:1030200095E00E94660501E010E07E010894E11C35
:10303000F11CF601E00FF11FE0818091C00085FFD7
:10304000FCCFE093C600E983C70161E070E00E9415
:10305000D2020F5F1F4F0A30110559F78CE693E03B
:103060000E946B008601005E1F4FF60190A18091C7
:10307000C00085FFFCCF9093C6008EEA95E00E94C9
:103080006B008AEE91E00E946605F80180818983D9
:10309000CE01019661E070E00E94D2028EEA95E0D6
:1030A0000E9466050E94A0028AEE91E00E946605D9
:1030B0008FEB95E00E94660583EC95E00E946B0023
:1030C000E0903807F0903907F701878D8333A1F03E
:1030D000E0905F07F0906007F701878D833361F020
:1030E000E0908607F0908707F701878D833321F002
:1030F00080E090E09C01790101E010E04E0108942D
:10310000811C911CF701E00FF11FE0818091C0004C
:1031100085FFFCCFE093C600E983C40161E070E065
:103120000E94D2020F5F1F4F0A30110559F78CE63B
:1031300093E00E946B008701005E1F4FF70190A192
:103140008091C00085FFFCCF9093C6008EEA95E089
:103150000E946B008AEE91E00E946605F801808172
:103160008983CE01019661E070E00E94D2028EEA6E
:1031700095E00E94660583E090E090939C08809320
:103180009B0810929A081092990820983A983998BA
:1031900088B1866088B980916800826080936800F9
:1031A00080916C00866080936C00789486B1982F33
:1031B000927082FD07C0992319F41092B90809C0D2
:1031C00081E005C0992311F482E001C083E080937F
:1031D000B9088091B9088093B8088AEC95E00E94FC
:1031E0006B008091990890919A08009741F40E9491
:1031F0003C0288E593E00E946605850111C00197B5
:1032000041F40E946E0288E593E00E946605860103
:1032100007C00E94A00288E593E00E94660587012E
:1032200021E030E0F801E20FF31FE0818091C0005F
:1032300085FFFCCFE093C6002F5F3F4F2A3031055A
:1032400089F731E0832E912C20E3722E189911C05A
:103250008091910890919208892B59F48CED95E01A
:103260000E946B009092920880929108F1E3FA8399
:103270000BC0189903C080E38A8306C0109292089D
:1032800010929108E0E3EA8380911007813309F0FE
:103290005AC08AEC95E00E946B0080919908909149
:1032A0009A080097A1F40E943C0288E593E00E94EE
:1032B00066050E946E028AEE91E00E9466050E94F9
:1032C000A0028AEE91E00E946605850129C001975F
:1032D000A1F40E943C028AEE91E00E9466050E94E1
:1032E0006E0288E593E00E9466050E94A0028AEEC5
:1032F00091E00E946605860113C00E943C028AEE9E
:1033000091E00E9466050E946E028AEE91E00E94A2
:1033100066050E94A00288E593E00E946605870189
:1033200021E030E0F801E20FF31FE0818091C0005E
:1033300085FFFCCFE093C6002F5F3F4F2A30310559
:1033400089F770921007FA81F03309F47FCF8DEE80
:1033500095E00E946B0021E030E0F801E20FF31FDE
:10336000E0818091C00085FFFCCFE093C6002F5F15
:103370003F4F2A30310589F78091380790913907FE
:103380000817190749F481E090E00E94B60DE0911A
:103390003807F09139071FC080915F07909160074F
:1033A0000817190749F482E090E00E94B60DE091F9
:1033B0005F07F09160070FC08091860790918707A3
:1033C0000817190751F483E090E00E94B60DE091D0
:1033D0008607F091870781E3808390E0E0913807CA
:1033E000F09139078081813309F491E020E0E09188
:1033F0005F07F09160078081813309F421E0922317
:10340000292F30E040E050E0E0918607F0918707F7
:103410008081813311F441E050E024233523232BB4
:1034200039F081E380930C078EEF95E00E946B00EA
:1034300083E38093B3080F900F90CF91DF911F919A
:103440000F91FF90EF90DF90CF90BF90AF909F9043
:103450008F907F900895AF92BF92CF92DF92EF92BC
:10346000FF920F931F93DF93CF93CDB7DEB7C45670
:10347000D0400FB6F894DEBF0FBECDBF7B01AA27A8
:1034800097FDA095BA2FBC01CD010E94F31F20E04B
:1034900030E040E151E40E941D1E20E030E040EAAF
:1034A00050E40E94171F5B016C010027F7FC009598
:1034B000102FC801B7010E94F31F20E030E040E167
:1034C00051E40E941D1E20E030E040EA50E40E94DA
:1034D000171F20E030E040E251E40E94171F9B01DB
:1034E000AC01C601B5010E94F01D20E030E040E0D3
:1034F00052E40E94F01D7B018C010E9451205B016F
:103500006C01B501882777FD8095982F0E94F31FE5
:103510009B01AC01C801B7010E94BF1D20E030E053
:1035200040E251E40E941D1E0E949F232DB73EB72A
:10353000285030400FB6F8943EBF0FBE2DBF0DB7D8
:103540001EB70F5F1F4F7E010894E11CF11CEDB701
:10355000FEB7F282E1822DE235E0F8013383228367
:10356000B582A4820E945120F801778366830E946D
:103570007B232DB73EB7285F3F4F0FB6F8943EBF71
:103580000FBE2DBFC7010E946B00B092B508A0927C
:10359000B408CC59DF4F0FB6F894DEBF0FBECDBFD5
:1035A000CF91DF911F910F91FF90EF90DF90CF901F
:1035B000BF90AF900895CF92DF92EF92FF920F935A
:1035C0001F93CF93DF9380E395E725EF30E0F90178
:1035D0003197F1F70197D9F70E9455010E945F01D9
:1035E0000E9466017C010E9466018C010E946601B6
:1035F0006C010E946601EC010E9466010E0D1F1D08
:103600000C0D1D1D0C0F1D1F8017910741F488E143
:1036100096E00E946B00C601BE010E942B1ADF914A
:10362000CF911F910F91FF90EF90DF90CF90089571
:103630001F93CF93DF9386E296E00E946B000E9477
:10364000D8010E943C0282E496E00E94660580E573
:1036500093EC25EF30E0F9013197F1F70197D9F7B5
:1036600086E596E00E946B008091C00085FFFCCF4C
:1036700080E38093C6008DE596E00E946B00809108
:10368000C00085FFFCCF80E38093C60080E090E01F
:10369000C0E0D0E0019627E28031920739F48CE651
:1036A00096E00E946B00219680E090E0CE31D1053B
:1036B00011F010E345C087E796E00E946B000E947E
:1036C000DB1A0E9442050E9474030E945010E09190
:1036D0003807F09139078081813349F481A1803323
:1036E00041F482A1803329F483A1803311F410E3E3
:1036F00001C011E3E0915F07F091600780818133A1
:1037000051F481A1803331F482A1803319F483A173
:10371000803309F011E3E0918607F09187078081FB
:10372000813351F481A1803331F482A1803319F4C3
:1037300083A1803309F011E380E090E0C0E0D0E0A5
:10374000189907C08CE992E00E946B00113331F4A4
:1037500003C0103309F49ECF86E301C083E3809356
:10376000B308DF91CF911F9108950F931F9383E8C2
:1037700096E00E946B000E94D8010E943C0283EAFE
:1037800096E00E9466050E94DB1A0E946E028CE69B
:1037900093E00E94660507EB16E0C8010E946605EB
:1037A0000E944205C8010E9466050E947403C80178
:1037B0000E94660585E38093B3081F910F910895D9
:1037C0008FE290E09093C5008093C4008091C10087
:1037D00088608093C1008091C10080618093C100A6
:1037E00086E08093C2000E94D8018EEB96E00E9492
:1037F00066050E943C0283ED96E00E9466050E94E9
:103800006E0288EE96E00E9466050E94A0028EEB92
:1038100096E00E94660580E593EC25EF30E0F90123
:103820003197F1F70197D9F781E38093B30880913D
:10383000B3088433F1F085333CF4823389F0833369
:1038400094F48133F9F407C08633B1F0863374F011
:103850008733C1F414C081E360E30E94C201E7CF63
:103860000E94B51BE4CF0E94340FE1CF0E9447179E
:10387000DECF0E94AD06DBCF0E948E05D8CF0E941E
:10388000181BD5CF8DEF96E00E946B00D0CFEF9242
:10389000FF920F931F937B018C0120E030E040E00A
:1038A0005FE40E94C31F88238CF0C801B70120E0A9
:1038B00030E040E05FE40E94BF1D0E9451209B0168
:1038C000AC01205030404040504806C0C801B7010C
:1038D0000E9451209B01AC01B901CA011F910F91B7
:1038E000FF90EF900895A0E0B0E0E9E7FCE10C94D0
:1038F0001323DC012B01FA019C91923008F439C1A9
:10390000EB018881823008F433C1943069F484304B
:1039100009F02FC111969C9111978981981709F48C
:1039200028C1A8E8B7E025C1843009F421C182305C
:10393000A9F4923009F01DC19A01AD0188E0EA01B5
:103940000990AE01E90109929E018150C1F7E2019F
:10395000898111969C918923818308C1923009F451
:1039600007C112962D903C901397EB018A819B81A1
:103970001496AD90BD90CD90DC901797EC80FD80B3
:103980000E811F819101281B390BB90137FF04C03B
:1039900066277727621B730B603271050CF061C0DC
:1039A000121613066CF537014801062E04C09694D2
:1039B0008794779467940A94D2F721E030E040E04E
:1039C00050E004C0220F331F441F551F6A95D2F7E1
:1039D00021503040404050402E213F214023512370
:1039E000211531054105510521F021E030E040E08D
:1039F00050E079018A01E628F728082919293CC0F6
:103A0000232BD1F1260E371E35014601062E04C0A8
:103A100096948794779467940A94D2F721E030E0E3
:103A200040E050E004C0220F331F441F551F6A9529
:103A3000D2F721503040404050402A213B214C21B8
:103A40005D21211531054105510521F021E030E0CE
:103A500040E050E059016A01A628B728C828D928B3
:103A60000BC0821593052CF01C01AA24BB24650110
:103A700003C0EE24FF24870111969C91D201119678
:103A80008C91981709F445C0992339F0A801970142
:103A90002A193B094C095D0906C0A60195012E199A
:103AA0003F09400B510B57FD08C01182338222821F
:103AB00024833583468357831DC081E0818333820D
:103AC000228288279927DC01821B930BA40BB50B5C
:103AD00084839583A683B7830DC0220F331F441FB1
:103AE000551F2483358346835783828193810197B1
:103AF000938382832481358146815781DA01C9010C
:103B00000197A109B1098F5F9F4FAF4FBF4328F3C2
:103B10000BC0918333822282EA0CFB1C0C1D1D1DFD
:103B2000E482F5820683178383E0808324813581D4
:103B30004681578157FF1AC0C901AA2797FDA09552
:103B4000BA2F81709070A070B070569547953795D8
:103B50002795822B932BA42BB52B84839583A68347
:103B6000B78382819381019693838283DF0101C0B1
:103B7000D201CD01CDB7DEB7E2E10C942F23A0E254
:103B8000B0E0E5ECFDE10C941F2369837A838B831D
:103B90009C832D833E834F835887E9E0EE2EF12CE2
:103BA000EC0EFD1ECE010196B7010E9442228E014D
:103BB0000F5E1F4FCE010596B8010E9442228A89EE
:103BC00091E089278A8BC701B801AE01475E5F4F3C
:103BD0000E94731C0E946D21A096E6E00C943B238A
:103BE000A0E2B0E0E6EFFDE10C941F2369837A8345
:103BF0008B839C832D833E834F835887F9E0EF2E80
:103C0000F12CEC0EFD1ECE010196B7010E9442225E
:103C10008E010F5E1F4FCE010596B8010E94422211
:103C2000C701B801AE01475E5F4F0E94731C0E943E
:103C30006D21A096E6E00C943B23A0E2B0E0E3E225
:103C4000FEE10C94132369837A838B839C832D83F9
:103C50003E834F835887CE010196BE01675F7F4F39
:103C60000E944222CE010596BE016F5E7F4F0E94E8
:103C700042229985923088F089898230C8F0943048
:103C800019F4823051F404C0843029F4923081F464
:103C900088E897E0C6C0923049F420E09A858A8986
:103CA000981321E02A87CE010996BBC0823049F4DF
:103CB00020E09A858A89981321E02A8BCE014196CB
:103CC000B0C02D843E844F8458886D887E888F884C
:103CD000988CEE24FF248701AA24BB24650140E0D0
:103CE00050E060E070E0E0E0F0E0C10181709070D1
:103CF000892BE9F0E60CF71C081D191D9A01AB0190
:103D00002A0D3B1D4C1D5D1D80E090E0A0E0B0E061
:103D1000E614F7040805190520F481E090E0A0E01E
:103D2000B0E0BA01A901480F591F6A1F7B1FAA0CF6
:103D3000BB1CCC1CDD1C97FE08C081E090E0A0E01D
:103D4000B0E0A82AB92ACA2ADB2A3196E032F10566
:103D500049F0660C771C881C991C5694479437943C
:103D60002794C3CFFA85EA892B893C898B859C856A
:103D7000280F391F2E5F3F4F17C0CA018170907006
:103D8000892B61F016950795F794E79480E090E011
:103D9000A0E0B0E8E82AF92A0A2B1B2B7695679554
:103DA000579547952F5F3F4F77FDE7CF0CC0440FE6
:103DB000551F661F771F17FD4160EE0CFF1C001F8B
:103DC000111F21503040403090E0590790E06907C2
:103DD00090E4790760F32B8F3C8FDB01CA018F776A
:103DE0009070A070B07080349105A105B10561F4A8
:103DF00047FD0AC0E114F1040105110529F0405CFA
:103E00005F4F6F4F7F4F40781A8EFE1711F081E0A1
:103E10008A8F4D8F5E8F6F8F78A383E0898FCE015D
:103E200049960E946D21A096E2E10C942F23A8E10F
:103E3000B0E0EDE1FFE10C941B2369837A838B836F
:103E40009C832D833E834F835887B9E0EB2EF12C62
:103E5000EC0EFD1ECE010196B7010E9442228E019A
:103E60000F5E1F4FCE010596B8010E9442222985A0
:103E7000223008F47EC03989323010F4B8017CC099
:103E80008A859A8989278A87243011F0223031F473
:103E9000231709F06EC068E877E06EC0343039F45B
:103EA0001D861E861F86188A1C861B8604C032301B
:103EB00021F484E08987B7015FC02B853C858B891D
:103EC0009C89281B390B3C872B87ED84FE840F854A
:103ED0001889AD88BE88CF88D88CEA14FB040C05FD
:103EE0001D0540F4EE0CFF1C001F111F2150304037
:103EF0003C872B8720E030E040E050E080E090E01D
:103F0000A0E0B0E460E070E0EA14FB040C051D05DD
:103F100040F0282B392B4A2B5B2BEA18FB080C09A5
:103F20001D09B695A79597958795EE0CFF1C001F68
:103F3000111F6F5F7F4F6F31710531F7DA01C901D2
:103F40008F779070A070B07080349105A105B10595
:103F500061F427FD0AC0E114F1040105110529F0FF
:103F6000205C3F4F4F4F5F4F20782D873E874F8714
:103F7000588BBE01675F7F4FCB010E946D21689611
:103F8000EAE00C943723A8E1B0E0E9ECFFE10C94FF
:103F90001F2369837A838B839C832D833E834F8386
:103FA000588789E0E82EF12CEC0EFD1ECE0101961B
:103FB000B7010E9442228E010F5E1F4FCE0105966F
:103FC000B8010E9442228985823040F0898982307E
:103FD00028F0C701B8010E94BA2201C08FEF68968D
:103FE000E6E00C943B23A8E0B0E0E9EFFFE10C949D
:103FF0001C239B01AC0183E08983DA01C901882776
:10400000B7FD83959927AA27BB27B82E211531051F
:104010004105510519F482E089833AC08823A9F04B
:10402000203080E0380780E0480780E8580729F40E
:1040300060E070E080E09FEC30C0EE24FF24870158
:10404000E21AF30A040B150B02C079018A018EE112
:10405000C82ED12CDC82CB82ED82FE820F831887A2
:10406000C801B7010E941E2101971816190684F491
:10407000082E04C0EE0CFF1C001F111F0A94D2F77B
:10408000ED82FE820F831887C81AD90ADC82CB82A0
:10409000BA82CE0101960E946D212896E9E00C9427
:1040A0003823ACE0B0E0E7E5F0E20C942323698329
:1040B0007A838B839C83CE010196BE016B5F7F4F19
:1040C0000E9442228D81823061F1823050F1843031
:1040D00021F48E81882351F12EC02F81388537FD40
:1040E00020C06E812F3131051CF06623F9F023C00A
:1040F0008EE190E0821B930B29853A854B855C8588
:1041000004C056954795379527958A95D2F766232B
:10411000B1F050954095309521953F4F4F4F5F4FEF
:104120000EC020E030E040E050E009C02FEF3FEF4C
:104130004FEF5FE704C020E030E040E050E8B90115
:10414000CA012C96E2E00C943F23A8E0B0E0EBEA31
:10415000F0E20C941B237B018C0161157105810534
:10416000910519F482E0898360C083E089838EE140
:10417000C82ED12CDC82CB82ED82FE820F83188781
:10418000C801B7010E941E21FC013197F7FF3BC017
:10419000222733272E1B3F0B57016801022E04C034
:1041A000D694C794B794A7940A94D2F740E050E00D
:1041B00060E070E081E090E0A0E0B0E004C0880F33
:1041C000991FAA1FBB1F2A95D2F70197A109B10910
:1041D0008E219F21A023B1230097A105B10521F0D5
:1041E00041E050E060E070E04A295B296C297D29BC
:1041F0004D835E836F8378878EE190E08E1B9F0BEB
:104200009C838B8312C0309781F00E2E04C0EE0C7D
:10421000FF1C001F111F0A94D2F7ED82FE820F834C
:104220001887CE1ADF0ADC82CB821A82CE01019671
:104230000E946D212896EAE00C943723EF92FF92BA
:104240000F931F937B018C0180E0E81680E0F80655
:1042500081E0080780E0180788F48FEFE816F10482
:104260000105110531F028F088E090E0A0E0B0E011
:1042700017C080E090E0A0E0B0E012C080E0E81657
:1042800080E0F80680E0080781E0180728F088E160
:1042900090E0A0E0B0E004C080E190E0A0E0B0E0F9
:1042A00020E230E040E050E0281B390B4A0B5B0B6A
:1042B00004C016950795F794E7948A95D2F7F7010D
:1042C000E057F84F8081281B310941095109C90184
:1042D0001F910F91FF90EF900895DF92EF92FF9260
:1042E0000F931F93FC01E480F58006811781D18034
:1042F0008081823048F480E090E0A0E1B0E0E82ADC
:10430000F92A0A2B1B2BA5C0843009F49FC08230E8
:1043100021F4EE24FF24870105C0E114F104010516
:10432000110519F4E0E0F0E096C0628173819FEF1F
:10433000623879070CF05BC022E83FEF261B370B91
:104340002A3131052CF020E030E040E050E02AC076
:10435000B801A701022E04C0769567955795479539
:104360000A94D2F781E090E0A0E0B0E004C0880FAA
:10437000991FAA1FBB1F2A95D2F70197A109B1095E
:104380008E219F21A023B1230097A105B10521F023
:1043900081E090E0A0E0B0E09A01AB01282B392B3E
:1043A0004A2B5B2BDA01C9018F779070A070B07037
:1043B00080349105A105B10539F427FF09C0205CBF
:1043C0003F4F4F4F5F4F04C0215C3F4F4F4F5F4FF8
:1043D000E0E0F0E02030A0E03A07A0E04A07A0E4E7
:1043E0005A0710F0E1E0F0E079018A0127C0603857
:1043F000710564F5FB01E158FF4FD801C7018F77C4
:104400009070A070B07080349105A105B10539F4A9
:10441000E7FE0DC080E490E0A0E0B0E004C08FE3D0
:1044200090E0A0E0B0E0E80EF91E0A1F1B1F17FF86
:1044300005C016950795F794E794319687E0169591
:104440000795F794E7948A95D1F705C0EE24FF24E9
:104450008701EFEFF0E06E2F679566276795902F45
:104460009F77D794DD24D7948E2F8695492F462B9E
:10447000582F5D29B701CA011F910F91FF90EF904E
:10448000DF900895FC01DB01408151812281622F80
:104490006F7770E0221F2227221F9381892F880FB8
:1044A000822B282F30E0991F9927991F11969C93F2
:1044B000119721153105A9F54115510561057105C2
:1044C00011F482E037C082E89FEF13969C938E939D
:1044D00012979A01AB0167E0220F331F441F551F4B
:1044E0006A95D1F783E08C930DC0220F331F441FD0
:1044F000551F12968D919C911397019713969C933B
:104500008E931297203080E0380780E0480780E4DF
:10451000580758F314962D933D934D935C9317973A
:1045200008952F3F310579F4411551056105710555
:1045300019F484E08C93089564FF03C081E08C93A8
:1045400012C01C9210C02F57304013963C932E93EC
:10455000129783E08C9387E0440F551F661F771FE7
:104560008A95D1F7706414964D935D936D937C9307
:10457000179708951F93DC01FB019C91923008F47A
:1045800047C08081823008F443C0943051F41196C2
:104590001C91843099F58181682F70E0611B71094D
:1045A0003FC0843021F0923031F48230B9F1818102
:1045B000882389F12DC011961C9111978230F1F05A
:1045C00081811817D9F412962D913C91139782810D
:1045D00093818217930794F028173907BCF014963B
:1045E0008D919D910D90BC91A02D248135814681A6
:1045F0005781281739074A075B0718F4112341F040
:104600000AC082179307A407B50740F4112319F0D5
:1046100061E070E005C06FEF7FEF02C060E070E026
:10462000CB011F9108952F923F924F925F926F920C
:104630007F928F929F92AF92BF92CF92DF92EF9232
:10464000FF920F931F93CF93DF93CDB7DEB7CA1BB3
:10465000DB0B0FB6F894DEBF0FBECDBF09942A88DE
:10466000398848885F846E847D848C849B84AA8486
:10467000B984C884DF80EE80FD800C811B81AA8113
:10468000B981CE0FD11D0FB6F894DEBF0FBECDBFDE
:10469000ED010895AEE0B0E0E0E5F3E20C942123F3
:1046A0000D891E898F89988D97FF02C080E090E860
:1046B00001979E838D831A83098386E08C839E01F4
:1046C000255E3F4FCE010196698D7A8DA9010E942A
:1046D000A6234D815E8157FD0AC02F813885421780
:1046E00053070CF49A01020F131FF80110822E9643
:1046F000E4E00C943D23AEE0B0E0E1E8F3E20C949A
:1047000021230D891E8986E08C831A8309838FEF0C
:104710009FE79E838D839E01275E3F4FCE010196CA
:104720006F89788DA9010E94A6232F813885020FF9
:10473000131FF80110822E96E4E00C943D23ACD2B6
:1047400020F09F3708F4C0C27EC298C2ABE0B0E050
:10475000ECEAF3E20C9413233C012B015A01FC0117
:1047600017821682838181FD03C06FEF7FEFC6C180
:104770009AE0892E1E010894211C311CF30123812B
:10478000F20123FD859123FF81912F01882309F4F4
:10479000B2C1853239F423FD859123FF81912F0128
:1047A000853229F490E0B3010E949925E7CF982F34
:1047B000FF24EE249924FFE1FF15D0F09B3269F02D
:1047C0009C3228F4903259F0933291F40EC09D320D
:1047D00049F0903369F441E024C052E0F52A84E0C6
:1047E000F82A28C098E0F92A25C0E0E1FE2A22C074
:1047F000F7FC29C0892F80538A3070F4F6FE05C07B
:10480000989C902C1124980E15C0E89CE02C112443
:10481000E80EF0E2FF2A0EC09E3229F4F6FC6BC1CE
:1048200040E4F42A07C09C3619F450E8F52A02C087
:10483000983649F4F20123FD959123FF91912F01C0
:10484000992309F0B8CF892F8554833018F080520E
:10485000833038F444E050E0A40EB51E5FE3598382
:104860000FC0933631F0933779F0933509F056C085
:1048700020C0F5018081898342E050E0A40EB51E7E
:10488000610101E010E012C0F501C080D180F6FCAA
:1048900003C06FEF7FEF02C0692D70E042E050E08F
:1048A000A40EB51EC6010E948E258C015FE7F5227D
:1048B00014C0F501C080D180F6FC03C06FEF7FEF1C
:1048C00002C0692D70E042E050E0A40EB51EC601A2
:1048D0000E9483258C0150E8F52AF3FE07C01AC018
:1048E00080E290E0B3010E949925EA948E2D90E039
:1048F00008171907A8F30EC0F601F7FC8591F7FE1B
:1049000081916F0190E0B3010E949925E110EA9432
:10491000015010400115110579F7EAC0943611F0E5
:10492000993669F5F7FE08C0F50120813181428191
:10493000538184E090E00AC0F501808191819C015F
:10494000442737FD4095542F82E090E0A80EB91E11
:104950009FE6F92257FF09C0509540953095219563
:104960003F4F4F4F5F4FE0E8FE2ACA01B901A10156
:104970002AE030E00E94C525D82ED21840C09537D5
:1049800029F41F2D1F7E2AE030E01DC01F2D197F46
:104990009F3661F0903720F4983509F0ACC00FC015
:1049A000903739F0983709F0A6C004C028E030E00D
:1049B0000AC0106114FD146020E130E004C014FD51
:1049C000166020E132E017FF08C0F50160817181B7
:1049D0008281938144E050E008C0F501808191819B
:1049E000BC0180E090E042E050E0A40EB51EA101C1
:1049F0000E94C525D82ED2188FE7F82EF122F6FE98
:104A00000BC05EEFF522D91438F4F4FE07C0F2FCB7
:104A100005C08FEEF82202C01D2D01C0192DF4FE35
:104A20000DC0FE01ED0DF11D8081803319F499EE6A
:104A3000F92208C01F5FF2FE05C003C08F2D8678E3
:104A400009F01F5F0F2DF3FC14C0F0FE0FC01E1500
:104A500010F09D2C0BC09D2C9E0C911A1E2D06C093
:104A600080E290E0B3010E9499251F5F1E15C0F3FC
:104A700004C01E1510F4E11A01C0EE2404FF0FC09B
:104A800080E390E0B3010E94992502FF1DC001FD63
:104A900003C088E790E00EC088E590E00BC0802F4F
:104AA000867891F001FF02C08BE201C080E2F7FC42
:104AB0008DE290E0B3010E94992506C080E390E06A
:104AC000B3010E9499259A94D914C0F3DA94F101A4
:104AD000ED0DF11D808190E0B3010E949925DD204C
:104AE000A9F706C080E290E0B3010E949925EA94FC
:104AF000EE20C1F743CEF30166817781CB012B967F
:104B0000E2E10C942F23FC010590615070400110EC
:104B1000D8F7809590958E0F9F1F0895FC016150E6
:104B2000704001900110D8F7809590958E0F9F1FCF
:104B300008950F931F93CF93DF938C01EB018B812B
:104B400081FF1BC082FF0DC02E813F818C819D8122
:104B50002817390764F4E881F9810193F983E88320
:104B600006C0E885F985802F0995892B31F48E815F
:104B70009F8101969F838E8302C00FEF1FEFC801B4
:104B8000DF91CF911F910F910895FA01AA27283044
:104B900051F1203181F1E8946F936E7F6E5F7F4F0A
:104BA0008F4F9F4FAF4FB1E03ED0B4E03CD0670F86
:104BB000781F891F9A1FA11D680F791F8A1F911DD9
:104BC000A11D6A0F711D811D911DA11D20D009F429
:104BD00068943F912AE0269F11243019305D31936B
:104BE000DEF6CF010895462F4770405D4193B3E054
:104BF0000FD0C9F7F6CF462F4F70405D4A3318F0FB
:104C0000495D31FD4052419302D0A9F7EACFB4E0AB
:104C1000A6959795879577956795BA95C9F7009763
:104C20006105710508959B01AC010A2E0694579504
:104C3000479537952795BA95C9F7620F731F841F5B
:104C4000951FA01D0895882371F4772321F09850B3
:104C5000872B762F07C0662311F499270DC090513A
:104C6000862B70E060E02AF09A95660F771F881F08
:104C7000DAF7880F9695879597F908959F3F31F059
:104C8000915020F4879577956795B795880F911D7A
:104C90009695879597F9089525D0A0F0BEE7B917A6
:104CA00088F4BB279F3860F41616B11D672F782F44
:104CB0008827985FF7CF869577956795B11D93956F
:104CC0009639C8F30895E894BB2766277727CB0168
:104CD00097F9089557FD9058440F551F59F05F3FBD
:104CE00071F04795880F97FB991F61F09F3F79F00E
:104CF00087950895121613061406551FF2CF469590
:104D0000F1DF08C0161617061806991FF1CF869511
:0C4D10007105610508940895F894FFCF28
:104D1C0020696E20706F776572206F6E20737461DE
:104D2C0074652066756E6374696F6E200020202098
:104D3C00666F756E640020706F7765726564206FA6
:104D4C006E200020706F7765726564206F66662038
:104D5C00002076697369626C65206C6967687420E1
:104D6C00002564000A00204272696768746E6573DE
:104D7C00733A20004D6F6973747572653A20002088
:104D8C00696E207761726E696E67207374617465E9
:104D9C002066756E6374696F6E20005761726E6960
:104DAC006E673A20506C6561736520436865636B70
:104DBC002074686520666F6C6C6F77696E67205025
:104DCC006C616E7473202D2020005741524E494E59
:104DDC004720436865636B20506C616E74730020D0
:104DEC00706C616E7431200020706C616E743220B6
:104DFC000020706C616E7433200020002054656DAF
:104E0C00706572617475726520004900440054200D
:104E1C0000204D6F69737475726520004D20002061
:104E2C004272696768746E65737320004220005784
:104E3C0061726E696E673A204D617820506C616EBC
:104E4C00747320526561636865642E20506C6561D3
:104E5C0073652072656D6F7665206120706C616E74
:104E6C007420746F206164642061206E6577206FFC
:104E7C006E650020202020205741524E494E47207D
:104E8C0020202020004D6178204E756D20506C61E3
:104E9C006E747320416464656400506C6561736565
:104EAC002052656D6F7665204F6E65002042414340
:104EBC004B2053454C4543544544200020696E20FB
:104ECC006564697420706C616E74732073746174A2
:104EDC00652066756E6374696F6E2000204F5054A8
:104EEC00494F4E5320544F2052454D4F56452000AC
:104EFC002052656D6F76652000204261636B200047
:104F0C000000000000006261636B00434F554E547B
:104F1C003A20000A0A20706C616E742073656C650F
:104F2C00637465643A20006D61785F6E756D5F6FB8
:104F3C007074696F6E735F726F74657279207072C2
:104F4C00657365743A20006D61785F6E756D5F6F87
:104F5C007074696F6E735F726F7465727920706FA5
:104F6C0073747365743A20002300204F5054494FDA
:104F7C004E2053454C454354454420002020006DA1
:104F8C0061785F6E756D5F6F7074696F6E735F7251
:104F9C006F74657279207570646174653A200020B5
:104FAC004F7074696F6E2043686F73656E203D207F
:104FBC0000206F7074696F6E2073656C6563746527
:104FCC00643A2000543A20002D004D3A2000423A19
:104FDC00200020696E2073656C6563742066756EA5
:104FEC006374696F6E2073746174652066756E638B
:104FFC0074696F6E200053656C6563742046756E22
:10500C006374696F6E3A0020312E20416464204E27
:10501C00657720506C616E740020322E20456469D7
:10502C007420506C616E74730020332E204D6F6EA3
:10503C0069746F7220506C616E7473002066756EAB
:10504C006374696F6E2073656C65637465643A2074
:10505C000020616464206E657720706C616E742032
:10506C000020656469742063757272656E742070BB
:10507C006C616E74732000206D6F6E69746F72209A
:10508C0063757272656E7420706C616E747320003F
:10509C002046554E4354494F4E2053454C4543549E
:1050AC00454420002046756E6374696F6E2043681A
:1050BC006F73656E203D20002054454D5020006CD0
:1050CC006F772072616E67653A20006869676820A7
:1050DC0072616E67653A200020494E2052414E475E
:1050EC0045200020424553542000205345434F4E49
:1050FC0044204245535400205448495244204245D0
:10510C0053542000204F5554534944452052414E8E
:10511C0047452000204D4F495354555245200020FF
:10512C00686967682072616E67653A200020425298
:10513C00494748544E455353200025750025642E8D
:10514C00253031640A00706C616E7420313A200095
:10515C0025642E25640A00706C616E7420323A202E
:10516C000025642E2530316400706C616E74203320
:10517C003A200020696E20726573756C747320730D
:10518C00746174652066756E6374696F6E2000526D
:10519C006573756C74733A20002073636F7265735A
:1051AC0020313A20000A0A504C414E542052414EB4
:1051BC004B494E473A20312E2000312E2000202F13
:1051CC00203130000A0A20322E2000322E200033EB
:1051DC002E20000A0A20332E200020706C616E7481
:1051EC002073656C65637465643A200020504C41F3
:1051FC004E542053454C4543544544200020506C9C
:10520C00616E742043686F73656E203D20002046EC
:10521C004C4147204D415820504C414E5453205244
:10522C00454143484544200054656D706572617476
:10523C007572653A200020696E206D6F6E69746F0F
:10524C00722073746174652066756E6374696F6E19
:10525C0020002020204D6F6E69746F72696E672E6E
:10526C002E2E20202000206261636B2000207761AD
:10527C00726E696E6720666C616720002031207346
:10528C0065636F6E642000203330207365636F6E2E
:10529C0064200020696E2063616C696272617469BC
:1052AC006F6E2073746174652066756E6374696FBC
:1052BC006E200020436170747572696E67204461C2
:1052CC0074612E2E2E20002323232323230023233B
:1052DC002323232323232323232323232323232392
:1052EC00232300202020202047415244454E494E84
:1052FC00472B20202020200020202020202020456B
:10530C0045343539202020202020202000206E6FAD
:10531C007420696E20737461746520003030010054
:10532C003003003043616C656E64756C61313235ED
:10533C003835313030323030303135303030313644
:10534C00303030303030300013073020486962691B
:10535C007363757333363039353230303235303023
:10536C003130303030313530303030303030003A50
:10537C00073020204265676F6E69613236303735F1
:10538C003230303235303030303030303130303007
:10539C0030303030300061070000000000000000A9
:1053AC0000010202030303030404040404040404C0
:1053BC000505050505050505050505050505050591
:1053CC000606060606060606060606060606060671
:1053DC000606060606060606060606060606060661
:1053EC000707070707070707070707070707070741
:1053FC000707070707070707070707070707070731
:10540C000707070707070707070707070707070720
:10541C000707070707070707070707070707070710
:10542C0008080808080808080808080808080808F0
:10543C0008080808080808080808080808080808E0
:10544C0008080808080808080808080808080808D0
:10545C0008080808080808080808080808080808C0
:10546C0008080808080808080808080808080808B0
:10547C0008080808080808080808080808080808A0
:10548C000808080808080808080808080808080890
:10549C000808080808080808080808080808080880
:00000001FF
